{
	"Variable.sol": {
		"WorkingWithVariables": {
			"abi": [
				{
					"inputs": [],
					"name": "decreamentUint8",
					"outputs": [],
					"stateMutability": "nonpayable",
					"type": "function"
				},
				{
					"inputs": [],
					"name": "getBalanceOfAddress",
					"outputs": [
						{
							"internalType": "uint256",
							"name": "",
							"type": "uint256"
						}
					],
					"stateMutability": "view",
					"type": "function"
				},
				{
					"inputs": [],
					"name": "increamentUint8",
					"outputs": [],
					"stateMutability": "nonpayable",
					"type": "function"
				},
				{
					"inputs": [],
					"name": "myAddress",
					"outputs": [
						{
							"internalType": "address",
							"name": "",
							"type": "address"
						}
					],
					"stateMutability": "view",
					"type": "function"
				},
				{
					"inputs": [],
					"name": "myBool",
					"outputs": [
						{
							"internalType": "bool",
							"name": "",
							"type": "bool"
						}
					],
					"stateMutability": "view",
					"type": "function"
				},
				{
					"inputs": [],
					"name": "myString",
					"outputs": [
						{
							"internalType": "string",
							"name": "",
							"type": "string"
						}
					],
					"stateMutability": "view",
					"type": "function"
				},
				{
					"inputs": [],
					"name": "myUint",
					"outputs": [
						{
							"internalType": "uint256",
							"name": "",
							"type": "uint256"
						}
					],
					"stateMutability": "view",
					"type": "function"
				},
				{
					"inputs": [],
					"name": "myUint8",
					"outputs": [
						{
							"internalType": "uint8",
							"name": "",
							"type": "uint8"
						}
					],
					"stateMutability": "view",
					"type": "function"
				},
				{
					"inputs": [
						{
							"internalType": "address",
							"name": "_address",
							"type": "address"
						}
					],
					"name": "setAdress",
					"outputs": [],
					"stateMutability": "nonpayable",
					"type": "function"
				},
				{
					"inputs": [
						{
							"internalType": "bool",
							"name": "_myBool",
							"type": "bool"
						}
					],
					"name": "setMyBool",
					"outputs": [],
					"stateMutability": "nonpayable",
					"type": "function"
				},
				{
					"inputs": [
						{
							"internalType": "string",
							"name": "_myString",
							"type": "string"
						}
					],
					"name": "setMyString",
					"outputs": [],
					"stateMutability": "nonpayable",
					"type": "function"
				},
				{
					"inputs": [
						{
							"internalType": "uint256",
							"name": "_myUint",
							"type": "uint256"
						}
					],
					"name": "setMyUint",
					"outputs": [],
					"stateMutability": "nonpayable",
					"type": "function"
				}
			],
			"devdoc": {
				"kind": "dev",
				"methods": {},
				"version": 1
			},
			"evm": {
				"assembly": "    /* \"Variable.sol\":27:813  contract WorkingWithVariables{\r... */\n  mstore(0x40, 0x80)\n  callvalue\n  dup1\n  iszero\n  tag_1\n  jumpi\n  0x00\n  dup1\n  revert\ntag_1:\n  pop\n  dataSize(sub_0)\n  dup1\n  dataOffset(sub_0)\n  0x00\n  codecopy\n  0x00\n  return\nstop\n\nsub_0: assembly {\n        /* \"Variable.sol\":27:813  contract WorkingWithVariables{\r... */\n      mstore(0x40, 0x80)\n      callvalue\n      dup1\n      iszero\n      tag_1\n      jumpi\n      0x00\n      dup1\n      revert\n    tag_1:\n      pop\n      jumpi(tag_2, lt(calldatasize, 0x04))\n      shr(0xe0, calldataload(0x00))\n      dup1\n      0x6deecdbe\n      gt\n      tag_15\n      jumpi\n      dup1\n      0x6deecdbe\n      eq\n      tag_9\n      jumpi\n      dup1\n      0x82180568\n      eq\n      tag_10\n      jumpi\n      dup1\n      0xdebbaf2b\n      eq\n      tag_11\n      jumpi\n      dup1\n      0xe2a4b2af\n      eq\n      tag_12\n      jumpi\n      dup1\n      0xe492fd84\n      eq\n      tag_13\n      jumpi\n      dup1\n      0xeb1b30d9\n      eq\n      tag_14\n      jumpi\n      jump(tag_2)\n    tag_15:\n      dup1\n      0x06540f7e\n      eq\n      tag_3\n      jumpi\n      dup1\n      0x0e807d6e\n      eq\n      tag_4\n      jumpi\n      dup1\n      0x15502612\n      eq\n      tag_5\n      jumpi\n      dup1\n      0x26b85ee1\n      eq\n      tag_6\n      jumpi\n      dup1\n      0x33b87eeb\n      eq\n      tag_7\n      jumpi\n      dup1\n      0x492bfa18\n      eq\n      tag_8\n      jumpi\n    tag_2:\n      0x00\n      dup1\n      revert\n        /* \"Variable.sol\":63:84  uint256 public myUint */\n    tag_3:\n      tag_16\n      tag_17\n      jump\t// in\n    tag_16:\n      mload(0x40)\n      tag_18\n      swap2\n      swap1\n      tag_19\n      jump\t// in\n    tag_18:\n      mload(0x40)\n      dup1\n      swap2\n      sub\n      swap1\n      return\n        /* \"Variable.sol\":487:570  function setAdress (address _address) public{\r... */\n    tag_4:\n      tag_20\n      0x04\n      dup1\n      calldatasize\n      sub\n      dup2\n      add\n      swap1\n      tag_21\n      swap2\n      swap1\n      tag_22\n      jump\t// in\n    tag_21:\n      tag_23\n      jump\t// in\n    tag_20:\n      stop\n        /* \"Variable.sol\":578:677  function getBalanceOfAddress() public view returns(uint){\r... */\n    tag_5:\n      tag_24\n      tag_25\n      jump\t// in\n    tag_24:\n      mload(0x40)\n      tag_26\n      swap2\n      swap1\n      tag_19\n      jump\t// in\n    tag_26:\n      mload(0x40)\n      dup1\n      swap2\n      sub\n      swap1\n      return\n        /* \"Variable.sol\":454:478  address public myAddress */\n    tag_6:\n      tag_27\n      tag_28\n      jump\t// in\n    tag_27:\n      mload(0x40)\n      tag_29\n      swap2\n      swap1\n      tag_30\n      jump\t// in\n    tag_29:\n      mload(0x40)\n      dup1\n      swap2\n      sub\n      swap1\n      return\n        /* \"Variable.sol\":318:379  function increamentUint8() public{\r... */\n    tag_7:\n      tag_31\n      tag_32\n      jump\t// in\n    tag_31:\n      stop\n        /* \"Variable.sol\":685:707  string public myString */\n    tag_8:\n      tag_33\n      tag_34\n      jump\t// in\n    tag_33:\n      mload(0x40)\n      tag_35\n      swap2\n      swap1\n      tag_36\n      jump\t// in\n    tag_35:\n      mload(0x40)\n      dup1\n      swap2\n      sub\n      swap1\n      return\n        /* \"Variable.sol\":175:193  bool public myBool */\n    tag_9:\n      tag_37\n      tag_38\n      jump\t// in\n    tag_37:\n      mload(0x40)\n      tag_39\n      swap2\n      swap1\n      tag_40\n      jump\t// in\n    tag_39:\n      mload(0x40)\n      dup1\n      swap2\n      sub\n      swap1\n      return\n        /* \"Variable.sol\":717:810  function setMyString( string memory _myString) public {\r... */\n    tag_10:\n      tag_41\n      0x04\n      dup1\n      calldatasize\n      sub\n      dup2\n      add\n      swap1\n      tag_42\n      swap2\n      swap1\n      tag_43\n      jump\t// in\n    tag_42:\n      tag_44\n      jump\t// in\n    tag_41:\n      stop\n        /* \"Variable.sol\":385:446  function decreamentUint8() public{\r... */\n    tag_11:\n      tag_45\n      tag_46\n      jump\t// in\n    tag_45:\n      stop\n        /* \"Variable.sol\":285:305  uint8 public myUint8 */\n    tag_12:\n      tag_47\n      tag_48\n      jump\t// in\n    tag_47:\n      mload(0x40)\n      tag_49\n      swap2\n      swap1\n      tag_50\n      jump\t// in\n    tag_49:\n      mload(0x40)\n      dup1\n      swap2\n      sub\n      swap1\n      return\n        /* \"Variable.sol\":93:167  function setMyUint(uint _myUint) public{\r... */\n    tag_13:\n      tag_51\n      0x04\n      dup1\n      calldatasize\n      sub\n      dup2\n      add\n      swap1\n      tag_52\n      swap2\n      swap1\n      tag_53\n      jump\t// in\n    tag_52:\n      tag_54\n      jump\t// in\n    tag_51:\n      stop\n        /* \"Variable.sol\":202:277  function setMyBool (bool _myBool) public{\r... */\n    tag_14:\n      tag_55\n      0x04\n      dup1\n      calldatasize\n      sub\n      dup2\n      add\n      swap1\n      tag_56\n      swap2\n      swap1\n      tag_57\n      jump\t// in\n    tag_56:\n      tag_58\n      jump\t// in\n    tag_55:\n      stop\n        /* \"Variable.sol\":63:84  uint256 public myUint */\n    tag_17:\n      sload(0x00)\n      dup2\n      jump\t// out\n        /* \"Variable.sol\":487:570  function setAdress (address _address) public{\r... */\n    tag_23:\n        /* \"Variable.sol\":554:562  _address */\n      dup1\n        /* \"Variable.sol\":542:551  myAddress */\n      0x01\n      0x02\n        /* \"Variable.sol\":542:562  myAddress = _address */\n      0x0100\n      exp\n      dup2\n      sload\n      dup2\n      0xffffffffffffffffffffffffffffffffffffffff\n      mul\n      not\n      and\n      swap1\n      dup4\n      0xffffffffffffffffffffffffffffffffffffffff\n      and\n      mul\n      or\n      swap1\n      sstore\n      pop\n        /* \"Variable.sol\":487:570  function setAdress (address _address) public{\r... */\n      pop\n      jump\t// out\n        /* \"Variable.sol\":578:677  function getBalanceOfAddress() public view returns(uint){\r... */\n    tag_25:\n        /* \"Variable.sol\":629:633  uint */\n      0x00\n        /* \"Variable.sol\":652:661  myAddress */\n      0x01\n      0x02\n      swap1\n      sload\n      swap1\n      0x0100\n      exp\n      swap1\n      div\n      0xffffffffffffffffffffffffffffffffffffffff\n      and\n        /* \"Variable.sol\":652:669  myAddress.balance */\n      0xffffffffffffffffffffffffffffffffffffffff\n      and\n      balance\n        /* \"Variable.sol\":645:669  return myAddress.balance */\n      swap1\n      pop\n        /* \"Variable.sol\":578:677  function getBalanceOfAddress() public view returns(uint){\r... */\n      swap1\n      jump\t// out\n        /* \"Variable.sol\":454:478  address public myAddress */\n    tag_28:\n      0x01\n      0x02\n      swap1\n      sload\n      swap1\n      0x0100\n      exp\n      swap1\n      div\n      0xffffffffffffffffffffffffffffffffffffffff\n      and\n      dup2\n      jump\t// out\n        /* \"Variable.sol\":318:379  function increamentUint8() public{\r... */\n    tag_32:\n        /* \"Variable.sol\":362:369  myUint8 */\n      0x01\n      dup1\n        /* \"Variable.sol\":362:371  myUint8++ */\n      dup2\n      dup2\n      swap1\n      sload\n      swap1\n      0x0100\n      exp\n      swap1\n      div\n      0xff\n      and\n      dup1\n      swap3\n      swap2\n      swap1\n      tag_62\n      swap1\n      tag_63\n      jump\t// in\n    tag_62:\n      swap2\n      swap1\n      0x0100\n      exp\n      dup2\n      sload\n      dup2\n      0xff\n      mul\n      not\n      and\n      swap1\n      dup4\n      0xff\n      and\n      mul\n      or\n      swap1\n      sstore\n      pop\n      pop\n        /* \"Variable.sol\":318:379  function increamentUint8() public{\r... */\n      jump\t// out\n        /* \"Variable.sol\":685:707  string public myString */\n    tag_34:\n      0x02\n      dup1\n      sload\n      tag_64\n      swap1\n      tag_65\n      jump\t// in\n    tag_64:\n      dup1\n      0x1f\n      add\n      0x20\n      dup1\n      swap2\n      div\n      mul\n      0x20\n      add\n      mload(0x40)\n      swap1\n      dup2\n      add\n      0x40\n      mstore\n      dup1\n      swap3\n      swap2\n      swap1\n      dup2\n      dup2\n      mstore\n      0x20\n      add\n      dup3\n      dup1\n      sload\n      tag_66\n      swap1\n      tag_65\n      jump\t// in\n    tag_66:\n      dup1\n      iszero\n      tag_67\n      jumpi\n      dup1\n      0x1f\n      lt\n      tag_68\n      jumpi\n      0x0100\n      dup1\n      dup4\n      sload\n      div\n      mul\n      dup4\n      mstore\n      swap2\n      0x20\n      add\n      swap2\n      jump(tag_67)\n    tag_68:\n      dup3\n      add\n      swap2\n      swap1\n      0x00\n      mstore\n      keccak256(0x00, 0x20)\n      swap1\n    tag_69:\n      dup2\n      sload\n      dup2\n      mstore\n      swap1\n      0x01\n      add\n      swap1\n      0x20\n      add\n      dup1\n      dup4\n      gt\n      tag_69\n      jumpi\n      dup3\n      swap1\n      sub\n      0x1f\n      and\n      dup3\n      add\n      swap2\n    tag_67:\n      pop\n      pop\n      pop\n      pop\n      pop\n      dup2\n      jump\t// out\n        /* \"Variable.sol\":175:193  bool public myBool */\n    tag_38:\n      0x01\n      0x00\n      swap1\n      sload\n      swap1\n      0x0100\n      exp\n      swap1\n      div\n      0xff\n      and\n      dup2\n      jump\t// out\n        /* \"Variable.sol\":717:810  function setMyString( string memory _myString) public {\r... */\n    tag_44:\n        /* \"Variable.sol\":793:802  _myString */\n      dup1\n        /* \"Variable.sol\":782:790  myString */\n      0x02\n        /* \"Variable.sol\":782:802  myString = _myString */\n      swap1\n      dup1\n      mload\n      swap1\n      0x20\n      add\n      swap1\n      tag_71\n      swap3\n      swap2\n      swap1\n      tag_72\n      jump\t// in\n    tag_71:\n      pop\n        /* \"Variable.sol\":717:810  function setMyString( string memory _myString) public {\r... */\n      pop\n      jump\t// out\n        /* \"Variable.sol\":385:446  function decreamentUint8() public{\r... */\n    tag_46:\n        /* \"Variable.sol\":429:436  myUint8 */\n      0x01\n      dup1\n        /* \"Variable.sol\":429:438  myUint8-- */\n      dup2\n      dup2\n      swap1\n      sload\n      swap1\n      0x0100\n      exp\n      swap1\n      div\n      0xff\n      and\n      dup1\n      swap3\n      swap2\n      swap1\n      tag_74\n      swap1\n      tag_75\n      jump\t// in\n    tag_74:\n      swap2\n      swap1\n      0x0100\n      exp\n      dup2\n      sload\n      dup2\n      0xff\n      mul\n      not\n      and\n      swap1\n      dup4\n      0xff\n      and\n      mul\n      or\n      swap1\n      sstore\n      pop\n      pop\n        /* \"Variable.sol\":385:446  function decreamentUint8() public{\r... */\n      jump\t// out\n        /* \"Variable.sol\":285:305  uint8 public myUint8 */\n    tag_48:\n      0x01\n      dup1\n      sload\n      swap1\n      0x0100\n      exp\n      swap1\n      div\n      0xff\n      and\n      dup2\n      jump\t// out\n        /* \"Variable.sol\":93:167  function setMyUint(uint _myUint) public{\r... */\n    tag_54:\n        /* \"Variable.sol\":152:159  _myUint */\n      dup1\n        /* \"Variable.sol\":143:149  myUint */\n      0x00\n        /* \"Variable.sol\":143:159  myUint = _myUint */\n      dup2\n      swap1\n      sstore\n      pop\n        /* \"Variable.sol\":93:167  function setMyUint(uint _myUint) public{\r... */\n      pop\n      jump\t// out\n        /* \"Variable.sol\":202:277  function setMyBool (bool _myBool) public{\r... */\n    tag_58:\n        /* \"Variable.sol\":262:269  _myBool */\n      dup1\n        /* \"Variable.sol\":253:259  myBool */\n      0x01\n      0x00\n        /* \"Variable.sol\":253:269  myBool = _myBool */\n      0x0100\n      exp\n      dup2\n      sload\n      dup2\n      0xff\n      mul\n      not\n      and\n      swap1\n      dup4\n      iszero\n      iszero\n      mul\n      or\n      swap1\n      sstore\n      pop\n        /* \"Variable.sol\":202:277  function setMyBool (bool _myBool) public{\r... */\n      pop\n      jump\t// out\n    tag_72:\n      dup3\n      dup1\n      sload\n      tag_78\n      swap1\n      tag_65\n      jump\t// in\n    tag_78:\n      swap1\n      0x00\n      mstore\n      keccak256(0x00, 0x20)\n      swap1\n      0x1f\n      add\n      0x20\n      swap1\n      div\n      dup2\n      add\n      swap3\n      dup3\n      tag_80\n      jumpi\n      0x00\n      dup6\n      sstore\n      jump(tag_79)\n    tag_80:\n      dup3\n      0x1f\n      lt\n      tag_81\n      jumpi\n      dup1\n      mload\n      not(0xff)\n      and\n      dup4\n      dup1\n      add\n      or\n      dup6\n      sstore\n      jump(tag_79)\n    tag_81:\n      dup3\n      dup1\n      add\n      0x01\n      add\n      dup6\n      sstore\n      dup3\n      iszero\n      tag_79\n      jumpi\n      swap2\n      dup3\n      add\n    tag_82:\n      dup3\n      dup2\n      gt\n      iszero\n      tag_83\n      jumpi\n      dup3\n      mload\n      dup3\n      sstore\n      swap2\n      0x20\n      add\n      swap2\n      swap1\n      0x01\n      add\n      swap1\n      jump(tag_82)\n    tag_83:\n    tag_79:\n      pop\n      swap1\n      pop\n      tag_84\n      swap2\n      swap1\n      tag_85\n      jump\t// in\n    tag_84:\n      pop\n      swap1\n      jump\t// out\n    tag_85:\n    tag_86:\n      dup1\n      dup3\n      gt\n      iszero\n      tag_87\n      jumpi\n      0x00\n      dup2\n      0x00\n      swap1\n      sstore\n      pop\n      0x01\n      add\n      jump(tag_86)\n    tag_87:\n      pop\n      swap1\n      jump\t// out\n        /* \"#utility.yul\":7:419   */\n    tag_89:\n        /* \"#utility.yul\":85:90   */\n      0x00\n        /* \"#utility.yul\":110:176   */\n      tag_91\n        /* \"#utility.yul\":126:175   */\n      tag_92\n        /* \"#utility.yul\":168:174   */\n      dup5\n        /* \"#utility.yul\":126:175   */\n      tag_93\n      jump\t// in\n    tag_92:\n        /* \"#utility.yul\":110:176   */\n      tag_94\n      jump\t// in\n    tag_91:\n        /* \"#utility.yul\":101:176   */\n      swap1\n      pop\n        /* \"#utility.yul\":199:205   */\n      dup3\n        /* \"#utility.yul\":192:197   */\n      dup2\n        /* \"#utility.yul\":185:206   */\n      mstore\n        /* \"#utility.yul\":237:241   */\n      0x20\n        /* \"#utility.yul\":230:235   */\n      dup2\n        /* \"#utility.yul\":226:242   */\n      add\n        /* \"#utility.yul\":275:278   */\n      dup5\n        /* \"#utility.yul\":266:272   */\n      dup5\n        /* \"#utility.yul\":261:264   */\n      dup5\n        /* \"#utility.yul\":257:273   */\n      add\n        /* \"#utility.yul\":254:279   */\n      gt\n        /* \"#utility.yul\":251:363   */\n      iszero\n      tag_95\n      jumpi\n        /* \"#utility.yul\":282:361   */\n      tag_96\n      tag_97\n      jump\t// in\n    tag_96:\n        /* \"#utility.yul\":251:363   */\n    tag_95:\n        /* \"#utility.yul\":372:413   */\n      tag_98\n        /* \"#utility.yul\":406:412   */\n      dup5\n        /* \"#utility.yul\":401:404   */\n      dup3\n        /* \"#utility.yul\":396:399   */\n      dup6\n        /* \"#utility.yul\":372:413   */\n      tag_99\n      jump\t// in\n    tag_98:\n        /* \"#utility.yul\":91:419   */\n      pop\n        /* \"#utility.yul\":7:419   */\n      swap4\n      swap3\n      pop\n      pop\n      pop\n      jump\t// out\n        /* \"#utility.yul\":425:564   */\n    tag_100:\n        /* \"#utility.yul\":471:476   */\n      0x00\n        /* \"#utility.yul\":509:515   */\n      dup2\n        /* \"#utility.yul\":496:516   */\n      calldataload\n        /* \"#utility.yul\":487:516   */\n      swap1\n      pop\n        /* \"#utility.yul\":525:558   */\n      tag_102\n        /* \"#utility.yul\":552:557   */\n      dup2\n        /* \"#utility.yul\":525:558   */\n      tag_103\n      jump\t// in\n    tag_102:\n        /* \"#utility.yul\":425:564   */\n      swap3\n      swap2\n      pop\n      pop\n      jump\t// out\n        /* \"#utility.yul\":570:703   */\n    tag_104:\n        /* \"#utility.yul\":613:618   */\n      0x00\n        /* \"#utility.yul\":651:657   */\n      dup2\n        /* \"#utility.yul\":638:658   */\n      calldataload\n        /* \"#utility.yul\":629:658   */\n      swap1\n      pop\n        /* \"#utility.yul\":667:697   */\n      tag_106\n        /* \"#utility.yul\":691:696   */\n      dup2\n        /* \"#utility.yul\":667:697   */\n      tag_107\n      jump\t// in\n    tag_106:\n        /* \"#utility.yul\":570:703   */\n      swap3\n      swap2\n      pop\n      pop\n      jump\t// out\n        /* \"#utility.yul\":723:1063   */\n    tag_108:\n        /* \"#utility.yul\":779:784   */\n      0x00\n        /* \"#utility.yul\":828:831   */\n      dup3\n        /* \"#utility.yul\":821:825   */\n      0x1f\n        /* \"#utility.yul\":813:819   */\n      dup4\n        /* \"#utility.yul\":809:826   */\n      add\n        /* \"#utility.yul\":805:832   */\n      slt\n        /* \"#utility.yul\":795:917   */\n      tag_110\n      jumpi\n        /* \"#utility.yul\":836:915   */\n      tag_111\n      tag_112\n      jump\t// in\n    tag_111:\n        /* \"#utility.yul\":795:917   */\n    tag_110:\n        /* \"#utility.yul\":953:959   */\n      dup2\n        /* \"#utility.yul\":940:960   */\n      calldataload\n        /* \"#utility.yul\":978:1057   */\n      tag_113\n        /* \"#utility.yul\":1053:1056   */\n      dup5\n        /* \"#utility.yul\":1045:1051   */\n      dup3\n        /* \"#utility.yul\":1038:1042   */\n      0x20\n        /* \"#utility.yul\":1030:1036   */\n      dup7\n        /* \"#utility.yul\":1026:1043   */\n      add\n        /* \"#utility.yul\":978:1057   */\n      tag_89\n      jump\t// in\n    tag_113:\n        /* \"#utility.yul\":969:1057   */\n      swap2\n      pop\n        /* \"#utility.yul\":785:1063   */\n      pop\n        /* \"#utility.yul\":723:1063   */\n      swap3\n      swap2\n      pop\n      pop\n      jump\t// out\n        /* \"#utility.yul\":1069:1208   */\n    tag_114:\n        /* \"#utility.yul\":1115:1120   */\n      0x00\n        /* \"#utility.yul\":1153:1159   */\n      dup2\n        /* \"#utility.yul\":1140:1160   */\n      calldataload\n        /* \"#utility.yul\":1131:1160   */\n      swap1\n      pop\n        /* \"#utility.yul\":1169:1202   */\n      tag_116\n        /* \"#utility.yul\":1196:1201   */\n      dup2\n        /* \"#utility.yul\":1169:1202   */\n      tag_117\n      jump\t// in\n    tag_116:\n        /* \"#utility.yul\":1069:1208   */\n      swap3\n      swap2\n      pop\n      pop\n      jump\t// out\n        /* \"#utility.yul\":1214:1543   */\n    tag_22:\n        /* \"#utility.yul\":1273:1279   */\n      0x00\n        /* \"#utility.yul\":1322:1324   */\n      0x20\n        /* \"#utility.yul\":1310:1319   */\n      dup3\n        /* \"#utility.yul\":1301:1308   */\n      dup5\n        /* \"#utility.yul\":1297:1320   */\n      sub\n        /* \"#utility.yul\":1293:1325   */\n      slt\n        /* \"#utility.yul\":1290:1409   */\n      iszero\n      tag_119\n      jumpi\n        /* \"#utility.yul\":1328:1407   */\n      tag_120\n      tag_121\n      jump\t// in\n    tag_120:\n        /* \"#utility.yul\":1290:1409   */\n    tag_119:\n        /* \"#utility.yul\":1448:1449   */\n      0x00\n        /* \"#utility.yul\":1473:1526   */\n      tag_122\n        /* \"#utility.yul\":1518:1525   */\n      dup5\n        /* \"#utility.yul\":1509:1515   */\n      dup3\n        /* \"#utility.yul\":1498:1507   */\n      dup6\n        /* \"#utility.yul\":1494:1516   */\n      add\n        /* \"#utility.yul\":1473:1526   */\n      tag_100\n      jump\t// in\n    tag_122:\n        /* \"#utility.yul\":1463:1526   */\n      swap2\n      pop\n        /* \"#utility.yul\":1419:1536   */\n      pop\n        /* \"#utility.yul\":1214:1543   */\n      swap3\n      swap2\n      pop\n      pop\n      jump\t// out\n        /* \"#utility.yul\":1549:1872   */\n    tag_57:\n        /* \"#utility.yul\":1605:1611   */\n      0x00\n        /* \"#utility.yul\":1654:1656   */\n      0x20\n        /* \"#utility.yul\":1642:1651   */\n      dup3\n        /* \"#utility.yul\":1633:1640   */\n      dup5\n        /* \"#utility.yul\":1629:1652   */\n      sub\n        /* \"#utility.yul\":1625:1657   */\n      slt\n        /* \"#utility.yul\":1622:1741   */\n      iszero\n      tag_124\n      jumpi\n        /* \"#utility.yul\":1660:1739   */\n      tag_125\n      tag_121\n      jump\t// in\n    tag_125:\n        /* \"#utility.yul\":1622:1741   */\n    tag_124:\n        /* \"#utility.yul\":1780:1781   */\n      0x00\n        /* \"#utility.yul\":1805:1855   */\n      tag_126\n        /* \"#utility.yul\":1847:1854   */\n      dup5\n        /* \"#utility.yul\":1838:1844   */\n      dup3\n        /* \"#utility.yul\":1827:1836   */\n      dup6\n        /* \"#utility.yul\":1823:1845   */\n      add\n        /* \"#utility.yul\":1805:1855   */\n      tag_104\n      jump\t// in\n    tag_126:\n        /* \"#utility.yul\":1795:1855   */\n      swap2\n      pop\n        /* \"#utility.yul\":1751:1865   */\n      pop\n        /* \"#utility.yul\":1549:1872   */\n      swap3\n      swap2\n      pop\n      pop\n      jump\t// out\n        /* \"#utility.yul\":1878:2387   */\n    tag_43:\n        /* \"#utility.yul\":1947:1953   */\n      0x00\n        /* \"#utility.yul\":1996:1998   */\n      0x20\n        /* \"#utility.yul\":1984:1993   */\n      dup3\n        /* \"#utility.yul\":1975:1982   */\n      dup5\n        /* \"#utility.yul\":1971:1994   */\n      sub\n        /* \"#utility.yul\":1967:1999   */\n      slt\n        /* \"#utility.yul\":1964:2083   */\n      iszero\n      tag_128\n      jumpi\n        /* \"#utility.yul\":2002:2081   */\n      tag_129\n      tag_121\n      jump\t// in\n    tag_129:\n        /* \"#utility.yul\":1964:2083   */\n    tag_128:\n        /* \"#utility.yul\":2150:2151   */\n      0x00\n        /* \"#utility.yul\":2139:2148   */\n      dup3\n        /* \"#utility.yul\":2135:2152   */\n      add\n        /* \"#utility.yul\":2122:2153   */\n      calldataload\n        /* \"#utility.yul\":2180:2198   */\n      0xffffffffffffffff\n        /* \"#utility.yul\":2172:2178   */\n      dup2\n        /* \"#utility.yul\":2169:2199   */\n      gt\n        /* \"#utility.yul\":2166:2283   */\n      iszero\n      tag_130\n      jumpi\n        /* \"#utility.yul\":2202:2281   */\n      tag_131\n      tag_132\n      jump\t// in\n    tag_131:\n        /* \"#utility.yul\":2166:2283   */\n    tag_130:\n        /* \"#utility.yul\":2307:2370   */\n      tag_133\n        /* \"#utility.yul\":2362:2369   */\n      dup5\n        /* \"#utility.yul\":2353:2359   */\n      dup3\n        /* \"#utility.yul\":2342:2351   */\n      dup6\n        /* \"#utility.yul\":2338:2360   */\n      add\n        /* \"#utility.yul\":2307:2370   */\n      tag_108\n      jump\t// in\n    tag_133:\n        /* \"#utility.yul\":2297:2370   */\n      swap2\n      pop\n        /* \"#utility.yul\":2093:2380   */\n      pop\n        /* \"#utility.yul\":1878:2387   */\n      swap3\n      swap2\n      pop\n      pop\n      jump\t// out\n        /* \"#utility.yul\":2393:2722   */\n    tag_53:\n        /* \"#utility.yul\":2452:2458   */\n      0x00\n        /* \"#utility.yul\":2501:2503   */\n      0x20\n        /* \"#utility.yul\":2489:2498   */\n      dup3\n        /* \"#utility.yul\":2480:2487   */\n      dup5\n        /* \"#utility.yul\":2476:2499   */\n      sub\n        /* \"#utility.yul\":2472:2504   */\n      slt\n        /* \"#utility.yul\":2469:2588   */\n      iszero\n      tag_135\n      jumpi\n        /* \"#utility.yul\":2507:2586   */\n      tag_136\n      tag_121\n      jump\t// in\n    tag_136:\n        /* \"#utility.yul\":2469:2588   */\n    tag_135:\n        /* \"#utility.yul\":2627:2628   */\n      0x00\n        /* \"#utility.yul\":2652:2705   */\n      tag_137\n        /* \"#utility.yul\":2697:2704   */\n      dup5\n        /* \"#utility.yul\":2688:2694   */\n      dup3\n        /* \"#utility.yul\":2677:2686   */\n      dup6\n        /* \"#utility.yul\":2673:2695   */\n      add\n        /* \"#utility.yul\":2652:2705   */\n      tag_114\n      jump\t// in\n    tag_137:\n        /* \"#utility.yul\":2642:2705   */\n      swap2\n      pop\n        /* \"#utility.yul\":2598:2715   */\n      pop\n        /* \"#utility.yul\":2393:2722   */\n      swap3\n      swap2\n      pop\n      pop\n      jump\t// out\n        /* \"#utility.yul\":2728:2846   */\n    tag_138:\n        /* \"#utility.yul\":2815:2839   */\n      tag_140\n        /* \"#utility.yul\":2833:2838   */\n      dup2\n        /* \"#utility.yul\":2815:2839   */\n      tag_141\n      jump\t// in\n    tag_140:\n        /* \"#utility.yul\":2810:2813   */\n      dup3\n        /* \"#utility.yul\":2803:2840   */\n      mstore\n        /* \"#utility.yul\":2728:2846   */\n      pop\n      pop\n      jump\t// out\n        /* \"#utility.yul\":2852:2961   */\n    tag_142:\n        /* \"#utility.yul\":2933:2954   */\n      tag_144\n        /* \"#utility.yul\":2948:2953   */\n      dup2\n        /* \"#utility.yul\":2933:2954   */\n      tag_145\n      jump\t// in\n    tag_144:\n        /* \"#utility.yul\":2928:2931   */\n      dup3\n        /* \"#utility.yul\":2921:2955   */\n      mstore\n        /* \"#utility.yul\":2852:2961   */\n      pop\n      pop\n      jump\t// out\n        /* \"#utility.yul\":2967:3331   */\n    tag_146:\n        /* \"#utility.yul\":3055:3058   */\n      0x00\n        /* \"#utility.yul\":3083:3122   */\n      tag_148\n        /* \"#utility.yul\":3116:3121   */\n      dup3\n        /* \"#utility.yul\":3083:3122   */\n      tag_149\n      jump\t// in\n    tag_148:\n        /* \"#utility.yul\":3138:3209   */\n      tag_150\n        /* \"#utility.yul\":3202:3208   */\n      dup2\n        /* \"#utility.yul\":3197:3200   */\n      dup6\n        /* \"#utility.yul\":3138:3209   */\n      tag_151\n      jump\t// in\n    tag_150:\n        /* \"#utility.yul\":3131:3209   */\n      swap4\n      pop\n        /* \"#utility.yul\":3218:3270   */\n      tag_152\n        /* \"#utility.yul\":3263:3269   */\n      dup2\n        /* \"#utility.yul\":3258:3261   */\n      dup6\n        /* \"#utility.yul\":3251:3255   */\n      0x20\n        /* \"#utility.yul\":3244:3249   */\n      dup7\n        /* \"#utility.yul\":3240:3256   */\n      add\n        /* \"#utility.yul\":3218:3270   */\n      tag_153\n      jump\t// in\n    tag_152:\n        /* \"#utility.yul\":3295:3324   */\n      tag_154\n        /* \"#utility.yul\":3317:3323   */\n      dup2\n        /* \"#utility.yul\":3295:3324   */\n      tag_155\n      jump\t// in\n    tag_154:\n        /* \"#utility.yul\":3290:3293   */\n      dup5\n        /* \"#utility.yul\":3286:3325   */\n      add\n        /* \"#utility.yul\":3279:3325   */\n      swap2\n      pop\n        /* \"#utility.yul\":3059:3331   */\n      pop\n        /* \"#utility.yul\":2967:3331   */\n      swap3\n      swap2\n      pop\n      pop\n      jump\t// out\n        /* \"#utility.yul\":3337:3455   */\n    tag_156:\n        /* \"#utility.yul\":3424:3448   */\n      tag_158\n        /* \"#utility.yul\":3442:3447   */\n      dup2\n        /* \"#utility.yul\":3424:3448   */\n      tag_159\n      jump\t// in\n    tag_158:\n        /* \"#utility.yul\":3419:3422   */\n      dup3\n        /* \"#utility.yul\":3412:3449   */\n      mstore\n        /* \"#utility.yul\":3337:3455   */\n      pop\n      pop\n      jump\t// out\n        /* \"#utility.yul\":3461:3573   */\n    tag_160:\n        /* \"#utility.yul\":3544:3566   */\n      tag_162\n        /* \"#utility.yul\":3560:3565   */\n      dup2\n        /* \"#utility.yul\":3544:3566   */\n      tag_163\n      jump\t// in\n    tag_162:\n        /* \"#utility.yul\":3539:3542   */\n      dup3\n        /* \"#utility.yul\":3532:3567   */\n      mstore\n        /* \"#utility.yul\":3461:3573   */\n      pop\n      pop\n      jump\t// out\n        /* \"#utility.yul\":3579:3801   */\n    tag_30:\n        /* \"#utility.yul\":3672:3676   */\n      0x00\n        /* \"#utility.yul\":3710:3712   */\n      0x20\n        /* \"#utility.yul\":3699:3708   */\n      dup3\n        /* \"#utility.yul\":3695:3713   */\n      add\n        /* \"#utility.yul\":3687:3713   */\n      swap1\n      pop\n        /* \"#utility.yul\":3723:3794   */\n      tag_165\n        /* \"#utility.yul\":3791:3792   */\n      0x00\n        /* \"#utility.yul\":3780:3789   */\n      dup4\n        /* \"#utility.yul\":3776:3793   */\n      add\n        /* \"#utility.yul\":3767:3773   */\n      dup5\n        /* \"#utility.yul\":3723:3794   */\n      tag_138\n      jump\t// in\n    tag_165:\n        /* \"#utility.yul\":3579:3801   */\n      swap3\n      swap2\n      pop\n      pop\n      jump\t// out\n        /* \"#utility.yul\":3807:4017   */\n    tag_40:\n        /* \"#utility.yul\":3894:3898   */\n      0x00\n        /* \"#utility.yul\":3932:3934   */\n      0x20\n        /* \"#utility.yul\":3921:3930   */\n      dup3\n        /* \"#utility.yul\":3917:3935   */\n      add\n        /* \"#utility.yul\":3909:3935   */\n      swap1\n      pop\n        /* \"#utility.yul\":3945:4010   */\n      tag_167\n        /* \"#utility.yul\":4007:4008   */\n      0x00\n        /* \"#utility.yul\":3996:4005   */\n      dup4\n        /* \"#utility.yul\":3992:4009   */\n      add\n        /* \"#utility.yul\":3983:3989   */\n      dup5\n        /* \"#utility.yul\":3945:4010   */\n      tag_142\n      jump\t// in\n    tag_167:\n        /* \"#utility.yul\":3807:4017   */\n      swap3\n      swap2\n      pop\n      pop\n      jump\t// out\n        /* \"#utility.yul\":4023:4336   */\n    tag_36:\n        /* \"#utility.yul\":4136:4140   */\n      0x00\n        /* \"#utility.yul\":4174:4176   */\n      0x20\n        /* \"#utility.yul\":4163:4172   */\n      dup3\n        /* \"#utility.yul\":4159:4177   */\n      add\n        /* \"#utility.yul\":4151:4177   */\n      swap1\n      pop\n        /* \"#utility.yul\":4223:4232   */\n      dup2\n        /* \"#utility.yul\":4217:4221   */\n      dup2\n        /* \"#utility.yul\":4213:4233   */\n      sub\n        /* \"#utility.yul\":4209:4210   */\n      0x00\n        /* \"#utility.yul\":4198:4207   */\n      dup4\n        /* \"#utility.yul\":4194:4211   */\n      add\n        /* \"#utility.yul\":4187:4234   */\n      mstore\n        /* \"#utility.yul\":4251:4329   */\n      tag_169\n        /* \"#utility.yul\":4324:4328   */\n      dup2\n        /* \"#utility.yul\":4315:4321   */\n      dup5\n        /* \"#utility.yul\":4251:4329   */\n      tag_146\n      jump\t// in\n    tag_169:\n        /* \"#utility.yul\":4243:4329   */\n      swap1\n      pop\n        /* \"#utility.yul\":4023:4336   */\n      swap3\n      swap2\n      pop\n      pop\n      jump\t// out\n        /* \"#utility.yul\":4342:4564   */\n    tag_19:\n        /* \"#utility.yul\":4435:4439   */\n      0x00\n        /* \"#utility.yul\":4473:4475   */\n      0x20\n        /* \"#utility.yul\":4462:4471   */\n      dup3\n        /* \"#utility.yul\":4458:4476   */\n      add\n        /* \"#utility.yul\":4450:4476   */\n      swap1\n      pop\n        /* \"#utility.yul\":4486:4557   */\n      tag_171\n        /* \"#utility.yul\":4554:4555   */\n      0x00\n        /* \"#utility.yul\":4543:4552   */\n      dup4\n        /* \"#utility.yul\":4539:4556   */\n      add\n        /* \"#utility.yul\":4530:4536   */\n      dup5\n        /* \"#utility.yul\":4486:4557   */\n      tag_156\n      jump\t// in\n    tag_171:\n        /* \"#utility.yul\":4342:4564   */\n      swap3\n      swap2\n      pop\n      pop\n      jump\t// out\n        /* \"#utility.yul\":4570:4784   */\n    tag_50:\n        /* \"#utility.yul\":4659:4663   */\n      0x00\n        /* \"#utility.yul\":4697:4699   */\n      0x20\n        /* \"#utility.yul\":4686:4695   */\n      dup3\n        /* \"#utility.yul\":4682:4700   */\n      add\n        /* \"#utility.yul\":4674:4700   */\n      swap1\n      pop\n        /* \"#utility.yul\":4710:4777   */\n      tag_173\n        /* \"#utility.yul\":4774:4775   */\n      0x00\n        /* \"#utility.yul\":4763:4772   */\n      dup4\n        /* \"#utility.yul\":4759:4776   */\n      add\n        /* \"#utility.yul\":4750:4756   */\n      dup5\n        /* \"#utility.yul\":4710:4777   */\n      tag_160\n      jump\t// in\n    tag_173:\n        /* \"#utility.yul\":4570:4784   */\n      swap3\n      swap2\n      pop\n      pop\n      jump\t// out\n        /* \"#utility.yul\":4790:4919   */\n    tag_94:\n        /* \"#utility.yul\":4824:4830   */\n      0x00\n        /* \"#utility.yul\":4851:4871   */\n      tag_175\n      tag_176\n      jump\t// in\n    tag_175:\n        /* \"#utility.yul\":4841:4871   */\n      swap1\n      pop\n        /* \"#utility.yul\":4880:4913   */\n      tag_177\n        /* \"#utility.yul\":4908:4912   */\n      dup3\n        /* \"#utility.yul\":4900:4906   */\n      dup3\n        /* \"#utility.yul\":4880:4913   */\n      tag_178\n      jump\t// in\n    tag_177:\n        /* \"#utility.yul\":4790:4919   */\n      swap2\n      swap1\n      pop\n      jump\t// out\n        /* \"#utility.yul\":4925:5000   */\n    tag_176:\n        /* \"#utility.yul\":4958:4964   */\n      0x00\n        /* \"#utility.yul\":4991:4993   */\n      0x40\n        /* \"#utility.yul\":4985:4994   */\n      mload\n        /* \"#utility.yul\":4975:4994   */\n      swap1\n      pop\n        /* \"#utility.yul\":4925:5000   */\n      swap1\n      jump\t// out\n        /* \"#utility.yul\":5006:5314   */\n    tag_93:\n        /* \"#utility.yul\":5068:5072   */\n      0x00\n        /* \"#utility.yul\":5158:5176   */\n      0xffffffffffffffff\n        /* \"#utility.yul\":5150:5156   */\n      dup3\n        /* \"#utility.yul\":5147:5177   */\n      gt\n        /* \"#utility.yul\":5144:5200   */\n      iszero\n      tag_181\n      jumpi\n        /* \"#utility.yul\":5180:5198   */\n      tag_182\n      tag_183\n      jump\t// in\n    tag_182:\n        /* \"#utility.yul\":5144:5200   */\n    tag_181:\n        /* \"#utility.yul\":5218:5247   */\n      tag_184\n        /* \"#utility.yul\":5240:5246   */\n      dup3\n        /* \"#utility.yul\":5218:5247   */\n      tag_155\n      jump\t// in\n    tag_184:\n        /* \"#utility.yul\":5210:5247   */\n      swap1\n      pop\n        /* \"#utility.yul\":5302:5306   */\n      0x20\n        /* \"#utility.yul\":5296:5300   */\n      dup2\n        /* \"#utility.yul\":5292:5307   */\n      add\n        /* \"#utility.yul\":5284:5307   */\n      swap1\n      pop\n        /* \"#utility.yul\":5006:5314   */\n      swap2\n      swap1\n      pop\n      jump\t// out\n        /* \"#utility.yul\":5320:5419   */\n    tag_149:\n        /* \"#utility.yul\":5372:5378   */\n      0x00\n        /* \"#utility.yul\":5406:5411   */\n      dup2\n        /* \"#utility.yul\":5400:5412   */\n      mload\n        /* \"#utility.yul\":5390:5412   */\n      swap1\n      pop\n        /* \"#utility.yul\":5320:5419   */\n      swap2\n      swap1\n      pop\n      jump\t// out\n        /* \"#utility.yul\":5425:5594   */\n    tag_151:\n        /* \"#utility.yul\":5509:5520   */\n      0x00\n        /* \"#utility.yul\":5543:5549   */\n      dup3\n        /* \"#utility.yul\":5538:5541   */\n      dup3\n        /* \"#utility.yul\":5531:5550   */\n      mstore\n        /* \"#utility.yul\":5583:5587   */\n      0x20\n        /* \"#utility.yul\":5578:5581   */\n      dup3\n        /* \"#utility.yul\":5574:5588   */\n      add\n        /* \"#utility.yul\":5559:5588   */\n      swap1\n      pop\n        /* \"#utility.yul\":5425:5594   */\n      swap3\n      swap2\n      pop\n      pop\n      jump\t// out\n        /* \"#utility.yul\":5600:5696   */\n    tag_141:\n        /* \"#utility.yul\":5637:5644   */\n      0x00\n        /* \"#utility.yul\":5666:5690   */\n      tag_188\n        /* \"#utility.yul\":5684:5689   */\n      dup3\n        /* \"#utility.yul\":5666:5690   */\n      tag_189\n      jump\t// in\n    tag_188:\n        /* \"#utility.yul\":5655:5690   */\n      swap1\n      pop\n        /* \"#utility.yul\":5600:5696   */\n      swap2\n      swap1\n      pop\n      jump\t// out\n        /* \"#utility.yul\":5702:5792   */\n    tag_145:\n        /* \"#utility.yul\":5736:5743   */\n      0x00\n        /* \"#utility.yul\":5779:5784   */\n      dup2\n        /* \"#utility.yul\":5772:5785   */\n      iszero\n        /* \"#utility.yul\":5765:5786   */\n      iszero\n        /* \"#utility.yul\":5754:5786   */\n      swap1\n      pop\n        /* \"#utility.yul\":5702:5792   */\n      swap2\n      swap1\n      pop\n      jump\t// out\n        /* \"#utility.yul\":5798:5924   */\n    tag_189:\n        /* \"#utility.yul\":5835:5842   */\n      0x00\n        /* \"#utility.yul\":5875:5917   */\n      0xffffffffffffffffffffffffffffffffffffffff\n        /* \"#utility.yul\":5868:5873   */\n      dup3\n        /* \"#utility.yul\":5864:5918   */\n      and\n        /* \"#utility.yul\":5853:5918   */\n      swap1\n      pop\n        /* \"#utility.yul\":5798:5924   */\n      swap2\n      swap1\n      pop\n      jump\t// out\n        /* \"#utility.yul\":5930:6007   */\n    tag_159:\n        /* \"#utility.yul\":5967:5974   */\n      0x00\n        /* \"#utility.yul\":5996:6001   */\n      dup2\n        /* \"#utility.yul\":5985:6001   */\n      swap1\n      pop\n        /* \"#utility.yul\":5930:6007   */\n      swap2\n      swap1\n      pop\n      jump\t// out\n        /* \"#utility.yul\":6013:6099   */\n    tag_163:\n        /* \"#utility.yul\":6048:6055   */\n      0x00\n        /* \"#utility.yul\":6088:6092   */\n      0xff\n        /* \"#utility.yul\":6081:6086   */\n      dup3\n        /* \"#utility.yul\":6077:6093   */\n      and\n        /* \"#utility.yul\":6066:6093   */\n      swap1\n      pop\n        /* \"#utility.yul\":6013:6099   */\n      swap2\n      swap1\n      pop\n      jump\t// out\n        /* \"#utility.yul\":6105:6259   */\n    tag_99:\n        /* \"#utility.yul\":6189:6195   */\n      dup3\n        /* \"#utility.yul\":6184:6187   */\n      dup2\n        /* \"#utility.yul\":6179:6182   */\n      dup4\n        /* \"#utility.yul\":6166:6196   */\n      calldatacopy\n        /* \"#utility.yul\":6251:6252   */\n      0x00\n        /* \"#utility.yul\":6242:6248   */\n      dup4\n        /* \"#utility.yul\":6237:6240   */\n      dup4\n        /* \"#utility.yul\":6233:6249   */\n      add\n        /* \"#utility.yul\":6226:6253   */\n      mstore\n        /* \"#utility.yul\":6105:6259   */\n      pop\n      pop\n      pop\n      jump\t// out\n        /* \"#utility.yul\":6265:6572   */\n    tag_153:\n        /* \"#utility.yul\":6333:6334   */\n      0x00\n        /* \"#utility.yul\":6343:6456   */\n    tag_196:\n        /* \"#utility.yul\":6357:6363   */\n      dup4\n        /* \"#utility.yul\":6354:6355   */\n      dup2\n        /* \"#utility.yul\":6351:6364   */\n      lt\n        /* \"#utility.yul\":6343:6456   */\n      iszero\n      tag_198\n      jumpi\n        /* \"#utility.yul\":6442:6443   */\n      dup1\n        /* \"#utility.yul\":6437:6440   */\n      dup3\n        /* \"#utility.yul\":6433:6444   */\n      add\n        /* \"#utility.yul\":6427:6445   */\n      mload\n        /* \"#utility.yul\":6423:6424   */\n      dup2\n        /* \"#utility.yul\":6418:6421   */\n      dup5\n        /* \"#utility.yul\":6414:6425   */\n      add\n        /* \"#utility.yul\":6407:6446   */\n      mstore\n        /* \"#utility.yul\":6379:6381   */\n      0x20\n        /* \"#utility.yul\":6376:6377   */\n      dup2\n        /* \"#utility.yul\":6372:6382   */\n      add\n        /* \"#utility.yul\":6367:6382   */\n      swap1\n      pop\n        /* \"#utility.yul\":6343:6456   */\n      jump(tag_196)\n    tag_198:\n        /* \"#utility.yul\":6474:6480   */\n      dup4\n        /* \"#utility.yul\":6471:6472   */\n      dup2\n        /* \"#utility.yul\":6468:6481   */\n      gt\n        /* \"#utility.yul\":6465:6566   */\n      iszero\n      tag_199\n      jumpi\n        /* \"#utility.yul\":6554:6555   */\n      0x00\n        /* \"#utility.yul\":6545:6551   */\n      dup5\n        /* \"#utility.yul\":6540:6543   */\n      dup5\n        /* \"#utility.yul\":6536:6552   */\n      add\n        /* \"#utility.yul\":6529:6556   */\n      mstore\n        /* \"#utility.yul\":6465:6566   */\n    tag_199:\n        /* \"#utility.yul\":6314:6572   */\n      pop\n        /* \"#utility.yul\":6265:6572   */\n      pop\n      pop\n      pop\n      jump\t// out\n        /* \"#utility.yul\":6578:6745   */\n    tag_75:\n        /* \"#utility.yul\":6615:6618   */\n      0x00\n        /* \"#utility.yul\":6638:6660   */\n      tag_201\n        /* \"#utility.yul\":6654:6659   */\n      dup3\n        /* \"#utility.yul\":6638:6660   */\n      tag_163\n      jump\t// in\n    tag_201:\n        /* \"#utility.yul\":6629:6660   */\n      swap2\n      pop\n        /* \"#utility.yul\":6682:6686   */\n      0x00\n        /* \"#utility.yul\":6675:6680   */\n      dup3\n        /* \"#utility.yul\":6672:6687   */\n      eq\n        /* \"#utility.yul\":6669:6710   */\n      iszero\n      tag_202\n      jumpi\n        /* \"#utility.yul\":6690:6708   */\n      tag_203\n      tag_204\n      jump\t// in\n    tag_203:\n        /* \"#utility.yul\":6669:6710   */\n    tag_202:\n        /* \"#utility.yul\":6737:6738   */\n      0x01\n        /* \"#utility.yul\":6730:6735   */\n      dup3\n        /* \"#utility.yul\":6726:6739   */\n      sub\n        /* \"#utility.yul\":6719:6739   */\n      swap1\n      pop\n        /* \"#utility.yul\":6578:6745   */\n      swap2\n      swap1\n      pop\n      jump\t// out\n        /* \"#utility.yul\":6751:7071   */\n    tag_65:\n        /* \"#utility.yul\":6795:6801   */\n      0x00\n        /* \"#utility.yul\":6832:6833   */\n      0x02\n        /* \"#utility.yul\":6826:6830   */\n      dup3\n        /* \"#utility.yul\":6822:6834   */\n      div\n        /* \"#utility.yul\":6812:6834   */\n      swap1\n      pop\n        /* \"#utility.yul\":6879:6880   */\n      0x01\n        /* \"#utility.yul\":6873:6877   */\n      dup3\n        /* \"#utility.yul\":6869:6881   */\n      and\n        /* \"#utility.yul\":6900:6918   */\n      dup1\n        /* \"#utility.yul\":6890:6971   */\n      tag_206\n      jumpi\n        /* \"#utility.yul\":6956:6960   */\n      0x7f\n        /* \"#utility.yul\":6948:6954   */\n      dup3\n        /* \"#utility.yul\":6944:6961   */\n      and\n        /* \"#utility.yul\":6934:6961   */\n      swap2\n      pop\n        /* \"#utility.yul\":6890:6971   */\n    tag_206:\n        /* \"#utility.yul\":7018:7020   */\n      0x20\n        /* \"#utility.yul\":7010:7016   */\n      dup3\n        /* \"#utility.yul\":7007:7021   */\n      lt\n        /* \"#utility.yul\":6987:7005   */\n      dup2\n        /* \"#utility.yul\":6984:7022   */\n      eq\n        /* \"#utility.yul\":6981:7065   */\n      iszero\n      tag_207\n      jumpi\n        /* \"#utility.yul\":7037:7055   */\n      tag_208\n      tag_209\n      jump\t// in\n    tag_208:\n        /* \"#utility.yul\":6981:7065   */\n    tag_207:\n        /* \"#utility.yul\":6802:7071   */\n      pop\n        /* \"#utility.yul\":6751:7071   */\n      swap2\n      swap1\n      pop\n      jump\t// out\n        /* \"#utility.yul\":7077:7358   */\n    tag_178:\n        /* \"#utility.yul\":7160:7187   */\n      tag_211\n        /* \"#utility.yul\":7182:7186   */\n      dup3\n        /* \"#utility.yul\":7160:7187   */\n      tag_155\n      jump\t// in\n    tag_211:\n        /* \"#utility.yul\":7152:7158   */\n      dup2\n        /* \"#utility.yul\":7148:7188   */\n      add\n        /* \"#utility.yul\":7290:7296   */\n      dup2\n        /* \"#utility.yul\":7278:7288   */\n      dup2\n        /* \"#utility.yul\":7275:7297   */\n      lt\n        /* \"#utility.yul\":7254:7272   */\n      0xffffffffffffffff\n        /* \"#utility.yul\":7242:7252   */\n      dup3\n        /* \"#utility.yul\":7239:7273   */\n      gt\n        /* \"#utility.yul\":7236:7298   */\n      or\n        /* \"#utility.yul\":7233:7321   */\n      iszero\n      tag_212\n      jumpi\n        /* \"#utility.yul\":7301:7319   */\n      tag_213\n      tag_183\n      jump\t// in\n    tag_213:\n        /* \"#utility.yul\":7233:7321   */\n    tag_212:\n        /* \"#utility.yul\":7341:7351   */\n      dup1\n        /* \"#utility.yul\":7337:7339   */\n      0x40\n        /* \"#utility.yul\":7330:7352   */\n      mstore\n        /* \"#utility.yul\":7120:7358   */\n      pop\n        /* \"#utility.yul\":7077:7358   */\n      pop\n      pop\n      jump\t// out\n        /* \"#utility.yul\":7364:7531   */\n    tag_63:\n        /* \"#utility.yul\":7401:7404   */\n      0x00\n        /* \"#utility.yul\":7424:7446   */\n      tag_215\n        /* \"#utility.yul\":7440:7445   */\n      dup3\n        /* \"#utility.yul\":7424:7446   */\n      tag_163\n      jump\t// in\n    tag_215:\n        /* \"#utility.yul\":7415:7446   */\n      swap2\n      pop\n        /* \"#utility.yul\":7468:7472   */\n      0xff\n        /* \"#utility.yul\":7461:7466   */\n      dup3\n        /* \"#utility.yul\":7458:7473   */\n      eq\n        /* \"#utility.yul\":7455:7496   */\n      iszero\n      tag_216\n      jumpi\n        /* \"#utility.yul\":7476:7494   */\n      tag_217\n      tag_204\n      jump\t// in\n    tag_217:\n        /* \"#utility.yul\":7455:7496   */\n    tag_216:\n        /* \"#utility.yul\":7523:7524   */\n      0x01\n        /* \"#utility.yul\":7516:7521   */\n      dup3\n        /* \"#utility.yul\":7512:7525   */\n      add\n        /* \"#utility.yul\":7505:7525   */\n      swap1\n      pop\n        /* \"#utility.yul\":7364:7531   */\n      swap2\n      swap1\n      pop\n      jump\t// out\n        /* \"#utility.yul\":7537:7717   */\n    tag_204:\n        /* \"#utility.yul\":7585:7662   */\n      0x4e487b7100000000000000000000000000000000000000000000000000000000\n        /* \"#utility.yul\":7582:7583   */\n      0x00\n        /* \"#utility.yul\":7575:7663   */\n      mstore\n        /* \"#utility.yul\":7682:7686   */\n      0x11\n        /* \"#utility.yul\":7679:7680   */\n      0x04\n        /* \"#utility.yul\":7672:7687   */\n      mstore\n        /* \"#utility.yul\":7706:7710   */\n      0x24\n        /* \"#utility.yul\":7703:7704   */\n      0x00\n        /* \"#utility.yul\":7696:7711   */\n      revert\n        /* \"#utility.yul\":7723:7903   */\n    tag_209:\n        /* \"#utility.yul\":7771:7848   */\n      0x4e487b7100000000000000000000000000000000000000000000000000000000\n        /* \"#utility.yul\":7768:7769   */\n      0x00\n        /* \"#utility.yul\":7761:7849   */\n      mstore\n        /* \"#utility.yul\":7868:7872   */\n      0x22\n        /* \"#utility.yul\":7865:7866   */\n      0x04\n        /* \"#utility.yul\":7858:7873   */\n      mstore\n        /* \"#utility.yul\":7892:7896   */\n      0x24\n        /* \"#utility.yul\":7889:7890   */\n      0x00\n        /* \"#utility.yul\":7882:7897   */\n      revert\n        /* \"#utility.yul\":7909:8089   */\n    tag_183:\n        /* \"#utility.yul\":7957:8034   */\n      0x4e487b7100000000000000000000000000000000000000000000000000000000\n        /* \"#utility.yul\":7954:7955   */\n      0x00\n        /* \"#utility.yul\":7947:8035   */\n      mstore\n        /* \"#utility.yul\":8054:8058   */\n      0x41\n        /* \"#utility.yul\":8051:8052   */\n      0x04\n        /* \"#utility.yul\":8044:8059   */\n      mstore\n        /* \"#utility.yul\":8078:8082   */\n      0x24\n        /* \"#utility.yul\":8075:8076   */\n      0x00\n        /* \"#utility.yul\":8068:8083   */\n      revert\n        /* \"#utility.yul\":8095:8212   */\n    tag_112:\n        /* \"#utility.yul\":8204:8205   */\n      0x00\n        /* \"#utility.yul\":8201:8202   */\n      dup1\n        /* \"#utility.yul\":8194:8206   */\n      revert\n        /* \"#utility.yul\":8218:8335   */\n    tag_97:\n        /* \"#utility.yul\":8327:8328   */\n      0x00\n        /* \"#utility.yul\":8324:8325   */\n      dup1\n        /* \"#utility.yul\":8317:8329   */\n      revert\n        /* \"#utility.yul\":8341:8458   */\n    tag_132:\n        /* \"#utility.yul\":8450:8451   */\n      0x00\n        /* \"#utility.yul\":8447:8448   */\n      dup1\n        /* \"#utility.yul\":8440:8452   */\n      revert\n        /* \"#utility.yul\":8464:8581   */\n    tag_121:\n        /* \"#utility.yul\":8573:8574   */\n      0x00\n        /* \"#utility.yul\":8570:8571   */\n      dup1\n        /* \"#utility.yul\":8563:8575   */\n      revert\n        /* \"#utility.yul\":8587:8689   */\n    tag_155:\n        /* \"#utility.yul\":8628:8634   */\n      0x00\n        /* \"#utility.yul\":8679:8681   */\n      0x1f\n        /* \"#utility.yul\":8675:8682   */\n      not\n        /* \"#utility.yul\":8670:8672   */\n      0x1f\n        /* \"#utility.yul\":8663:8668   */\n      dup4\n        /* \"#utility.yul\":8659:8673   */\n      add\n        /* \"#utility.yul\":8655:8683   */\n      and\n        /* \"#utility.yul\":8645:8683   */\n      swap1\n      pop\n        /* \"#utility.yul\":8587:8689   */\n      swap2\n      swap1\n      pop\n      jump\t// out\n        /* \"#utility.yul\":8695:8817   */\n    tag_103:\n        /* \"#utility.yul\":8768:8792   */\n      tag_227\n        /* \"#utility.yul\":8786:8791   */\n      dup2\n        /* \"#utility.yul\":8768:8792   */\n      tag_141\n      jump\t// in\n    tag_227:\n        /* \"#utility.yul\":8761:8766   */\n      dup2\n        /* \"#utility.yul\":8758:8793   */\n      eq\n        /* \"#utility.yul\":8748:8811   */\n      tag_228\n      jumpi\n        /* \"#utility.yul\":8807:8808   */\n      0x00\n        /* \"#utility.yul\":8804:8805   */\n      dup1\n        /* \"#utility.yul\":8797:8809   */\n      revert\n        /* \"#utility.yul\":8748:8811   */\n    tag_228:\n        /* \"#utility.yul\":8695:8817   */\n      pop\n      jump\t// out\n        /* \"#utility.yul\":8823:8939   */\n    tag_107:\n        /* \"#utility.yul\":8893:8914   */\n      tag_230\n        /* \"#utility.yul\":8908:8913   */\n      dup2\n        /* \"#utility.yul\":8893:8914   */\n      tag_145\n      jump\t// in\n    tag_230:\n        /* \"#utility.yul\":8886:8891   */\n      dup2\n        /* \"#utility.yul\":8883:8915   */\n      eq\n        /* \"#utility.yul\":8873:8933   */\n      tag_231\n      jumpi\n        /* \"#utility.yul\":8929:8930   */\n      0x00\n        /* \"#utility.yul\":8926:8927   */\n      dup1\n        /* \"#utility.yul\":8919:8931   */\n      revert\n        /* \"#utility.yul\":8873:8933   */\n    tag_231:\n        /* \"#utility.yul\":8823:8939   */\n      pop\n      jump\t// out\n        /* \"#utility.yul\":8945:9067   */\n    tag_117:\n        /* \"#utility.yul\":9018:9042   */\n      tag_233\n        /* \"#utility.yul\":9036:9041   */\n      dup2\n        /* \"#utility.yul\":9018:9042   */\n      tag_159\n      jump\t// in\n    tag_233:\n        /* \"#utility.yul\":9011:9016   */\n      dup2\n        /* \"#utility.yul\":9008:9043   */\n      eq\n        /* \"#utility.yul\":8998:9061   */\n      tag_234\n      jumpi\n        /* \"#utility.yul\":9057:9058   */\n      0x00\n        /* \"#utility.yul\":9054:9055   */\n      dup1\n        /* \"#utility.yul\":9047:9059   */\n      revert\n        /* \"#utility.yul\":8998:9061   */\n    tag_234:\n        /* \"#utility.yul\":8945:9067   */\n      pop\n      jump\t// out\n\n    auxdata: 0xa26469706673582212205799c5b3749c8d32e5a24331ea5f49f572eededeb05d1fad7fc8960b822ffe9064736f6c63430008070033\n}\n",
				"bytecode": {
					"linkReferences": {},
					"object": "608060405234801561001057600080fd5b50610a19806100206000396000f3fe608060405234801561001057600080fd5b50600436106100b45760003560e01c80636deecdbe116100715780636deecdbe146101575780638218056814610175578063debbaf2b14610191578063e2a4b2af1461019b578063e492fd84146101b9578063eb1b30d9146101d5576100b4565b806306540f7e146100b95780630e807d6e146100d757806315502612146100f357806326b85ee11461011157806333b87eeb1461012f578063492bfa1814610139575b600080fd5b6100c16101f1565b6040516100ce91906106f6565b60405180910390f35b6100f160048036038101906100ec9190610559565b6101f7565b005b6100fb61023b565b60405161010891906106f6565b60405180910390f35b61011961027c565b604051610126919061069e565b60405180910390f35b6101376102a2565b005b6101416102db565b60405161014e91906106d4565b60405180910390f35b61015f610369565b60405161016c91906106b9565b60405180910390f35b61018f600480360381019061018a91906105b3565b61037c565b005b610199610396565b005b6101a36103cf565b6040516101b09190610711565b60405180910390f35b6101d360048036038101906101ce91906105fc565b6103e0565b005b6101ef60048036038101906101ea9190610586565b6103ea565b005b60005481565b80600160026101000a81548173ffffffffffffffffffffffffffffffffffffffff021916908373ffffffffffffffffffffffffffffffffffffffff16021790555050565b6000600160029054906101000a900473ffffffffffffffffffffffffffffffffffffffff1673ffffffffffffffffffffffffffffffffffffffff1631905090565b600160029054906101000a900473ffffffffffffffffffffffffffffffffffffffff1681565b60018081819054906101000a900460ff16809291906102c0906108c2565b91906101000a81548160ff021916908360ff16021790555050565b600280546102e89061085f565b80601f01602080910402602001604051908101604052809291908181526020018280546103149061085f565b80156103615780601f1061033657610100808354040283529160200191610361565b820191906000526020600020905b81548152906001019060200180831161034457829003601f168201915b505050505081565b600160009054906101000a900460ff1681565b8060029080519060200190610392929190610407565b5050565b60018081819054906101000a900460ff16809291906103b490610835565b91906101000a81548160ff021916908360ff16021790555050565b60018054906101000a900460ff1681565b8060008190555050565b80600160006101000a81548160ff02191690831515021790555050565b8280546104139061085f565b90600052602060002090601f016020900481019282610435576000855561047c565b82601f1061044e57805160ff191683800117855561047c565b8280016001018555821561047c579182015b8281111561047b578251825591602001919060010190610460565b5b509050610489919061048d565b5090565b5b808211156104a657600081600090555060010161048e565b5090565b60006104bd6104b884610751565b61072c565b9050828152602081018484840111156104d9576104d861097e565b5b6104e48482856107f3565b509392505050565b6000813590506104fb8161099e565b92915050565b600081359050610510816109b5565b92915050565b600082601f83011261052b5761052a610979565b5b813561053b8482602086016104aa565b91505092915050565b600081359050610553816109cc565b92915050565b60006020828403121561056f5761056e610988565b5b600061057d848285016104ec565b91505092915050565b60006020828403121561059c5761059b610988565b5b60006105aa84828501610501565b91505092915050565b6000602082840312156105c9576105c8610988565b5b600082013567ffffffffffffffff8111156105e7576105e6610983565b5b6105f384828501610516565b91505092915050565b60006020828403121561061257610611610988565b5b600061062084828501610544565b91505092915050565b6106328161079e565b82525050565b610641816107b0565b82525050565b600061065282610782565b61065c818561078d565b935061066c818560208601610802565b6106758161098d565b840191505092915050565b610689816107dc565b82525050565b610698816107e6565b82525050565b60006020820190506106b36000830184610629565b92915050565b60006020820190506106ce6000830184610638565b92915050565b600060208201905081810360008301526106ee8184610647565b905092915050565b600060208201905061070b6000830184610680565b92915050565b6000602082019050610726600083018461068f565b92915050565b6000610736610747565b90506107428282610891565b919050565b6000604051905090565b600067ffffffffffffffff82111561076c5761076b61094a565b5b6107758261098d565b9050602081019050919050565b600081519050919050565b600082825260208201905092915050565b60006107a9826107bc565b9050919050565b60008115159050919050565b600073ffffffffffffffffffffffffffffffffffffffff82169050919050565b6000819050919050565b600060ff82169050919050565b82818337600083830152505050565b60005b83811015610820578082015181840152602081019050610805565b8381111561082f576000848401525b50505050565b6000610840826107e6565b91506000821415610854576108536108ec565b5b600182039050919050565b6000600282049050600182168061087757607f821691505b6020821081141561088b5761088a61091b565b5b50919050565b61089a8261098d565b810181811067ffffffffffffffff821117156108b9576108b861094a565b5b80604052505050565b60006108cd826107e6565b915060ff8214156108e1576108e06108ec565b5b600182019050919050565b7f4e487b7100000000000000000000000000000000000000000000000000000000600052601160045260246000fd5b7f4e487b7100000000000000000000000000000000000000000000000000000000600052602260045260246000fd5b7f4e487b7100000000000000000000000000000000000000000000000000000000600052604160045260246000fd5b600080fd5b600080fd5b600080fd5b600080fd5b6000601f19601f8301169050919050565b6109a78161079e565b81146109b257600080fd5b50565b6109be816107b0565b81146109c957600080fd5b50565b6109d5816107dc565b81146109e057600080fd5b5056fea26469706673582212205799c5b3749c8d32e5a24331ea5f49f572eededeb05d1fad7fc8960b822ffe9064736f6c63430008070033",
					"opcodes": "PUSH1 0x80 PUSH1 0x40 MSTORE CALLVALUE DUP1 ISZERO PUSH2 0x10 JUMPI PUSH1 0x0 DUP1 REVERT JUMPDEST POP PUSH2 0xA19 DUP1 PUSH2 0x20 PUSH1 0x0 CODECOPY PUSH1 0x0 RETURN INVALID PUSH1 0x80 PUSH1 0x40 MSTORE CALLVALUE DUP1 ISZERO PUSH2 0x10 JUMPI PUSH1 0x0 DUP1 REVERT JUMPDEST POP PUSH1 0x4 CALLDATASIZE LT PUSH2 0xB4 JUMPI PUSH1 0x0 CALLDATALOAD PUSH1 0xE0 SHR DUP1 PUSH4 0x6DEECDBE GT PUSH2 0x71 JUMPI DUP1 PUSH4 0x6DEECDBE EQ PUSH2 0x157 JUMPI DUP1 PUSH4 0x82180568 EQ PUSH2 0x175 JUMPI DUP1 PUSH4 0xDEBBAF2B EQ PUSH2 0x191 JUMPI DUP1 PUSH4 0xE2A4B2AF EQ PUSH2 0x19B JUMPI DUP1 PUSH4 0xE492FD84 EQ PUSH2 0x1B9 JUMPI DUP1 PUSH4 0xEB1B30D9 EQ PUSH2 0x1D5 JUMPI PUSH2 0xB4 JUMP JUMPDEST DUP1 PUSH4 0x6540F7E EQ PUSH2 0xB9 JUMPI DUP1 PUSH4 0xE807D6E EQ PUSH2 0xD7 JUMPI DUP1 PUSH4 0x15502612 EQ PUSH2 0xF3 JUMPI DUP1 PUSH4 0x26B85EE1 EQ PUSH2 0x111 JUMPI DUP1 PUSH4 0x33B87EEB EQ PUSH2 0x12F JUMPI DUP1 PUSH4 0x492BFA18 EQ PUSH2 0x139 JUMPI JUMPDEST PUSH1 0x0 DUP1 REVERT JUMPDEST PUSH2 0xC1 PUSH2 0x1F1 JUMP JUMPDEST PUSH1 0x40 MLOAD PUSH2 0xCE SWAP2 SWAP1 PUSH2 0x6F6 JUMP JUMPDEST PUSH1 0x40 MLOAD DUP1 SWAP2 SUB SWAP1 RETURN JUMPDEST PUSH2 0xF1 PUSH1 0x4 DUP1 CALLDATASIZE SUB DUP2 ADD SWAP1 PUSH2 0xEC SWAP2 SWAP1 PUSH2 0x559 JUMP JUMPDEST PUSH2 0x1F7 JUMP JUMPDEST STOP JUMPDEST PUSH2 0xFB PUSH2 0x23B JUMP JUMPDEST PUSH1 0x40 MLOAD PUSH2 0x108 SWAP2 SWAP1 PUSH2 0x6F6 JUMP JUMPDEST PUSH1 0x40 MLOAD DUP1 SWAP2 SUB SWAP1 RETURN JUMPDEST PUSH2 0x119 PUSH2 0x27C JUMP JUMPDEST PUSH1 0x40 MLOAD PUSH2 0x126 SWAP2 SWAP1 PUSH2 0x69E JUMP JUMPDEST PUSH1 0x40 MLOAD DUP1 SWAP2 SUB SWAP1 RETURN JUMPDEST PUSH2 0x137 PUSH2 0x2A2 JUMP JUMPDEST STOP JUMPDEST PUSH2 0x141 PUSH2 0x2DB JUMP JUMPDEST PUSH1 0x40 MLOAD PUSH2 0x14E SWAP2 SWAP1 PUSH2 0x6D4 JUMP JUMPDEST PUSH1 0x40 MLOAD DUP1 SWAP2 SUB SWAP1 RETURN JUMPDEST PUSH2 0x15F PUSH2 0x369 JUMP JUMPDEST PUSH1 0x40 MLOAD PUSH2 0x16C SWAP2 SWAP1 PUSH2 0x6B9 JUMP JUMPDEST PUSH1 0x40 MLOAD DUP1 SWAP2 SUB SWAP1 RETURN JUMPDEST PUSH2 0x18F PUSH1 0x4 DUP1 CALLDATASIZE SUB DUP2 ADD SWAP1 PUSH2 0x18A SWAP2 SWAP1 PUSH2 0x5B3 JUMP JUMPDEST PUSH2 0x37C JUMP JUMPDEST STOP JUMPDEST PUSH2 0x199 PUSH2 0x396 JUMP JUMPDEST STOP JUMPDEST PUSH2 0x1A3 PUSH2 0x3CF JUMP JUMPDEST PUSH1 0x40 MLOAD PUSH2 0x1B0 SWAP2 SWAP1 PUSH2 0x711 JUMP JUMPDEST PUSH1 0x40 MLOAD DUP1 SWAP2 SUB SWAP1 RETURN JUMPDEST PUSH2 0x1D3 PUSH1 0x4 DUP1 CALLDATASIZE SUB DUP2 ADD SWAP1 PUSH2 0x1CE SWAP2 SWAP1 PUSH2 0x5FC JUMP JUMPDEST PUSH2 0x3E0 JUMP JUMPDEST STOP JUMPDEST PUSH2 0x1EF PUSH1 0x4 DUP1 CALLDATASIZE SUB DUP2 ADD SWAP1 PUSH2 0x1EA SWAP2 SWAP1 PUSH2 0x586 JUMP JUMPDEST PUSH2 0x3EA JUMP JUMPDEST STOP JUMPDEST PUSH1 0x0 SLOAD DUP2 JUMP JUMPDEST DUP1 PUSH1 0x1 PUSH1 0x2 PUSH2 0x100 EXP DUP2 SLOAD DUP2 PUSH20 0xFFFFFFFFFFFFFFFFFFFFFFFFFFFFFFFFFFFFFFFF MUL NOT AND SWAP1 DUP4 PUSH20 0xFFFFFFFFFFFFFFFFFFFFFFFFFFFFFFFFFFFFFFFF AND MUL OR SWAP1 SSTORE POP POP JUMP JUMPDEST PUSH1 0x0 PUSH1 0x1 PUSH1 0x2 SWAP1 SLOAD SWAP1 PUSH2 0x100 EXP SWAP1 DIV PUSH20 0xFFFFFFFFFFFFFFFFFFFFFFFFFFFFFFFFFFFFFFFF AND PUSH20 0xFFFFFFFFFFFFFFFFFFFFFFFFFFFFFFFFFFFFFFFF AND BALANCE SWAP1 POP SWAP1 JUMP JUMPDEST PUSH1 0x1 PUSH1 0x2 SWAP1 SLOAD SWAP1 PUSH2 0x100 EXP SWAP1 DIV PUSH20 0xFFFFFFFFFFFFFFFFFFFFFFFFFFFFFFFFFFFFFFFF AND DUP2 JUMP JUMPDEST PUSH1 0x1 DUP1 DUP2 DUP2 SWAP1 SLOAD SWAP1 PUSH2 0x100 EXP SWAP1 DIV PUSH1 0xFF AND DUP1 SWAP3 SWAP2 SWAP1 PUSH2 0x2C0 SWAP1 PUSH2 0x8C2 JUMP JUMPDEST SWAP2 SWAP1 PUSH2 0x100 EXP DUP2 SLOAD DUP2 PUSH1 0xFF MUL NOT AND SWAP1 DUP4 PUSH1 0xFF AND MUL OR SWAP1 SSTORE POP POP JUMP JUMPDEST PUSH1 0x2 DUP1 SLOAD PUSH2 0x2E8 SWAP1 PUSH2 0x85F JUMP JUMPDEST DUP1 PUSH1 0x1F ADD PUSH1 0x20 DUP1 SWAP2 DIV MUL PUSH1 0x20 ADD PUSH1 0x40 MLOAD SWAP1 DUP2 ADD PUSH1 0x40 MSTORE DUP1 SWAP3 SWAP2 SWAP1 DUP2 DUP2 MSTORE PUSH1 0x20 ADD DUP3 DUP1 SLOAD PUSH2 0x314 SWAP1 PUSH2 0x85F JUMP JUMPDEST DUP1 ISZERO PUSH2 0x361 JUMPI DUP1 PUSH1 0x1F LT PUSH2 0x336 JUMPI PUSH2 0x100 DUP1 DUP4 SLOAD DIV MUL DUP4 MSTORE SWAP2 PUSH1 0x20 ADD SWAP2 PUSH2 0x361 JUMP JUMPDEST DUP3 ADD SWAP2 SWAP1 PUSH1 0x0 MSTORE PUSH1 0x20 PUSH1 0x0 KECCAK256 SWAP1 JUMPDEST DUP2 SLOAD DUP2 MSTORE SWAP1 PUSH1 0x1 ADD SWAP1 PUSH1 0x20 ADD DUP1 DUP4 GT PUSH2 0x344 JUMPI DUP3 SWAP1 SUB PUSH1 0x1F AND DUP3 ADD SWAP2 JUMPDEST POP POP POP POP POP DUP2 JUMP JUMPDEST PUSH1 0x1 PUSH1 0x0 SWAP1 SLOAD SWAP1 PUSH2 0x100 EXP SWAP1 DIV PUSH1 0xFF AND DUP2 JUMP JUMPDEST DUP1 PUSH1 0x2 SWAP1 DUP1 MLOAD SWAP1 PUSH1 0x20 ADD SWAP1 PUSH2 0x392 SWAP3 SWAP2 SWAP1 PUSH2 0x407 JUMP JUMPDEST POP POP JUMP JUMPDEST PUSH1 0x1 DUP1 DUP2 DUP2 SWAP1 SLOAD SWAP1 PUSH2 0x100 EXP SWAP1 DIV PUSH1 0xFF AND DUP1 SWAP3 SWAP2 SWAP1 PUSH2 0x3B4 SWAP1 PUSH2 0x835 JUMP JUMPDEST SWAP2 SWAP1 PUSH2 0x100 EXP DUP2 SLOAD DUP2 PUSH1 0xFF MUL NOT AND SWAP1 DUP4 PUSH1 0xFF AND MUL OR SWAP1 SSTORE POP POP JUMP JUMPDEST PUSH1 0x1 DUP1 SLOAD SWAP1 PUSH2 0x100 EXP SWAP1 DIV PUSH1 0xFF AND DUP2 JUMP JUMPDEST DUP1 PUSH1 0x0 DUP2 SWAP1 SSTORE POP POP JUMP JUMPDEST DUP1 PUSH1 0x1 PUSH1 0x0 PUSH2 0x100 EXP DUP2 SLOAD DUP2 PUSH1 0xFF MUL NOT AND SWAP1 DUP4 ISZERO ISZERO MUL OR SWAP1 SSTORE POP POP JUMP JUMPDEST DUP3 DUP1 SLOAD PUSH2 0x413 SWAP1 PUSH2 0x85F JUMP JUMPDEST SWAP1 PUSH1 0x0 MSTORE PUSH1 0x20 PUSH1 0x0 KECCAK256 SWAP1 PUSH1 0x1F ADD PUSH1 0x20 SWAP1 DIV DUP2 ADD SWAP3 DUP3 PUSH2 0x435 JUMPI PUSH1 0x0 DUP6 SSTORE PUSH2 0x47C JUMP JUMPDEST DUP3 PUSH1 0x1F LT PUSH2 0x44E JUMPI DUP1 MLOAD PUSH1 0xFF NOT AND DUP4 DUP1 ADD OR DUP6 SSTORE PUSH2 0x47C JUMP JUMPDEST DUP3 DUP1 ADD PUSH1 0x1 ADD DUP6 SSTORE DUP3 ISZERO PUSH2 0x47C JUMPI SWAP2 DUP3 ADD JUMPDEST DUP3 DUP2 GT ISZERO PUSH2 0x47B JUMPI DUP3 MLOAD DUP3 SSTORE SWAP2 PUSH1 0x20 ADD SWAP2 SWAP1 PUSH1 0x1 ADD SWAP1 PUSH2 0x460 JUMP JUMPDEST JUMPDEST POP SWAP1 POP PUSH2 0x489 SWAP2 SWAP1 PUSH2 0x48D JUMP JUMPDEST POP SWAP1 JUMP JUMPDEST JUMPDEST DUP1 DUP3 GT ISZERO PUSH2 0x4A6 JUMPI PUSH1 0x0 DUP2 PUSH1 0x0 SWAP1 SSTORE POP PUSH1 0x1 ADD PUSH2 0x48E JUMP JUMPDEST POP SWAP1 JUMP JUMPDEST PUSH1 0x0 PUSH2 0x4BD PUSH2 0x4B8 DUP5 PUSH2 0x751 JUMP JUMPDEST PUSH2 0x72C JUMP JUMPDEST SWAP1 POP DUP3 DUP2 MSTORE PUSH1 0x20 DUP2 ADD DUP5 DUP5 DUP5 ADD GT ISZERO PUSH2 0x4D9 JUMPI PUSH2 0x4D8 PUSH2 0x97E JUMP JUMPDEST JUMPDEST PUSH2 0x4E4 DUP5 DUP3 DUP6 PUSH2 0x7F3 JUMP JUMPDEST POP SWAP4 SWAP3 POP POP POP JUMP JUMPDEST PUSH1 0x0 DUP2 CALLDATALOAD SWAP1 POP PUSH2 0x4FB DUP2 PUSH2 0x99E JUMP JUMPDEST SWAP3 SWAP2 POP POP JUMP JUMPDEST PUSH1 0x0 DUP2 CALLDATALOAD SWAP1 POP PUSH2 0x510 DUP2 PUSH2 0x9B5 JUMP JUMPDEST SWAP3 SWAP2 POP POP JUMP JUMPDEST PUSH1 0x0 DUP3 PUSH1 0x1F DUP4 ADD SLT PUSH2 0x52B JUMPI PUSH2 0x52A PUSH2 0x979 JUMP JUMPDEST JUMPDEST DUP2 CALLDATALOAD PUSH2 0x53B DUP5 DUP3 PUSH1 0x20 DUP7 ADD PUSH2 0x4AA JUMP JUMPDEST SWAP2 POP POP SWAP3 SWAP2 POP POP JUMP JUMPDEST PUSH1 0x0 DUP2 CALLDATALOAD SWAP1 POP PUSH2 0x553 DUP2 PUSH2 0x9CC JUMP JUMPDEST SWAP3 SWAP2 POP POP JUMP JUMPDEST PUSH1 0x0 PUSH1 0x20 DUP3 DUP5 SUB SLT ISZERO PUSH2 0x56F JUMPI PUSH2 0x56E PUSH2 0x988 JUMP JUMPDEST JUMPDEST PUSH1 0x0 PUSH2 0x57D DUP5 DUP3 DUP6 ADD PUSH2 0x4EC JUMP JUMPDEST SWAP2 POP POP SWAP3 SWAP2 POP POP JUMP JUMPDEST PUSH1 0x0 PUSH1 0x20 DUP3 DUP5 SUB SLT ISZERO PUSH2 0x59C JUMPI PUSH2 0x59B PUSH2 0x988 JUMP JUMPDEST JUMPDEST PUSH1 0x0 PUSH2 0x5AA DUP5 DUP3 DUP6 ADD PUSH2 0x501 JUMP JUMPDEST SWAP2 POP POP SWAP3 SWAP2 POP POP JUMP JUMPDEST PUSH1 0x0 PUSH1 0x20 DUP3 DUP5 SUB SLT ISZERO PUSH2 0x5C9 JUMPI PUSH2 0x5C8 PUSH2 0x988 JUMP JUMPDEST JUMPDEST PUSH1 0x0 DUP3 ADD CALLDATALOAD PUSH8 0xFFFFFFFFFFFFFFFF DUP2 GT ISZERO PUSH2 0x5E7 JUMPI PUSH2 0x5E6 PUSH2 0x983 JUMP JUMPDEST JUMPDEST PUSH2 0x5F3 DUP5 DUP3 DUP6 ADD PUSH2 0x516 JUMP JUMPDEST SWAP2 POP POP SWAP3 SWAP2 POP POP JUMP JUMPDEST PUSH1 0x0 PUSH1 0x20 DUP3 DUP5 SUB SLT ISZERO PUSH2 0x612 JUMPI PUSH2 0x611 PUSH2 0x988 JUMP JUMPDEST JUMPDEST PUSH1 0x0 PUSH2 0x620 DUP5 DUP3 DUP6 ADD PUSH2 0x544 JUMP JUMPDEST SWAP2 POP POP SWAP3 SWAP2 POP POP JUMP JUMPDEST PUSH2 0x632 DUP2 PUSH2 0x79E JUMP JUMPDEST DUP3 MSTORE POP POP JUMP JUMPDEST PUSH2 0x641 DUP2 PUSH2 0x7B0 JUMP JUMPDEST DUP3 MSTORE POP POP JUMP JUMPDEST PUSH1 0x0 PUSH2 0x652 DUP3 PUSH2 0x782 JUMP JUMPDEST PUSH2 0x65C DUP2 DUP6 PUSH2 0x78D JUMP JUMPDEST SWAP4 POP PUSH2 0x66C DUP2 DUP6 PUSH1 0x20 DUP7 ADD PUSH2 0x802 JUMP JUMPDEST PUSH2 0x675 DUP2 PUSH2 0x98D JUMP JUMPDEST DUP5 ADD SWAP2 POP POP SWAP3 SWAP2 POP POP JUMP JUMPDEST PUSH2 0x689 DUP2 PUSH2 0x7DC JUMP JUMPDEST DUP3 MSTORE POP POP JUMP JUMPDEST PUSH2 0x698 DUP2 PUSH2 0x7E6 JUMP JUMPDEST DUP3 MSTORE POP POP JUMP JUMPDEST PUSH1 0x0 PUSH1 0x20 DUP3 ADD SWAP1 POP PUSH2 0x6B3 PUSH1 0x0 DUP4 ADD DUP5 PUSH2 0x629 JUMP JUMPDEST SWAP3 SWAP2 POP POP JUMP JUMPDEST PUSH1 0x0 PUSH1 0x20 DUP3 ADD SWAP1 POP PUSH2 0x6CE PUSH1 0x0 DUP4 ADD DUP5 PUSH2 0x638 JUMP JUMPDEST SWAP3 SWAP2 POP POP JUMP JUMPDEST PUSH1 0x0 PUSH1 0x20 DUP3 ADD SWAP1 POP DUP2 DUP2 SUB PUSH1 0x0 DUP4 ADD MSTORE PUSH2 0x6EE DUP2 DUP5 PUSH2 0x647 JUMP JUMPDEST SWAP1 POP SWAP3 SWAP2 POP POP JUMP JUMPDEST PUSH1 0x0 PUSH1 0x20 DUP3 ADD SWAP1 POP PUSH2 0x70B PUSH1 0x0 DUP4 ADD DUP5 PUSH2 0x680 JUMP JUMPDEST SWAP3 SWAP2 POP POP JUMP JUMPDEST PUSH1 0x0 PUSH1 0x20 DUP3 ADD SWAP1 POP PUSH2 0x726 PUSH1 0x0 DUP4 ADD DUP5 PUSH2 0x68F JUMP JUMPDEST SWAP3 SWAP2 POP POP JUMP JUMPDEST PUSH1 0x0 PUSH2 0x736 PUSH2 0x747 JUMP JUMPDEST SWAP1 POP PUSH2 0x742 DUP3 DUP3 PUSH2 0x891 JUMP JUMPDEST SWAP2 SWAP1 POP JUMP JUMPDEST PUSH1 0x0 PUSH1 0x40 MLOAD SWAP1 POP SWAP1 JUMP JUMPDEST PUSH1 0x0 PUSH8 0xFFFFFFFFFFFFFFFF DUP3 GT ISZERO PUSH2 0x76C JUMPI PUSH2 0x76B PUSH2 0x94A JUMP JUMPDEST JUMPDEST PUSH2 0x775 DUP3 PUSH2 0x98D JUMP JUMPDEST SWAP1 POP PUSH1 0x20 DUP2 ADD SWAP1 POP SWAP2 SWAP1 POP JUMP JUMPDEST PUSH1 0x0 DUP2 MLOAD SWAP1 POP SWAP2 SWAP1 POP JUMP JUMPDEST PUSH1 0x0 DUP3 DUP3 MSTORE PUSH1 0x20 DUP3 ADD SWAP1 POP SWAP3 SWAP2 POP POP JUMP JUMPDEST PUSH1 0x0 PUSH2 0x7A9 DUP3 PUSH2 0x7BC JUMP JUMPDEST SWAP1 POP SWAP2 SWAP1 POP JUMP JUMPDEST PUSH1 0x0 DUP2 ISZERO ISZERO SWAP1 POP SWAP2 SWAP1 POP JUMP JUMPDEST PUSH1 0x0 PUSH20 0xFFFFFFFFFFFFFFFFFFFFFFFFFFFFFFFFFFFFFFFF DUP3 AND SWAP1 POP SWAP2 SWAP1 POP JUMP JUMPDEST PUSH1 0x0 DUP2 SWAP1 POP SWAP2 SWAP1 POP JUMP JUMPDEST PUSH1 0x0 PUSH1 0xFF DUP3 AND SWAP1 POP SWAP2 SWAP1 POP JUMP JUMPDEST DUP3 DUP2 DUP4 CALLDATACOPY PUSH1 0x0 DUP4 DUP4 ADD MSTORE POP POP POP JUMP JUMPDEST PUSH1 0x0 JUMPDEST DUP4 DUP2 LT ISZERO PUSH2 0x820 JUMPI DUP1 DUP3 ADD MLOAD DUP2 DUP5 ADD MSTORE PUSH1 0x20 DUP2 ADD SWAP1 POP PUSH2 0x805 JUMP JUMPDEST DUP4 DUP2 GT ISZERO PUSH2 0x82F JUMPI PUSH1 0x0 DUP5 DUP5 ADD MSTORE JUMPDEST POP POP POP POP JUMP JUMPDEST PUSH1 0x0 PUSH2 0x840 DUP3 PUSH2 0x7E6 JUMP JUMPDEST SWAP2 POP PUSH1 0x0 DUP3 EQ ISZERO PUSH2 0x854 JUMPI PUSH2 0x853 PUSH2 0x8EC JUMP JUMPDEST JUMPDEST PUSH1 0x1 DUP3 SUB SWAP1 POP SWAP2 SWAP1 POP JUMP JUMPDEST PUSH1 0x0 PUSH1 0x2 DUP3 DIV SWAP1 POP PUSH1 0x1 DUP3 AND DUP1 PUSH2 0x877 JUMPI PUSH1 0x7F DUP3 AND SWAP2 POP JUMPDEST PUSH1 0x20 DUP3 LT DUP2 EQ ISZERO PUSH2 0x88B JUMPI PUSH2 0x88A PUSH2 0x91B JUMP JUMPDEST JUMPDEST POP SWAP2 SWAP1 POP JUMP JUMPDEST PUSH2 0x89A DUP3 PUSH2 0x98D JUMP JUMPDEST DUP2 ADD DUP2 DUP2 LT PUSH8 0xFFFFFFFFFFFFFFFF DUP3 GT OR ISZERO PUSH2 0x8B9 JUMPI PUSH2 0x8B8 PUSH2 0x94A JUMP JUMPDEST JUMPDEST DUP1 PUSH1 0x40 MSTORE POP POP POP JUMP JUMPDEST PUSH1 0x0 PUSH2 0x8CD DUP3 PUSH2 0x7E6 JUMP JUMPDEST SWAP2 POP PUSH1 0xFF DUP3 EQ ISZERO PUSH2 0x8E1 JUMPI PUSH2 0x8E0 PUSH2 0x8EC JUMP JUMPDEST JUMPDEST PUSH1 0x1 DUP3 ADD SWAP1 POP SWAP2 SWAP1 POP JUMP JUMPDEST PUSH32 0x4E487B7100000000000000000000000000000000000000000000000000000000 PUSH1 0x0 MSTORE PUSH1 0x11 PUSH1 0x4 MSTORE PUSH1 0x24 PUSH1 0x0 REVERT JUMPDEST PUSH32 0x4E487B7100000000000000000000000000000000000000000000000000000000 PUSH1 0x0 MSTORE PUSH1 0x22 PUSH1 0x4 MSTORE PUSH1 0x24 PUSH1 0x0 REVERT JUMPDEST PUSH32 0x4E487B7100000000000000000000000000000000000000000000000000000000 PUSH1 0x0 MSTORE PUSH1 0x41 PUSH1 0x4 MSTORE PUSH1 0x24 PUSH1 0x0 REVERT JUMPDEST PUSH1 0x0 DUP1 REVERT JUMPDEST PUSH1 0x0 DUP1 REVERT JUMPDEST PUSH1 0x0 DUP1 REVERT JUMPDEST PUSH1 0x0 DUP1 REVERT JUMPDEST PUSH1 0x0 PUSH1 0x1F NOT PUSH1 0x1F DUP4 ADD AND SWAP1 POP SWAP2 SWAP1 POP JUMP JUMPDEST PUSH2 0x9A7 DUP2 PUSH2 0x79E JUMP JUMPDEST DUP2 EQ PUSH2 0x9B2 JUMPI PUSH1 0x0 DUP1 REVERT JUMPDEST POP JUMP JUMPDEST PUSH2 0x9BE DUP2 PUSH2 0x7B0 JUMP JUMPDEST DUP2 EQ PUSH2 0x9C9 JUMPI PUSH1 0x0 DUP1 REVERT JUMPDEST POP JUMP JUMPDEST PUSH2 0x9D5 DUP2 PUSH2 0x7DC JUMP JUMPDEST DUP2 EQ PUSH2 0x9E0 JUMPI PUSH1 0x0 DUP1 REVERT JUMPDEST POP JUMP INVALID LOG2 PUSH5 0x6970667358 0x22 SLT KECCAK256 JUMPI SWAP10 0xC5 0xB3 PUSH21 0x9C8D32E5A24331EA5F49F572EEDEDEB05D1FAD7FC8 SWAP7 SIGNEXTEND DUP3 0x2F INVALID SWAP1 PUSH5 0x736F6C6343 STOP ADDMOD SMOD STOP CALLER "
				},
				"gasEstimates": {
					"creation": {
						"codeDepositCost": "517000",
						"executionCost": "549",
						"totalCost": "517549"
					},
					"external": {
						"decreamentUint8()": "26846",
						"getBalanceOfAddress()": "5174",
						"increamentUint8()": "26891",
						"myAddress()": "2631",
						"myBool()": "2471",
						"myString()": "infinite",
						"myUint()": "2430",
						"myUint8()": "2584",
						"setAdress(address)": "24795",
						"setMyBool(bool)": "24789",
						"setMyString(string)": "infinite",
						"setMyUint(uint256)": "22608"
					}
				},
				"methodIdentifiers": {
					"decreamentUint8()": "debbaf2b",
					"getBalanceOfAddress()": "15502612",
					"increamentUint8()": "33b87eeb",
					"myAddress()": "26b85ee1",
					"myBool()": "6deecdbe",
					"myString()": "492bfa18",
					"myUint()": "06540f7e",
					"myUint8()": "e2a4b2af",
					"setAdress(address)": "0e807d6e",
					"setMyBool(bool)": "eb1b30d9",
					"setMyString(string)": "82180568",
					"setMyUint(uint256)": "e492fd84"
				}
			},
			"storageLayout": {
				"storage": [
					{
						"astId": 3,
						"contract": "Variable.sol:WorkingWithVariables",
						"label": "myUint",
						"offset": 0,
						"slot": "0",
						"type": "t_uint256"
					},
					{
						"astId": 15,
						"contract": "Variable.sol:WorkingWithVariables",
						"label": "myBool",
						"offset": 0,
						"slot": "1",
						"type": "t_bool"
					},
					{
						"astId": 27,
						"contract": "Variable.sol:WorkingWithVariables",
						"label": "myUint8",
						"offset": 1,
						"slot": "1",
						"type": "t_uint8"
					},
					{
						"astId": 43,
						"contract": "Variable.sol:WorkingWithVariables",
						"label": "myAddress",
						"offset": 2,
						"slot": "1",
						"type": "t_address"
					},
					{
						"astId": 64,
						"contract": "Variable.sol:WorkingWithVariables",
						"label": "myString",
						"offset": 0,
						"slot": "2",
						"type": "t_string_storage"
					}
				],
				"types": {
					"t_address": {
						"encoding": "inplace",
						"label": "address",
						"numberOfBytes": "20"
					},
					"t_bool": {
						"encoding": "inplace",
						"label": "bool",
						"numberOfBytes": "1"
					},
					"t_string_storage": {
						"encoding": "bytes",
						"label": "string",
						"numberOfBytes": "32"
					},
					"t_uint256": {
						"encoding": "inplace",
						"label": "uint256",
						"numberOfBytes": "32"
					},
					"t_uint8": {
						"encoding": "inplace",
						"label": "uint8",
						"numberOfBytes": "1"
					}
				}
			},
			"userdoc": {
				"kind": "user",
				"methods": {},
				"version": 1
			}
		}
	}
}