{
	"Variable.sol": {
		"WorkingWithVariables": {
			"abi": [
				{
					"inputs": [],
					"name": "decreamentUint8",
					"outputs": [],
					"stateMutability": "nonpayable",
					"type": "function"
				},
				{
					"inputs": [],
					"name": "increamentUint8",
					"outputs": [],
					"stateMutability": "nonpayable",
					"type": "function"
				},
				{
					"inputs": [],
					"name": "myAddress",
					"outputs": [
						{
							"internalType": "address",
							"name": "",
							"type": "address"
						}
					],
					"stateMutability": "view",
					"type": "function"
				},
				{
					"inputs": [],
					"name": "myBool",
					"outputs": [
						{
							"internalType": "bool",
							"name": "",
							"type": "bool"
						}
					],
					"stateMutability": "view",
					"type": "function"
				},
				{
					"inputs": [],
					"name": "myUint",
					"outputs": [
						{
							"internalType": "uint256",
							"name": "",
							"type": "uint256"
						}
					],
					"stateMutability": "view",
					"type": "function"
				},
				{
					"inputs": [],
					"name": "myUint8",
					"outputs": [
						{
							"internalType": "uint8",
							"name": "",
							"type": "uint8"
						}
					],
					"stateMutability": "view",
					"type": "function"
				},
				{
					"inputs": [
						{
							"internalType": "address",
							"name": "_address",
							"type": "address"
						}
					],
					"name": "setAdress",
					"outputs": [],
					"stateMutability": "nonpayable",
					"type": "function"
				},
				{
					"inputs": [
						{
							"internalType": "bool",
							"name": "_myBool",
							"type": "bool"
						}
					],
					"name": "setMyBool",
					"outputs": [],
					"stateMutability": "nonpayable",
					"type": "function"
				},
				{
					"inputs": [
						{
							"internalType": "uint256",
							"name": "_myUint",
							"type": "uint256"
						}
					],
					"name": "setMyUint",
					"outputs": [],
					"stateMutability": "nonpayable",
					"type": "function"
				}
			],
			"devdoc": {
				"kind": "dev",
				"methods": {},
				"version": 1
			},
			"evm": {
				"assembly": "    /* \"Variable.sol\":27:581  contract WorkingWithVariables{\r... */\n  mstore(0x40, 0x80)\n  callvalue\n  dup1\n  iszero\n  tag_1\n  jumpi\n  0x00\n  dup1\n  revert\ntag_1:\n  pop\n  dataSize(sub_0)\n  dup1\n  dataOffset(sub_0)\n  0x00\n  codecopy\n  0x00\n  return\nstop\n\nsub_0: assembly {\n        /* \"Variable.sol\":27:581  contract WorkingWithVariables{\r... */\n      mstore(0x40, 0x80)\n      callvalue\n      dup1\n      iszero\n      tag_1\n      jumpi\n      0x00\n      dup1\n      revert\n    tag_1:\n      pop\n      jumpi(tag_2, lt(calldatasize, 0x04))\n      shr(0xe0, calldataload(0x00))\n      dup1\n      0x6deecdbe\n      gt\n      tag_12\n      jumpi\n      dup1\n      0x6deecdbe\n      eq\n      tag_7\n      jumpi\n      dup1\n      0xdebbaf2b\n      eq\n      tag_8\n      jumpi\n      dup1\n      0xe2a4b2af\n      eq\n      tag_9\n      jumpi\n      dup1\n      0xe492fd84\n      eq\n      tag_10\n      jumpi\n      dup1\n      0xeb1b30d9\n      eq\n      tag_11\n      jumpi\n      jump(tag_2)\n    tag_12:\n      dup1\n      0x06540f7e\n      eq\n      tag_3\n      jumpi\n      dup1\n      0x0e807d6e\n      eq\n      tag_4\n      jumpi\n      dup1\n      0x26b85ee1\n      eq\n      tag_5\n      jumpi\n      dup1\n      0x33b87eeb\n      eq\n      tag_6\n      jumpi\n    tag_2:\n      0x00\n      dup1\n      revert\n        /* \"Variable.sol\":63:84  uint256 public myUint */\n    tag_3:\n      tag_13\n      tag_14\n      jump\t// in\n    tag_13:\n      mload(0x40)\n      tag_15\n      swap2\n      swap1\n      tag_16\n      jump\t// in\n    tag_15:\n      mload(0x40)\n      dup1\n      swap2\n      sub\n      swap1\n      return\n        /* \"Variable.sol\":487:570  function setAdress (address _address) public{\r... */\n    tag_4:\n      tag_17\n      0x04\n      dup1\n      calldatasize\n      sub\n      dup2\n      add\n      swap1\n      tag_18\n      swap2\n      swap1\n      tag_19\n      jump\t// in\n    tag_18:\n      tag_20\n      jump\t// in\n    tag_17:\n      stop\n        /* \"Variable.sol\":454:478  address public myAddress */\n    tag_5:\n      tag_21\n      tag_22\n      jump\t// in\n    tag_21:\n      mload(0x40)\n      tag_23\n      swap2\n      swap1\n      tag_24\n      jump\t// in\n    tag_23:\n      mload(0x40)\n      dup1\n      swap2\n      sub\n      swap1\n      return\n        /* \"Variable.sol\":318:379  function increamentUint8() public{\r... */\n    tag_6:\n      tag_25\n      tag_26\n      jump\t// in\n    tag_25:\n      stop\n        /* \"Variable.sol\":175:193  bool public myBool */\n    tag_7:\n      tag_27\n      tag_28\n      jump\t// in\n    tag_27:\n      mload(0x40)\n      tag_29\n      swap2\n      swap1\n      tag_30\n      jump\t// in\n    tag_29:\n      mload(0x40)\n      dup1\n      swap2\n      sub\n      swap1\n      return\n        /* \"Variable.sol\":385:446  function decreamentUint8() public{\r... */\n    tag_8:\n      tag_31\n      tag_32\n      jump\t// in\n    tag_31:\n      stop\n        /* \"Variable.sol\":285:305  uint8 public myUint8 */\n    tag_9:\n      tag_33\n      tag_34\n      jump\t// in\n    tag_33:\n      mload(0x40)\n      tag_35\n      swap2\n      swap1\n      tag_36\n      jump\t// in\n    tag_35:\n      mload(0x40)\n      dup1\n      swap2\n      sub\n      swap1\n      return\n        /* \"Variable.sol\":93:167  function setMyUint(uint _myUint) public{\r... */\n    tag_10:\n      tag_37\n      0x04\n      dup1\n      calldatasize\n      sub\n      dup2\n      add\n      swap1\n      tag_38\n      swap2\n      swap1\n      tag_39\n      jump\t// in\n    tag_38:\n      tag_40\n      jump\t// in\n    tag_37:\n      stop\n        /* \"Variable.sol\":202:277  function setMyBool (bool _myBool) public{\r... */\n    tag_11:\n      tag_41\n      0x04\n      dup1\n      calldatasize\n      sub\n      dup2\n      add\n      swap1\n      tag_42\n      swap2\n      swap1\n      tag_43\n      jump\t// in\n    tag_42:\n      tag_44\n      jump\t// in\n    tag_41:\n      stop\n        /* \"Variable.sol\":63:84  uint256 public myUint */\n    tag_14:\n      sload(0x00)\n      dup2\n      jump\t// out\n        /* \"Variable.sol\":487:570  function setAdress (address _address) public{\r... */\n    tag_20:\n        /* \"Variable.sol\":554:562  _address */\n      dup1\n        /* \"Variable.sol\":542:551  myAddress */\n      0x01\n      0x02\n        /* \"Variable.sol\":542:562  myAddress = _address */\n      0x0100\n      exp\n      dup2\n      sload\n      dup2\n      0xffffffffffffffffffffffffffffffffffffffff\n      mul\n      not\n      and\n      swap1\n      dup4\n      0xffffffffffffffffffffffffffffffffffffffff\n      and\n      mul\n      or\n      swap1\n      sstore\n      pop\n        /* \"Variable.sol\":487:570  function setAdress (address _address) public{\r... */\n      pop\n      jump\t// out\n        /* \"Variable.sol\":454:478  address public myAddress */\n    tag_22:\n      0x01\n      0x02\n      swap1\n      sload\n      swap1\n      0x0100\n      exp\n      swap1\n      div\n      0xffffffffffffffffffffffffffffffffffffffff\n      and\n      dup2\n      jump\t// out\n        /* \"Variable.sol\":318:379  function increamentUint8() public{\r... */\n    tag_26:\n        /* \"Variable.sol\":362:369  myUint8 */\n      0x01\n      dup1\n        /* \"Variable.sol\":362:371  myUint8++ */\n      dup2\n      dup2\n      swap1\n      sload\n      swap1\n      0x0100\n      exp\n      swap1\n      div\n      0xff\n      and\n      dup1\n      swap3\n      swap2\n      swap1\n      tag_47\n      swap1\n      tag_48\n      jump\t// in\n    tag_47:\n      swap2\n      swap1\n      0x0100\n      exp\n      dup2\n      sload\n      dup2\n      0xff\n      mul\n      not\n      and\n      swap1\n      dup4\n      0xff\n      and\n      mul\n      or\n      swap1\n      sstore\n      pop\n      pop\n        /* \"Variable.sol\":318:379  function increamentUint8() public{\r... */\n      jump\t// out\n        /* \"Variable.sol\":175:193  bool public myBool */\n    tag_28:\n      0x01\n      0x00\n      swap1\n      sload\n      swap1\n      0x0100\n      exp\n      swap1\n      div\n      0xff\n      and\n      dup2\n      jump\t// out\n        /* \"Variable.sol\":385:446  function decreamentUint8() public{\r... */\n    tag_32:\n        /* \"Variable.sol\":429:436  myUint8 */\n      0x01\n      dup1\n        /* \"Variable.sol\":429:438  myUint8-- */\n      dup2\n      dup2\n      swap1\n      sload\n      swap1\n      0x0100\n      exp\n      swap1\n      div\n      0xff\n      and\n      dup1\n      swap3\n      swap2\n      swap1\n      tag_50\n      swap1\n      tag_51\n      jump\t// in\n    tag_50:\n      swap2\n      swap1\n      0x0100\n      exp\n      dup2\n      sload\n      dup2\n      0xff\n      mul\n      not\n      and\n      swap1\n      dup4\n      0xff\n      and\n      mul\n      or\n      swap1\n      sstore\n      pop\n      pop\n        /* \"Variable.sol\":385:446  function decreamentUint8() public{\r... */\n      jump\t// out\n        /* \"Variable.sol\":285:305  uint8 public myUint8 */\n    tag_34:\n      0x01\n      dup1\n      sload\n      swap1\n      0x0100\n      exp\n      swap1\n      div\n      0xff\n      and\n      dup2\n      jump\t// out\n        /* \"Variable.sol\":93:167  function setMyUint(uint _myUint) public{\r... */\n    tag_40:\n        /* \"Variable.sol\":152:159  _myUint */\n      dup1\n        /* \"Variable.sol\":143:149  myUint */\n      0x00\n        /* \"Variable.sol\":143:159  myUint = _myUint */\n      dup2\n      swap1\n      sstore\n      pop\n        /* \"Variable.sol\":93:167  function setMyUint(uint _myUint) public{\r... */\n      pop\n      jump\t// out\n        /* \"Variable.sol\":202:277  function setMyBool (bool _myBool) public{\r... */\n    tag_44:\n        /* \"Variable.sol\":262:269  _myBool */\n      dup1\n        /* \"Variable.sol\":253:259  myBool */\n      0x01\n      0x00\n        /* \"Variable.sol\":253:269  myBool = _myBool */\n      0x0100\n      exp\n      dup2\n      sload\n      dup2\n      0xff\n      mul\n      not\n      and\n      swap1\n      dup4\n      iszero\n      iszero\n      mul\n      or\n      swap1\n      sstore\n      pop\n        /* \"Variable.sol\":202:277  function setMyBool (bool _myBool) public{\r... */\n      pop\n      jump\t// out\n        /* \"#utility.yul\":7:146   */\n    tag_55:\n        /* \"#utility.yul\":53:58   */\n      0x00\n        /* \"#utility.yul\":91:97   */\n      dup2\n        /* \"#utility.yul\":78:98   */\n      calldataload\n        /* \"#utility.yul\":69:98   */\n      swap1\n      pop\n        /* \"#utility.yul\":107:140   */\n      tag_57\n        /* \"#utility.yul\":134:139   */\n      dup2\n        /* \"#utility.yul\":107:140   */\n      tag_58\n      jump\t// in\n    tag_57:\n        /* \"#utility.yul\":7:146   */\n      swap3\n      swap2\n      pop\n      pop\n      jump\t// out\n        /* \"#utility.yul\":152:285   */\n    tag_59:\n        /* \"#utility.yul\":195:200   */\n      0x00\n        /* \"#utility.yul\":233:239   */\n      dup2\n        /* \"#utility.yul\":220:240   */\n      calldataload\n        /* \"#utility.yul\":211:240   */\n      swap1\n      pop\n        /* \"#utility.yul\":249:279   */\n      tag_61\n        /* \"#utility.yul\":273:278   */\n      dup2\n        /* \"#utility.yul\":249:279   */\n      tag_62\n      jump\t// in\n    tag_61:\n        /* \"#utility.yul\":152:285   */\n      swap3\n      swap2\n      pop\n      pop\n      jump\t// out\n        /* \"#utility.yul\":291:430   */\n    tag_63:\n        /* \"#utility.yul\":337:342   */\n      0x00\n        /* \"#utility.yul\":375:381   */\n      dup2\n        /* \"#utility.yul\":362:382   */\n      calldataload\n        /* \"#utility.yul\":353:382   */\n      swap1\n      pop\n        /* \"#utility.yul\":391:424   */\n      tag_65\n        /* \"#utility.yul\":418:423   */\n      dup2\n        /* \"#utility.yul\":391:424   */\n      tag_66\n      jump\t// in\n    tag_65:\n        /* \"#utility.yul\":291:430   */\n      swap3\n      swap2\n      pop\n      pop\n      jump\t// out\n        /* \"#utility.yul\":436:765   */\n    tag_19:\n        /* \"#utility.yul\":495:501   */\n      0x00\n        /* \"#utility.yul\":544:546   */\n      0x20\n        /* \"#utility.yul\":532:541   */\n      dup3\n        /* \"#utility.yul\":523:530   */\n      dup5\n        /* \"#utility.yul\":519:542   */\n      sub\n        /* \"#utility.yul\":515:547   */\n      slt\n        /* \"#utility.yul\":512:631   */\n      iszero\n      tag_68\n      jumpi\n        /* \"#utility.yul\":550:629   */\n      tag_69\n      tag_70\n      jump\t// in\n    tag_69:\n        /* \"#utility.yul\":512:631   */\n    tag_68:\n        /* \"#utility.yul\":670:671   */\n      0x00\n        /* \"#utility.yul\":695:748   */\n      tag_71\n        /* \"#utility.yul\":740:747   */\n      dup5\n        /* \"#utility.yul\":731:737   */\n      dup3\n        /* \"#utility.yul\":720:729   */\n      dup6\n        /* \"#utility.yul\":716:738   */\n      add\n        /* \"#utility.yul\":695:748   */\n      tag_55\n      jump\t// in\n    tag_71:\n        /* \"#utility.yul\":685:748   */\n      swap2\n      pop\n        /* \"#utility.yul\":641:758   */\n      pop\n        /* \"#utility.yul\":436:765   */\n      swap3\n      swap2\n      pop\n      pop\n      jump\t// out\n        /* \"#utility.yul\":771:1094   */\n    tag_43:\n        /* \"#utility.yul\":827:833   */\n      0x00\n        /* \"#utility.yul\":876:878   */\n      0x20\n        /* \"#utility.yul\":864:873   */\n      dup3\n        /* \"#utility.yul\":855:862   */\n      dup5\n        /* \"#utility.yul\":851:874   */\n      sub\n        /* \"#utility.yul\":847:879   */\n      slt\n        /* \"#utility.yul\":844:963   */\n      iszero\n      tag_73\n      jumpi\n        /* \"#utility.yul\":882:961   */\n      tag_74\n      tag_70\n      jump\t// in\n    tag_74:\n        /* \"#utility.yul\":844:963   */\n    tag_73:\n        /* \"#utility.yul\":1002:1003   */\n      0x00\n        /* \"#utility.yul\":1027:1077   */\n      tag_75\n        /* \"#utility.yul\":1069:1076   */\n      dup5\n        /* \"#utility.yul\":1060:1066   */\n      dup3\n        /* \"#utility.yul\":1049:1058   */\n      dup6\n        /* \"#utility.yul\":1045:1067   */\n      add\n        /* \"#utility.yul\":1027:1077   */\n      tag_59\n      jump\t// in\n    tag_75:\n        /* \"#utility.yul\":1017:1077   */\n      swap2\n      pop\n        /* \"#utility.yul\":973:1087   */\n      pop\n        /* \"#utility.yul\":771:1094   */\n      swap3\n      swap2\n      pop\n      pop\n      jump\t// out\n        /* \"#utility.yul\":1100:1429   */\n    tag_39:\n        /* \"#utility.yul\":1159:1165   */\n      0x00\n        /* \"#utility.yul\":1208:1210   */\n      0x20\n        /* \"#utility.yul\":1196:1205   */\n      dup3\n        /* \"#utility.yul\":1187:1194   */\n      dup5\n        /* \"#utility.yul\":1183:1206   */\n      sub\n        /* \"#utility.yul\":1179:1211   */\n      slt\n        /* \"#utility.yul\":1176:1295   */\n      iszero\n      tag_77\n      jumpi\n        /* \"#utility.yul\":1214:1293   */\n      tag_78\n      tag_70\n      jump\t// in\n    tag_78:\n        /* \"#utility.yul\":1176:1295   */\n    tag_77:\n        /* \"#utility.yul\":1334:1335   */\n      0x00\n        /* \"#utility.yul\":1359:1412   */\n      tag_79\n        /* \"#utility.yul\":1404:1411   */\n      dup5\n        /* \"#utility.yul\":1395:1401   */\n      dup3\n        /* \"#utility.yul\":1384:1393   */\n      dup6\n        /* \"#utility.yul\":1380:1402   */\n      add\n        /* \"#utility.yul\":1359:1412   */\n      tag_63\n      jump\t// in\n    tag_79:\n        /* \"#utility.yul\":1349:1412   */\n      swap2\n      pop\n        /* \"#utility.yul\":1305:1422   */\n      pop\n        /* \"#utility.yul\":1100:1429   */\n      swap3\n      swap2\n      pop\n      pop\n      jump\t// out\n        /* \"#utility.yul\":1435:1553   */\n    tag_80:\n        /* \"#utility.yul\":1522:1546   */\n      tag_82\n        /* \"#utility.yul\":1540:1545   */\n      dup2\n        /* \"#utility.yul\":1522:1546   */\n      tag_83\n      jump\t// in\n    tag_82:\n        /* \"#utility.yul\":1517:1520   */\n      dup3\n        /* \"#utility.yul\":1510:1547   */\n      mstore\n        /* \"#utility.yul\":1435:1553   */\n      pop\n      pop\n      jump\t// out\n        /* \"#utility.yul\":1559:1668   */\n    tag_84:\n        /* \"#utility.yul\":1640:1661   */\n      tag_86\n        /* \"#utility.yul\":1655:1660   */\n      dup2\n        /* \"#utility.yul\":1640:1661   */\n      tag_87\n      jump\t// in\n    tag_86:\n        /* \"#utility.yul\":1635:1638   */\n      dup3\n        /* \"#utility.yul\":1628:1662   */\n      mstore\n        /* \"#utility.yul\":1559:1668   */\n      pop\n      pop\n      jump\t// out\n        /* \"#utility.yul\":1674:1792   */\n    tag_88:\n        /* \"#utility.yul\":1761:1785   */\n      tag_90\n        /* \"#utility.yul\":1779:1784   */\n      dup2\n        /* \"#utility.yul\":1761:1785   */\n      tag_91\n      jump\t// in\n    tag_90:\n        /* \"#utility.yul\":1756:1759   */\n      dup3\n        /* \"#utility.yul\":1749:1786   */\n      mstore\n        /* \"#utility.yul\":1674:1792   */\n      pop\n      pop\n      jump\t// out\n        /* \"#utility.yul\":1798:1910   */\n    tag_92:\n        /* \"#utility.yul\":1881:1903   */\n      tag_94\n        /* \"#utility.yul\":1897:1902   */\n      dup2\n        /* \"#utility.yul\":1881:1903   */\n      tag_95\n      jump\t// in\n    tag_94:\n        /* \"#utility.yul\":1876:1879   */\n      dup3\n        /* \"#utility.yul\":1869:1904   */\n      mstore\n        /* \"#utility.yul\":1798:1910   */\n      pop\n      pop\n      jump\t// out\n        /* \"#utility.yul\":1916:2138   */\n    tag_24:\n        /* \"#utility.yul\":2009:2013   */\n      0x00\n        /* \"#utility.yul\":2047:2049   */\n      0x20\n        /* \"#utility.yul\":2036:2045   */\n      dup3\n        /* \"#utility.yul\":2032:2050   */\n      add\n        /* \"#utility.yul\":2024:2050   */\n      swap1\n      pop\n        /* \"#utility.yul\":2060:2131   */\n      tag_97\n        /* \"#utility.yul\":2128:2129   */\n      0x00\n        /* \"#utility.yul\":2117:2126   */\n      dup4\n        /* \"#utility.yul\":2113:2130   */\n      add\n        /* \"#utility.yul\":2104:2110   */\n      dup5\n        /* \"#utility.yul\":2060:2131   */\n      tag_80\n      jump\t// in\n    tag_97:\n        /* \"#utility.yul\":1916:2138   */\n      swap3\n      swap2\n      pop\n      pop\n      jump\t// out\n        /* \"#utility.yul\":2144:2354   */\n    tag_30:\n        /* \"#utility.yul\":2231:2235   */\n      0x00\n        /* \"#utility.yul\":2269:2271   */\n      0x20\n        /* \"#utility.yul\":2258:2267   */\n      dup3\n        /* \"#utility.yul\":2254:2272   */\n      add\n        /* \"#utility.yul\":2246:2272   */\n      swap1\n      pop\n        /* \"#utility.yul\":2282:2347   */\n      tag_99\n        /* \"#utility.yul\":2344:2345   */\n      0x00\n        /* \"#utility.yul\":2333:2342   */\n      dup4\n        /* \"#utility.yul\":2329:2346   */\n      add\n        /* \"#utility.yul\":2320:2326   */\n      dup5\n        /* \"#utility.yul\":2282:2347   */\n      tag_84\n      jump\t// in\n    tag_99:\n        /* \"#utility.yul\":2144:2354   */\n      swap3\n      swap2\n      pop\n      pop\n      jump\t// out\n        /* \"#utility.yul\":2360:2582   */\n    tag_16:\n        /* \"#utility.yul\":2453:2457   */\n      0x00\n        /* \"#utility.yul\":2491:2493   */\n      0x20\n        /* \"#utility.yul\":2480:2489   */\n      dup3\n        /* \"#utility.yul\":2476:2494   */\n      add\n        /* \"#utility.yul\":2468:2494   */\n      swap1\n      pop\n        /* \"#utility.yul\":2504:2575   */\n      tag_101\n        /* \"#utility.yul\":2572:2573   */\n      0x00\n        /* \"#utility.yul\":2561:2570   */\n      dup4\n        /* \"#utility.yul\":2557:2574   */\n      add\n        /* \"#utility.yul\":2548:2554   */\n      dup5\n        /* \"#utility.yul\":2504:2575   */\n      tag_88\n      jump\t// in\n    tag_101:\n        /* \"#utility.yul\":2360:2582   */\n      swap3\n      swap2\n      pop\n      pop\n      jump\t// out\n        /* \"#utility.yul\":2588:2802   */\n    tag_36:\n        /* \"#utility.yul\":2677:2681   */\n      0x00\n        /* \"#utility.yul\":2715:2717   */\n      0x20\n        /* \"#utility.yul\":2704:2713   */\n      dup3\n        /* \"#utility.yul\":2700:2718   */\n      add\n        /* \"#utility.yul\":2692:2718   */\n      swap1\n      pop\n        /* \"#utility.yul\":2728:2795   */\n      tag_103\n        /* \"#utility.yul\":2792:2793   */\n      0x00\n        /* \"#utility.yul\":2781:2790   */\n      dup4\n        /* \"#utility.yul\":2777:2794   */\n      add\n        /* \"#utility.yul\":2768:2774   */\n      dup5\n        /* \"#utility.yul\":2728:2795   */\n      tag_92\n      jump\t// in\n    tag_103:\n        /* \"#utility.yul\":2588:2802   */\n      swap3\n      swap2\n      pop\n      pop\n      jump\t// out\n        /* \"#utility.yul\":2889:2985   */\n    tag_83:\n        /* \"#utility.yul\":2926:2933   */\n      0x00\n        /* \"#utility.yul\":2955:2979   */\n      tag_107\n        /* \"#utility.yul\":2973:2978   */\n      dup3\n        /* \"#utility.yul\":2955:2979   */\n      tag_108\n      jump\t// in\n    tag_107:\n        /* \"#utility.yul\":2944:2979   */\n      swap1\n      pop\n        /* \"#utility.yul\":2889:2985   */\n      swap2\n      swap1\n      pop\n      jump\t// out\n        /* \"#utility.yul\":2991:3081   */\n    tag_87:\n        /* \"#utility.yul\":3025:3032   */\n      0x00\n        /* \"#utility.yul\":3068:3073   */\n      dup2\n        /* \"#utility.yul\":3061:3074   */\n      iszero\n        /* \"#utility.yul\":3054:3075   */\n      iszero\n        /* \"#utility.yul\":3043:3075   */\n      swap1\n      pop\n        /* \"#utility.yul\":2991:3081   */\n      swap2\n      swap1\n      pop\n      jump\t// out\n        /* \"#utility.yul\":3087:3213   */\n    tag_108:\n        /* \"#utility.yul\":3124:3131   */\n      0x00\n        /* \"#utility.yul\":3164:3206   */\n      0xffffffffffffffffffffffffffffffffffffffff\n        /* \"#utility.yul\":3157:3162   */\n      dup3\n        /* \"#utility.yul\":3153:3207   */\n      and\n        /* \"#utility.yul\":3142:3207   */\n      swap1\n      pop\n        /* \"#utility.yul\":3087:3213   */\n      swap2\n      swap1\n      pop\n      jump\t// out\n        /* \"#utility.yul\":3219:3296   */\n    tag_91:\n        /* \"#utility.yul\":3256:3263   */\n      0x00\n        /* \"#utility.yul\":3285:3290   */\n      dup2\n        /* \"#utility.yul\":3274:3290   */\n      swap1\n      pop\n        /* \"#utility.yul\":3219:3296   */\n      swap2\n      swap1\n      pop\n      jump\t// out\n        /* \"#utility.yul\":3302:3388   */\n    tag_95:\n        /* \"#utility.yul\":3337:3344   */\n      0x00\n        /* \"#utility.yul\":3377:3381   */\n      0xff\n        /* \"#utility.yul\":3370:3375   */\n      dup3\n        /* \"#utility.yul\":3366:3382   */\n      and\n        /* \"#utility.yul\":3355:3382   */\n      swap1\n      pop\n        /* \"#utility.yul\":3302:3388   */\n      swap2\n      swap1\n      pop\n      jump\t// out\n        /* \"#utility.yul\":3394:3561   */\n    tag_51:\n        /* \"#utility.yul\":3431:3434   */\n      0x00\n        /* \"#utility.yul\":3454:3476   */\n      tag_114\n        /* \"#utility.yul\":3470:3475   */\n      dup3\n        /* \"#utility.yul\":3454:3476   */\n      tag_95\n      jump\t// in\n    tag_114:\n        /* \"#utility.yul\":3445:3476   */\n      swap2\n      pop\n        /* \"#utility.yul\":3498:3502   */\n      0x00\n        /* \"#utility.yul\":3491:3496   */\n      dup3\n        /* \"#utility.yul\":3488:3503   */\n      eq\n        /* \"#utility.yul\":3485:3526   */\n      iszero\n      tag_115\n      jumpi\n        /* \"#utility.yul\":3506:3524   */\n      tag_116\n      tag_117\n      jump\t// in\n    tag_116:\n        /* \"#utility.yul\":3485:3526   */\n    tag_115:\n        /* \"#utility.yul\":3553:3554   */\n      0x01\n        /* \"#utility.yul\":3546:3551   */\n      dup3\n        /* \"#utility.yul\":3542:3555   */\n      sub\n        /* \"#utility.yul\":3535:3555   */\n      swap1\n      pop\n        /* \"#utility.yul\":3394:3561   */\n      swap2\n      swap1\n      pop\n      jump\t// out\n        /* \"#utility.yul\":3567:3734   */\n    tag_48:\n        /* \"#utility.yul\":3604:3607   */\n      0x00\n        /* \"#utility.yul\":3627:3649   */\n      tag_119\n        /* \"#utility.yul\":3643:3648   */\n      dup3\n        /* \"#utility.yul\":3627:3649   */\n      tag_95\n      jump\t// in\n    tag_119:\n        /* \"#utility.yul\":3618:3649   */\n      swap2\n      pop\n        /* \"#utility.yul\":3671:3675   */\n      0xff\n        /* \"#utility.yul\":3664:3669   */\n      dup3\n        /* \"#utility.yul\":3661:3676   */\n      eq\n        /* \"#utility.yul\":3658:3699   */\n      iszero\n      tag_120\n      jumpi\n        /* \"#utility.yul\":3679:3697   */\n      tag_121\n      tag_117\n      jump\t// in\n    tag_121:\n        /* \"#utility.yul\":3658:3699   */\n    tag_120:\n        /* \"#utility.yul\":3726:3727   */\n      0x01\n        /* \"#utility.yul\":3719:3724   */\n      dup3\n        /* \"#utility.yul\":3715:3728   */\n      add\n        /* \"#utility.yul\":3708:3728   */\n      swap1\n      pop\n        /* \"#utility.yul\":3567:3734   */\n      swap2\n      swap1\n      pop\n      jump\t// out\n        /* \"#utility.yul\":3740:3920   */\n    tag_117:\n        /* \"#utility.yul\":3788:3865   */\n      0x4e487b7100000000000000000000000000000000000000000000000000000000\n        /* \"#utility.yul\":3785:3786   */\n      0x00\n        /* \"#utility.yul\":3778:3866   */\n      mstore\n        /* \"#utility.yul\":3885:3889   */\n      0x11\n        /* \"#utility.yul\":3882:3883   */\n      0x04\n        /* \"#utility.yul\":3875:3890   */\n      mstore\n        /* \"#utility.yul\":3909:3913   */\n      0x24\n        /* \"#utility.yul\":3906:3907   */\n      0x00\n        /* \"#utility.yul\":3899:3914   */\n      revert\n        /* \"#utility.yul\":4049:4166   */\n    tag_70:\n        /* \"#utility.yul\":4158:4159   */\n      0x00\n        /* \"#utility.yul\":4155:4156   */\n      dup1\n        /* \"#utility.yul\":4148:4160   */\n      revert\n        /* \"#utility.yul\":4172:4294   */\n    tag_58:\n        /* \"#utility.yul\":4245:4269   */\n      tag_127\n        /* \"#utility.yul\":4263:4268   */\n      dup2\n        /* \"#utility.yul\":4245:4269   */\n      tag_83\n      jump\t// in\n    tag_127:\n        /* \"#utility.yul\":4238:4243   */\n      dup2\n        /* \"#utility.yul\":4235:4270   */\n      eq\n        /* \"#utility.yul\":4225:4288   */\n      tag_128\n      jumpi\n        /* \"#utility.yul\":4284:4285   */\n      0x00\n        /* \"#utility.yul\":4281:4282   */\n      dup1\n        /* \"#utility.yul\":4274:4286   */\n      revert\n        /* \"#utility.yul\":4225:4288   */\n    tag_128:\n        /* \"#utility.yul\":4172:4294   */\n      pop\n      jump\t// out\n        /* \"#utility.yul\":4300:4416   */\n    tag_62:\n        /* \"#utility.yul\":4370:4391   */\n      tag_130\n        /* \"#utility.yul\":4385:4390   */\n      dup2\n        /* \"#utility.yul\":4370:4391   */\n      tag_87\n      jump\t// in\n    tag_130:\n        /* \"#utility.yul\":4363:4368   */\n      dup2\n        /* \"#utility.yul\":4360:4392   */\n      eq\n        /* \"#utility.yul\":4350:4410   */\n      tag_131\n      jumpi\n        /* \"#utility.yul\":4406:4407   */\n      0x00\n        /* \"#utility.yul\":4403:4404   */\n      dup1\n        /* \"#utility.yul\":4396:4408   */\n      revert\n        /* \"#utility.yul\":4350:4410   */\n    tag_131:\n        /* \"#utility.yul\":4300:4416   */\n      pop\n      jump\t// out\n        /* \"#utility.yul\":4422:4544   */\n    tag_66:\n        /* \"#utility.yul\":4495:4519   */\n      tag_133\n        /* \"#utility.yul\":4513:4518   */\n      dup2\n        /* \"#utility.yul\":4495:4519   */\n      tag_91\n      jump\t// in\n    tag_133:\n        /* \"#utility.yul\":4488:4493   */\n      dup2\n        /* \"#utility.yul\":4485:4520   */\n      eq\n        /* \"#utility.yul\":4475:4538   */\n      tag_134\n      jumpi\n        /* \"#utility.yul\":4534:4535   */\n      0x00\n        /* \"#utility.yul\":4531:4532   */\n      dup1\n        /* \"#utility.yul\":4524:4536   */\n      revert\n        /* \"#utility.yul\":4475:4538   */\n    tag_134:\n        /* \"#utility.yul\":4422:4544   */\n      pop\n      jump\t// out\n\n    auxdata: 0xa26469706673582212204a43879a622025a182c2d509a6f292d8d24d8568c2fbb23f941c1c6b83933b2164736f6c63430008070033\n}\n",
				"bytecode": {
					"linkReferences": {},
					"object": "608060405234801561001057600080fd5b5061056b806100206000396000f3fe608060405234801561001057600080fd5b50600436106100935760003560e01c80636deecdbe116100665780636deecdbe146100fa578063debbaf2b14610118578063e2a4b2af14610122578063e492fd8414610140578063eb1b30d91461015c57610093565b806306540f7e146100985780630e807d6e146100b657806326b85ee1146100d257806333b87eeb146100f0575b600080fd5b6100a0610178565b6040516100ad91906103dd565b60405180910390f35b6100d060048036038101906100cb91906102e4565b61017e565b005b6100da6101c2565b6040516100e791906103a7565b60405180910390f35b6100f86101e8565b005b610102610221565b60405161010f91906103c2565b60405180910390f35b610120610234565b005b61012a61026d565b60405161013791906103f8565b60405180910390f35b61015a6004803603810190610155919061033e565b61027e565b005b61017660048036038101906101719190610311565b610288565b005b60005481565b80600160026101000a81548173ffffffffffffffffffffffffffffffffffffffff021916908373ffffffffffffffffffffffffffffffffffffffff16021790555050565b600160029054906101000a900473ffffffffffffffffffffffffffffffffffffffff1681565b60018081819054906101000a900460ff168092919061020690610492565b91906101000a81548160ff021916908360ff16021790555050565b600160009054906101000a900460ff1681565b60018081819054906101000a900460ff168092919061025290610468565b91906101000a81548160ff021916908360ff16021790555050565b60018054906101000a900460ff1681565b8060008190555050565b80600160006101000a81548160ff02191690831515021790555050565b6000813590506102b4816104f0565b92915050565b6000813590506102c981610507565b92915050565b6000813590506102de8161051e565b92915050565b6000602082840312156102fa576102f96104eb565b5b6000610308848285016102a5565b91505092915050565b600060208284031215610327576103266104eb565b5b6000610335848285016102ba565b91505092915050565b600060208284031215610354576103536104eb565b5b6000610362848285016102cf565b91505092915050565b61037481610413565b82525050565b61038381610425565b82525050565b61039281610451565b82525050565b6103a18161045b565b82525050565b60006020820190506103bc600083018461036b565b92915050565b60006020820190506103d7600083018461037a565b92915050565b60006020820190506103f26000830184610389565b92915050565b600060208201905061040d6000830184610398565b92915050565b600061041e82610431565b9050919050565b60008115159050919050565b600073ffffffffffffffffffffffffffffffffffffffff82169050919050565b6000819050919050565b600060ff82169050919050565b60006104738261045b565b91506000821415610487576104866104bc565b5b600182039050919050565b600061049d8261045b565b915060ff8214156104b1576104b06104bc565b5b600182019050919050565b7f4e487b7100000000000000000000000000000000000000000000000000000000600052601160045260246000fd5b600080fd5b6104f981610413565b811461050457600080fd5b50565b61051081610425565b811461051b57600080fd5b50565b61052781610451565b811461053257600080fd5b5056fea26469706673582212204a43879a622025a182c2d509a6f292d8d24d8568c2fbb23f941c1c6b83933b2164736f6c63430008070033",
					"opcodes": "PUSH1 0x80 PUSH1 0x40 MSTORE CALLVALUE DUP1 ISZERO PUSH2 0x10 JUMPI PUSH1 0x0 DUP1 REVERT JUMPDEST POP PUSH2 0x56B DUP1 PUSH2 0x20 PUSH1 0x0 CODECOPY PUSH1 0x0 RETURN INVALID PUSH1 0x80 PUSH1 0x40 MSTORE CALLVALUE DUP1 ISZERO PUSH2 0x10 JUMPI PUSH1 0x0 DUP1 REVERT JUMPDEST POP PUSH1 0x4 CALLDATASIZE LT PUSH2 0x93 JUMPI PUSH1 0x0 CALLDATALOAD PUSH1 0xE0 SHR DUP1 PUSH4 0x6DEECDBE GT PUSH2 0x66 JUMPI DUP1 PUSH4 0x6DEECDBE EQ PUSH2 0xFA JUMPI DUP1 PUSH4 0xDEBBAF2B EQ PUSH2 0x118 JUMPI DUP1 PUSH4 0xE2A4B2AF EQ PUSH2 0x122 JUMPI DUP1 PUSH4 0xE492FD84 EQ PUSH2 0x140 JUMPI DUP1 PUSH4 0xEB1B30D9 EQ PUSH2 0x15C JUMPI PUSH2 0x93 JUMP JUMPDEST DUP1 PUSH4 0x6540F7E EQ PUSH2 0x98 JUMPI DUP1 PUSH4 0xE807D6E EQ PUSH2 0xB6 JUMPI DUP1 PUSH4 0x26B85EE1 EQ PUSH2 0xD2 JUMPI DUP1 PUSH4 0x33B87EEB EQ PUSH2 0xF0 JUMPI JUMPDEST PUSH1 0x0 DUP1 REVERT JUMPDEST PUSH2 0xA0 PUSH2 0x178 JUMP JUMPDEST PUSH1 0x40 MLOAD PUSH2 0xAD SWAP2 SWAP1 PUSH2 0x3DD JUMP JUMPDEST PUSH1 0x40 MLOAD DUP1 SWAP2 SUB SWAP1 RETURN JUMPDEST PUSH2 0xD0 PUSH1 0x4 DUP1 CALLDATASIZE SUB DUP2 ADD SWAP1 PUSH2 0xCB SWAP2 SWAP1 PUSH2 0x2E4 JUMP JUMPDEST PUSH2 0x17E JUMP JUMPDEST STOP JUMPDEST PUSH2 0xDA PUSH2 0x1C2 JUMP JUMPDEST PUSH1 0x40 MLOAD PUSH2 0xE7 SWAP2 SWAP1 PUSH2 0x3A7 JUMP JUMPDEST PUSH1 0x40 MLOAD DUP1 SWAP2 SUB SWAP1 RETURN JUMPDEST PUSH2 0xF8 PUSH2 0x1E8 JUMP JUMPDEST STOP JUMPDEST PUSH2 0x102 PUSH2 0x221 JUMP JUMPDEST PUSH1 0x40 MLOAD PUSH2 0x10F SWAP2 SWAP1 PUSH2 0x3C2 JUMP JUMPDEST PUSH1 0x40 MLOAD DUP1 SWAP2 SUB SWAP1 RETURN JUMPDEST PUSH2 0x120 PUSH2 0x234 JUMP JUMPDEST STOP JUMPDEST PUSH2 0x12A PUSH2 0x26D JUMP JUMPDEST PUSH1 0x40 MLOAD PUSH2 0x137 SWAP2 SWAP1 PUSH2 0x3F8 JUMP JUMPDEST PUSH1 0x40 MLOAD DUP1 SWAP2 SUB SWAP1 RETURN JUMPDEST PUSH2 0x15A PUSH1 0x4 DUP1 CALLDATASIZE SUB DUP2 ADD SWAP1 PUSH2 0x155 SWAP2 SWAP1 PUSH2 0x33E JUMP JUMPDEST PUSH2 0x27E JUMP JUMPDEST STOP JUMPDEST PUSH2 0x176 PUSH1 0x4 DUP1 CALLDATASIZE SUB DUP2 ADD SWAP1 PUSH2 0x171 SWAP2 SWAP1 PUSH2 0x311 JUMP JUMPDEST PUSH2 0x288 JUMP JUMPDEST STOP JUMPDEST PUSH1 0x0 SLOAD DUP2 JUMP JUMPDEST DUP1 PUSH1 0x1 PUSH1 0x2 PUSH2 0x100 EXP DUP2 SLOAD DUP2 PUSH20 0xFFFFFFFFFFFFFFFFFFFFFFFFFFFFFFFFFFFFFFFF MUL NOT AND SWAP1 DUP4 PUSH20 0xFFFFFFFFFFFFFFFFFFFFFFFFFFFFFFFFFFFFFFFF AND MUL OR SWAP1 SSTORE POP POP JUMP JUMPDEST PUSH1 0x1 PUSH1 0x2 SWAP1 SLOAD SWAP1 PUSH2 0x100 EXP SWAP1 DIV PUSH20 0xFFFFFFFFFFFFFFFFFFFFFFFFFFFFFFFFFFFFFFFF AND DUP2 JUMP JUMPDEST PUSH1 0x1 DUP1 DUP2 DUP2 SWAP1 SLOAD SWAP1 PUSH2 0x100 EXP SWAP1 DIV PUSH1 0xFF AND DUP1 SWAP3 SWAP2 SWAP1 PUSH2 0x206 SWAP1 PUSH2 0x492 JUMP JUMPDEST SWAP2 SWAP1 PUSH2 0x100 EXP DUP2 SLOAD DUP2 PUSH1 0xFF MUL NOT AND SWAP1 DUP4 PUSH1 0xFF AND MUL OR SWAP1 SSTORE POP POP JUMP JUMPDEST PUSH1 0x1 PUSH1 0x0 SWAP1 SLOAD SWAP1 PUSH2 0x100 EXP SWAP1 DIV PUSH1 0xFF AND DUP2 JUMP JUMPDEST PUSH1 0x1 DUP1 DUP2 DUP2 SWAP1 SLOAD SWAP1 PUSH2 0x100 EXP SWAP1 DIV PUSH1 0xFF AND DUP1 SWAP3 SWAP2 SWAP1 PUSH2 0x252 SWAP1 PUSH2 0x468 JUMP JUMPDEST SWAP2 SWAP1 PUSH2 0x100 EXP DUP2 SLOAD DUP2 PUSH1 0xFF MUL NOT AND SWAP1 DUP4 PUSH1 0xFF AND MUL OR SWAP1 SSTORE POP POP JUMP JUMPDEST PUSH1 0x1 DUP1 SLOAD SWAP1 PUSH2 0x100 EXP SWAP1 DIV PUSH1 0xFF AND DUP2 JUMP JUMPDEST DUP1 PUSH1 0x0 DUP2 SWAP1 SSTORE POP POP JUMP JUMPDEST DUP1 PUSH1 0x1 PUSH1 0x0 PUSH2 0x100 EXP DUP2 SLOAD DUP2 PUSH1 0xFF MUL NOT AND SWAP1 DUP4 ISZERO ISZERO MUL OR SWAP1 SSTORE POP POP JUMP JUMPDEST PUSH1 0x0 DUP2 CALLDATALOAD SWAP1 POP PUSH2 0x2B4 DUP2 PUSH2 0x4F0 JUMP JUMPDEST SWAP3 SWAP2 POP POP JUMP JUMPDEST PUSH1 0x0 DUP2 CALLDATALOAD SWAP1 POP PUSH2 0x2C9 DUP2 PUSH2 0x507 JUMP JUMPDEST SWAP3 SWAP2 POP POP JUMP JUMPDEST PUSH1 0x0 DUP2 CALLDATALOAD SWAP1 POP PUSH2 0x2DE DUP2 PUSH2 0x51E JUMP JUMPDEST SWAP3 SWAP2 POP POP JUMP JUMPDEST PUSH1 0x0 PUSH1 0x20 DUP3 DUP5 SUB SLT ISZERO PUSH2 0x2FA JUMPI PUSH2 0x2F9 PUSH2 0x4EB JUMP JUMPDEST JUMPDEST PUSH1 0x0 PUSH2 0x308 DUP5 DUP3 DUP6 ADD PUSH2 0x2A5 JUMP JUMPDEST SWAP2 POP POP SWAP3 SWAP2 POP POP JUMP JUMPDEST PUSH1 0x0 PUSH1 0x20 DUP3 DUP5 SUB SLT ISZERO PUSH2 0x327 JUMPI PUSH2 0x326 PUSH2 0x4EB JUMP JUMPDEST JUMPDEST PUSH1 0x0 PUSH2 0x335 DUP5 DUP3 DUP6 ADD PUSH2 0x2BA JUMP JUMPDEST SWAP2 POP POP SWAP3 SWAP2 POP POP JUMP JUMPDEST PUSH1 0x0 PUSH1 0x20 DUP3 DUP5 SUB SLT ISZERO PUSH2 0x354 JUMPI PUSH2 0x353 PUSH2 0x4EB JUMP JUMPDEST JUMPDEST PUSH1 0x0 PUSH2 0x362 DUP5 DUP3 DUP6 ADD PUSH2 0x2CF JUMP JUMPDEST SWAP2 POP POP SWAP3 SWAP2 POP POP JUMP JUMPDEST PUSH2 0x374 DUP2 PUSH2 0x413 JUMP JUMPDEST DUP3 MSTORE POP POP JUMP JUMPDEST PUSH2 0x383 DUP2 PUSH2 0x425 JUMP JUMPDEST DUP3 MSTORE POP POP JUMP JUMPDEST PUSH2 0x392 DUP2 PUSH2 0x451 JUMP JUMPDEST DUP3 MSTORE POP POP JUMP JUMPDEST PUSH2 0x3A1 DUP2 PUSH2 0x45B JUMP JUMPDEST DUP3 MSTORE POP POP JUMP JUMPDEST PUSH1 0x0 PUSH1 0x20 DUP3 ADD SWAP1 POP PUSH2 0x3BC PUSH1 0x0 DUP4 ADD DUP5 PUSH2 0x36B JUMP JUMPDEST SWAP3 SWAP2 POP POP JUMP JUMPDEST PUSH1 0x0 PUSH1 0x20 DUP3 ADD SWAP1 POP PUSH2 0x3D7 PUSH1 0x0 DUP4 ADD DUP5 PUSH2 0x37A JUMP JUMPDEST SWAP3 SWAP2 POP POP JUMP JUMPDEST PUSH1 0x0 PUSH1 0x20 DUP3 ADD SWAP1 POP PUSH2 0x3F2 PUSH1 0x0 DUP4 ADD DUP5 PUSH2 0x389 JUMP JUMPDEST SWAP3 SWAP2 POP POP JUMP JUMPDEST PUSH1 0x0 PUSH1 0x20 DUP3 ADD SWAP1 POP PUSH2 0x40D PUSH1 0x0 DUP4 ADD DUP5 PUSH2 0x398 JUMP JUMPDEST SWAP3 SWAP2 POP POP JUMP JUMPDEST PUSH1 0x0 PUSH2 0x41E DUP3 PUSH2 0x431 JUMP JUMPDEST SWAP1 POP SWAP2 SWAP1 POP JUMP JUMPDEST PUSH1 0x0 DUP2 ISZERO ISZERO SWAP1 POP SWAP2 SWAP1 POP JUMP JUMPDEST PUSH1 0x0 PUSH20 0xFFFFFFFFFFFFFFFFFFFFFFFFFFFFFFFFFFFFFFFF DUP3 AND SWAP1 POP SWAP2 SWAP1 POP JUMP JUMPDEST PUSH1 0x0 DUP2 SWAP1 POP SWAP2 SWAP1 POP JUMP JUMPDEST PUSH1 0x0 PUSH1 0xFF DUP3 AND SWAP1 POP SWAP2 SWAP1 POP JUMP JUMPDEST PUSH1 0x0 PUSH2 0x473 DUP3 PUSH2 0x45B JUMP JUMPDEST SWAP2 POP PUSH1 0x0 DUP3 EQ ISZERO PUSH2 0x487 JUMPI PUSH2 0x486 PUSH2 0x4BC JUMP JUMPDEST JUMPDEST PUSH1 0x1 DUP3 SUB SWAP1 POP SWAP2 SWAP1 POP JUMP JUMPDEST PUSH1 0x0 PUSH2 0x49D DUP3 PUSH2 0x45B JUMP JUMPDEST SWAP2 POP PUSH1 0xFF DUP3 EQ ISZERO PUSH2 0x4B1 JUMPI PUSH2 0x4B0 PUSH2 0x4BC JUMP JUMPDEST JUMPDEST PUSH1 0x1 DUP3 ADD SWAP1 POP SWAP2 SWAP1 POP JUMP JUMPDEST PUSH32 0x4E487B7100000000000000000000000000000000000000000000000000000000 PUSH1 0x0 MSTORE PUSH1 0x11 PUSH1 0x4 MSTORE PUSH1 0x24 PUSH1 0x0 REVERT JUMPDEST PUSH1 0x0 DUP1 REVERT JUMPDEST PUSH2 0x4F9 DUP2 PUSH2 0x413 JUMP JUMPDEST DUP2 EQ PUSH2 0x504 JUMPI PUSH1 0x0 DUP1 REVERT JUMPDEST POP JUMP JUMPDEST PUSH2 0x510 DUP2 PUSH2 0x425 JUMP JUMPDEST DUP2 EQ PUSH2 0x51B JUMPI PUSH1 0x0 DUP1 REVERT JUMPDEST POP JUMP JUMPDEST PUSH2 0x527 DUP2 PUSH2 0x451 JUMP JUMPDEST DUP2 EQ PUSH2 0x532 JUMPI PUSH1 0x0 DUP1 REVERT JUMPDEST POP JUMP INVALID LOG2 PUSH5 0x6970667358 0x22 SLT KECCAK256 0x4A NUMBER DUP8 SWAP11 PUSH3 0x2025A1 DUP3 0xC2 0xD5 MULMOD 0xA6 CALLCODE SWAP3 0xD8 0xD2 0x4D DUP6 PUSH9 0xC2FBB23F941C1C6B83 SWAP4 EXTCODESIZE 0x21 PUSH5 0x736F6C6343 STOP ADDMOD SMOD STOP CALLER "
				},
				"gasEstimates": {
					"creation": {
						"codeDepositCost": "277400",
						"executionCost": "318",
						"totalCost": "277718"
					},
					"external": {
						"decreamentUint8()": "26824",
						"increamentUint8()": "26869",
						"myAddress()": "2609",
						"myBool()": "2471",
						"myUint()": "2430",
						"myUint8()": "2562",
						"setAdress(address)": "24795",
						"setMyBool(bool)": "24767",
						"setMyUint(uint256)": "22586"
					}
				},
				"methodIdentifiers": {
					"decreamentUint8()": "debbaf2b",
					"increamentUint8()": "33b87eeb",
					"myAddress()": "26b85ee1",
					"myBool()": "6deecdbe",
					"myUint()": "06540f7e",
					"myUint8()": "e2a4b2af",
					"setAdress(address)": "0e807d6e",
					"setMyBool(bool)": "eb1b30d9",
					"setMyUint(uint256)": "e492fd84"
				}
			},
			"storageLayout": {
				"storage": [
					{
						"astId": 3,
						"contract": "Variable.sol:WorkingWithVariables",
						"label": "myUint",
						"offset": 0,
						"slot": "0",
						"type": "t_uint256"
					},
					{
						"astId": 15,
						"contract": "Variable.sol:WorkingWithVariables",
						"label": "myBool",
						"offset": 0,
						"slot": "1",
						"type": "t_bool"
					},
					{
						"astId": 27,
						"contract": "Variable.sol:WorkingWithVariables",
						"label": "myUint8",
						"offset": 1,
						"slot": "1",
						"type": "t_uint8"
					},
					{
						"astId": 43,
						"contract": "Variable.sol:WorkingWithVariables",
						"label": "myAddress",
						"offset": 2,
						"slot": "1",
						"type": "t_address"
					}
				],
				"types": {
					"t_address": {
						"encoding": "inplace",
						"label": "address",
						"numberOfBytes": "20"
					},
					"t_bool": {
						"encoding": "inplace",
						"label": "bool",
						"numberOfBytes": "1"
					},
					"t_uint256": {
						"encoding": "inplace",
						"label": "uint256",
						"numberOfBytes": "32"
					},
					"t_uint8": {
						"encoding": "inplace",
						"label": "uint8",
						"numberOfBytes": "1"
					}
				}
			},
			"userdoc": {
				"kind": "user",
				"methods": {},
				"version": 1
			}
		}
	}
}