{
	"MappingStruct.sol": {
		"MappingStruct": {
			"abi": [
				{
					"inputs": [
						{
							"internalType": "address",
							"name": "",
							"type": "address"
						}
					],
					"name": "balanceReceived",
					"outputs": [
						{
							"internalType": "uint256",
							"name": "",
							"type": "uint256"
						}
					],
					"stateMutability": "view",
					"type": "function"
				},
				{
					"inputs": [],
					"name": "getBalance",
					"outputs": [
						{
							"internalType": "uint256",
							"name": "",
							"type": "uint256"
						}
					],
					"stateMutability": "view",
					"type": "function"
				},
				{
					"inputs": [],
					"name": "sendMoney",
					"outputs": [],
					"stateMutability": "payable",
					"type": "function"
				},
				{
					"inputs": [
						{
							"internalType": "address payable",
							"name": "_to",
							"type": "address"
						},
						{
							"internalType": "uint256",
							"name": "_amount",
							"type": "uint256"
						}
					],
					"name": "withDrawMoney",
					"outputs": [],
					"stateMutability": "nonpayable",
					"type": "function"
				}
			],
			"devdoc": {
				"kind": "dev",
				"methods": {},
				"version": 1
			},
			"evm": {
				"assembly": "    /* \"MappingStruct.sol\":27:410  contract MappingStruct{\r... */\n  mstore(0x40, 0x80)\n  callvalue\n  dup1\n  iszero\n  tag_1\n  jumpi\n  0x00\n  dup1\n  revert\ntag_1:\n  pop\n  dataSize(sub_0)\n  dup1\n  dataOffset(sub_0)\n  0x00\n  codecopy\n  0x00\n  return\nstop\n\nsub_0: assembly {\n        /* \"MappingStruct.sol\":27:410  contract MappingStruct{\r... */\n      mstore(0x40, 0x80)\n      jumpi(tag_1, lt(calldatasize, 0x04))\n      shr(0xe0, calldataload(0x00))\n      dup1\n      0x12065fe0\n      eq\n      tag_2\n      jumpi\n      dup1\n      0xb39d7b7c\n      eq\n      tag_3\n      jumpi\n      dup1\n      0xcbedbf5a\n      eq\n      tag_4\n      jumpi\n      dup1\n      0xd18a42e1\n      eq\n      tag_5\n      jumpi\n    tag_1:\n      0x00\n      dup1\n      revert\n        /* \"MappingStruct.sol\":112:207  function getBalance() public view returns (uint){\r... */\n    tag_2:\n      callvalue\n      dup1\n      iszero\n      tag_6\n      jumpi\n      0x00\n      dup1\n      revert\n    tag_6:\n      pop\n      tag_7\n      tag_8\n      jump\t// in\n    tag_7:\n      mload(0x40)\n      tag_9\n      swap2\n      swap1\n      tag_10\n      jump\t// in\n    tag_9:\n      mload(0x40)\n      dup1\n      swap2\n      sub\n      swap1\n      return\n        /* \"MappingStruct.sol\":317:392  function withDrawMoney(address payable _to, uint _amount) public {\r... */\n    tag_3:\n      callvalue\n      dup1\n      iszero\n      tag_11\n      jumpi\n      0x00\n      dup1\n      revert\n    tag_11:\n      pop\n      tag_12\n      0x04\n      dup1\n      calldatasize\n      sub\n      dup2\n      add\n      swap1\n      tag_13\n      swap2\n      swap1\n      tag_14\n      jump\t// in\n    tag_13:\n      tag_15\n      jump\t// in\n    tag_12:\n      stop\n        /* \"MappingStruct.sol\":215:309  function sendMoney() public payable{\r... */\n    tag_4:\n      tag_16\n      tag_17\n      jump\t// in\n    tag_16:\n      stop\n        /* \"MappingStruct.sol\":56:103  mapping(address => uint) public balanceReceived */\n    tag_5:\n      callvalue\n      dup1\n      iszero\n      tag_18\n      jumpi\n      0x00\n      dup1\n      revert\n    tag_18:\n      pop\n      tag_19\n      0x04\n      dup1\n      calldatasize\n      sub\n      dup2\n      add\n      swap1\n      tag_20\n      swap2\n      swap1\n      tag_21\n      jump\t// in\n    tag_20:\n      tag_22\n      jump\t// in\n    tag_19:\n      mload(0x40)\n      tag_23\n      swap2\n      swap1\n      tag_10\n      jump\t// in\n    tag_23:\n      mload(0x40)\n      dup1\n      swap2\n      sub\n      swap1\n      return\n        /* \"MappingStruct.sol\":112:207  function getBalance() public view returns (uint){\r... */\n    tag_8:\n        /* \"MappingStruct.sol\":155:159  uint */\n      0x00\n        /* \"MappingStruct.sol\":178:199  address(this).balance */\n      selfbalance\n        /* \"MappingStruct.sol\":171:199  return address(this).balance */\n      swap1\n      pop\n        /* \"MappingStruct.sol\":112:207  function getBalance() public view returns (uint){\r... */\n      swap1\n      jump\t// out\n        /* \"MappingStruct.sol\":317:392  function withDrawMoney(address payable _to, uint _amount) public {\r... */\n    tag_15:\n      pop\n      pop\n      jump\t// out\n        /* \"MappingStruct.sol\":215:309  function sendMoney() public payable{\r... */\n    tag_17:\n        /* \"MappingStruct.sol\":292:301  msg.value */\n      callvalue\n        /* \"MappingStruct.sol\":261:276  balanceReceived */\n      0x00\n        /* \"MappingStruct.sol\":261:288  balanceReceived[msg.sender] */\n      dup1\n        /* \"MappingStruct.sol\":277:287  msg.sender */\n      caller\n        /* \"MappingStruct.sol\":261:288  balanceReceived[msg.sender] */\n      0xffffffffffffffffffffffffffffffffffffffff\n      and\n      0xffffffffffffffffffffffffffffffffffffffff\n      and\n      dup2\n      mstore\n      0x20\n      add\n      swap1\n      dup2\n      mstore\n      0x20\n      add\n      0x00\n      keccak256\n      0x00\n        /* \"MappingStruct.sol\":261:301  balanceReceived[msg.sender] += msg.value */\n      dup3\n      dup3\n      sload\n      tag_27\n      swap2\n      swap1\n      tag_28\n      jump\t// in\n    tag_27:\n      swap3\n      pop\n      pop\n      dup2\n      swap1\n      sstore\n      pop\n        /* \"MappingStruct.sol\":215:309  function sendMoney() public payable{\r... */\n      jump\t// out\n        /* \"MappingStruct.sol\":56:103  mapping(address => uint) public balanceReceived */\n    tag_22:\n      mstore(0x20, 0x00)\n      dup1\n      0x00\n      mstore\n      keccak256(0x00, 0x40)\n      0x00\n      swap2\n      pop\n      swap1\n      pop\n      sload\n      dup2\n      jump\t// out\n        /* \"#utility.yul\":7:146   */\n    tag_30:\n        /* \"#utility.yul\":53:58   */\n      0x00\n        /* \"#utility.yul\":91:97   */\n      dup2\n        /* \"#utility.yul\":78:98   */\n      calldataload\n        /* \"#utility.yul\":69:98   */\n      swap1\n      pop\n        /* \"#utility.yul\":107:140   */\n      tag_32\n        /* \"#utility.yul\":134:139   */\n      dup2\n        /* \"#utility.yul\":107:140   */\n      tag_33\n      jump\t// in\n    tag_32:\n        /* \"#utility.yul\":7:146   */\n      swap3\n      swap2\n      pop\n      pop\n      jump\t// out\n        /* \"#utility.yul\":152:307   */\n    tag_34:\n        /* \"#utility.yul\":206:211   */\n      0x00\n        /* \"#utility.yul\":244:250   */\n      dup2\n        /* \"#utility.yul\":231:251   */\n      calldataload\n        /* \"#utility.yul\":222:251   */\n      swap1\n      pop\n        /* \"#utility.yul\":260:301   */\n      tag_36\n        /* \"#utility.yul\":295:300   */\n      dup2\n        /* \"#utility.yul\":260:301   */\n      tag_37\n      jump\t// in\n    tag_36:\n        /* \"#utility.yul\":152:307   */\n      swap3\n      swap2\n      pop\n      pop\n      jump\t// out\n        /* \"#utility.yul\":313:452   */\n    tag_38:\n        /* \"#utility.yul\":359:364   */\n      0x00\n        /* \"#utility.yul\":397:403   */\n      dup2\n        /* \"#utility.yul\":384:404   */\n      calldataload\n        /* \"#utility.yul\":375:404   */\n      swap1\n      pop\n        /* \"#utility.yul\":413:446   */\n      tag_40\n        /* \"#utility.yul\":440:445   */\n      dup2\n        /* \"#utility.yul\":413:446   */\n      tag_41\n      jump\t// in\n    tag_40:\n        /* \"#utility.yul\":313:452   */\n      swap3\n      swap2\n      pop\n      pop\n      jump\t// out\n        /* \"#utility.yul\":458:787   */\n    tag_21:\n        /* \"#utility.yul\":517:523   */\n      0x00\n        /* \"#utility.yul\":566:568   */\n      0x20\n        /* \"#utility.yul\":554:563   */\n      dup3\n        /* \"#utility.yul\":545:552   */\n      dup5\n        /* \"#utility.yul\":541:564   */\n      sub\n        /* \"#utility.yul\":537:569   */\n      slt\n        /* \"#utility.yul\":534:653   */\n      iszero\n      tag_43\n      jumpi\n        /* \"#utility.yul\":572:651   */\n      tag_44\n      tag_45\n      jump\t// in\n    tag_44:\n        /* \"#utility.yul\":534:653   */\n    tag_43:\n        /* \"#utility.yul\":692:693   */\n      0x00\n        /* \"#utility.yul\":717:770   */\n      tag_46\n        /* \"#utility.yul\":762:769   */\n      dup5\n        /* \"#utility.yul\":753:759   */\n      dup3\n        /* \"#utility.yul\":742:751   */\n      dup6\n        /* \"#utility.yul\":738:760   */\n      add\n        /* \"#utility.yul\":717:770   */\n      tag_30\n      jump\t// in\n    tag_46:\n        /* \"#utility.yul\":707:770   */\n      swap2\n      pop\n        /* \"#utility.yul\":663:780   */\n      pop\n        /* \"#utility.yul\":458:787   */\n      swap3\n      swap2\n      pop\n      pop\n      jump\t// out\n        /* \"#utility.yul\":793:1283   */\n    tag_14:\n        /* \"#utility.yul\":869:875   */\n      0x00\n        /* \"#utility.yul\":877:883   */\n      dup1\n        /* \"#utility.yul\":926:928   */\n      0x40\n        /* \"#utility.yul\":914:923   */\n      dup4\n        /* \"#utility.yul\":905:912   */\n      dup6\n        /* \"#utility.yul\":901:924   */\n      sub\n        /* \"#utility.yul\":897:929   */\n      slt\n        /* \"#utility.yul\":894:1013   */\n      iszero\n      tag_48\n      jumpi\n        /* \"#utility.yul\":932:1011   */\n      tag_49\n      tag_45\n      jump\t// in\n    tag_49:\n        /* \"#utility.yul\":894:1013   */\n    tag_48:\n        /* \"#utility.yul\":1052:1053   */\n      0x00\n        /* \"#utility.yul\":1077:1138   */\n      tag_50\n        /* \"#utility.yul\":1130:1137   */\n      dup6\n        /* \"#utility.yul\":1121:1127   */\n      dup3\n        /* \"#utility.yul\":1110:1119   */\n      dup7\n        /* \"#utility.yul\":1106:1128   */\n      add\n        /* \"#utility.yul\":1077:1138   */\n      tag_34\n      jump\t// in\n    tag_50:\n        /* \"#utility.yul\":1067:1138   */\n      swap3\n      pop\n        /* \"#utility.yul\":1023:1148   */\n      pop\n        /* \"#utility.yul\":1187:1189   */\n      0x20\n        /* \"#utility.yul\":1213:1266   */\n      tag_51\n        /* \"#utility.yul\":1258:1265   */\n      dup6\n        /* \"#utility.yul\":1249:1255   */\n      dup3\n        /* \"#utility.yul\":1238:1247   */\n      dup7\n        /* \"#utility.yul\":1234:1256   */\n      add\n        /* \"#utility.yul\":1213:1266   */\n      tag_38\n      jump\t// in\n    tag_51:\n        /* \"#utility.yul\":1203:1266   */\n      swap2\n      pop\n        /* \"#utility.yul\":1158:1276   */\n      pop\n        /* \"#utility.yul\":793:1283   */\n      swap3\n      pop\n      swap3\n      swap1\n      pop\n      jump\t// out\n        /* \"#utility.yul\":1289:1407   */\n    tag_52:\n        /* \"#utility.yul\":1376:1400   */\n      tag_54\n        /* \"#utility.yul\":1394:1399   */\n      dup2\n        /* \"#utility.yul\":1376:1400   */\n      tag_55\n      jump\t// in\n    tag_54:\n        /* \"#utility.yul\":1371:1374   */\n      dup3\n        /* \"#utility.yul\":1364:1401   */\n      mstore\n        /* \"#utility.yul\":1289:1407   */\n      pop\n      pop\n      jump\t// out\n        /* \"#utility.yul\":1413:1635   */\n    tag_10:\n        /* \"#utility.yul\":1506:1510   */\n      0x00\n        /* \"#utility.yul\":1544:1546   */\n      0x20\n        /* \"#utility.yul\":1533:1542   */\n      dup3\n        /* \"#utility.yul\":1529:1547   */\n      add\n        /* \"#utility.yul\":1521:1547   */\n      swap1\n      pop\n        /* \"#utility.yul\":1557:1628   */\n      tag_57\n        /* \"#utility.yul\":1625:1626   */\n      0x00\n        /* \"#utility.yul\":1614:1623   */\n      dup4\n        /* \"#utility.yul\":1610:1627   */\n      add\n        /* \"#utility.yul\":1601:1607   */\n      dup5\n        /* \"#utility.yul\":1557:1628   */\n      tag_52\n      jump\t// in\n    tag_57:\n        /* \"#utility.yul\":1413:1635   */\n      swap3\n      swap2\n      pop\n      pop\n      jump\t// out\n        /* \"#utility.yul\":1722:2027   */\n    tag_28:\n        /* \"#utility.yul\":1762:1765   */\n      0x00\n        /* \"#utility.yul\":1781:1801   */\n      tag_61\n        /* \"#utility.yul\":1799:1800   */\n      dup3\n        /* \"#utility.yul\":1781:1801   */\n      tag_55\n      jump\t// in\n    tag_61:\n        /* \"#utility.yul\":1776:1801   */\n      swap2\n      pop\n        /* \"#utility.yul\":1815:1835   */\n      tag_62\n        /* \"#utility.yul\":1833:1834   */\n      dup4\n        /* \"#utility.yul\":1815:1835   */\n      tag_55\n      jump\t// in\n    tag_62:\n        /* \"#utility.yul\":1810:1835   */\n      swap3\n      pop\n        /* \"#utility.yul\":1969:1970   */\n      dup3\n        /* \"#utility.yul\":1901:1967   */\n      0xffffffffffffffffffffffffffffffffffffffffffffffffffffffffffffffff\n        /* \"#utility.yul\":1897:1971   */\n      sub\n        /* \"#utility.yul\":1894:1895   */\n      dup3\n        /* \"#utility.yul\":1891:1972   */\n      gt\n        /* \"#utility.yul\":1888:1995   */\n      iszero\n      tag_63\n      jumpi\n        /* \"#utility.yul\":1975:1993   */\n      tag_64\n      tag_65\n      jump\t// in\n    tag_64:\n        /* \"#utility.yul\":1888:1995   */\n    tag_63:\n        /* \"#utility.yul\":2019:2020   */\n      dup3\n        /* \"#utility.yul\":2016:2017   */\n      dup3\n        /* \"#utility.yul\":2012:2021   */\n      add\n        /* \"#utility.yul\":2005:2021   */\n      swap1\n      pop\n        /* \"#utility.yul\":1722:2027   */\n      swap3\n      swap2\n      pop\n      pop\n      jump\t// out\n        /* \"#utility.yul\":2033:2129   */\n    tag_66:\n        /* \"#utility.yul\":2070:2077   */\n      0x00\n        /* \"#utility.yul\":2099:2123   */\n      tag_68\n        /* \"#utility.yul\":2117:2122   */\n      dup3\n        /* \"#utility.yul\":2099:2123   */\n      tag_69\n      jump\t// in\n    tag_68:\n        /* \"#utility.yul\":2088:2123   */\n      swap1\n      pop\n        /* \"#utility.yul\":2033:2129   */\n      swap2\n      swap1\n      pop\n      jump\t// out\n        /* \"#utility.yul\":2135:2239   */\n    tag_70:\n        /* \"#utility.yul\":2180:2187   */\n      0x00\n        /* \"#utility.yul\":2209:2233   */\n      tag_72\n        /* \"#utility.yul\":2227:2232   */\n      dup3\n        /* \"#utility.yul\":2209:2233   */\n      tag_69\n      jump\t// in\n    tag_72:\n        /* \"#utility.yul\":2198:2233   */\n      swap1\n      pop\n        /* \"#utility.yul\":2135:2239   */\n      swap2\n      swap1\n      pop\n      jump\t// out\n        /* \"#utility.yul\":2245:2371   */\n    tag_69:\n        /* \"#utility.yul\":2282:2289   */\n      0x00\n        /* \"#utility.yul\":2322:2364   */\n      0xffffffffffffffffffffffffffffffffffffffff\n        /* \"#utility.yul\":2315:2320   */\n      dup3\n        /* \"#utility.yul\":2311:2365   */\n      and\n        /* \"#utility.yul\":2300:2365   */\n      swap1\n      pop\n        /* \"#utility.yul\":2245:2371   */\n      swap2\n      swap1\n      pop\n      jump\t// out\n        /* \"#utility.yul\":2377:2454   */\n    tag_55:\n        /* \"#utility.yul\":2414:2421   */\n      0x00\n        /* \"#utility.yul\":2443:2448   */\n      dup2\n        /* \"#utility.yul\":2432:2448   */\n      swap1\n      pop\n        /* \"#utility.yul\":2377:2454   */\n      swap2\n      swap1\n      pop\n      jump\t// out\n        /* \"#utility.yul\":2460:2640   */\n    tag_65:\n        /* \"#utility.yul\":2508:2585   */\n      0x4e487b7100000000000000000000000000000000000000000000000000000000\n        /* \"#utility.yul\":2505:2506   */\n      0x00\n        /* \"#utility.yul\":2498:2586   */\n      mstore\n        /* \"#utility.yul\":2605:2609   */\n      0x11\n        /* \"#utility.yul\":2602:2603   */\n      0x04\n        /* \"#utility.yul\":2595:2610   */\n      mstore\n        /* \"#utility.yul\":2629:2633   */\n      0x24\n        /* \"#utility.yul\":2626:2627   */\n      0x00\n        /* \"#utility.yul\":2619:2634   */\n      revert\n        /* \"#utility.yul\":2769:2886   */\n    tag_45:\n        /* \"#utility.yul\":2878:2879   */\n      0x00\n        /* \"#utility.yul\":2875:2876   */\n      dup1\n        /* \"#utility.yul\":2868:2880   */\n      revert\n        /* \"#utility.yul\":2892:3014   */\n    tag_33:\n        /* \"#utility.yul\":2965:2989   */\n      tag_80\n        /* \"#utility.yul\":2983:2988   */\n      dup2\n        /* \"#utility.yul\":2965:2989   */\n      tag_66\n      jump\t// in\n    tag_80:\n        /* \"#utility.yul\":2958:2963   */\n      dup2\n        /* \"#utility.yul\":2955:2990   */\n      eq\n        /* \"#utility.yul\":2945:3008   */\n      tag_81\n      jumpi\n        /* \"#utility.yul\":3004:3005   */\n      0x00\n        /* \"#utility.yul\":3001:3002   */\n      dup1\n        /* \"#utility.yul\":2994:3006   */\n      revert\n        /* \"#utility.yul\":2945:3008   */\n    tag_81:\n        /* \"#utility.yul\":2892:3014   */\n      pop\n      jump\t// out\n        /* \"#utility.yul\":3020:3158   */\n    tag_37:\n        /* \"#utility.yul\":3101:3133   */\n      tag_83\n        /* \"#utility.yul\":3127:3132   */\n      dup2\n        /* \"#utility.yul\":3101:3133   */\n      tag_70\n      jump\t// in\n    tag_83:\n        /* \"#utility.yul\":3094:3099   */\n      dup2\n        /* \"#utility.yul\":3091:3134   */\n      eq\n        /* \"#utility.yul\":3081:3152   */\n      tag_84\n      jumpi\n        /* \"#utility.yul\":3148:3149   */\n      0x00\n        /* \"#utility.yul\":3145:3146   */\n      dup1\n        /* \"#utility.yul\":3138:3150   */\n      revert\n        /* \"#utility.yul\":3081:3152   */\n    tag_84:\n        /* \"#utility.yul\":3020:3158   */\n      pop\n      jump\t// out\n        /* \"#utility.yul\":3164:3286   */\n    tag_41:\n        /* \"#utility.yul\":3237:3261   */\n      tag_86\n        /* \"#utility.yul\":3255:3260   */\n      dup2\n        /* \"#utility.yul\":3237:3261   */\n      tag_55\n      jump\t// in\n    tag_86:\n        /* \"#utility.yul\":3230:3235   */\n      dup2\n        /* \"#utility.yul\":3227:3262   */\n      eq\n        /* \"#utility.yul\":3217:3280   */\n      tag_87\n      jumpi\n        /* \"#utility.yul\":3276:3277   */\n      0x00\n        /* \"#utility.yul\":3273:3274   */\n      dup1\n        /* \"#utility.yul\":3266:3278   */\n      revert\n        /* \"#utility.yul\":3217:3280   */\n    tag_87:\n        /* \"#utility.yul\":3164:3286   */\n      pop\n      jump\t// out\n\n    auxdata: 0xa2646970667358221220f0d2424f153774da235d3a6aac3dc81b4dafc7d671cd04b2eca9259b6d974c6564736f6c63430008070033\n}\n",
				"bytecode": {
					"linkReferences": {},
					"object": "608060405234801561001057600080fd5b50610383806100206000396000f3fe60806040526004361061003f5760003560e01c806312065fe014610044578063b39d7b7c1461006f578063cbedbf5a14610098578063d18a42e1146100a2575b600080fd5b34801561005057600080fd5b506100596100df565b6040516100669190610215565b60405180910390f35b34801561007b57600080fd5b50610096600480360381019061009191906101c6565b6100e7565b005b6100a06100eb565b005b3480156100ae57600080fd5b506100c960048036038101906100c49190610199565b610142565b6040516100d69190610215565b60405180910390f35b600047905090565b5050565b346000803373ffffffffffffffffffffffffffffffffffffffff1673ffffffffffffffffffffffffffffffffffffffff16815260200190815260200160002060008282546101399190610230565b92505081905550565b60006020528060005260406000206000915090505481565b60008135905061016981610308565b92915050565b60008135905061017e8161031f565b92915050565b60008135905061019381610336565b92915050565b6000602082840312156101af576101ae610303565b5b60006101bd8482850161015a565b91505092915050565b600080604083850312156101dd576101dc610303565b5b60006101eb8582860161016f565b92505060206101fc85828601610184565b9150509250929050565b61020f816102ca565b82525050565b600060208201905061022a6000830184610206565b92915050565b600061023b826102ca565b9150610246836102ca565b9250827fffffffffffffffffffffffffffffffffffffffffffffffffffffffffffffffff0382111561027b5761027a6102d4565b5b828201905092915050565b6000610291826102aa565b9050919050565b60006102a3826102aa565b9050919050565b600073ffffffffffffffffffffffffffffffffffffffff82169050919050565b6000819050919050565b7f4e487b7100000000000000000000000000000000000000000000000000000000600052601160045260246000fd5b600080fd5b61031181610286565b811461031c57600080fd5b50565b61032881610298565b811461033357600080fd5b50565b61033f816102ca565b811461034a57600080fd5b5056fea2646970667358221220f0d2424f153774da235d3a6aac3dc81b4dafc7d671cd04b2eca9259b6d974c6564736f6c63430008070033",
					"opcodes": "PUSH1 0x80 PUSH1 0x40 MSTORE CALLVALUE DUP1 ISZERO PUSH2 0x10 JUMPI PUSH1 0x0 DUP1 REVERT JUMPDEST POP PUSH2 0x383 DUP1 PUSH2 0x20 PUSH1 0x0 CODECOPY PUSH1 0x0 RETURN INVALID PUSH1 0x80 PUSH1 0x40 MSTORE PUSH1 0x4 CALLDATASIZE LT PUSH2 0x3F JUMPI PUSH1 0x0 CALLDATALOAD PUSH1 0xE0 SHR DUP1 PUSH4 0x12065FE0 EQ PUSH2 0x44 JUMPI DUP1 PUSH4 0xB39D7B7C EQ PUSH2 0x6F JUMPI DUP1 PUSH4 0xCBEDBF5A EQ PUSH2 0x98 JUMPI DUP1 PUSH4 0xD18A42E1 EQ PUSH2 0xA2 JUMPI JUMPDEST PUSH1 0x0 DUP1 REVERT JUMPDEST CALLVALUE DUP1 ISZERO PUSH2 0x50 JUMPI PUSH1 0x0 DUP1 REVERT JUMPDEST POP PUSH2 0x59 PUSH2 0xDF JUMP JUMPDEST PUSH1 0x40 MLOAD PUSH2 0x66 SWAP2 SWAP1 PUSH2 0x215 JUMP JUMPDEST PUSH1 0x40 MLOAD DUP1 SWAP2 SUB SWAP1 RETURN JUMPDEST CALLVALUE DUP1 ISZERO PUSH2 0x7B JUMPI PUSH1 0x0 DUP1 REVERT JUMPDEST POP PUSH2 0x96 PUSH1 0x4 DUP1 CALLDATASIZE SUB DUP2 ADD SWAP1 PUSH2 0x91 SWAP2 SWAP1 PUSH2 0x1C6 JUMP JUMPDEST PUSH2 0xE7 JUMP JUMPDEST STOP JUMPDEST PUSH2 0xA0 PUSH2 0xEB JUMP JUMPDEST STOP JUMPDEST CALLVALUE DUP1 ISZERO PUSH2 0xAE JUMPI PUSH1 0x0 DUP1 REVERT JUMPDEST POP PUSH2 0xC9 PUSH1 0x4 DUP1 CALLDATASIZE SUB DUP2 ADD SWAP1 PUSH2 0xC4 SWAP2 SWAP1 PUSH2 0x199 JUMP JUMPDEST PUSH2 0x142 JUMP JUMPDEST PUSH1 0x40 MLOAD PUSH2 0xD6 SWAP2 SWAP1 PUSH2 0x215 JUMP JUMPDEST PUSH1 0x40 MLOAD DUP1 SWAP2 SUB SWAP1 RETURN JUMPDEST PUSH1 0x0 SELFBALANCE SWAP1 POP SWAP1 JUMP JUMPDEST POP POP JUMP JUMPDEST CALLVALUE PUSH1 0x0 DUP1 CALLER PUSH20 0xFFFFFFFFFFFFFFFFFFFFFFFFFFFFFFFFFFFFFFFF AND PUSH20 0xFFFFFFFFFFFFFFFFFFFFFFFFFFFFFFFFFFFFFFFF AND DUP2 MSTORE PUSH1 0x20 ADD SWAP1 DUP2 MSTORE PUSH1 0x20 ADD PUSH1 0x0 KECCAK256 PUSH1 0x0 DUP3 DUP3 SLOAD PUSH2 0x139 SWAP2 SWAP1 PUSH2 0x230 JUMP JUMPDEST SWAP3 POP POP DUP2 SWAP1 SSTORE POP JUMP JUMPDEST PUSH1 0x0 PUSH1 0x20 MSTORE DUP1 PUSH1 0x0 MSTORE PUSH1 0x40 PUSH1 0x0 KECCAK256 PUSH1 0x0 SWAP2 POP SWAP1 POP SLOAD DUP2 JUMP JUMPDEST PUSH1 0x0 DUP2 CALLDATALOAD SWAP1 POP PUSH2 0x169 DUP2 PUSH2 0x308 JUMP JUMPDEST SWAP3 SWAP2 POP POP JUMP JUMPDEST PUSH1 0x0 DUP2 CALLDATALOAD SWAP1 POP PUSH2 0x17E DUP2 PUSH2 0x31F JUMP JUMPDEST SWAP3 SWAP2 POP POP JUMP JUMPDEST PUSH1 0x0 DUP2 CALLDATALOAD SWAP1 POP PUSH2 0x193 DUP2 PUSH2 0x336 JUMP JUMPDEST SWAP3 SWAP2 POP POP JUMP JUMPDEST PUSH1 0x0 PUSH1 0x20 DUP3 DUP5 SUB SLT ISZERO PUSH2 0x1AF JUMPI PUSH2 0x1AE PUSH2 0x303 JUMP JUMPDEST JUMPDEST PUSH1 0x0 PUSH2 0x1BD DUP5 DUP3 DUP6 ADD PUSH2 0x15A JUMP JUMPDEST SWAP2 POP POP SWAP3 SWAP2 POP POP JUMP JUMPDEST PUSH1 0x0 DUP1 PUSH1 0x40 DUP4 DUP6 SUB SLT ISZERO PUSH2 0x1DD JUMPI PUSH2 0x1DC PUSH2 0x303 JUMP JUMPDEST JUMPDEST PUSH1 0x0 PUSH2 0x1EB DUP6 DUP3 DUP7 ADD PUSH2 0x16F JUMP JUMPDEST SWAP3 POP POP PUSH1 0x20 PUSH2 0x1FC DUP6 DUP3 DUP7 ADD PUSH2 0x184 JUMP JUMPDEST SWAP2 POP POP SWAP3 POP SWAP3 SWAP1 POP JUMP JUMPDEST PUSH2 0x20F DUP2 PUSH2 0x2CA JUMP JUMPDEST DUP3 MSTORE POP POP JUMP JUMPDEST PUSH1 0x0 PUSH1 0x20 DUP3 ADD SWAP1 POP PUSH2 0x22A PUSH1 0x0 DUP4 ADD DUP5 PUSH2 0x206 JUMP JUMPDEST SWAP3 SWAP2 POP POP JUMP JUMPDEST PUSH1 0x0 PUSH2 0x23B DUP3 PUSH2 0x2CA JUMP JUMPDEST SWAP2 POP PUSH2 0x246 DUP4 PUSH2 0x2CA JUMP JUMPDEST SWAP3 POP DUP3 PUSH32 0xFFFFFFFFFFFFFFFFFFFFFFFFFFFFFFFFFFFFFFFFFFFFFFFFFFFFFFFFFFFFFFFF SUB DUP3 GT ISZERO PUSH2 0x27B JUMPI PUSH2 0x27A PUSH2 0x2D4 JUMP JUMPDEST JUMPDEST DUP3 DUP3 ADD SWAP1 POP SWAP3 SWAP2 POP POP JUMP JUMPDEST PUSH1 0x0 PUSH2 0x291 DUP3 PUSH2 0x2AA JUMP JUMPDEST SWAP1 POP SWAP2 SWAP1 POP JUMP JUMPDEST PUSH1 0x0 PUSH2 0x2A3 DUP3 PUSH2 0x2AA JUMP JUMPDEST SWAP1 POP SWAP2 SWAP1 POP JUMP JUMPDEST PUSH1 0x0 PUSH20 0xFFFFFFFFFFFFFFFFFFFFFFFFFFFFFFFFFFFFFFFF DUP3 AND SWAP1 POP SWAP2 SWAP1 POP JUMP JUMPDEST PUSH1 0x0 DUP2 SWAP1 POP SWAP2 SWAP1 POP JUMP JUMPDEST PUSH32 0x4E487B7100000000000000000000000000000000000000000000000000000000 PUSH1 0x0 MSTORE PUSH1 0x11 PUSH1 0x4 MSTORE PUSH1 0x24 PUSH1 0x0 REVERT JUMPDEST PUSH1 0x0 DUP1 REVERT JUMPDEST PUSH2 0x311 DUP2 PUSH2 0x286 JUMP JUMPDEST DUP2 EQ PUSH2 0x31C JUMPI PUSH1 0x0 DUP1 REVERT JUMPDEST POP JUMP JUMPDEST PUSH2 0x328 DUP2 PUSH2 0x298 JUMP JUMPDEST DUP2 EQ PUSH2 0x333 JUMPI PUSH1 0x0 DUP1 REVERT JUMPDEST POP JUMP JUMPDEST PUSH2 0x33F DUP2 PUSH2 0x2CA JUMP JUMPDEST DUP2 EQ PUSH2 0x34A JUMPI PUSH1 0x0 DUP1 REVERT JUMPDEST POP JUMP INVALID LOG2 PUSH5 0x6970667358 0x22 SLT KECCAK256 CREATE 0xD2 TIMESTAMP 0x4F ISZERO CALLDATACOPY PUSH21 0xDA235D3A6AAC3DC81B4DAFC7D671CD04B2ECA9259B PUSH14 0x974C6564736F6C63430008070033 "
				},
				"gasEstimates": {
					"creation": {
						"codeDepositCost": "179800",
						"executionCost": "226",
						"totalCost": "180026"
					},
					"external": {
						"balanceReceived(address)": "2858",
						"getBalance()": "317",
						"sendMoney()": "infinite",
						"withDrawMoney(address,uint256)": "628"
					}
				},
				"methodIdentifiers": {
					"balanceReceived(address)": "d18a42e1",
					"getBalance()": "12065fe0",
					"sendMoney()": "cbedbf5a",
					"withDrawMoney(address,uint256)": "b39d7b7c"
				}
			},
			"storageLayout": {
				"storage": [
					{
						"astId": 5,
						"contract": "MappingStruct.sol:MappingStruct",
						"label": "balanceReceived",
						"offset": 0,
						"slot": "0",
						"type": "t_mapping(t_address,t_uint256)"
					}
				],
				"types": {
					"t_address": {
						"encoding": "inplace",
						"label": "address",
						"numberOfBytes": "20"
					},
					"t_mapping(t_address,t_uint256)": {
						"encoding": "mapping",
						"key": "t_address",
						"label": "mapping(address => uint256)",
						"numberOfBytes": "32",
						"value": "t_uint256"
					},
					"t_uint256": {
						"encoding": "inplace",
						"label": "uint256",
						"numberOfBytes": "32"
					}
				}
			},
			"userdoc": {
				"kind": "user",
				"methods": {},
				"version": 1
			}
		}
	}
}