{
	"Function.sol": {
		"Function": {
			"abi": [
				{
					"inputs": [],
					"stateMutability": "nonpayable",
					"type": "constructor"
				},
				{
					"stateMutability": "payable",
					"type": "fallback"
				},
				{
					"inputs": [
						{
							"internalType": "address",
							"name": "",
							"type": "address"
						}
					],
					"name": "balanceReceived",
					"outputs": [
						{
							"internalType": "uint256",
							"name": "",
							"type": "uint256"
						}
					],
					"stateMutability": "view",
					"type": "function"
				},
				{
					"inputs": [
						{
							"internalType": "uint256",
							"name": "_amountInWei",
							"type": "uint256"
						}
					],
					"name": "convertWeiToEther",
					"outputs": [
						{
							"internalType": "uint256",
							"name": "",
							"type": "uint256"
						}
					],
					"stateMutability": "pure",
					"type": "function"
				},
				{
					"inputs": [],
					"name": "destroySmartContract",
					"outputs": [],
					"stateMutability": "nonpayable",
					"type": "function"
				},
				{
					"inputs": [],
					"name": "getOwner",
					"outputs": [
						{
							"internalType": "address",
							"name": "",
							"type": "address"
						}
					],
					"stateMutability": "view",
					"type": "function"
				},
				{
					"inputs": [],
					"name": "reveiveMoney",
					"outputs": [],
					"stateMutability": "payable",
					"type": "function"
				},
				{
					"inputs": [
						{
							"internalType": "address payable",
							"name": "_to",
							"type": "address"
						},
						{
							"internalType": "uint256",
							"name": "_amount",
							"type": "uint256"
						}
					],
					"name": "withdrawMoney",
					"outputs": [],
					"stateMutability": "payable",
					"type": "function"
				},
				{
					"stateMutability": "payable",
					"type": "receive"
				}
			],
			"devdoc": {
				"kind": "dev",
				"methods": {},
				"version": 1
			},
			"evm": {
				"assembly": "    /* \"Function.sol\":25:1220  contract Function{\r... */\n  mstore(0x40, 0x80)\n    /* \"Function.sol\":135:201  constructor() public{\r... */\n  callvalue\n  dup1\n  iszero\n  tag_1\n  jumpi\n  0x00\n  dup1\n  revert\ntag_1:\n  pop\n    /* \"Function.sol\":182:192  msg.sender */\n  caller\n    /* \"Function.sol\":166:171  owner */\n  0x01\n  0x00\n    /* \"Function.sol\":166:193  owner = payable(msg.sender) */\n  0x0100\n  exp\n  dup2\n  sload\n  dup2\n  0xffffffffffffffffffffffffffffffffffffffff\n  mul\n  not\n  and\n  swap1\n  dup4\n  0xffffffffffffffffffffffffffffffffffffffff\n  and\n  mul\n  or\n  swap1\n  sstore\n  pop\n    /* \"Function.sol\":25:1220  contract Function{\r... */\n  dataSize(sub_0)\n  dup1\n  dataOffset(sub_0)\n  0x00\n  codecopy\n  0x00\n  return\nstop\n\nsub_0: assembly {\n        /* \"Function.sol\":25:1220  contract Function{\r... */\n      mstore(0x40, 0x80)\n      jumpi(tag_1, lt(calldatasize, 0x04))\n      shr(0xe0, calldataload(0x00))\n      dup1\n      0x395a6063\n      eq\n      tag_3\n      jumpi\n      dup1\n      0x85474728\n      eq\n      tag_4\n      jumpi\n      dup1\n      0x893d20e8\n      eq\n      tag_5\n      jumpi\n      dup1\n      0xd18a42e1\n      eq\n      tag_6\n      jumpi\n      dup1\n      0xd9230e81\n      eq\n      tag_7\n      jumpi\n      dup1\n      0xf274c897\n      eq\n      tag_8\n      jumpi\n      jump(tag_2)\n    tag_1:\n      jumpi(tag_2, calldatasize)\n        /* \"Function.sol\":1195:1209  reveiveMoney() */\n      tag_11\n        /* \"Function.sol\":1195:1207  reveiveMoney */\n      tag_12\n        /* \"Function.sol\":1195:1209  reveiveMoney() */\n      jump\t// in\n    tag_11:\n        /* \"Function.sol\":25:1220  contract Function{\r... */\n      stop\n    tag_2:\n        /* \"Function.sol\":1127:1141  reveiveMoney() */\n      tag_15\n        /* \"Function.sol\":1127:1139  reveiveMoney */\n      tag_12\n        /* \"Function.sol\":1127:1141  reveiveMoney() */\n      jump\t// in\n    tag_15:\n        /* \"Function.sol\":25:1220  contract Function{\r... */\n      stop\n        /* \"Function.sol\":296:385  function convertWeiToEther(uint _amountInWei) public pure returns(uint){\r... */\n    tag_3:\n      callvalue\n      dup1\n      iszero\n      tag_16\n      jumpi\n      0x00\n      dup1\n      revert\n    tag_16:\n      pop\n      tag_17\n      0x04\n      dup1\n      calldatasize\n      sub\n      dup2\n      add\n      swap1\n      tag_18\n      swap2\n      swap1\n      tag_19\n      jump\t// in\n    tag_18:\n      tag_20\n      jump\t// in\n    tag_17:\n      mload(0x40)\n      tag_21\n      swap2\n      swap1\n      tag_22\n      jump\t// in\n    tag_21:\n      mload(0x40)\n      dup1\n      swap2\n      sub\n      swap1\n      return\n        /* \"Function.sol\":393:532  function destroySmartContract() public{\r... */\n    tag_4:\n      callvalue\n      dup1\n      iszero\n      tag_23\n      jumpi\n      0x00\n      dup1\n      revert\n    tag_23:\n      pop\n      tag_24\n      tag_25\n      jump\t// in\n    tag_24:\n      stop\n        /* \"Function.sol\":209:288  function getOwner() public view returns(address){\r... */\n    tag_5:\n      callvalue\n      dup1\n      iszero\n      tag_26\n      jumpi\n      0x00\n      dup1\n      revert\n    tag_26:\n      pop\n      tag_27\n      tag_28\n      jump\t// in\n    tag_27:\n      mload(0x40)\n      tag_29\n      swap2\n      swap1\n      tag_30\n      jump\t// in\n    tag_29:\n      mload(0x40)\n      dup1\n      swap2\n      sub\n      swap1\n      return\n        /* \"Function.sol\":49:96  mapping(address => uint) public balanceReceived */\n    tag_6:\n      callvalue\n      dup1\n      iszero\n      tag_31\n      jumpi\n      0x00\n      dup1\n      revert\n    tag_31:\n      pop\n      tag_32\n      0x04\n      dup1\n      calldatasize\n      sub\n      dup2\n      add\n      swap1\n      tag_33\n      swap2\n      swap1\n      tag_34\n      jump\t// in\n    tag_33:\n      tag_35\n      jump\t// in\n    tag_32:\n      mload(0x40)\n      tag_36\n      swap2\n      swap1\n      tag_22\n      jump\t// in\n    tag_36:\n      mload(0x40)\n      dup1\n      swap2\n      sub\n      swap1\n      return\n        /* \"Function.sol\":540:726  function reveiveMoney() public payable{\r... */\n    tag_7:\n      tag_37\n      tag_12\n      jump\t// in\n    tag_37:\n      stop\n        /* \"Function.sol\":734:1081  function withdrawMoney(address payable _to, uint _amount) public payable{\r... */\n    tag_8:\n      tag_38\n      0x04\n      dup1\n      calldatasize\n      sub\n      dup2\n      add\n      swap1\n      tag_39\n      swap2\n      swap1\n      tag_40\n      jump\t// in\n    tag_39:\n      tag_41\n      jump\t// in\n    tag_38:\n      stop\n        /* \"Function.sol\":540:726  function reveiveMoney() public payable{\r... */\n    tag_12:\n        /* \"Function.sol\":639:654  balanceReceived */\n      0x00\n        /* \"Function.sol\":639:666  balanceReceived[msg.sender] */\n      dup1\n        /* \"Function.sol\":655:665  msg.sender */\n      caller\n        /* \"Function.sol\":639:666  balanceReceived[msg.sender] */\n      0xffffffffffffffffffffffffffffffffffffffff\n      and\n      0xffffffffffffffffffffffffffffffffffffffff\n      and\n      dup2\n      mstore\n      0x20\n      add\n      swap1\n      dup2\n      mstore\n      0x20\n      add\n      0x00\n      keccak256\n      sload\n        /* \"Function.sol\":626:635  msg.value */\n      callvalue\n        /* \"Function.sol\":596:611  balanceReceived */\n      0x00\n        /* \"Function.sol\":596:623  balanceReceived[msg.sender] */\n      dup1\n        /* \"Function.sol\":612:622  msg.sender */\n      caller\n        /* \"Function.sol\":596:623  balanceReceived[msg.sender] */\n      0xffffffffffffffffffffffffffffffffffffffff\n      and\n      0xffffffffffffffffffffffffffffffffffffffff\n      and\n      dup2\n      mstore\n      0x20\n      add\n      swap1\n      dup2\n      mstore\n      0x20\n      add\n      0x00\n      keccak256\n      sload\n        /* \"Function.sol\":596:635  balanceReceived[msg.sender] + msg.value */\n      tag_43\n      swap2\n      swap1\n      tag_44\n      jump\t// in\n    tag_43:\n        /* \"Function.sol\":596:666  balanceReceived[msg.sender] + msg.value >= balanceReceived[msg.sender] */\n      lt\n      iszero\n        /* \"Function.sol\":589:667  assert(balanceReceived[msg.sender] + msg.value >= balanceReceived[msg.sender]) */\n      tag_45\n      jumpi\n      tag_46\n      tag_47\n      jump\t// in\n    tag_46:\n    tag_45:\n        /* \"Function.sol\":709:718  msg.value */\n      callvalue\n        /* \"Function.sol\":678:693  balanceReceived */\n      0x00\n        /* \"Function.sol\":678:705  balanceReceived[msg.sender] */\n      dup1\n        /* \"Function.sol\":694:704  msg.sender */\n      caller\n        /* \"Function.sol\":678:705  balanceReceived[msg.sender] */\n      0xffffffffffffffffffffffffffffffffffffffff\n      and\n      0xffffffffffffffffffffffffffffffffffffffff\n      and\n      dup2\n      mstore\n      0x20\n      add\n      swap1\n      dup2\n      mstore\n      0x20\n      add\n      0x00\n      keccak256\n      0x00\n        /* \"Function.sol\":678:718  balanceReceived[msg.sender] += msg.value */\n      dup3\n      dup3\n      sload\n      tag_48\n      swap2\n      swap1\n      tag_44\n      jump\t// in\n    tag_48:\n      swap3\n      pop\n      pop\n      dup2\n      swap1\n      sstore\n      pop\n        /* \"Function.sol\":540:726  function reveiveMoney() public payable{\r... */\n      jump\t// out\n        /* \"Function.sol\":296:385  function convertWeiToEther(uint _amountInWei) public pure returns(uint){\r... */\n    tag_20:\n        /* \"Function.sol\":362:366  uint */\n      0x00\n        /* \"Function.sol\":296:385  function convertWeiToEther(uint _amountInWei) public pure returns(uint){\r... */\n      swap2\n      swap1\n      pop\n      jump\t// out\n        /* \"Function.sol\":393:532  function destroySmartContract() public{\r... */\n    tag_25:\n        /* \"Function.sol\":464:469  owner */\n      0x01\n      0x00\n      swap1\n      sload\n      swap1\n      0x0100\n      exp\n      swap1\n      div\n      0xffffffffffffffffffffffffffffffffffffffff\n      and\n        /* \"Function.sol\":450:469  msg.sender == owner */\n      0xffffffffffffffffffffffffffffffffffffffff\n      and\n        /* \"Function.sol\":450:460  msg.sender */\n      caller\n        /* \"Function.sol\":450:469  msg.sender == owner */\n      0xffffffffffffffffffffffffffffffffffffffff\n      and\n      eq\n        /* \"Function.sol\":442:494  require(msg.sender == owner,\"You are not the owner\") */\n      tag_51\n      jumpi\n      mload(0x40)\n      0x08c379a000000000000000000000000000000000000000000000000000000000\n      dup2\n      mstore\n      0x04\n      add\n      tag_52\n      swap1\n      tag_53\n      jump\t// in\n    tag_52:\n      mload(0x40)\n      dup1\n      swap2\n      sub\n      swap1\n      revert\n    tag_51:\n        /* \"Function.sol\":518:523  owner */\n      0x01\n      0x00\n      swap1\n      sload\n      swap1\n      0x0100\n      exp\n      swap1\n      div\n      0xffffffffffffffffffffffffffffffffffffffff\n      and\n        /* \"Function.sol\":505:524  selfdestruct(owner) */\n      0xffffffffffffffffffffffffffffffffffffffff\n      and\n      selfdestruct\n        /* \"Function.sol\":209:288  function getOwner() public view returns(address){\r... */\n    tag_28:\n        /* \"Function.sol\":249:256  address */\n      0x00\n        /* \"Function.sol\":275:280  owner */\n      0x01\n      0x00\n      swap1\n      sload\n      swap1\n      0x0100\n      exp\n      swap1\n      div\n      0xffffffffffffffffffffffffffffffffffffffff\n      and\n        /* \"Function.sol\":268:280  return owner */\n      swap1\n      pop\n        /* \"Function.sol\":209:288  function getOwner() public view returns(address){\r... */\n      swap1\n      jump\t// out\n        /* \"Function.sol\":49:96  mapping(address => uint) public balanceReceived */\n    tag_35:\n      mstore(0x20, 0x00)\n      dup1\n      0x00\n      mstore\n      keccak256(0x00, 0x40)\n      0x00\n      swap2\n      pop\n      swap1\n      pop\n      sload\n      dup2\n      jump\t// out\n        /* \"Function.sol\":734:1081  function withdrawMoney(address payable _to, uint _amount) public payable{\r... */\n    tag_41:\n        /* \"Function.sol\":836:851  balanceReceived */\n      0x00\n        /* \"Function.sol\":836:863  balanceReceived[msg.sender] */\n      dup1\n        /* \"Function.sol\":852:862  msg.sender */\n      caller\n        /* \"Function.sol\":836:863  balanceReceived[msg.sender] */\n      0xffffffffffffffffffffffffffffffffffffffff\n      and\n      0xffffffffffffffffffffffffffffffffffffffff\n      and\n      dup2\n      mstore\n      0x20\n      add\n      swap1\n      dup2\n      mstore\n      0x20\n      add\n      0x00\n      keccak256\n      sload\n        /* \"Function.sol\":825:832  _amount */\n      dup2\n        /* \"Function.sol\":825:863  _amount <= balanceReceived[msg.sender] */\n      gt\n      iszero\n        /* \"Function.sol\":817:894  require(_amount <= balanceReceived[msg.sender],\"you don't have enough money\") */\n      tag_56\n      jumpi\n      mload(0x40)\n      0x08c379a000000000000000000000000000000000000000000000000000000000\n      dup2\n      mstore\n      0x04\n      add\n      tag_57\n      swap1\n      tag_58\n      jump\t// in\n    tag_57:\n      mload(0x40)\n      dup1\n      swap2\n      sub\n      swap1\n      revert\n    tag_56:\n        /* \"Function.sol\":985:992  _amount */\n      dup1\n        /* \"Function.sol\":955:970  balanceReceived */\n      0x00\n        /* \"Function.sol\":955:982  balanceReceived[msg.sender] */\n      dup1\n        /* \"Function.sol\":971:981  msg.sender */\n      caller\n        /* \"Function.sol\":955:982  balanceReceived[msg.sender] */\n      0xffffffffffffffffffffffffffffffffffffffff\n      and\n      0xffffffffffffffffffffffffffffffffffffffff\n      and\n      dup2\n      mstore\n      0x20\n      add\n      swap1\n      dup2\n      mstore\n      0x20\n      add\n      0x00\n      keccak256\n      sload\n        /* \"Function.sol\":955:992  balanceReceived[msg.sender] - _amount */\n      tag_59\n      swap2\n      swap1\n      tag_60\n      jump\t// in\n    tag_59:\n        /* \"Function.sol\":942:951  msg.value */\n      callvalue\n        /* \"Function.sol\":912:927  balanceReceived */\n      0x00\n        /* \"Function.sol\":912:939  balanceReceived[msg.sender] */\n      dup1\n        /* \"Function.sol\":928:938  msg.sender */\n      caller\n        /* \"Function.sol\":912:939  balanceReceived[msg.sender] */\n      0xffffffffffffffffffffffffffffffffffffffff\n      and\n      0xffffffffffffffffffffffffffffffffffffffff\n      and\n      dup2\n      mstore\n      0x20\n      add\n      swap1\n      dup2\n      mstore\n      0x20\n      add\n      0x00\n      keccak256\n      sload\n        /* \"Function.sol\":912:951  balanceReceived[msg.sender] + msg.value */\n      tag_61\n      swap2\n      swap1\n      tag_44\n      jump\t// in\n    tag_61:\n        /* \"Function.sol\":912:992  balanceReceived[msg.sender] + msg.value >= balanceReceived[msg.sender] - _amount */\n      lt\n      iszero\n        /* \"Function.sol\":905:993  assert(balanceReceived[msg.sender] + msg.value >= balanceReceived[msg.sender] - _amount) */\n      tag_62\n      jumpi\n      tag_63\n      tag_47\n      jump\t// in\n    tag_63:\n    tag_62:\n        /* \"Function.sol\":1034:1041  _amount */\n      dup1\n        /* \"Function.sol\":1004:1019  balanceReceived */\n      0x00\n        /* \"Function.sol\":1004:1031  balanceReceived[msg.sender] */\n      dup1\n        /* \"Function.sol\":1020:1030  msg.sender */\n      caller\n        /* \"Function.sol\":1004:1031  balanceReceived[msg.sender] */\n      0xffffffffffffffffffffffffffffffffffffffff\n      and\n      0xffffffffffffffffffffffffffffffffffffffff\n      and\n      dup2\n      mstore\n      0x20\n      add\n      swap1\n      dup2\n      mstore\n      0x20\n      add\n      0x00\n      keccak256\n      0x00\n        /* \"Function.sol\":1004:1041  balanceReceived[msg.sender]-= _amount */\n      dup3\n      dup3\n      sload\n      tag_64\n      swap2\n      swap1\n      tag_60\n      jump\t// in\n    tag_64:\n      swap3\n      pop\n      pop\n      dup2\n      swap1\n      sstore\n      pop\n        /* \"Function.sol\":1052:1055  _to */\n      dup2\n        /* \"Function.sol\":1052:1064  _to.transfer */\n      0xffffffffffffffffffffffffffffffffffffffff\n      and\n        /* \"Function.sol\":1052:1073  _to.transfer(_amount) */\n      0x08fc\n        /* \"Function.sol\":1065:1072  _amount */\n      dup3\n        /* \"Function.sol\":1052:1073  _to.transfer(_amount) */\n      swap1\n      dup2\n      iszero\n      mul\n      swap1\n      mload(0x40)\n      0x00\n      mload(0x40)\n      dup1\n      dup4\n      sub\n      dup2\n      dup6\n      dup9\n      dup9\n      call\n      swap4\n      pop\n      pop\n      pop\n      pop\n      iszero\n      dup1\n      iszero\n      tag_66\n      jumpi\n      returndatasize\n      0x00\n      dup1\n      returndatacopy\n      revert(0x00, returndatasize)\n    tag_66:\n      pop\n        /* \"Function.sol\":734:1081  function withdrawMoney(address payable _to, uint _amount) public payable{\r... */\n      pop\n      pop\n      jump\t// out\n        /* \"#utility.yul\":7:146   */\n    tag_68:\n        /* \"#utility.yul\":53:58   */\n      0x00\n        /* \"#utility.yul\":91:97   */\n      dup2\n        /* \"#utility.yul\":78:98   */\n      calldataload\n        /* \"#utility.yul\":69:98   */\n      swap1\n      pop\n        /* \"#utility.yul\":107:140   */\n      tag_70\n        /* \"#utility.yul\":134:139   */\n      dup2\n        /* \"#utility.yul\":107:140   */\n      tag_71\n      jump\t// in\n    tag_70:\n        /* \"#utility.yul\":7:146   */\n      swap3\n      swap2\n      pop\n      pop\n      jump\t// out\n        /* \"#utility.yul\":152:307   */\n    tag_72:\n        /* \"#utility.yul\":206:211   */\n      0x00\n        /* \"#utility.yul\":244:250   */\n      dup2\n        /* \"#utility.yul\":231:251   */\n      calldataload\n        /* \"#utility.yul\":222:251   */\n      swap1\n      pop\n        /* \"#utility.yul\":260:301   */\n      tag_74\n        /* \"#utility.yul\":295:300   */\n      dup2\n        /* \"#utility.yul\":260:301   */\n      tag_75\n      jump\t// in\n    tag_74:\n        /* \"#utility.yul\":152:307   */\n      swap3\n      swap2\n      pop\n      pop\n      jump\t// out\n        /* \"#utility.yul\":313:452   */\n    tag_76:\n        /* \"#utility.yul\":359:364   */\n      0x00\n        /* \"#utility.yul\":397:403   */\n      dup2\n        /* \"#utility.yul\":384:404   */\n      calldataload\n        /* \"#utility.yul\":375:404   */\n      swap1\n      pop\n        /* \"#utility.yul\":413:446   */\n      tag_78\n        /* \"#utility.yul\":440:445   */\n      dup2\n        /* \"#utility.yul\":413:446   */\n      tag_79\n      jump\t// in\n    tag_78:\n        /* \"#utility.yul\":313:452   */\n      swap3\n      swap2\n      pop\n      pop\n      jump\t// out\n        /* \"#utility.yul\":458:787   */\n    tag_34:\n        /* \"#utility.yul\":517:523   */\n      0x00\n        /* \"#utility.yul\":566:568   */\n      0x20\n        /* \"#utility.yul\":554:563   */\n      dup3\n        /* \"#utility.yul\":545:552   */\n      dup5\n        /* \"#utility.yul\":541:564   */\n      sub\n        /* \"#utility.yul\":537:569   */\n      slt\n        /* \"#utility.yul\":534:653   */\n      iszero\n      tag_81\n      jumpi\n        /* \"#utility.yul\":572:651   */\n      tag_82\n      tag_83\n      jump\t// in\n    tag_82:\n        /* \"#utility.yul\":534:653   */\n    tag_81:\n        /* \"#utility.yul\":692:693   */\n      0x00\n        /* \"#utility.yul\":717:770   */\n      tag_84\n        /* \"#utility.yul\":762:769   */\n      dup5\n        /* \"#utility.yul\":753:759   */\n      dup3\n        /* \"#utility.yul\":742:751   */\n      dup6\n        /* \"#utility.yul\":738:760   */\n      add\n        /* \"#utility.yul\":717:770   */\n      tag_68\n      jump\t// in\n    tag_84:\n        /* \"#utility.yul\":707:770   */\n      swap2\n      pop\n        /* \"#utility.yul\":663:780   */\n      pop\n        /* \"#utility.yul\":458:787   */\n      swap3\n      swap2\n      pop\n      pop\n      jump\t// out\n        /* \"#utility.yul\":793:1283   */\n    tag_40:\n        /* \"#utility.yul\":869:875   */\n      0x00\n        /* \"#utility.yul\":877:883   */\n      dup1\n        /* \"#utility.yul\":926:928   */\n      0x40\n        /* \"#utility.yul\":914:923   */\n      dup4\n        /* \"#utility.yul\":905:912   */\n      dup6\n        /* \"#utility.yul\":901:924   */\n      sub\n        /* \"#utility.yul\":897:929   */\n      slt\n        /* \"#utility.yul\":894:1013   */\n      iszero\n      tag_86\n      jumpi\n        /* \"#utility.yul\":932:1011   */\n      tag_87\n      tag_83\n      jump\t// in\n    tag_87:\n        /* \"#utility.yul\":894:1013   */\n    tag_86:\n        /* \"#utility.yul\":1052:1053   */\n      0x00\n        /* \"#utility.yul\":1077:1138   */\n      tag_88\n        /* \"#utility.yul\":1130:1137   */\n      dup6\n        /* \"#utility.yul\":1121:1127   */\n      dup3\n        /* \"#utility.yul\":1110:1119   */\n      dup7\n        /* \"#utility.yul\":1106:1128   */\n      add\n        /* \"#utility.yul\":1077:1138   */\n      tag_72\n      jump\t// in\n    tag_88:\n        /* \"#utility.yul\":1067:1138   */\n      swap3\n      pop\n        /* \"#utility.yul\":1023:1148   */\n      pop\n        /* \"#utility.yul\":1187:1189   */\n      0x20\n        /* \"#utility.yul\":1213:1266   */\n      tag_89\n        /* \"#utility.yul\":1258:1265   */\n      dup6\n        /* \"#utility.yul\":1249:1255   */\n      dup3\n        /* \"#utility.yul\":1238:1247   */\n      dup7\n        /* \"#utility.yul\":1234:1256   */\n      add\n        /* \"#utility.yul\":1213:1266   */\n      tag_76\n      jump\t// in\n    tag_89:\n        /* \"#utility.yul\":1203:1266   */\n      swap2\n      pop\n        /* \"#utility.yul\":1158:1276   */\n      pop\n        /* \"#utility.yul\":793:1283   */\n      swap3\n      pop\n      swap3\n      swap1\n      pop\n      jump\t// out\n        /* \"#utility.yul\":1289:1618   */\n    tag_19:\n        /* \"#utility.yul\":1348:1354   */\n      0x00\n        /* \"#utility.yul\":1397:1399   */\n      0x20\n        /* \"#utility.yul\":1385:1394   */\n      dup3\n        /* \"#utility.yul\":1376:1383   */\n      dup5\n        /* \"#utility.yul\":1372:1395   */\n      sub\n        /* \"#utility.yul\":1368:1400   */\n      slt\n        /* \"#utility.yul\":1365:1484   */\n      iszero\n      tag_91\n      jumpi\n        /* \"#utility.yul\":1403:1482   */\n      tag_92\n      tag_83\n      jump\t// in\n    tag_92:\n        /* \"#utility.yul\":1365:1484   */\n    tag_91:\n        /* \"#utility.yul\":1523:1524   */\n      0x00\n        /* \"#utility.yul\":1548:1601   */\n      tag_93\n        /* \"#utility.yul\":1593:1600   */\n      dup5\n        /* \"#utility.yul\":1584:1590   */\n      dup3\n        /* \"#utility.yul\":1573:1582   */\n      dup6\n        /* \"#utility.yul\":1569:1591   */\n      add\n        /* \"#utility.yul\":1548:1601   */\n      tag_76\n      jump\t// in\n    tag_93:\n        /* \"#utility.yul\":1538:1601   */\n      swap2\n      pop\n        /* \"#utility.yul\":1494:1611   */\n      pop\n        /* \"#utility.yul\":1289:1618   */\n      swap3\n      swap2\n      pop\n      pop\n      jump\t// out\n        /* \"#utility.yul\":1624:1742   */\n    tag_94:\n        /* \"#utility.yul\":1711:1735   */\n      tag_96\n        /* \"#utility.yul\":1729:1734   */\n      dup2\n        /* \"#utility.yul\":1711:1735   */\n      tag_97\n      jump\t// in\n    tag_96:\n        /* \"#utility.yul\":1706:1709   */\n      dup3\n        /* \"#utility.yul\":1699:1736   */\n      mstore\n        /* \"#utility.yul\":1624:1742   */\n      pop\n      pop\n      jump\t// out\n        /* \"#utility.yul\":1748:2114   */\n    tag_98:\n        /* \"#utility.yul\":1890:1893   */\n      0x00\n        /* \"#utility.yul\":1911:1978   */\n      tag_100\n        /* \"#utility.yul\":1975:1977   */\n      0x15\n        /* \"#utility.yul\":1970:1973   */\n      dup4\n        /* \"#utility.yul\":1911:1978   */\n      tag_101\n      jump\t// in\n    tag_100:\n        /* \"#utility.yul\":1904:1978   */\n      swap2\n      pop\n        /* \"#utility.yul\":1987:2080   */\n      tag_102\n        /* \"#utility.yul\":2076:2079   */\n      dup3\n        /* \"#utility.yul\":1987:2080   */\n      tag_103\n      jump\t// in\n    tag_102:\n        /* \"#utility.yul\":2105:2107   */\n      0x20\n        /* \"#utility.yul\":2100:2103   */\n      dup3\n        /* \"#utility.yul\":2096:2108   */\n      add\n        /* \"#utility.yul\":2089:2108   */\n      swap1\n      pop\n        /* \"#utility.yul\":1748:2114   */\n      swap2\n      swap1\n      pop\n      jump\t// out\n        /* \"#utility.yul\":2120:2486   */\n    tag_104:\n        /* \"#utility.yul\":2262:2265   */\n      0x00\n        /* \"#utility.yul\":2283:2350   */\n      tag_106\n        /* \"#utility.yul\":2347:2349   */\n      0x1b\n        /* \"#utility.yul\":2342:2345   */\n      dup4\n        /* \"#utility.yul\":2283:2350   */\n      tag_101\n      jump\t// in\n    tag_106:\n        /* \"#utility.yul\":2276:2350   */\n      swap2\n      pop\n        /* \"#utility.yul\":2359:2452   */\n      tag_107\n        /* \"#utility.yul\":2448:2451   */\n      dup3\n        /* \"#utility.yul\":2359:2452   */\n      tag_108\n      jump\t// in\n    tag_107:\n        /* \"#utility.yul\":2477:2479   */\n      0x20\n        /* \"#utility.yul\":2472:2475   */\n      dup3\n        /* \"#utility.yul\":2468:2480   */\n      add\n        /* \"#utility.yul\":2461:2480   */\n      swap1\n      pop\n        /* \"#utility.yul\":2120:2486   */\n      swap2\n      swap1\n      pop\n      jump\t// out\n        /* \"#utility.yul\":2492:2610   */\n    tag_109:\n        /* \"#utility.yul\":2579:2603   */\n      tag_111\n        /* \"#utility.yul\":2597:2602   */\n      dup2\n        /* \"#utility.yul\":2579:2603   */\n      tag_112\n      jump\t// in\n    tag_111:\n        /* \"#utility.yul\":2574:2577   */\n      dup3\n        /* \"#utility.yul\":2567:2604   */\n      mstore\n        /* \"#utility.yul\":2492:2610   */\n      pop\n      pop\n      jump\t// out\n        /* \"#utility.yul\":2616:2838   */\n    tag_30:\n        /* \"#utility.yul\":2709:2713   */\n      0x00\n        /* \"#utility.yul\":2747:2749   */\n      0x20\n        /* \"#utility.yul\":2736:2745   */\n      dup3\n        /* \"#utility.yul\":2732:2750   */\n      add\n        /* \"#utility.yul\":2724:2750   */\n      swap1\n      pop\n        /* \"#utility.yul\":2760:2831   */\n      tag_114\n        /* \"#utility.yul\":2828:2829   */\n      0x00\n        /* \"#utility.yul\":2817:2826   */\n      dup4\n        /* \"#utility.yul\":2813:2830   */\n      add\n        /* \"#utility.yul\":2804:2810   */\n      dup5\n        /* \"#utility.yul\":2760:2831   */\n      tag_94\n      jump\t// in\n    tag_114:\n        /* \"#utility.yul\":2616:2838   */\n      swap3\n      swap2\n      pop\n      pop\n      jump\t// out\n        /* \"#utility.yul\":2844:3263   */\n    tag_53:\n        /* \"#utility.yul\":3010:3014   */\n      0x00\n        /* \"#utility.yul\":3048:3050   */\n      0x20\n        /* \"#utility.yul\":3037:3046   */\n      dup3\n        /* \"#utility.yul\":3033:3051   */\n      add\n        /* \"#utility.yul\":3025:3051   */\n      swap1\n      pop\n        /* \"#utility.yul\":3097:3106   */\n      dup2\n        /* \"#utility.yul\":3091:3095   */\n      dup2\n        /* \"#utility.yul\":3087:3107   */\n      sub\n        /* \"#utility.yul\":3083:3084   */\n      0x00\n        /* \"#utility.yul\":3072:3081   */\n      dup4\n        /* \"#utility.yul\":3068:3085   */\n      add\n        /* \"#utility.yul\":3061:3108   */\n      mstore\n        /* \"#utility.yul\":3125:3256   */\n      tag_116\n        /* \"#utility.yul\":3251:3255   */\n      dup2\n        /* \"#utility.yul\":3125:3256   */\n      tag_98\n      jump\t// in\n    tag_116:\n        /* \"#utility.yul\":3117:3256   */\n      swap1\n      pop\n        /* \"#utility.yul\":2844:3263   */\n      swap2\n      swap1\n      pop\n      jump\t// out\n        /* \"#utility.yul\":3269:3688   */\n    tag_58:\n        /* \"#utility.yul\":3435:3439   */\n      0x00\n        /* \"#utility.yul\":3473:3475   */\n      0x20\n        /* \"#utility.yul\":3462:3471   */\n      dup3\n        /* \"#utility.yul\":3458:3476   */\n      add\n        /* \"#utility.yul\":3450:3476   */\n      swap1\n      pop\n        /* \"#utility.yul\":3522:3531   */\n      dup2\n        /* \"#utility.yul\":3516:3520   */\n      dup2\n        /* \"#utility.yul\":3512:3532   */\n      sub\n        /* \"#utility.yul\":3508:3509   */\n      0x00\n        /* \"#utility.yul\":3497:3506   */\n      dup4\n        /* \"#utility.yul\":3493:3510   */\n      add\n        /* \"#utility.yul\":3486:3533   */\n      mstore\n        /* \"#utility.yul\":3550:3681   */\n      tag_118\n        /* \"#utility.yul\":3676:3680   */\n      dup2\n        /* \"#utility.yul\":3550:3681   */\n      tag_104\n      jump\t// in\n    tag_118:\n        /* \"#utility.yul\":3542:3681   */\n      swap1\n      pop\n        /* \"#utility.yul\":3269:3688   */\n      swap2\n      swap1\n      pop\n      jump\t// out\n        /* \"#utility.yul\":3694:3916   */\n    tag_22:\n        /* \"#utility.yul\":3787:3791   */\n      0x00\n        /* \"#utility.yul\":3825:3827   */\n      0x20\n        /* \"#utility.yul\":3814:3823   */\n      dup3\n        /* \"#utility.yul\":3810:3828   */\n      add\n        /* \"#utility.yul\":3802:3828   */\n      swap1\n      pop\n        /* \"#utility.yul\":3838:3909   */\n      tag_120\n        /* \"#utility.yul\":3906:3907   */\n      0x00\n        /* \"#utility.yul\":3895:3904   */\n      dup4\n        /* \"#utility.yul\":3891:3908   */\n      add\n        /* \"#utility.yul\":3882:3888   */\n      dup5\n        /* \"#utility.yul\":3838:3909   */\n      tag_109\n      jump\t// in\n    tag_120:\n        /* \"#utility.yul\":3694:3916   */\n      swap3\n      swap2\n      pop\n      pop\n      jump\t// out\n        /* \"#utility.yul\":4003:4172   */\n    tag_101:\n        /* \"#utility.yul\":4087:4098   */\n      0x00\n        /* \"#utility.yul\":4121:4127   */\n      dup3\n        /* \"#utility.yul\":4116:4119   */\n      dup3\n        /* \"#utility.yul\":4109:4128   */\n      mstore\n        /* \"#utility.yul\":4161:4165   */\n      0x20\n        /* \"#utility.yul\":4156:4159   */\n      dup3\n        /* \"#utility.yul\":4152:4166   */\n      add\n        /* \"#utility.yul\":4137:4166   */\n      swap1\n      pop\n        /* \"#utility.yul\":4003:4172   */\n      swap3\n      swap2\n      pop\n      pop\n      jump\t// out\n        /* \"#utility.yul\":4178:4483   */\n    tag_44:\n        /* \"#utility.yul\":4218:4221   */\n      0x00\n        /* \"#utility.yul\":4237:4257   */\n      tag_125\n        /* \"#utility.yul\":4255:4256   */\n      dup3\n        /* \"#utility.yul\":4237:4257   */\n      tag_112\n      jump\t// in\n    tag_125:\n        /* \"#utility.yul\":4232:4257   */\n      swap2\n      pop\n        /* \"#utility.yul\":4271:4291   */\n      tag_126\n        /* \"#utility.yul\":4289:4290   */\n      dup4\n        /* \"#utility.yul\":4271:4291   */\n      tag_112\n      jump\t// in\n    tag_126:\n        /* \"#utility.yul\":4266:4291   */\n      swap3\n      pop\n        /* \"#utility.yul\":4425:4426   */\n      dup3\n        /* \"#utility.yul\":4357:4423   */\n      0xffffffffffffffffffffffffffffffffffffffffffffffffffffffffffffffff\n        /* \"#utility.yul\":4353:4427   */\n      sub\n        /* \"#utility.yul\":4350:4351   */\n      dup3\n        /* \"#utility.yul\":4347:4428   */\n      gt\n        /* \"#utility.yul\":4344:4451   */\n      iszero\n      tag_127\n      jumpi\n        /* \"#utility.yul\":4431:4449   */\n      tag_128\n      tag_129\n      jump\t// in\n    tag_128:\n        /* \"#utility.yul\":4344:4451   */\n    tag_127:\n        /* \"#utility.yul\":4475:4476   */\n      dup3\n        /* \"#utility.yul\":4472:4473   */\n      dup3\n        /* \"#utility.yul\":4468:4477   */\n      add\n        /* \"#utility.yul\":4461:4477   */\n      swap1\n      pop\n        /* \"#utility.yul\":4178:4483   */\n      swap3\n      swap2\n      pop\n      pop\n      jump\t// out\n        /* \"#utility.yul\":4489:4680   */\n    tag_60:\n        /* \"#utility.yul\":4529:4533   */\n      0x00\n        /* \"#utility.yul\":4549:4569   */\n      tag_131\n        /* \"#utility.yul\":4567:4568   */\n      dup3\n        /* \"#utility.yul\":4549:4569   */\n      tag_112\n      jump\t// in\n    tag_131:\n        /* \"#utility.yul\":4544:4569   */\n      swap2\n      pop\n        /* \"#utility.yul\":4583:4603   */\n      tag_132\n        /* \"#utility.yul\":4601:4602   */\n      dup4\n        /* \"#utility.yul\":4583:4603   */\n      tag_112\n      jump\t// in\n    tag_132:\n        /* \"#utility.yul\":4578:4603   */\n      swap3\n      pop\n        /* \"#utility.yul\":4622:4623   */\n      dup3\n        /* \"#utility.yul\":4619:4620   */\n      dup3\n        /* \"#utility.yul\":4616:4624   */\n      lt\n        /* \"#utility.yul\":4613:4647   */\n      iszero\n      tag_133\n      jumpi\n        /* \"#utility.yul\":4627:4645   */\n      tag_134\n      tag_129\n      jump\t// in\n    tag_134:\n        /* \"#utility.yul\":4613:4647   */\n    tag_133:\n        /* \"#utility.yul\":4672:4673   */\n      dup3\n        /* \"#utility.yul\":4669:4670   */\n      dup3\n        /* \"#utility.yul\":4665:4674   */\n      sub\n        /* \"#utility.yul\":4657:4674   */\n      swap1\n      pop\n        /* \"#utility.yul\":4489:4680   */\n      swap3\n      swap2\n      pop\n      pop\n      jump\t// out\n        /* \"#utility.yul\":4686:4782   */\n    tag_97:\n        /* \"#utility.yul\":4723:4730   */\n      0x00\n        /* \"#utility.yul\":4752:4776   */\n      tag_136\n        /* \"#utility.yul\":4770:4775   */\n      dup3\n        /* \"#utility.yul\":4752:4776   */\n      tag_137\n      jump\t// in\n    tag_136:\n        /* \"#utility.yul\":4741:4776   */\n      swap1\n      pop\n        /* \"#utility.yul\":4686:4782   */\n      swap2\n      swap1\n      pop\n      jump\t// out\n        /* \"#utility.yul\":4788:4892   */\n    tag_138:\n        /* \"#utility.yul\":4833:4840   */\n      0x00\n        /* \"#utility.yul\":4862:4886   */\n      tag_140\n        /* \"#utility.yul\":4880:4885   */\n      dup3\n        /* \"#utility.yul\":4862:4886   */\n      tag_137\n      jump\t// in\n    tag_140:\n        /* \"#utility.yul\":4851:4886   */\n      swap1\n      pop\n        /* \"#utility.yul\":4788:4892   */\n      swap2\n      swap1\n      pop\n      jump\t// out\n        /* \"#utility.yul\":4898:5024   */\n    tag_137:\n        /* \"#utility.yul\":4935:4942   */\n      0x00\n        /* \"#utility.yul\":4975:5017   */\n      0xffffffffffffffffffffffffffffffffffffffff\n        /* \"#utility.yul\":4968:4973   */\n      dup3\n        /* \"#utility.yul\":4964:5018   */\n      and\n        /* \"#utility.yul\":4953:5018   */\n      swap1\n      pop\n        /* \"#utility.yul\":4898:5024   */\n      swap2\n      swap1\n      pop\n      jump\t// out\n        /* \"#utility.yul\":5030:5107   */\n    tag_112:\n        /* \"#utility.yul\":5067:5074   */\n      0x00\n        /* \"#utility.yul\":5096:5101   */\n      dup2\n        /* \"#utility.yul\":5085:5101   */\n      swap1\n      pop\n        /* \"#utility.yul\":5030:5107   */\n      swap2\n      swap1\n      pop\n      jump\t// out\n        /* \"#utility.yul\":5113:5293   */\n    tag_47:\n        /* \"#utility.yul\":5161:5238   */\n      0x4e487b7100000000000000000000000000000000000000000000000000000000\n        /* \"#utility.yul\":5158:5159   */\n      0x00\n        /* \"#utility.yul\":5151:5239   */\n      mstore\n        /* \"#utility.yul\":5258:5262   */\n      0x01\n        /* \"#utility.yul\":5255:5256   */\n      0x04\n        /* \"#utility.yul\":5248:5263   */\n      mstore\n        /* \"#utility.yul\":5282:5286   */\n      0x24\n        /* \"#utility.yul\":5279:5280   */\n      0x00\n        /* \"#utility.yul\":5272:5287   */\n      revert\n        /* \"#utility.yul\":5299:5479   */\n    tag_129:\n        /* \"#utility.yul\":5347:5424   */\n      0x4e487b7100000000000000000000000000000000000000000000000000000000\n        /* \"#utility.yul\":5344:5345   */\n      0x00\n        /* \"#utility.yul\":5337:5425   */\n      mstore\n        /* \"#utility.yul\":5444:5448   */\n      0x11\n        /* \"#utility.yul\":5441:5442   */\n      0x04\n        /* \"#utility.yul\":5434:5449   */\n      mstore\n        /* \"#utility.yul\":5468:5472   */\n      0x24\n        /* \"#utility.yul\":5465:5466   */\n      0x00\n        /* \"#utility.yul\":5458:5473   */\n      revert\n        /* \"#utility.yul\":5608:5725   */\n    tag_83:\n        /* \"#utility.yul\":5717:5718   */\n      0x00\n        /* \"#utility.yul\":5714:5715   */\n      dup1\n        /* \"#utility.yul\":5707:5719   */\n      revert\n        /* \"#utility.yul\":5731:5902   */\n    tag_103:\n        /* \"#utility.yul\":5871:5894   */\n      0x596f7520617265206e6f7420746865206f776e65720000000000000000000000\n        /* \"#utility.yul\":5867:5868   */\n      0x00\n        /* \"#utility.yul\":5859:5865   */\n      dup3\n        /* \"#utility.yul\":5855:5869   */\n      add\n        /* \"#utility.yul\":5848:5895   */\n      mstore\n        /* \"#utility.yul\":5731:5902   */\n      pop\n      jump\t// out\n        /* \"#utility.yul\":5908:6085   */\n    tag_108:\n        /* \"#utility.yul\":6048:6077   */\n      0x796f7520646f6e2774206861766520656e6f756768206d6f6e65790000000000\n        /* \"#utility.yul\":6044:6045   */\n      0x00\n        /* \"#utility.yul\":6036:6042   */\n      dup3\n        /* \"#utility.yul\":6032:6046   */\n      add\n        /* \"#utility.yul\":6025:6078   */\n      mstore\n        /* \"#utility.yul\":5908:6085   */\n      pop\n      jump\t// out\n        /* \"#utility.yul\":6091:6213   */\n    tag_71:\n        /* \"#utility.yul\":6164:6188   */\n      tag_151\n        /* \"#utility.yul\":6182:6187   */\n      dup2\n        /* \"#utility.yul\":6164:6188   */\n      tag_97\n      jump\t// in\n    tag_151:\n        /* \"#utility.yul\":6157:6162   */\n      dup2\n        /* \"#utility.yul\":6154:6189   */\n      eq\n        /* \"#utility.yul\":6144:6207   */\n      tag_152\n      jumpi\n        /* \"#utility.yul\":6203:6204   */\n      0x00\n        /* \"#utility.yul\":6200:6201   */\n      dup1\n        /* \"#utility.yul\":6193:6205   */\n      revert\n        /* \"#utility.yul\":6144:6207   */\n    tag_152:\n        /* \"#utility.yul\":6091:6213   */\n      pop\n      jump\t// out\n        /* \"#utility.yul\":6219:6357   */\n    tag_75:\n        /* \"#utility.yul\":6300:6332   */\n      tag_154\n        /* \"#utility.yul\":6326:6331   */\n      dup2\n        /* \"#utility.yul\":6300:6332   */\n      tag_138\n      jump\t// in\n    tag_154:\n        /* \"#utility.yul\":6293:6298   */\n      dup2\n        /* \"#utility.yul\":6290:6333   */\n      eq\n        /* \"#utility.yul\":6280:6351   */\n      tag_155\n      jumpi\n        /* \"#utility.yul\":6347:6348   */\n      0x00\n        /* \"#utility.yul\":6344:6345   */\n      dup1\n        /* \"#utility.yul\":6337:6349   */\n      revert\n        /* \"#utility.yul\":6280:6351   */\n    tag_155:\n        /* \"#utility.yul\":6219:6357   */\n      pop\n      jump\t// out\n        /* \"#utility.yul\":6363:6485   */\n    tag_79:\n        /* \"#utility.yul\":6436:6460   */\n      tag_157\n        /* \"#utility.yul\":6454:6459   */\n      dup2\n        /* \"#utility.yul\":6436:6460   */\n      tag_112\n      jump\t// in\n    tag_157:\n        /* \"#utility.yul\":6429:6434   */\n      dup2\n        /* \"#utility.yul\":6426:6461   */\n      eq\n        /* \"#utility.yul\":6416:6479   */\n      tag_158\n      jumpi\n        /* \"#utility.yul\":6475:6476   */\n      0x00\n        /* \"#utility.yul\":6472:6473   */\n      dup1\n        /* \"#utility.yul\":6465:6477   */\n      revert\n        /* \"#utility.yul\":6416:6479   */\n    tag_158:\n        /* \"#utility.yul\":6363:6485   */\n      pop\n      jump\t// out\n\n    auxdata: 0xa2646970667358221220d58171991a45ad59c1b1af18dcd1fc0dff83e2baec65e6cba73e2665e65fc86c64736f6c63430008070033\n}\n",
				"bytecode": {
					"linkReferences": {},
					"object": "608060405234801561001057600080fd5b5033600160006101000a81548173ffffffffffffffffffffffffffffffffffffffff021916908373ffffffffffffffffffffffffffffffffffffffff1602179055506108e7806100616000396000f3fe6080604052600436106100595760003560e01c8063395a60631461007257806385474728146100af578063893d20e8146100c6578063d18a42e1146100f1578063d9230e811461012e578063f274c8971461013857610068565b3661006857610066610154565b005b610070610154565b005b34801561007e57600080fd5b50610099600480360381019061009491906105c7565b610243565b6040516100a691906106b3565b60405180910390f35b3480156100bb57600080fd5b506100c461024a565b005b3480156100d257600080fd5b506100db610315565b6040516100e89190610658565b60405180910390f35b3480156100fd57600080fd5b506101186004803603810190610113919061055a565b61033f565b60405161012591906106b3565b60405180910390f35b610136610154565b005b610152600480360381019061014d9190610587565b610357565b005b6000803373ffffffffffffffffffffffffffffffffffffffff1673ffffffffffffffffffffffffffffffffffffffff16815260200190815260200160002054346000803373ffffffffffffffffffffffffffffffffffffffff1673ffffffffffffffffffffffffffffffffffffffff168152602001908152602001600020546101dd91906106df565b10156101ec576101eb6107b7565b5b346000803373ffffffffffffffffffffffffffffffffffffffff1673ffffffffffffffffffffffffffffffffffffffff168152602001908152602001600020600082825461023a91906106df565b92505081905550565b6000919050565b600160009054906101000a900473ffffffffffffffffffffffffffffffffffffffff1673ffffffffffffffffffffffffffffffffffffffff163373ffffffffffffffffffffffffffffffffffffffff16146102da576040517f08c379a00000000000000000000000000000000000000000000000000000000081526004016102d190610673565b60405180910390fd5b600160009054906101000a900473ffffffffffffffffffffffffffffffffffffffff1673ffffffffffffffffffffffffffffffffffffffff16ff5b6000600160009054906101000a900473ffffffffffffffffffffffffffffffffffffffff16905090565b60006020528060005260406000206000915090505481565b6000803373ffffffffffffffffffffffffffffffffffffffff1673ffffffffffffffffffffffffffffffffffffffff168152602001908152602001600020548111156103d8576040517f08c379a00000000000000000000000000000000000000000000000000000000081526004016103cf90610693565b60405180910390fd5b806000803373ffffffffffffffffffffffffffffffffffffffff1673ffffffffffffffffffffffffffffffffffffffff168152602001908152602001600020546104229190610735565b346000803373ffffffffffffffffffffffffffffffffffffffff1673ffffffffffffffffffffffffffffffffffffffff1681526020019081526020016000205461046c91906106df565b101561047b5761047a6107b7565b5b806000803373ffffffffffffffffffffffffffffffffffffffff1673ffffffffffffffffffffffffffffffffffffffff16815260200190815260200160002060008282546104c99190610735565b925050819055508173ffffffffffffffffffffffffffffffffffffffff166108fc829081150290604051600060405180830381858888f19350505050158015610516573d6000803e3d6000fd5b505050565b60008135905061052a8161086c565b92915050565b60008135905061053f81610883565b92915050565b6000813590506105548161089a565b92915050565b6000602082840312156105705761056f610815565b5b600061057e8482850161051b565b91505092915050565b6000806040838503121561059e5761059d610815565b5b60006105ac85828601610530565b92505060206105bd85828601610545565b9150509250929050565b6000602082840312156105dd576105dc610815565b5b60006105eb84828501610545565b91505092915050565b6105fd81610769565b82525050565b60006106106015836106ce565b915061061b8261081a565b602082019050919050565b6000610633601b836106ce565b915061063e82610843565b602082019050919050565b610652816107ad565b82525050565b600060208201905061066d60008301846105f4565b92915050565b6000602082019050818103600083015261068c81610603565b9050919050565b600060208201905081810360008301526106ac81610626565b9050919050565b60006020820190506106c86000830184610649565b92915050565b600082825260208201905092915050565b60006106ea826107ad565b91506106f5836107ad565b9250827fffffffffffffffffffffffffffffffffffffffffffffffffffffffffffffffff0382111561072a576107296107e6565b5b828201905092915050565b6000610740826107ad565b915061074b836107ad565b92508282101561075e5761075d6107e6565b5b828203905092915050565b60006107748261078d565b9050919050565b60006107868261078d565b9050919050565b600073ffffffffffffffffffffffffffffffffffffffff82169050919050565b6000819050919050565b7f4e487b7100000000000000000000000000000000000000000000000000000000600052600160045260246000fd5b7f4e487b7100000000000000000000000000000000000000000000000000000000600052601160045260246000fd5b600080fd5b7f596f7520617265206e6f7420746865206f776e65720000000000000000000000600082015250565b7f796f7520646f6e2774206861766520656e6f756768206d6f6e65790000000000600082015250565b61087581610769565b811461088057600080fd5b50565b61088c8161077b565b811461089757600080fd5b50565b6108a3816107ad565b81146108ae57600080fd5b5056fea2646970667358221220d58171991a45ad59c1b1af18dcd1fc0dff83e2baec65e6cba73e2665e65fc86c64736f6c63430008070033",
					"opcodes": "PUSH1 0x80 PUSH1 0x40 MSTORE CALLVALUE DUP1 ISZERO PUSH2 0x10 JUMPI PUSH1 0x0 DUP1 REVERT JUMPDEST POP CALLER PUSH1 0x1 PUSH1 0x0 PUSH2 0x100 EXP DUP2 SLOAD DUP2 PUSH20 0xFFFFFFFFFFFFFFFFFFFFFFFFFFFFFFFFFFFFFFFF MUL NOT AND SWAP1 DUP4 PUSH20 0xFFFFFFFFFFFFFFFFFFFFFFFFFFFFFFFFFFFFFFFF AND MUL OR SWAP1 SSTORE POP PUSH2 0x8E7 DUP1 PUSH2 0x61 PUSH1 0x0 CODECOPY PUSH1 0x0 RETURN INVALID PUSH1 0x80 PUSH1 0x40 MSTORE PUSH1 0x4 CALLDATASIZE LT PUSH2 0x59 JUMPI PUSH1 0x0 CALLDATALOAD PUSH1 0xE0 SHR DUP1 PUSH4 0x395A6063 EQ PUSH2 0x72 JUMPI DUP1 PUSH4 0x85474728 EQ PUSH2 0xAF JUMPI DUP1 PUSH4 0x893D20E8 EQ PUSH2 0xC6 JUMPI DUP1 PUSH4 0xD18A42E1 EQ PUSH2 0xF1 JUMPI DUP1 PUSH4 0xD9230E81 EQ PUSH2 0x12E JUMPI DUP1 PUSH4 0xF274C897 EQ PUSH2 0x138 JUMPI PUSH2 0x68 JUMP JUMPDEST CALLDATASIZE PUSH2 0x68 JUMPI PUSH2 0x66 PUSH2 0x154 JUMP JUMPDEST STOP JUMPDEST PUSH2 0x70 PUSH2 0x154 JUMP JUMPDEST STOP JUMPDEST CALLVALUE DUP1 ISZERO PUSH2 0x7E JUMPI PUSH1 0x0 DUP1 REVERT JUMPDEST POP PUSH2 0x99 PUSH1 0x4 DUP1 CALLDATASIZE SUB DUP2 ADD SWAP1 PUSH2 0x94 SWAP2 SWAP1 PUSH2 0x5C7 JUMP JUMPDEST PUSH2 0x243 JUMP JUMPDEST PUSH1 0x40 MLOAD PUSH2 0xA6 SWAP2 SWAP1 PUSH2 0x6B3 JUMP JUMPDEST PUSH1 0x40 MLOAD DUP1 SWAP2 SUB SWAP1 RETURN JUMPDEST CALLVALUE DUP1 ISZERO PUSH2 0xBB JUMPI PUSH1 0x0 DUP1 REVERT JUMPDEST POP PUSH2 0xC4 PUSH2 0x24A JUMP JUMPDEST STOP JUMPDEST CALLVALUE DUP1 ISZERO PUSH2 0xD2 JUMPI PUSH1 0x0 DUP1 REVERT JUMPDEST POP PUSH2 0xDB PUSH2 0x315 JUMP JUMPDEST PUSH1 0x40 MLOAD PUSH2 0xE8 SWAP2 SWAP1 PUSH2 0x658 JUMP JUMPDEST PUSH1 0x40 MLOAD DUP1 SWAP2 SUB SWAP1 RETURN JUMPDEST CALLVALUE DUP1 ISZERO PUSH2 0xFD JUMPI PUSH1 0x0 DUP1 REVERT JUMPDEST POP PUSH2 0x118 PUSH1 0x4 DUP1 CALLDATASIZE SUB DUP2 ADD SWAP1 PUSH2 0x113 SWAP2 SWAP1 PUSH2 0x55A JUMP JUMPDEST PUSH2 0x33F JUMP JUMPDEST PUSH1 0x40 MLOAD PUSH2 0x125 SWAP2 SWAP1 PUSH2 0x6B3 JUMP JUMPDEST PUSH1 0x40 MLOAD DUP1 SWAP2 SUB SWAP1 RETURN JUMPDEST PUSH2 0x136 PUSH2 0x154 JUMP JUMPDEST STOP JUMPDEST PUSH2 0x152 PUSH1 0x4 DUP1 CALLDATASIZE SUB DUP2 ADD SWAP1 PUSH2 0x14D SWAP2 SWAP1 PUSH2 0x587 JUMP JUMPDEST PUSH2 0x357 JUMP JUMPDEST STOP JUMPDEST PUSH1 0x0 DUP1 CALLER PUSH20 0xFFFFFFFFFFFFFFFFFFFFFFFFFFFFFFFFFFFFFFFF AND PUSH20 0xFFFFFFFFFFFFFFFFFFFFFFFFFFFFFFFFFFFFFFFF AND DUP2 MSTORE PUSH1 0x20 ADD SWAP1 DUP2 MSTORE PUSH1 0x20 ADD PUSH1 0x0 KECCAK256 SLOAD CALLVALUE PUSH1 0x0 DUP1 CALLER PUSH20 0xFFFFFFFFFFFFFFFFFFFFFFFFFFFFFFFFFFFFFFFF AND PUSH20 0xFFFFFFFFFFFFFFFFFFFFFFFFFFFFFFFFFFFFFFFF AND DUP2 MSTORE PUSH1 0x20 ADD SWAP1 DUP2 MSTORE PUSH1 0x20 ADD PUSH1 0x0 KECCAK256 SLOAD PUSH2 0x1DD SWAP2 SWAP1 PUSH2 0x6DF JUMP JUMPDEST LT ISZERO PUSH2 0x1EC JUMPI PUSH2 0x1EB PUSH2 0x7B7 JUMP JUMPDEST JUMPDEST CALLVALUE PUSH1 0x0 DUP1 CALLER PUSH20 0xFFFFFFFFFFFFFFFFFFFFFFFFFFFFFFFFFFFFFFFF AND PUSH20 0xFFFFFFFFFFFFFFFFFFFFFFFFFFFFFFFFFFFFFFFF AND DUP2 MSTORE PUSH1 0x20 ADD SWAP1 DUP2 MSTORE PUSH1 0x20 ADD PUSH1 0x0 KECCAK256 PUSH1 0x0 DUP3 DUP3 SLOAD PUSH2 0x23A SWAP2 SWAP1 PUSH2 0x6DF JUMP JUMPDEST SWAP3 POP POP DUP2 SWAP1 SSTORE POP JUMP JUMPDEST PUSH1 0x0 SWAP2 SWAP1 POP JUMP JUMPDEST PUSH1 0x1 PUSH1 0x0 SWAP1 SLOAD SWAP1 PUSH2 0x100 EXP SWAP1 DIV PUSH20 0xFFFFFFFFFFFFFFFFFFFFFFFFFFFFFFFFFFFFFFFF AND PUSH20 0xFFFFFFFFFFFFFFFFFFFFFFFFFFFFFFFFFFFFFFFF AND CALLER PUSH20 0xFFFFFFFFFFFFFFFFFFFFFFFFFFFFFFFFFFFFFFFF AND EQ PUSH2 0x2DA JUMPI PUSH1 0x40 MLOAD PUSH32 0x8C379A000000000000000000000000000000000000000000000000000000000 DUP2 MSTORE PUSH1 0x4 ADD PUSH2 0x2D1 SWAP1 PUSH2 0x673 JUMP JUMPDEST PUSH1 0x40 MLOAD DUP1 SWAP2 SUB SWAP1 REVERT JUMPDEST PUSH1 0x1 PUSH1 0x0 SWAP1 SLOAD SWAP1 PUSH2 0x100 EXP SWAP1 DIV PUSH20 0xFFFFFFFFFFFFFFFFFFFFFFFFFFFFFFFFFFFFFFFF AND PUSH20 0xFFFFFFFFFFFFFFFFFFFFFFFFFFFFFFFFFFFFFFFF AND SELFDESTRUCT JUMPDEST PUSH1 0x0 PUSH1 0x1 PUSH1 0x0 SWAP1 SLOAD SWAP1 PUSH2 0x100 EXP SWAP1 DIV PUSH20 0xFFFFFFFFFFFFFFFFFFFFFFFFFFFFFFFFFFFFFFFF AND SWAP1 POP SWAP1 JUMP JUMPDEST PUSH1 0x0 PUSH1 0x20 MSTORE DUP1 PUSH1 0x0 MSTORE PUSH1 0x40 PUSH1 0x0 KECCAK256 PUSH1 0x0 SWAP2 POP SWAP1 POP SLOAD DUP2 JUMP JUMPDEST PUSH1 0x0 DUP1 CALLER PUSH20 0xFFFFFFFFFFFFFFFFFFFFFFFFFFFFFFFFFFFFFFFF AND PUSH20 0xFFFFFFFFFFFFFFFFFFFFFFFFFFFFFFFFFFFFFFFF AND DUP2 MSTORE PUSH1 0x20 ADD SWAP1 DUP2 MSTORE PUSH1 0x20 ADD PUSH1 0x0 KECCAK256 SLOAD DUP2 GT ISZERO PUSH2 0x3D8 JUMPI PUSH1 0x40 MLOAD PUSH32 0x8C379A000000000000000000000000000000000000000000000000000000000 DUP2 MSTORE PUSH1 0x4 ADD PUSH2 0x3CF SWAP1 PUSH2 0x693 JUMP JUMPDEST PUSH1 0x40 MLOAD DUP1 SWAP2 SUB SWAP1 REVERT JUMPDEST DUP1 PUSH1 0x0 DUP1 CALLER PUSH20 0xFFFFFFFFFFFFFFFFFFFFFFFFFFFFFFFFFFFFFFFF AND PUSH20 0xFFFFFFFFFFFFFFFFFFFFFFFFFFFFFFFFFFFFFFFF AND DUP2 MSTORE PUSH1 0x20 ADD SWAP1 DUP2 MSTORE PUSH1 0x20 ADD PUSH1 0x0 KECCAK256 SLOAD PUSH2 0x422 SWAP2 SWAP1 PUSH2 0x735 JUMP JUMPDEST CALLVALUE PUSH1 0x0 DUP1 CALLER PUSH20 0xFFFFFFFFFFFFFFFFFFFFFFFFFFFFFFFFFFFFFFFF AND PUSH20 0xFFFFFFFFFFFFFFFFFFFFFFFFFFFFFFFFFFFFFFFF AND DUP2 MSTORE PUSH1 0x20 ADD SWAP1 DUP2 MSTORE PUSH1 0x20 ADD PUSH1 0x0 KECCAK256 SLOAD PUSH2 0x46C SWAP2 SWAP1 PUSH2 0x6DF JUMP JUMPDEST LT ISZERO PUSH2 0x47B JUMPI PUSH2 0x47A PUSH2 0x7B7 JUMP JUMPDEST JUMPDEST DUP1 PUSH1 0x0 DUP1 CALLER PUSH20 0xFFFFFFFFFFFFFFFFFFFFFFFFFFFFFFFFFFFFFFFF AND PUSH20 0xFFFFFFFFFFFFFFFFFFFFFFFFFFFFFFFFFFFFFFFF AND DUP2 MSTORE PUSH1 0x20 ADD SWAP1 DUP2 MSTORE PUSH1 0x20 ADD PUSH1 0x0 KECCAK256 PUSH1 0x0 DUP3 DUP3 SLOAD PUSH2 0x4C9 SWAP2 SWAP1 PUSH2 0x735 JUMP JUMPDEST SWAP3 POP POP DUP2 SWAP1 SSTORE POP DUP2 PUSH20 0xFFFFFFFFFFFFFFFFFFFFFFFFFFFFFFFFFFFFFFFF AND PUSH2 0x8FC DUP3 SWAP1 DUP2 ISZERO MUL SWAP1 PUSH1 0x40 MLOAD PUSH1 0x0 PUSH1 0x40 MLOAD DUP1 DUP4 SUB DUP2 DUP6 DUP9 DUP9 CALL SWAP4 POP POP POP POP ISZERO DUP1 ISZERO PUSH2 0x516 JUMPI RETURNDATASIZE PUSH1 0x0 DUP1 RETURNDATACOPY RETURNDATASIZE PUSH1 0x0 REVERT JUMPDEST POP POP POP JUMP JUMPDEST PUSH1 0x0 DUP2 CALLDATALOAD SWAP1 POP PUSH2 0x52A DUP2 PUSH2 0x86C JUMP JUMPDEST SWAP3 SWAP2 POP POP JUMP JUMPDEST PUSH1 0x0 DUP2 CALLDATALOAD SWAP1 POP PUSH2 0x53F DUP2 PUSH2 0x883 JUMP JUMPDEST SWAP3 SWAP2 POP POP JUMP JUMPDEST PUSH1 0x0 DUP2 CALLDATALOAD SWAP1 POP PUSH2 0x554 DUP2 PUSH2 0x89A JUMP JUMPDEST SWAP3 SWAP2 POP POP JUMP JUMPDEST PUSH1 0x0 PUSH1 0x20 DUP3 DUP5 SUB SLT ISZERO PUSH2 0x570 JUMPI PUSH2 0x56F PUSH2 0x815 JUMP JUMPDEST JUMPDEST PUSH1 0x0 PUSH2 0x57E DUP5 DUP3 DUP6 ADD PUSH2 0x51B JUMP JUMPDEST SWAP2 POP POP SWAP3 SWAP2 POP POP JUMP JUMPDEST PUSH1 0x0 DUP1 PUSH1 0x40 DUP4 DUP6 SUB SLT ISZERO PUSH2 0x59E JUMPI PUSH2 0x59D PUSH2 0x815 JUMP JUMPDEST JUMPDEST PUSH1 0x0 PUSH2 0x5AC DUP6 DUP3 DUP7 ADD PUSH2 0x530 JUMP JUMPDEST SWAP3 POP POP PUSH1 0x20 PUSH2 0x5BD DUP6 DUP3 DUP7 ADD PUSH2 0x545 JUMP JUMPDEST SWAP2 POP POP SWAP3 POP SWAP3 SWAP1 POP JUMP JUMPDEST PUSH1 0x0 PUSH1 0x20 DUP3 DUP5 SUB SLT ISZERO PUSH2 0x5DD JUMPI PUSH2 0x5DC PUSH2 0x815 JUMP JUMPDEST JUMPDEST PUSH1 0x0 PUSH2 0x5EB DUP5 DUP3 DUP6 ADD PUSH2 0x545 JUMP JUMPDEST SWAP2 POP POP SWAP3 SWAP2 POP POP JUMP JUMPDEST PUSH2 0x5FD DUP2 PUSH2 0x769 JUMP JUMPDEST DUP3 MSTORE POP POP JUMP JUMPDEST PUSH1 0x0 PUSH2 0x610 PUSH1 0x15 DUP4 PUSH2 0x6CE JUMP JUMPDEST SWAP2 POP PUSH2 0x61B DUP3 PUSH2 0x81A JUMP JUMPDEST PUSH1 0x20 DUP3 ADD SWAP1 POP SWAP2 SWAP1 POP JUMP JUMPDEST PUSH1 0x0 PUSH2 0x633 PUSH1 0x1B DUP4 PUSH2 0x6CE JUMP JUMPDEST SWAP2 POP PUSH2 0x63E DUP3 PUSH2 0x843 JUMP JUMPDEST PUSH1 0x20 DUP3 ADD SWAP1 POP SWAP2 SWAP1 POP JUMP JUMPDEST PUSH2 0x652 DUP2 PUSH2 0x7AD JUMP JUMPDEST DUP3 MSTORE POP POP JUMP JUMPDEST PUSH1 0x0 PUSH1 0x20 DUP3 ADD SWAP1 POP PUSH2 0x66D PUSH1 0x0 DUP4 ADD DUP5 PUSH2 0x5F4 JUMP JUMPDEST SWAP3 SWAP2 POP POP JUMP JUMPDEST PUSH1 0x0 PUSH1 0x20 DUP3 ADD SWAP1 POP DUP2 DUP2 SUB PUSH1 0x0 DUP4 ADD MSTORE PUSH2 0x68C DUP2 PUSH2 0x603 JUMP JUMPDEST SWAP1 POP SWAP2 SWAP1 POP JUMP JUMPDEST PUSH1 0x0 PUSH1 0x20 DUP3 ADD SWAP1 POP DUP2 DUP2 SUB PUSH1 0x0 DUP4 ADD MSTORE PUSH2 0x6AC DUP2 PUSH2 0x626 JUMP JUMPDEST SWAP1 POP SWAP2 SWAP1 POP JUMP JUMPDEST PUSH1 0x0 PUSH1 0x20 DUP3 ADD SWAP1 POP PUSH2 0x6C8 PUSH1 0x0 DUP4 ADD DUP5 PUSH2 0x649 JUMP JUMPDEST SWAP3 SWAP2 POP POP JUMP JUMPDEST PUSH1 0x0 DUP3 DUP3 MSTORE PUSH1 0x20 DUP3 ADD SWAP1 POP SWAP3 SWAP2 POP POP JUMP JUMPDEST PUSH1 0x0 PUSH2 0x6EA DUP3 PUSH2 0x7AD JUMP JUMPDEST SWAP2 POP PUSH2 0x6F5 DUP4 PUSH2 0x7AD JUMP JUMPDEST SWAP3 POP DUP3 PUSH32 0xFFFFFFFFFFFFFFFFFFFFFFFFFFFFFFFFFFFFFFFFFFFFFFFFFFFFFFFFFFFFFFFF SUB DUP3 GT ISZERO PUSH2 0x72A JUMPI PUSH2 0x729 PUSH2 0x7E6 JUMP JUMPDEST JUMPDEST DUP3 DUP3 ADD SWAP1 POP SWAP3 SWAP2 POP POP JUMP JUMPDEST PUSH1 0x0 PUSH2 0x740 DUP3 PUSH2 0x7AD JUMP JUMPDEST SWAP2 POP PUSH2 0x74B DUP4 PUSH2 0x7AD JUMP JUMPDEST SWAP3 POP DUP3 DUP3 LT ISZERO PUSH2 0x75E JUMPI PUSH2 0x75D PUSH2 0x7E6 JUMP JUMPDEST JUMPDEST DUP3 DUP3 SUB SWAP1 POP SWAP3 SWAP2 POP POP JUMP JUMPDEST PUSH1 0x0 PUSH2 0x774 DUP3 PUSH2 0x78D JUMP JUMPDEST SWAP1 POP SWAP2 SWAP1 POP JUMP JUMPDEST PUSH1 0x0 PUSH2 0x786 DUP3 PUSH2 0x78D JUMP JUMPDEST SWAP1 POP SWAP2 SWAP1 POP JUMP JUMPDEST PUSH1 0x0 PUSH20 0xFFFFFFFFFFFFFFFFFFFFFFFFFFFFFFFFFFFFFFFF DUP3 AND SWAP1 POP SWAP2 SWAP1 POP JUMP JUMPDEST PUSH1 0x0 DUP2 SWAP1 POP SWAP2 SWAP1 POP JUMP JUMPDEST PUSH32 0x4E487B7100000000000000000000000000000000000000000000000000000000 PUSH1 0x0 MSTORE PUSH1 0x1 PUSH1 0x4 MSTORE PUSH1 0x24 PUSH1 0x0 REVERT JUMPDEST PUSH32 0x4E487B7100000000000000000000000000000000000000000000000000000000 PUSH1 0x0 MSTORE PUSH1 0x11 PUSH1 0x4 MSTORE PUSH1 0x24 PUSH1 0x0 REVERT JUMPDEST PUSH1 0x0 DUP1 REVERT JUMPDEST PUSH32 0x596F7520617265206E6F7420746865206F776E65720000000000000000000000 PUSH1 0x0 DUP3 ADD MSTORE POP JUMP JUMPDEST PUSH32 0x796F7520646F6E2774206861766520656E6F756768206D6F6E65790000000000 PUSH1 0x0 DUP3 ADD MSTORE POP JUMP JUMPDEST PUSH2 0x875 DUP2 PUSH2 0x769 JUMP JUMPDEST DUP2 EQ PUSH2 0x880 JUMPI PUSH1 0x0 DUP1 REVERT JUMPDEST POP JUMP JUMPDEST PUSH2 0x88C DUP2 PUSH2 0x77B JUMP JUMPDEST DUP2 EQ PUSH2 0x897 JUMPI PUSH1 0x0 DUP1 REVERT JUMPDEST POP JUMP JUMPDEST PUSH2 0x8A3 DUP2 PUSH2 0x7AD JUMP JUMPDEST DUP2 EQ PUSH2 0x8AE JUMPI PUSH1 0x0 DUP1 REVERT JUMPDEST POP JUMP INVALID LOG2 PUSH5 0x6970667358 0x22 SLT KECCAK256 0xD5 DUP2 PUSH18 0x991A45AD59C1B1AF18DCD1FC0DFF83E2BAEC PUSH6 0xE6CBA73E2665 0xE6 0x5F 0xC8 PUSH13 0x64736F6C634300080700330000 "
				},
				"gasEstimates": {
					"creation": {
						"codeDepositCost": "455800",
						"executionCost": "24759",
						"totalCost": "480559"
					},
					"external": {
						"": "infinite",
						"balanceReceived(address)": "2858",
						"convertWeiToEther(uint256)": "infinite",
						"destroySmartContract()": "32050",
						"getOwner()": "2544",
						"reveiveMoney()": "infinite",
						"withdrawMoney(address,uint256)": "infinite"
					}
				},
				"methodIdentifiers": {
					"balanceReceived(address)": "d18a42e1",
					"convertWeiToEther(uint256)": "395a6063",
					"destroySmartContract()": "85474728",
					"getOwner()": "893d20e8",
					"reveiveMoney()": "d9230e81",
					"withdrawMoney(address,uint256)": "f274c897"
				}
			},
			"storageLayout": {
				"storage": [
					{
						"astId": 5,
						"contract": "Function.sol:Function",
						"label": "balanceReceived",
						"offset": 0,
						"slot": "0",
						"type": "t_mapping(t_address,t_uint256)"
					},
					{
						"astId": 7,
						"contract": "Function.sol:Function",
						"label": "owner",
						"offset": 0,
						"slot": "1",
						"type": "t_address_payable"
					}
				],
				"types": {
					"t_address": {
						"encoding": "inplace",
						"label": "address",
						"numberOfBytes": "20"
					},
					"t_address_payable": {
						"encoding": "inplace",
						"label": "address payable",
						"numberOfBytes": "20"
					},
					"t_mapping(t_address,t_uint256)": {
						"encoding": "mapping",
						"key": "t_address",
						"label": "mapping(address => uint256)",
						"numberOfBytes": "32",
						"value": "t_uint256"
					},
					"t_uint256": {
						"encoding": "inplace",
						"label": "uint256",
						"numberOfBytes": "32"
					}
				}
			},
			"userdoc": {
				"kind": "user",
				"methods": {},
				"version": 1
			}
		}
	}
}