{
	"Variable.sol": {
		"WorkingWithVariables": {
			"abi": [
				{
					"inputs": [],
					"name": "decreamentUint8",
					"outputs": [],
					"stateMutability": "nonpayable",
					"type": "function"
				},
				{
					"inputs": [],
					"name": "getBalanceOfAddress",
					"outputs": [
						{
							"internalType": "uint256",
							"name": "",
							"type": "uint256"
						}
					],
					"stateMutability": "view",
					"type": "function"
				},
				{
					"inputs": [],
					"name": "increamentUint8",
					"outputs": [],
					"stateMutability": "nonpayable",
					"type": "function"
				},
				{
					"inputs": [],
					"name": "myAddress",
					"outputs": [
						{
							"internalType": "address",
							"name": "",
							"type": "address"
						}
					],
					"stateMutability": "view",
					"type": "function"
				},
				{
					"inputs": [],
					"name": "myBool",
					"outputs": [
						{
							"internalType": "bool",
							"name": "",
							"type": "bool"
						}
					],
					"stateMutability": "view",
					"type": "function"
				},
				{
					"inputs": [],
					"name": "myString",
					"outputs": [
						{
							"internalType": "string",
							"name": "",
							"type": "string"
						}
					],
					"stateMutability": "view",
					"type": "function"
				},
				{
					"inputs": [],
					"name": "myUint",
					"outputs": [
						{
							"internalType": "uint256",
							"name": "",
							"type": "uint256"
						}
					],
					"stateMutability": "view",
					"type": "function"
				},
				{
					"inputs": [],
					"name": "myUint8",
					"outputs": [
						{
							"internalType": "uint8",
							"name": "",
							"type": "uint8"
						}
					],
					"stateMutability": "view",
					"type": "function"
				},
				{
					"inputs": [
						{
							"internalType": "address",
							"name": "_address",
							"type": "address"
						}
					],
					"name": "setAdress",
					"outputs": [],
					"stateMutability": "nonpayable",
					"type": "function"
				},
				{
					"inputs": [
						{
							"internalType": "bool",
							"name": "_myBool",
							"type": "bool"
						}
					],
					"name": "setMyBool",
					"outputs": [],
					"stateMutability": "nonpayable",
					"type": "function"
				},
				{
					"inputs": [
						{
							"internalType": "uint256",
							"name": "_myUint",
							"type": "uint256"
						}
					],
					"name": "setMyUint",
					"outputs": [],
					"stateMutability": "nonpayable",
					"type": "function"
				}
			],
			"devdoc": {
				"kind": "dev",
				"methods": {},
				"version": 1
			},
			"evm": {
				"assembly": "    /* \"Variable.sol\":27:732  contract WorkingWithVariables{\r... */\n  mstore(0x40, 0x80)\n    /* \"Variable.sol\":685:722  string public myString =\"hello world\" */\n  mload(0x40)\n  dup1\n  0x40\n  add\n  0x40\n  mstore\n  dup1\n  0x0b\n  dup2\n  mstore\n  0x20\n  add\n  0x68656c6c6f20776f726c64000000000000000000000000000000000000000000\n  dup2\n  mstore\n  pop\n  0x02\n  swap1\n  dup1\n  mload\n  swap1\n  0x20\n  add\n  swap1\n  tag_1\n  swap3\n  swap2\n  swap1\n  tag_2\n  jump\t// in\ntag_1:\n  pop\n    /* \"Variable.sol\":27:732  contract WorkingWithVariables{\r... */\n  callvalue\n  dup1\n  iszero\n  tag_3\n  jumpi\n  0x00\n  dup1\n  revert\ntag_3:\n  pop\n  jump(tag_4)\ntag_2:\n  dup3\n  dup1\n  sload\n  tag_5\n  swap1\n  tag_6\n  jump\t// in\ntag_5:\n  swap1\n  0x00\n  mstore\n  keccak256(0x00, 0x20)\n  swap1\n  0x1f\n  add\n  0x20\n  swap1\n  div\n  dup2\n  add\n  swap3\n  dup3\n  tag_8\n  jumpi\n  0x00\n  dup6\n  sstore\n  jump(tag_7)\ntag_8:\n  dup3\n  0x1f\n  lt\n  tag_9\n  jumpi\n  dup1\n  mload\n  not(0xff)\n  and\n  dup4\n  dup1\n  add\n  or\n  dup6\n  sstore\n  jump(tag_7)\ntag_9:\n  dup3\n  dup1\n  add\n  0x01\n  add\n  dup6\n  sstore\n  dup3\n  iszero\n  tag_7\n  jumpi\n  swap2\n  dup3\n  add\ntag_10:\n  dup3\n  dup2\n  gt\n  iszero\n  tag_11\n  jumpi\n  dup3\n  mload\n  dup3\n  sstore\n  swap2\n  0x20\n  add\n  swap2\n  swap1\n  0x01\n  add\n  swap1\n  jump(tag_10)\ntag_11:\ntag_7:\n  pop\n  swap1\n  pop\n  tag_12\n  swap2\n  swap1\n  tag_13\n  jump\t// in\ntag_12:\n  pop\n  swap1\n  jump\t// out\ntag_13:\ntag_14:\n  dup1\n  dup3\n  gt\n  iszero\n  tag_15\n  jumpi\n  0x00\n  dup2\n  0x00\n  swap1\n  sstore\n  pop\n  0x01\n  add\n  jump(tag_14)\ntag_15:\n  pop\n  swap1\n  jump\t// out\n    /* \"#utility.yul\":7:327   */\ntag_6:\n    /* \"#utility.yul\":51:57   */\n  0x00\n    /* \"#utility.yul\":88:89   */\n  0x02\n    /* \"#utility.yul\":82:86   */\n  dup3\n    /* \"#utility.yul\":78:90   */\n  div\n    /* \"#utility.yul\":68:90   */\n  swap1\n  pop\n    /* \"#utility.yul\":135:136   */\n  0x01\n    /* \"#utility.yul\":129:133   */\n  dup3\n    /* \"#utility.yul\":125:137   */\n  and\n    /* \"#utility.yul\":156:174   */\n  dup1\n    /* \"#utility.yul\":146:227   */\n  tag_18\n  jumpi\n    /* \"#utility.yul\":212:216   */\n  0x7f\n    /* \"#utility.yul\":204:210   */\n  dup3\n    /* \"#utility.yul\":200:217   */\n  and\n    /* \"#utility.yul\":190:217   */\n  swap2\n  pop\n    /* \"#utility.yul\":146:227   */\ntag_18:\n    /* \"#utility.yul\":274:276   */\n  0x20\n    /* \"#utility.yul\":266:272   */\n  dup3\n    /* \"#utility.yul\":263:277   */\n  lt\n    /* \"#utility.yul\":243:261   */\n  dup2\n    /* \"#utility.yul\":240:278   */\n  eq\n    /* \"#utility.yul\":237:321   */\n  iszero\n  tag_19\n  jumpi\n    /* \"#utility.yul\":293:311   */\n  tag_20\n  tag_21\n  jump\t// in\ntag_20:\n    /* \"#utility.yul\":237:321   */\ntag_19:\n    /* \"#utility.yul\":58:327   */\n  pop\n    /* \"#utility.yul\":7:327   */\n  swap2\n  swap1\n  pop\n  jump\t// out\n    /* \"#utility.yul\":333:513   */\ntag_21:\n    /* \"#utility.yul\":381:458   */\n  0x4e487b7100000000000000000000000000000000000000000000000000000000\n    /* \"#utility.yul\":378:379   */\n  0x00\n    /* \"#utility.yul\":371:459   */\n  mstore\n    /* \"#utility.yul\":478:482   */\n  0x22\n    /* \"#utility.yul\":475:476   */\n  0x04\n    /* \"#utility.yul\":468:483   */\n  mstore\n    /* \"#utility.yul\":502:506   */\n  0x24\n    /* \"#utility.yul\":499:500   */\n  0x00\n    /* \"#utility.yul\":492:507   */\n  revert\n    /* \"Variable.sol\":27:732  contract WorkingWithVariables{\r... */\ntag_4:\n  dataSize(sub_0)\n  dup1\n  dataOffset(sub_0)\n  0x00\n  codecopy\n  0x00\n  return\nstop\n\nsub_0: assembly {\n        /* \"Variable.sol\":27:732  contract WorkingWithVariables{\r... */\n      mstore(0x40, 0x80)\n      callvalue\n      dup1\n      iszero\n      tag_1\n      jumpi\n      0x00\n      dup1\n      revert\n    tag_1:\n      pop\n      jumpi(tag_2, lt(calldatasize, 0x04))\n      shr(0xe0, calldataload(0x00))\n      dup1\n      0x492bfa18\n      gt\n      tag_14\n      jumpi\n      dup1\n      0x492bfa18\n      eq\n      tag_8\n      jumpi\n      dup1\n      0x6deecdbe\n      eq\n      tag_9\n      jumpi\n      dup1\n      0xdebbaf2b\n      eq\n      tag_10\n      jumpi\n      dup1\n      0xe2a4b2af\n      eq\n      tag_11\n      jumpi\n      dup1\n      0xe492fd84\n      eq\n      tag_12\n      jumpi\n      dup1\n      0xeb1b30d9\n      eq\n      tag_13\n      jumpi\n      jump(tag_2)\n    tag_14:\n      dup1\n      0x06540f7e\n      eq\n      tag_3\n      jumpi\n      dup1\n      0x0e807d6e\n      eq\n      tag_4\n      jumpi\n      dup1\n      0x15502612\n      eq\n      tag_5\n      jumpi\n      dup1\n      0x26b85ee1\n      eq\n      tag_6\n      jumpi\n      dup1\n      0x33b87eeb\n      eq\n      tag_7\n      jumpi\n    tag_2:\n      0x00\n      dup1\n      revert\n        /* \"Variable.sol\":63:84  uint256 public myUint */\n    tag_3:\n      tag_15\n      tag_16\n      jump\t// in\n    tag_15:\n      mload(0x40)\n      tag_17\n      swap2\n      swap1\n      tag_18\n      jump\t// in\n    tag_17:\n      mload(0x40)\n      dup1\n      swap2\n      sub\n      swap1\n      return\n        /* \"Variable.sol\":487:570  function setAdress (address _address) public{\r... */\n    tag_4:\n      tag_19\n      0x04\n      dup1\n      calldatasize\n      sub\n      dup2\n      add\n      swap1\n      tag_20\n      swap2\n      swap1\n      tag_21\n      jump\t// in\n    tag_20:\n      tag_22\n      jump\t// in\n    tag_19:\n      stop\n        /* \"Variable.sol\":578:677  function getBalanceOfAddress() public view returns(uint){\r... */\n    tag_5:\n      tag_23\n      tag_24\n      jump\t// in\n    tag_23:\n      mload(0x40)\n      tag_25\n      swap2\n      swap1\n      tag_18\n      jump\t// in\n    tag_25:\n      mload(0x40)\n      dup1\n      swap2\n      sub\n      swap1\n      return\n        /* \"Variable.sol\":454:478  address public myAddress */\n    tag_6:\n      tag_26\n      tag_27\n      jump\t// in\n    tag_26:\n      mload(0x40)\n      tag_28\n      swap2\n      swap1\n      tag_29\n      jump\t// in\n    tag_28:\n      mload(0x40)\n      dup1\n      swap2\n      sub\n      swap1\n      return\n        /* \"Variable.sol\":318:379  function increamentUint8() public{\r... */\n    tag_7:\n      tag_30\n      tag_31\n      jump\t// in\n    tag_30:\n      stop\n        /* \"Variable.sol\":685:722  string public myString =\"hello world\" */\n    tag_8:\n      tag_32\n      tag_33\n      jump\t// in\n    tag_32:\n      mload(0x40)\n      tag_34\n      swap2\n      swap1\n      tag_35\n      jump\t// in\n    tag_34:\n      mload(0x40)\n      dup1\n      swap2\n      sub\n      swap1\n      return\n        /* \"Variable.sol\":175:193  bool public myBool */\n    tag_9:\n      tag_36\n      tag_37\n      jump\t// in\n    tag_36:\n      mload(0x40)\n      tag_38\n      swap2\n      swap1\n      tag_39\n      jump\t// in\n    tag_38:\n      mload(0x40)\n      dup1\n      swap2\n      sub\n      swap1\n      return\n        /* \"Variable.sol\":385:446  function decreamentUint8() public{\r... */\n    tag_10:\n      tag_40\n      tag_41\n      jump\t// in\n    tag_40:\n      stop\n        /* \"Variable.sol\":285:305  uint8 public myUint8 */\n    tag_11:\n      tag_42\n      tag_43\n      jump\t// in\n    tag_42:\n      mload(0x40)\n      tag_44\n      swap2\n      swap1\n      tag_45\n      jump\t// in\n    tag_44:\n      mload(0x40)\n      dup1\n      swap2\n      sub\n      swap1\n      return\n        /* \"Variable.sol\":93:167  function setMyUint(uint _myUint) public{\r... */\n    tag_12:\n      tag_46\n      0x04\n      dup1\n      calldatasize\n      sub\n      dup2\n      add\n      swap1\n      tag_47\n      swap2\n      swap1\n      tag_48\n      jump\t// in\n    tag_47:\n      tag_49\n      jump\t// in\n    tag_46:\n      stop\n        /* \"Variable.sol\":202:277  function setMyBool (bool _myBool) public{\r... */\n    tag_13:\n      tag_50\n      0x04\n      dup1\n      calldatasize\n      sub\n      dup2\n      add\n      swap1\n      tag_51\n      swap2\n      swap1\n      tag_52\n      jump\t// in\n    tag_51:\n      tag_53\n      jump\t// in\n    tag_50:\n      stop\n        /* \"Variable.sol\":63:84  uint256 public myUint */\n    tag_16:\n      sload(0x00)\n      dup2\n      jump\t// out\n        /* \"Variable.sol\":487:570  function setAdress (address _address) public{\r... */\n    tag_22:\n        /* \"Variable.sol\":554:562  _address */\n      dup1\n        /* \"Variable.sol\":542:551  myAddress */\n      0x01\n      0x02\n        /* \"Variable.sol\":542:562  myAddress = _address */\n      0x0100\n      exp\n      dup2\n      sload\n      dup2\n      0xffffffffffffffffffffffffffffffffffffffff\n      mul\n      not\n      and\n      swap1\n      dup4\n      0xffffffffffffffffffffffffffffffffffffffff\n      and\n      mul\n      or\n      swap1\n      sstore\n      pop\n        /* \"Variable.sol\":487:570  function setAdress (address _address) public{\r... */\n      pop\n      jump\t// out\n        /* \"Variable.sol\":578:677  function getBalanceOfAddress() public view returns(uint){\r... */\n    tag_24:\n        /* \"Variable.sol\":629:633  uint */\n      0x00\n        /* \"Variable.sol\":652:661  myAddress */\n      0x01\n      0x02\n      swap1\n      sload\n      swap1\n      0x0100\n      exp\n      swap1\n      div\n      0xffffffffffffffffffffffffffffffffffffffff\n      and\n        /* \"Variable.sol\":652:669  myAddress.balance */\n      0xffffffffffffffffffffffffffffffffffffffff\n      and\n      balance\n        /* \"Variable.sol\":645:669  return myAddress.balance */\n      swap1\n      pop\n        /* \"Variable.sol\":578:677  function getBalanceOfAddress() public view returns(uint){\r... */\n      swap1\n      jump\t// out\n        /* \"Variable.sol\":454:478  address public myAddress */\n    tag_27:\n      0x01\n      0x02\n      swap1\n      sload\n      swap1\n      0x0100\n      exp\n      swap1\n      div\n      0xffffffffffffffffffffffffffffffffffffffff\n      and\n      dup2\n      jump\t// out\n        /* \"Variable.sol\":318:379  function increamentUint8() public{\r... */\n    tag_31:\n        /* \"Variable.sol\":362:369  myUint8 */\n      0x01\n      dup1\n        /* \"Variable.sol\":362:371  myUint8++ */\n      dup2\n      dup2\n      swap1\n      sload\n      swap1\n      0x0100\n      exp\n      swap1\n      div\n      0xff\n      and\n      dup1\n      swap3\n      swap2\n      swap1\n      tag_57\n      swap1\n      tag_58\n      jump\t// in\n    tag_57:\n      swap2\n      swap1\n      0x0100\n      exp\n      dup2\n      sload\n      dup2\n      0xff\n      mul\n      not\n      and\n      swap1\n      dup4\n      0xff\n      and\n      mul\n      or\n      swap1\n      sstore\n      pop\n      pop\n        /* \"Variable.sol\":318:379  function increamentUint8() public{\r... */\n      jump\t// out\n        /* \"Variable.sol\":685:722  string public myString =\"hello world\" */\n    tag_33:\n      0x02\n      dup1\n      sload\n      tag_59\n      swap1\n      tag_60\n      jump\t// in\n    tag_59:\n      dup1\n      0x1f\n      add\n      0x20\n      dup1\n      swap2\n      div\n      mul\n      0x20\n      add\n      mload(0x40)\n      swap1\n      dup2\n      add\n      0x40\n      mstore\n      dup1\n      swap3\n      swap2\n      swap1\n      dup2\n      dup2\n      mstore\n      0x20\n      add\n      dup3\n      dup1\n      sload\n      tag_61\n      swap1\n      tag_60\n      jump\t// in\n    tag_61:\n      dup1\n      iszero\n      tag_62\n      jumpi\n      dup1\n      0x1f\n      lt\n      tag_63\n      jumpi\n      0x0100\n      dup1\n      dup4\n      sload\n      div\n      mul\n      dup4\n      mstore\n      swap2\n      0x20\n      add\n      swap2\n      jump(tag_62)\n    tag_63:\n      dup3\n      add\n      swap2\n      swap1\n      0x00\n      mstore\n      keccak256(0x00, 0x20)\n      swap1\n    tag_64:\n      dup2\n      sload\n      dup2\n      mstore\n      swap1\n      0x01\n      add\n      swap1\n      0x20\n      add\n      dup1\n      dup4\n      gt\n      tag_64\n      jumpi\n      dup3\n      swap1\n      sub\n      0x1f\n      and\n      dup3\n      add\n      swap2\n    tag_62:\n      pop\n      pop\n      pop\n      pop\n      pop\n      dup2\n      jump\t// out\n        /* \"Variable.sol\":175:193  bool public myBool */\n    tag_37:\n      0x01\n      0x00\n      swap1\n      sload\n      swap1\n      0x0100\n      exp\n      swap1\n      div\n      0xff\n      and\n      dup2\n      jump\t// out\n        /* \"Variable.sol\":385:446  function decreamentUint8() public{\r... */\n    tag_41:\n        /* \"Variable.sol\":429:436  myUint8 */\n      0x01\n      dup1\n        /* \"Variable.sol\":429:438  myUint8-- */\n      dup2\n      dup2\n      swap1\n      sload\n      swap1\n      0x0100\n      exp\n      swap1\n      div\n      0xff\n      and\n      dup1\n      swap3\n      swap2\n      swap1\n      tag_66\n      swap1\n      tag_67\n      jump\t// in\n    tag_66:\n      swap2\n      swap1\n      0x0100\n      exp\n      dup2\n      sload\n      dup2\n      0xff\n      mul\n      not\n      and\n      swap1\n      dup4\n      0xff\n      and\n      mul\n      or\n      swap1\n      sstore\n      pop\n      pop\n        /* \"Variable.sol\":385:446  function decreamentUint8() public{\r... */\n      jump\t// out\n        /* \"Variable.sol\":285:305  uint8 public myUint8 */\n    tag_43:\n      0x01\n      dup1\n      sload\n      swap1\n      0x0100\n      exp\n      swap1\n      div\n      0xff\n      and\n      dup2\n      jump\t// out\n        /* \"Variable.sol\":93:167  function setMyUint(uint _myUint) public{\r... */\n    tag_49:\n        /* \"Variable.sol\":152:159  _myUint */\n      dup1\n        /* \"Variable.sol\":143:149  myUint */\n      0x00\n        /* \"Variable.sol\":143:159  myUint = _myUint */\n      dup2\n      swap1\n      sstore\n      pop\n        /* \"Variable.sol\":93:167  function setMyUint(uint _myUint) public{\r... */\n      pop\n      jump\t// out\n        /* \"Variable.sol\":202:277  function setMyBool (bool _myBool) public{\r... */\n    tag_53:\n        /* \"Variable.sol\":262:269  _myBool */\n      dup1\n        /* \"Variable.sol\":253:259  myBool */\n      0x01\n      0x00\n        /* \"Variable.sol\":253:269  myBool = _myBool */\n      0x0100\n      exp\n      dup2\n      sload\n      dup2\n      0xff\n      mul\n      not\n      and\n      swap1\n      dup4\n      iszero\n      iszero\n      mul\n      or\n      swap1\n      sstore\n      pop\n        /* \"Variable.sol\":202:277  function setMyBool (bool _myBool) public{\r... */\n      pop\n      jump\t// out\n        /* \"#utility.yul\":7:146   */\n    tag_71:\n        /* \"#utility.yul\":53:58   */\n      0x00\n        /* \"#utility.yul\":91:97   */\n      dup2\n        /* \"#utility.yul\":78:98   */\n      calldataload\n        /* \"#utility.yul\":69:98   */\n      swap1\n      pop\n        /* \"#utility.yul\":107:140   */\n      tag_73\n        /* \"#utility.yul\":134:139   */\n      dup2\n        /* \"#utility.yul\":107:140   */\n      tag_74\n      jump\t// in\n    tag_73:\n        /* \"#utility.yul\":7:146   */\n      swap3\n      swap2\n      pop\n      pop\n      jump\t// out\n        /* \"#utility.yul\":152:285   */\n    tag_75:\n        /* \"#utility.yul\":195:200   */\n      0x00\n        /* \"#utility.yul\":233:239   */\n      dup2\n        /* \"#utility.yul\":220:240   */\n      calldataload\n        /* \"#utility.yul\":211:240   */\n      swap1\n      pop\n        /* \"#utility.yul\":249:279   */\n      tag_77\n        /* \"#utility.yul\":273:278   */\n      dup2\n        /* \"#utility.yul\":249:279   */\n      tag_78\n      jump\t// in\n    tag_77:\n        /* \"#utility.yul\":152:285   */\n      swap3\n      swap2\n      pop\n      pop\n      jump\t// out\n        /* \"#utility.yul\":291:430   */\n    tag_79:\n        /* \"#utility.yul\":337:342   */\n      0x00\n        /* \"#utility.yul\":375:381   */\n      dup2\n        /* \"#utility.yul\":362:382   */\n      calldataload\n        /* \"#utility.yul\":353:382   */\n      swap1\n      pop\n        /* \"#utility.yul\":391:424   */\n      tag_81\n        /* \"#utility.yul\":418:423   */\n      dup2\n        /* \"#utility.yul\":391:424   */\n      tag_82\n      jump\t// in\n    tag_81:\n        /* \"#utility.yul\":291:430   */\n      swap3\n      swap2\n      pop\n      pop\n      jump\t// out\n        /* \"#utility.yul\":436:765   */\n    tag_21:\n        /* \"#utility.yul\":495:501   */\n      0x00\n        /* \"#utility.yul\":544:546   */\n      0x20\n        /* \"#utility.yul\":532:541   */\n      dup3\n        /* \"#utility.yul\":523:530   */\n      dup5\n        /* \"#utility.yul\":519:542   */\n      sub\n        /* \"#utility.yul\":515:547   */\n      slt\n        /* \"#utility.yul\":512:631   */\n      iszero\n      tag_84\n      jumpi\n        /* \"#utility.yul\":550:629   */\n      tag_85\n      tag_86\n      jump\t// in\n    tag_85:\n        /* \"#utility.yul\":512:631   */\n    tag_84:\n        /* \"#utility.yul\":670:671   */\n      0x00\n        /* \"#utility.yul\":695:748   */\n      tag_87\n        /* \"#utility.yul\":740:747   */\n      dup5\n        /* \"#utility.yul\":731:737   */\n      dup3\n        /* \"#utility.yul\":720:729   */\n      dup6\n        /* \"#utility.yul\":716:738   */\n      add\n        /* \"#utility.yul\":695:748   */\n      tag_71\n      jump\t// in\n    tag_87:\n        /* \"#utility.yul\":685:748   */\n      swap2\n      pop\n        /* \"#utility.yul\":641:758   */\n      pop\n        /* \"#utility.yul\":436:765   */\n      swap3\n      swap2\n      pop\n      pop\n      jump\t// out\n        /* \"#utility.yul\":771:1094   */\n    tag_52:\n        /* \"#utility.yul\":827:833   */\n      0x00\n        /* \"#utility.yul\":876:878   */\n      0x20\n        /* \"#utility.yul\":864:873   */\n      dup3\n        /* \"#utility.yul\":855:862   */\n      dup5\n        /* \"#utility.yul\":851:874   */\n      sub\n        /* \"#utility.yul\":847:879   */\n      slt\n        /* \"#utility.yul\":844:963   */\n      iszero\n      tag_89\n      jumpi\n        /* \"#utility.yul\":882:961   */\n      tag_90\n      tag_86\n      jump\t// in\n    tag_90:\n        /* \"#utility.yul\":844:963   */\n    tag_89:\n        /* \"#utility.yul\":1002:1003   */\n      0x00\n        /* \"#utility.yul\":1027:1077   */\n      tag_91\n        /* \"#utility.yul\":1069:1076   */\n      dup5\n        /* \"#utility.yul\":1060:1066   */\n      dup3\n        /* \"#utility.yul\":1049:1058   */\n      dup6\n        /* \"#utility.yul\":1045:1067   */\n      add\n        /* \"#utility.yul\":1027:1077   */\n      tag_75\n      jump\t// in\n    tag_91:\n        /* \"#utility.yul\":1017:1077   */\n      swap2\n      pop\n        /* \"#utility.yul\":973:1087   */\n      pop\n        /* \"#utility.yul\":771:1094   */\n      swap3\n      swap2\n      pop\n      pop\n      jump\t// out\n        /* \"#utility.yul\":1100:1429   */\n    tag_48:\n        /* \"#utility.yul\":1159:1165   */\n      0x00\n        /* \"#utility.yul\":1208:1210   */\n      0x20\n        /* \"#utility.yul\":1196:1205   */\n      dup3\n        /* \"#utility.yul\":1187:1194   */\n      dup5\n        /* \"#utility.yul\":1183:1206   */\n      sub\n        /* \"#utility.yul\":1179:1211   */\n      slt\n        /* \"#utility.yul\":1176:1295   */\n      iszero\n      tag_93\n      jumpi\n        /* \"#utility.yul\":1214:1293   */\n      tag_94\n      tag_86\n      jump\t// in\n    tag_94:\n        /* \"#utility.yul\":1176:1295   */\n    tag_93:\n        /* \"#utility.yul\":1334:1335   */\n      0x00\n        /* \"#utility.yul\":1359:1412   */\n      tag_95\n        /* \"#utility.yul\":1404:1411   */\n      dup5\n        /* \"#utility.yul\":1395:1401   */\n      dup3\n        /* \"#utility.yul\":1384:1393   */\n      dup6\n        /* \"#utility.yul\":1380:1402   */\n      add\n        /* \"#utility.yul\":1359:1412   */\n      tag_79\n      jump\t// in\n    tag_95:\n        /* \"#utility.yul\":1349:1412   */\n      swap2\n      pop\n        /* \"#utility.yul\":1305:1422   */\n      pop\n        /* \"#utility.yul\":1100:1429   */\n      swap3\n      swap2\n      pop\n      pop\n      jump\t// out\n        /* \"#utility.yul\":1435:1553   */\n    tag_96:\n        /* \"#utility.yul\":1522:1546   */\n      tag_98\n        /* \"#utility.yul\":1540:1545   */\n      dup2\n        /* \"#utility.yul\":1522:1546   */\n      tag_99\n      jump\t// in\n    tag_98:\n        /* \"#utility.yul\":1517:1520   */\n      dup3\n        /* \"#utility.yul\":1510:1547   */\n      mstore\n        /* \"#utility.yul\":1435:1553   */\n      pop\n      pop\n      jump\t// out\n        /* \"#utility.yul\":1559:1668   */\n    tag_100:\n        /* \"#utility.yul\":1640:1661   */\n      tag_102\n        /* \"#utility.yul\":1655:1660   */\n      dup2\n        /* \"#utility.yul\":1640:1661   */\n      tag_103\n      jump\t// in\n    tag_102:\n        /* \"#utility.yul\":1635:1638   */\n      dup3\n        /* \"#utility.yul\":1628:1662   */\n      mstore\n        /* \"#utility.yul\":1559:1668   */\n      pop\n      pop\n      jump\t// out\n        /* \"#utility.yul\":1674:2038   */\n    tag_104:\n        /* \"#utility.yul\":1762:1765   */\n      0x00\n        /* \"#utility.yul\":1790:1829   */\n      tag_106\n        /* \"#utility.yul\":1823:1828   */\n      dup3\n        /* \"#utility.yul\":1790:1829   */\n      tag_107\n      jump\t// in\n    tag_106:\n        /* \"#utility.yul\":1845:1916   */\n      tag_108\n        /* \"#utility.yul\":1909:1915   */\n      dup2\n        /* \"#utility.yul\":1904:1907   */\n      dup6\n        /* \"#utility.yul\":1845:1916   */\n      tag_109\n      jump\t// in\n    tag_108:\n        /* \"#utility.yul\":1838:1916   */\n      swap4\n      pop\n        /* \"#utility.yul\":1925:1977   */\n      tag_110\n        /* \"#utility.yul\":1970:1976   */\n      dup2\n        /* \"#utility.yul\":1965:1968   */\n      dup6\n        /* \"#utility.yul\":1958:1962   */\n      0x20\n        /* \"#utility.yul\":1951:1956   */\n      dup7\n        /* \"#utility.yul\":1947:1963   */\n      add\n        /* \"#utility.yul\":1925:1977   */\n      tag_111\n      jump\t// in\n    tag_110:\n        /* \"#utility.yul\":2002:2031   */\n      tag_112\n        /* \"#utility.yul\":2024:2030   */\n      dup2\n        /* \"#utility.yul\":2002:2031   */\n      tag_113\n      jump\t// in\n    tag_112:\n        /* \"#utility.yul\":1997:2000   */\n      dup5\n        /* \"#utility.yul\":1993:2032   */\n      add\n        /* \"#utility.yul\":1986:2032   */\n      swap2\n      pop\n        /* \"#utility.yul\":1766:2038   */\n      pop\n        /* \"#utility.yul\":1674:2038   */\n      swap3\n      swap2\n      pop\n      pop\n      jump\t// out\n        /* \"#utility.yul\":2044:2162   */\n    tag_114:\n        /* \"#utility.yul\":2131:2155   */\n      tag_116\n        /* \"#utility.yul\":2149:2154   */\n      dup2\n        /* \"#utility.yul\":2131:2155   */\n      tag_117\n      jump\t// in\n    tag_116:\n        /* \"#utility.yul\":2126:2129   */\n      dup3\n        /* \"#utility.yul\":2119:2156   */\n      mstore\n        /* \"#utility.yul\":2044:2162   */\n      pop\n      pop\n      jump\t// out\n        /* \"#utility.yul\":2168:2280   */\n    tag_118:\n        /* \"#utility.yul\":2251:2273   */\n      tag_120\n        /* \"#utility.yul\":2267:2272   */\n      dup2\n        /* \"#utility.yul\":2251:2273   */\n      tag_121\n      jump\t// in\n    tag_120:\n        /* \"#utility.yul\":2246:2249   */\n      dup3\n        /* \"#utility.yul\":2239:2274   */\n      mstore\n        /* \"#utility.yul\":2168:2280   */\n      pop\n      pop\n      jump\t// out\n        /* \"#utility.yul\":2286:2508   */\n    tag_29:\n        /* \"#utility.yul\":2379:2383   */\n      0x00\n        /* \"#utility.yul\":2417:2419   */\n      0x20\n        /* \"#utility.yul\":2406:2415   */\n      dup3\n        /* \"#utility.yul\":2402:2420   */\n      add\n        /* \"#utility.yul\":2394:2420   */\n      swap1\n      pop\n        /* \"#utility.yul\":2430:2501   */\n      tag_123\n        /* \"#utility.yul\":2498:2499   */\n      0x00\n        /* \"#utility.yul\":2487:2496   */\n      dup4\n        /* \"#utility.yul\":2483:2500   */\n      add\n        /* \"#utility.yul\":2474:2480   */\n      dup5\n        /* \"#utility.yul\":2430:2501   */\n      tag_96\n      jump\t// in\n    tag_123:\n        /* \"#utility.yul\":2286:2508   */\n      swap3\n      swap2\n      pop\n      pop\n      jump\t// out\n        /* \"#utility.yul\":2514:2724   */\n    tag_39:\n        /* \"#utility.yul\":2601:2605   */\n      0x00\n        /* \"#utility.yul\":2639:2641   */\n      0x20\n        /* \"#utility.yul\":2628:2637   */\n      dup3\n        /* \"#utility.yul\":2624:2642   */\n      add\n        /* \"#utility.yul\":2616:2642   */\n      swap1\n      pop\n        /* \"#utility.yul\":2652:2717   */\n      tag_125\n        /* \"#utility.yul\":2714:2715   */\n      0x00\n        /* \"#utility.yul\":2703:2712   */\n      dup4\n        /* \"#utility.yul\":2699:2716   */\n      add\n        /* \"#utility.yul\":2690:2696   */\n      dup5\n        /* \"#utility.yul\":2652:2717   */\n      tag_100\n      jump\t// in\n    tag_125:\n        /* \"#utility.yul\":2514:2724   */\n      swap3\n      swap2\n      pop\n      pop\n      jump\t// out\n        /* \"#utility.yul\":2730:3043   */\n    tag_35:\n        /* \"#utility.yul\":2843:2847   */\n      0x00\n        /* \"#utility.yul\":2881:2883   */\n      0x20\n        /* \"#utility.yul\":2870:2879   */\n      dup3\n        /* \"#utility.yul\":2866:2884   */\n      add\n        /* \"#utility.yul\":2858:2884   */\n      swap1\n      pop\n        /* \"#utility.yul\":2930:2939   */\n      dup2\n        /* \"#utility.yul\":2924:2928   */\n      dup2\n        /* \"#utility.yul\":2920:2940   */\n      sub\n        /* \"#utility.yul\":2916:2917   */\n      0x00\n        /* \"#utility.yul\":2905:2914   */\n      dup4\n        /* \"#utility.yul\":2901:2918   */\n      add\n        /* \"#utility.yul\":2894:2941   */\n      mstore\n        /* \"#utility.yul\":2958:3036   */\n      tag_127\n        /* \"#utility.yul\":3031:3035   */\n      dup2\n        /* \"#utility.yul\":3022:3028   */\n      dup5\n        /* \"#utility.yul\":2958:3036   */\n      tag_104\n      jump\t// in\n    tag_127:\n        /* \"#utility.yul\":2950:3036   */\n      swap1\n      pop\n        /* \"#utility.yul\":2730:3043   */\n      swap3\n      swap2\n      pop\n      pop\n      jump\t// out\n        /* \"#utility.yul\":3049:3271   */\n    tag_18:\n        /* \"#utility.yul\":3142:3146   */\n      0x00\n        /* \"#utility.yul\":3180:3182   */\n      0x20\n        /* \"#utility.yul\":3169:3178   */\n      dup3\n        /* \"#utility.yul\":3165:3183   */\n      add\n        /* \"#utility.yul\":3157:3183   */\n      swap1\n      pop\n        /* \"#utility.yul\":3193:3264   */\n      tag_129\n        /* \"#utility.yul\":3261:3262   */\n      0x00\n        /* \"#utility.yul\":3250:3259   */\n      dup4\n        /* \"#utility.yul\":3246:3263   */\n      add\n        /* \"#utility.yul\":3237:3243   */\n      dup5\n        /* \"#utility.yul\":3193:3264   */\n      tag_114\n      jump\t// in\n    tag_129:\n        /* \"#utility.yul\":3049:3271   */\n      swap3\n      swap2\n      pop\n      pop\n      jump\t// out\n        /* \"#utility.yul\":3277:3491   */\n    tag_45:\n        /* \"#utility.yul\":3366:3370   */\n      0x00\n        /* \"#utility.yul\":3404:3406   */\n      0x20\n        /* \"#utility.yul\":3393:3402   */\n      dup3\n        /* \"#utility.yul\":3389:3407   */\n      add\n        /* \"#utility.yul\":3381:3407   */\n      swap1\n      pop\n        /* \"#utility.yul\":3417:3484   */\n      tag_131\n        /* \"#utility.yul\":3481:3482   */\n      0x00\n        /* \"#utility.yul\":3470:3479   */\n      dup4\n        /* \"#utility.yul\":3466:3483   */\n      add\n        /* \"#utility.yul\":3457:3463   */\n      dup5\n        /* \"#utility.yul\":3417:3484   */\n      tag_118\n      jump\t// in\n    tag_131:\n        /* \"#utility.yul\":3277:3491   */\n      swap3\n      swap2\n      pop\n      pop\n      jump\t// out\n        /* \"#utility.yul\":3578:3677   */\n    tag_107:\n        /* \"#utility.yul\":3630:3636   */\n      0x00\n        /* \"#utility.yul\":3664:3669   */\n      dup2\n        /* \"#utility.yul\":3658:3670   */\n      mload\n        /* \"#utility.yul\":3648:3670   */\n      swap1\n      pop\n        /* \"#utility.yul\":3578:3677   */\n      swap2\n      swap1\n      pop\n      jump\t// out\n        /* \"#utility.yul\":3683:3852   */\n    tag_109:\n        /* \"#utility.yul\":3767:3778   */\n      0x00\n        /* \"#utility.yul\":3801:3807   */\n      dup3\n        /* \"#utility.yul\":3796:3799   */\n      dup3\n        /* \"#utility.yul\":3789:3808   */\n      mstore\n        /* \"#utility.yul\":3841:3845   */\n      0x20\n        /* \"#utility.yul\":3836:3839   */\n      dup3\n        /* \"#utility.yul\":3832:3846   */\n      add\n        /* \"#utility.yul\":3817:3846   */\n      swap1\n      pop\n        /* \"#utility.yul\":3683:3852   */\n      swap3\n      swap2\n      pop\n      pop\n      jump\t// out\n        /* \"#utility.yul\":3858:3954   */\n    tag_99:\n        /* \"#utility.yul\":3895:3902   */\n      0x00\n        /* \"#utility.yul\":3924:3948   */\n      tag_137\n        /* \"#utility.yul\":3942:3947   */\n      dup3\n        /* \"#utility.yul\":3924:3948   */\n      tag_138\n      jump\t// in\n    tag_137:\n        /* \"#utility.yul\":3913:3948   */\n      swap1\n      pop\n        /* \"#utility.yul\":3858:3954   */\n      swap2\n      swap1\n      pop\n      jump\t// out\n        /* \"#utility.yul\":3960:4050   */\n    tag_103:\n        /* \"#utility.yul\":3994:4001   */\n      0x00\n        /* \"#utility.yul\":4037:4042   */\n      dup2\n        /* \"#utility.yul\":4030:4043   */\n      iszero\n        /* \"#utility.yul\":4023:4044   */\n      iszero\n        /* \"#utility.yul\":4012:4044   */\n      swap1\n      pop\n        /* \"#utility.yul\":3960:4050   */\n      swap2\n      swap1\n      pop\n      jump\t// out\n        /* \"#utility.yul\":4056:4182   */\n    tag_138:\n        /* \"#utility.yul\":4093:4100   */\n      0x00\n        /* \"#utility.yul\":4133:4175   */\n      0xffffffffffffffffffffffffffffffffffffffff\n        /* \"#utility.yul\":4126:4131   */\n      dup3\n        /* \"#utility.yul\":4122:4176   */\n      and\n        /* \"#utility.yul\":4111:4176   */\n      swap1\n      pop\n        /* \"#utility.yul\":4056:4182   */\n      swap2\n      swap1\n      pop\n      jump\t// out\n        /* \"#utility.yul\":4188:4265   */\n    tag_117:\n        /* \"#utility.yul\":4225:4232   */\n      0x00\n        /* \"#utility.yul\":4254:4259   */\n      dup2\n        /* \"#utility.yul\":4243:4259   */\n      swap1\n      pop\n        /* \"#utility.yul\":4188:4265   */\n      swap2\n      swap1\n      pop\n      jump\t// out\n        /* \"#utility.yul\":4271:4357   */\n    tag_121:\n        /* \"#utility.yul\":4306:4313   */\n      0x00\n        /* \"#utility.yul\":4346:4350   */\n      0xff\n        /* \"#utility.yul\":4339:4344   */\n      dup3\n        /* \"#utility.yul\":4335:4351   */\n      and\n        /* \"#utility.yul\":4324:4351   */\n      swap1\n      pop\n        /* \"#utility.yul\":4271:4357   */\n      swap2\n      swap1\n      pop\n      jump\t// out\n        /* \"#utility.yul\":4363:4670   */\n    tag_111:\n        /* \"#utility.yul\":4431:4432   */\n      0x00\n        /* \"#utility.yul\":4441:4554   */\n    tag_144:\n        /* \"#utility.yul\":4455:4461   */\n      dup4\n        /* \"#utility.yul\":4452:4453   */\n      dup2\n        /* \"#utility.yul\":4449:4462   */\n      lt\n        /* \"#utility.yul\":4441:4554   */\n      iszero\n      tag_146\n      jumpi\n        /* \"#utility.yul\":4540:4541   */\n      dup1\n        /* \"#utility.yul\":4535:4538   */\n      dup3\n        /* \"#utility.yul\":4531:4542   */\n      add\n        /* \"#utility.yul\":4525:4543   */\n      mload\n        /* \"#utility.yul\":4521:4522   */\n      dup2\n        /* \"#utility.yul\":4516:4519   */\n      dup5\n        /* \"#utility.yul\":4512:4523   */\n      add\n        /* \"#utility.yul\":4505:4544   */\n      mstore\n        /* \"#utility.yul\":4477:4479   */\n      0x20\n        /* \"#utility.yul\":4474:4475   */\n      dup2\n        /* \"#utility.yul\":4470:4480   */\n      add\n        /* \"#utility.yul\":4465:4480   */\n      swap1\n      pop\n        /* \"#utility.yul\":4441:4554   */\n      jump(tag_144)\n    tag_146:\n        /* \"#utility.yul\":4572:4578   */\n      dup4\n        /* \"#utility.yul\":4569:4570   */\n      dup2\n        /* \"#utility.yul\":4566:4579   */\n      gt\n        /* \"#utility.yul\":4563:4664   */\n      iszero\n      tag_147\n      jumpi\n        /* \"#utility.yul\":4652:4653   */\n      0x00\n        /* \"#utility.yul\":4643:4649   */\n      dup5\n        /* \"#utility.yul\":4638:4641   */\n      dup5\n        /* \"#utility.yul\":4634:4650   */\n      add\n        /* \"#utility.yul\":4627:4654   */\n      mstore\n        /* \"#utility.yul\":4563:4664   */\n    tag_147:\n        /* \"#utility.yul\":4412:4670   */\n      pop\n        /* \"#utility.yul\":4363:4670   */\n      pop\n      pop\n      pop\n      jump\t// out\n        /* \"#utility.yul\":4676:4843   */\n    tag_67:\n        /* \"#utility.yul\":4713:4716   */\n      0x00\n        /* \"#utility.yul\":4736:4758   */\n      tag_149\n        /* \"#utility.yul\":4752:4757   */\n      dup3\n        /* \"#utility.yul\":4736:4758   */\n      tag_121\n      jump\t// in\n    tag_149:\n        /* \"#utility.yul\":4727:4758   */\n      swap2\n      pop\n        /* \"#utility.yul\":4780:4784   */\n      0x00\n        /* \"#utility.yul\":4773:4778   */\n      dup3\n        /* \"#utility.yul\":4770:4785   */\n      eq\n        /* \"#utility.yul\":4767:4808   */\n      iszero\n      tag_150\n      jumpi\n        /* \"#utility.yul\":4788:4806   */\n      tag_151\n      tag_152\n      jump\t// in\n    tag_151:\n        /* \"#utility.yul\":4767:4808   */\n    tag_150:\n        /* \"#utility.yul\":4835:4836   */\n      0x01\n        /* \"#utility.yul\":4828:4833   */\n      dup3\n        /* \"#utility.yul\":4824:4837   */\n      sub\n        /* \"#utility.yul\":4817:4837   */\n      swap1\n      pop\n        /* \"#utility.yul\":4676:4843   */\n      swap2\n      swap1\n      pop\n      jump\t// out\n        /* \"#utility.yul\":4849:5169   */\n    tag_60:\n        /* \"#utility.yul\":4893:4899   */\n      0x00\n        /* \"#utility.yul\":4930:4931   */\n      0x02\n        /* \"#utility.yul\":4924:4928   */\n      dup3\n        /* \"#utility.yul\":4920:4932   */\n      div\n        /* \"#utility.yul\":4910:4932   */\n      swap1\n      pop\n        /* \"#utility.yul\":4977:4978   */\n      0x01\n        /* \"#utility.yul\":4971:4975   */\n      dup3\n        /* \"#utility.yul\":4967:4979   */\n      and\n        /* \"#utility.yul\":4998:5016   */\n      dup1\n        /* \"#utility.yul\":4988:5069   */\n      tag_154\n      jumpi\n        /* \"#utility.yul\":5054:5058   */\n      0x7f\n        /* \"#utility.yul\":5046:5052   */\n      dup3\n        /* \"#utility.yul\":5042:5059   */\n      and\n        /* \"#utility.yul\":5032:5059   */\n      swap2\n      pop\n        /* \"#utility.yul\":4988:5069   */\n    tag_154:\n        /* \"#utility.yul\":5116:5118   */\n      0x20\n        /* \"#utility.yul\":5108:5114   */\n      dup3\n        /* \"#utility.yul\":5105:5119   */\n      lt\n        /* \"#utility.yul\":5085:5103   */\n      dup2\n        /* \"#utility.yul\":5082:5120   */\n      eq\n        /* \"#utility.yul\":5079:5163   */\n      iszero\n      tag_155\n      jumpi\n        /* \"#utility.yul\":5135:5153   */\n      tag_156\n      tag_157\n      jump\t// in\n    tag_156:\n        /* \"#utility.yul\":5079:5163   */\n    tag_155:\n        /* \"#utility.yul\":4900:5169   */\n      pop\n        /* \"#utility.yul\":4849:5169   */\n      swap2\n      swap1\n      pop\n      jump\t// out\n        /* \"#utility.yul\":5175:5342   */\n    tag_58:\n        /* \"#utility.yul\":5212:5215   */\n      0x00\n        /* \"#utility.yul\":5235:5257   */\n      tag_159\n        /* \"#utility.yul\":5251:5256   */\n      dup3\n        /* \"#utility.yul\":5235:5257   */\n      tag_121\n      jump\t// in\n    tag_159:\n        /* \"#utility.yul\":5226:5257   */\n      swap2\n      pop\n        /* \"#utility.yul\":5279:5283   */\n      0xff\n        /* \"#utility.yul\":5272:5277   */\n      dup3\n        /* \"#utility.yul\":5269:5284   */\n      eq\n        /* \"#utility.yul\":5266:5307   */\n      iszero\n      tag_160\n      jumpi\n        /* \"#utility.yul\":5287:5305   */\n      tag_161\n      tag_152\n      jump\t// in\n    tag_161:\n        /* \"#utility.yul\":5266:5307   */\n    tag_160:\n        /* \"#utility.yul\":5334:5335   */\n      0x01\n        /* \"#utility.yul\":5327:5332   */\n      dup3\n        /* \"#utility.yul\":5323:5336   */\n      add\n        /* \"#utility.yul\":5316:5336   */\n      swap1\n      pop\n        /* \"#utility.yul\":5175:5342   */\n      swap2\n      swap1\n      pop\n      jump\t// out\n        /* \"#utility.yul\":5348:5528   */\n    tag_152:\n        /* \"#utility.yul\":5396:5473   */\n      0x4e487b7100000000000000000000000000000000000000000000000000000000\n        /* \"#utility.yul\":5393:5394   */\n      0x00\n        /* \"#utility.yul\":5386:5474   */\n      mstore\n        /* \"#utility.yul\":5493:5497   */\n      0x11\n        /* \"#utility.yul\":5490:5491   */\n      0x04\n        /* \"#utility.yul\":5483:5498   */\n      mstore\n        /* \"#utility.yul\":5517:5521   */\n      0x24\n        /* \"#utility.yul\":5514:5515   */\n      0x00\n        /* \"#utility.yul\":5507:5522   */\n      revert\n        /* \"#utility.yul\":5534:5714   */\n    tag_157:\n        /* \"#utility.yul\":5582:5659   */\n      0x4e487b7100000000000000000000000000000000000000000000000000000000\n        /* \"#utility.yul\":5579:5580   */\n      0x00\n        /* \"#utility.yul\":5572:5660   */\n      mstore\n        /* \"#utility.yul\":5679:5683   */\n      0x22\n        /* \"#utility.yul\":5676:5677   */\n      0x04\n        /* \"#utility.yul\":5669:5684   */\n      mstore\n        /* \"#utility.yul\":5703:5707   */\n      0x24\n        /* \"#utility.yul\":5700:5701   */\n      0x00\n        /* \"#utility.yul\":5693:5708   */\n      revert\n        /* \"#utility.yul\":5843:5960   */\n    tag_86:\n        /* \"#utility.yul\":5952:5953   */\n      0x00\n        /* \"#utility.yul\":5949:5950   */\n      dup1\n        /* \"#utility.yul\":5942:5954   */\n      revert\n        /* \"#utility.yul\":5966:6068   */\n    tag_113:\n        /* \"#utility.yul\":6007:6013   */\n      0x00\n        /* \"#utility.yul\":6058:6060   */\n      0x1f\n        /* \"#utility.yul\":6054:6061   */\n      not\n        /* \"#utility.yul\":6049:6051   */\n      0x1f\n        /* \"#utility.yul\":6042:6047   */\n      dup4\n        /* \"#utility.yul\":6038:6052   */\n      add\n        /* \"#utility.yul\":6034:6062   */\n      and\n        /* \"#utility.yul\":6024:6062   */\n      swap1\n      pop\n        /* \"#utility.yul\":5966:6068   */\n      swap2\n      swap1\n      pop\n      jump\t// out\n        /* \"#utility.yul\":6074:6196   */\n    tag_74:\n        /* \"#utility.yul\":6147:6171   */\n      tag_169\n        /* \"#utility.yul\":6165:6170   */\n      dup2\n        /* \"#utility.yul\":6147:6171   */\n      tag_99\n      jump\t// in\n    tag_169:\n        /* \"#utility.yul\":6140:6145   */\n      dup2\n        /* \"#utility.yul\":6137:6172   */\n      eq\n        /* \"#utility.yul\":6127:6190   */\n      tag_170\n      jumpi\n        /* \"#utility.yul\":6186:6187   */\n      0x00\n        /* \"#utility.yul\":6183:6184   */\n      dup1\n        /* \"#utility.yul\":6176:6188   */\n      revert\n        /* \"#utility.yul\":6127:6190   */\n    tag_170:\n        /* \"#utility.yul\":6074:6196   */\n      pop\n      jump\t// out\n        /* \"#utility.yul\":6202:6318   */\n    tag_78:\n        /* \"#utility.yul\":6272:6293   */\n      tag_172\n        /* \"#utility.yul\":6287:6292   */\n      dup2\n        /* \"#utility.yul\":6272:6293   */\n      tag_103\n      jump\t// in\n    tag_172:\n        /* \"#utility.yul\":6265:6270   */\n      dup2\n        /* \"#utility.yul\":6262:6294   */\n      eq\n        /* \"#utility.yul\":6252:6312   */\n      tag_173\n      jumpi\n        /* \"#utility.yul\":6308:6309   */\n      0x00\n        /* \"#utility.yul\":6305:6306   */\n      dup1\n        /* \"#utility.yul\":6298:6310   */\n      revert\n        /* \"#utility.yul\":6252:6312   */\n    tag_173:\n        /* \"#utility.yul\":6202:6318   */\n      pop\n      jump\t// out\n        /* \"#utility.yul\":6324:6446   */\n    tag_82:\n        /* \"#utility.yul\":6397:6421   */\n      tag_175\n        /* \"#utility.yul\":6415:6420   */\n      dup2\n        /* \"#utility.yul\":6397:6421   */\n      tag_117\n      jump\t// in\n    tag_175:\n        /* \"#utility.yul\":6390:6395   */\n      dup2\n        /* \"#utility.yul\":6387:6422   */\n      eq\n        /* \"#utility.yul\":6377:6440   */\n      tag_176\n      jumpi\n        /* \"#utility.yul\":6436:6437   */\n      0x00\n        /* \"#utility.yul\":6433:6434   */\n      dup1\n        /* \"#utility.yul\":6426:6438   */\n      revert\n        /* \"#utility.yul\":6377:6440   */\n    tag_176:\n        /* \"#utility.yul\":6324:6446   */\n      pop\n      jump\t// out\n\n    auxdata: 0xa2646970667358221220fe6226dcb7e9898e1013045963a757adfbfc95b07d7ac54c306918f7abf34d7d64736f6c63430008070033\n}\n",
				"bytecode": {
					"linkReferences": {},
					"object": "60806040526040518060400160405280600b81526020017f68656c6c6f20776f726c640000000000000000000000000000000000000000008152506002908051906020019061004f929190610062565b5034801561005c57600080fd5b50610166565b82805461006e90610105565b90600052602060002090601f01602090048101928261009057600085556100d7565b82601f106100a957805160ff19168380011785556100d7565b828001600101855582156100d7579182015b828111156100d65782518255916020019190600101906100bb565b5b5090506100e491906100e8565b5090565b5b808211156101015760008160009055506001016100e9565b5090565b6000600282049050600182168061011d57607f821691505b6020821081141561013157610130610137565b5b50919050565b7f4e487b7100000000000000000000000000000000000000000000000000000000600052602260045260246000fd5b6107a8806101756000396000f3fe608060405234801561001057600080fd5b50600436106100a95760003560e01c8063492bfa1811610071578063492bfa181461012e5780636deecdbe1461014c578063debbaf2b1461016a578063e2a4b2af14610174578063e492fd8414610192578063eb1b30d9146101ae576100a9565b806306540f7e146100ae5780630e807d6e146100cc57806315502612146100e857806326b85ee11461010657806333b87eeb14610124575b600080fd5b6100b66101ca565b6040516100c39190610559565b60405180910390f35b6100e660048036038101906100e19190610405565b6101d0565b005b6100f0610214565b6040516100fd9190610559565b60405180910390f35b61010e610255565b60405161011b9190610501565b60405180910390f35b61012c61027b565b005b6101366102b4565b6040516101439190610537565b60405180910390f35b610154610342565b604051610161919061051c565b60405180910390f35b610172610355565b005b61017c61038e565b6040516101899190610574565b60405180910390f35b6101ac60048036038101906101a7919061045f565b61039f565b005b6101c860048036038101906101c39190610432565b6103a9565b005b60005481565b80600160026101000a81548173ffffffffffffffffffffffffffffffffffffffff021916908373ffffffffffffffffffffffffffffffffffffffff16021790555050565b6000600160029054906101000a900473ffffffffffffffffffffffffffffffffffffffff1673ffffffffffffffffffffffffffffffffffffffff1631905090565b600160029054906101000a900473ffffffffffffffffffffffffffffffffffffffff1681565b60018081819054906101000a900460ff16809291906102999061068f565b91906101000a81548160ff021916908360ff16021790555050565b600280546102c19061065d565b80601f01602080910402602001604051908101604052809291908181526020018280546102ed9061065d565b801561033a5780601f1061030f5761010080835404028352916020019161033a565b820191906000526020600020905b81548152906001019060200180831161031d57829003601f168201915b505050505081565b600160009054906101000a900460ff1681565b60018081819054906101000a900460ff168092919061037390610633565b91906101000a81548160ff021916908360ff16021790555050565b60018054906101000a900460ff1681565b8060008190555050565b80600160006101000a81548160ff02191690831515021790555050565b6000813590506103d58161072d565b92915050565b6000813590506103ea81610744565b92915050565b6000813590506103ff8161075b565b92915050565b60006020828403121561041b5761041a610717565b5b6000610429848285016103c6565b91505092915050565b60006020828403121561044857610447610717565b5b6000610456848285016103db565b91505092915050565b60006020828403121561047557610474610717565b5b6000610483848285016103f0565b91505092915050565b610495816105ab565b82525050565b6104a4816105bd565b82525050565b60006104b58261058f565b6104bf818561059a565b93506104cf818560208601610600565b6104d88161071c565b840191505092915050565b6104ec816105e9565b82525050565b6104fb816105f3565b82525050565b6000602082019050610516600083018461048c565b92915050565b6000602082019050610531600083018461049b565b92915050565b6000602082019050818103600083015261055181846104aa565b905092915050565b600060208201905061056e60008301846104e3565b92915050565b600060208201905061058960008301846104f2565b92915050565b600081519050919050565b600082825260208201905092915050565b60006105b6826105c9565b9050919050565b60008115159050919050565b600073ffffffffffffffffffffffffffffffffffffffff82169050919050565b6000819050919050565b600060ff82169050919050565b60005b8381101561061e578082015181840152602081019050610603565b8381111561062d576000848401525b50505050565b600061063e826105f3565b91506000821415610652576106516106b9565b5b600182039050919050565b6000600282049050600182168061067557607f821691505b60208210811415610689576106886106e8565b5b50919050565b600061069a826105f3565b915060ff8214156106ae576106ad6106b9565b5b600182019050919050565b7f4e487b7100000000000000000000000000000000000000000000000000000000600052601160045260246000fd5b7f4e487b7100000000000000000000000000000000000000000000000000000000600052602260045260246000fd5b600080fd5b6000601f19601f8301169050919050565b610736816105ab565b811461074157600080fd5b50565b61074d816105bd565b811461075857600080fd5b50565b610764816105e9565b811461076f57600080fd5b5056fea2646970667358221220fe6226dcb7e9898e1013045963a757adfbfc95b07d7ac54c306918f7abf34d7d64736f6c63430008070033",
					"opcodes": "PUSH1 0x80 PUSH1 0x40 MSTORE PUSH1 0x40 MLOAD DUP1 PUSH1 0x40 ADD PUSH1 0x40 MSTORE DUP1 PUSH1 0xB DUP2 MSTORE PUSH1 0x20 ADD PUSH32 0x68656C6C6F20776F726C64000000000000000000000000000000000000000000 DUP2 MSTORE POP PUSH1 0x2 SWAP1 DUP1 MLOAD SWAP1 PUSH1 0x20 ADD SWAP1 PUSH2 0x4F SWAP3 SWAP2 SWAP1 PUSH2 0x62 JUMP JUMPDEST POP CALLVALUE DUP1 ISZERO PUSH2 0x5C JUMPI PUSH1 0x0 DUP1 REVERT JUMPDEST POP PUSH2 0x166 JUMP JUMPDEST DUP3 DUP1 SLOAD PUSH2 0x6E SWAP1 PUSH2 0x105 JUMP JUMPDEST SWAP1 PUSH1 0x0 MSTORE PUSH1 0x20 PUSH1 0x0 KECCAK256 SWAP1 PUSH1 0x1F ADD PUSH1 0x20 SWAP1 DIV DUP2 ADD SWAP3 DUP3 PUSH2 0x90 JUMPI PUSH1 0x0 DUP6 SSTORE PUSH2 0xD7 JUMP JUMPDEST DUP3 PUSH1 0x1F LT PUSH2 0xA9 JUMPI DUP1 MLOAD PUSH1 0xFF NOT AND DUP4 DUP1 ADD OR DUP6 SSTORE PUSH2 0xD7 JUMP JUMPDEST DUP3 DUP1 ADD PUSH1 0x1 ADD DUP6 SSTORE DUP3 ISZERO PUSH2 0xD7 JUMPI SWAP2 DUP3 ADD JUMPDEST DUP3 DUP2 GT ISZERO PUSH2 0xD6 JUMPI DUP3 MLOAD DUP3 SSTORE SWAP2 PUSH1 0x20 ADD SWAP2 SWAP1 PUSH1 0x1 ADD SWAP1 PUSH2 0xBB JUMP JUMPDEST JUMPDEST POP SWAP1 POP PUSH2 0xE4 SWAP2 SWAP1 PUSH2 0xE8 JUMP JUMPDEST POP SWAP1 JUMP JUMPDEST JUMPDEST DUP1 DUP3 GT ISZERO PUSH2 0x101 JUMPI PUSH1 0x0 DUP2 PUSH1 0x0 SWAP1 SSTORE POP PUSH1 0x1 ADD PUSH2 0xE9 JUMP JUMPDEST POP SWAP1 JUMP JUMPDEST PUSH1 0x0 PUSH1 0x2 DUP3 DIV SWAP1 POP PUSH1 0x1 DUP3 AND DUP1 PUSH2 0x11D JUMPI PUSH1 0x7F DUP3 AND SWAP2 POP JUMPDEST PUSH1 0x20 DUP3 LT DUP2 EQ ISZERO PUSH2 0x131 JUMPI PUSH2 0x130 PUSH2 0x137 JUMP JUMPDEST JUMPDEST POP SWAP2 SWAP1 POP JUMP JUMPDEST PUSH32 0x4E487B7100000000000000000000000000000000000000000000000000000000 PUSH1 0x0 MSTORE PUSH1 0x22 PUSH1 0x4 MSTORE PUSH1 0x24 PUSH1 0x0 REVERT JUMPDEST PUSH2 0x7A8 DUP1 PUSH2 0x175 PUSH1 0x0 CODECOPY PUSH1 0x0 RETURN INVALID PUSH1 0x80 PUSH1 0x40 MSTORE CALLVALUE DUP1 ISZERO PUSH2 0x10 JUMPI PUSH1 0x0 DUP1 REVERT JUMPDEST POP PUSH1 0x4 CALLDATASIZE LT PUSH2 0xA9 JUMPI PUSH1 0x0 CALLDATALOAD PUSH1 0xE0 SHR DUP1 PUSH4 0x492BFA18 GT PUSH2 0x71 JUMPI DUP1 PUSH4 0x492BFA18 EQ PUSH2 0x12E JUMPI DUP1 PUSH4 0x6DEECDBE EQ PUSH2 0x14C JUMPI DUP1 PUSH4 0xDEBBAF2B EQ PUSH2 0x16A JUMPI DUP1 PUSH4 0xE2A4B2AF EQ PUSH2 0x174 JUMPI DUP1 PUSH4 0xE492FD84 EQ PUSH2 0x192 JUMPI DUP1 PUSH4 0xEB1B30D9 EQ PUSH2 0x1AE JUMPI PUSH2 0xA9 JUMP JUMPDEST DUP1 PUSH4 0x6540F7E EQ PUSH2 0xAE JUMPI DUP1 PUSH4 0xE807D6E EQ PUSH2 0xCC JUMPI DUP1 PUSH4 0x15502612 EQ PUSH2 0xE8 JUMPI DUP1 PUSH4 0x26B85EE1 EQ PUSH2 0x106 JUMPI DUP1 PUSH4 0x33B87EEB EQ PUSH2 0x124 JUMPI JUMPDEST PUSH1 0x0 DUP1 REVERT JUMPDEST PUSH2 0xB6 PUSH2 0x1CA JUMP JUMPDEST PUSH1 0x40 MLOAD PUSH2 0xC3 SWAP2 SWAP1 PUSH2 0x559 JUMP JUMPDEST PUSH1 0x40 MLOAD DUP1 SWAP2 SUB SWAP1 RETURN JUMPDEST PUSH2 0xE6 PUSH1 0x4 DUP1 CALLDATASIZE SUB DUP2 ADD SWAP1 PUSH2 0xE1 SWAP2 SWAP1 PUSH2 0x405 JUMP JUMPDEST PUSH2 0x1D0 JUMP JUMPDEST STOP JUMPDEST PUSH2 0xF0 PUSH2 0x214 JUMP JUMPDEST PUSH1 0x40 MLOAD PUSH2 0xFD SWAP2 SWAP1 PUSH2 0x559 JUMP JUMPDEST PUSH1 0x40 MLOAD DUP1 SWAP2 SUB SWAP1 RETURN JUMPDEST PUSH2 0x10E PUSH2 0x255 JUMP JUMPDEST PUSH1 0x40 MLOAD PUSH2 0x11B SWAP2 SWAP1 PUSH2 0x501 JUMP JUMPDEST PUSH1 0x40 MLOAD DUP1 SWAP2 SUB SWAP1 RETURN JUMPDEST PUSH2 0x12C PUSH2 0x27B JUMP JUMPDEST STOP JUMPDEST PUSH2 0x136 PUSH2 0x2B4 JUMP JUMPDEST PUSH1 0x40 MLOAD PUSH2 0x143 SWAP2 SWAP1 PUSH2 0x537 JUMP JUMPDEST PUSH1 0x40 MLOAD DUP1 SWAP2 SUB SWAP1 RETURN JUMPDEST PUSH2 0x154 PUSH2 0x342 JUMP JUMPDEST PUSH1 0x40 MLOAD PUSH2 0x161 SWAP2 SWAP1 PUSH2 0x51C JUMP JUMPDEST PUSH1 0x40 MLOAD DUP1 SWAP2 SUB SWAP1 RETURN JUMPDEST PUSH2 0x172 PUSH2 0x355 JUMP JUMPDEST STOP JUMPDEST PUSH2 0x17C PUSH2 0x38E JUMP JUMPDEST PUSH1 0x40 MLOAD PUSH2 0x189 SWAP2 SWAP1 PUSH2 0x574 JUMP JUMPDEST PUSH1 0x40 MLOAD DUP1 SWAP2 SUB SWAP1 RETURN JUMPDEST PUSH2 0x1AC PUSH1 0x4 DUP1 CALLDATASIZE SUB DUP2 ADD SWAP1 PUSH2 0x1A7 SWAP2 SWAP1 PUSH2 0x45F JUMP JUMPDEST PUSH2 0x39F JUMP JUMPDEST STOP JUMPDEST PUSH2 0x1C8 PUSH1 0x4 DUP1 CALLDATASIZE SUB DUP2 ADD SWAP1 PUSH2 0x1C3 SWAP2 SWAP1 PUSH2 0x432 JUMP JUMPDEST PUSH2 0x3A9 JUMP JUMPDEST STOP JUMPDEST PUSH1 0x0 SLOAD DUP2 JUMP JUMPDEST DUP1 PUSH1 0x1 PUSH1 0x2 PUSH2 0x100 EXP DUP2 SLOAD DUP2 PUSH20 0xFFFFFFFFFFFFFFFFFFFFFFFFFFFFFFFFFFFFFFFF MUL NOT AND SWAP1 DUP4 PUSH20 0xFFFFFFFFFFFFFFFFFFFFFFFFFFFFFFFFFFFFFFFF AND MUL OR SWAP1 SSTORE POP POP JUMP JUMPDEST PUSH1 0x0 PUSH1 0x1 PUSH1 0x2 SWAP1 SLOAD SWAP1 PUSH2 0x100 EXP SWAP1 DIV PUSH20 0xFFFFFFFFFFFFFFFFFFFFFFFFFFFFFFFFFFFFFFFF AND PUSH20 0xFFFFFFFFFFFFFFFFFFFFFFFFFFFFFFFFFFFFFFFF AND BALANCE SWAP1 POP SWAP1 JUMP JUMPDEST PUSH1 0x1 PUSH1 0x2 SWAP1 SLOAD SWAP1 PUSH2 0x100 EXP SWAP1 DIV PUSH20 0xFFFFFFFFFFFFFFFFFFFFFFFFFFFFFFFFFFFFFFFF AND DUP2 JUMP JUMPDEST PUSH1 0x1 DUP1 DUP2 DUP2 SWAP1 SLOAD SWAP1 PUSH2 0x100 EXP SWAP1 DIV PUSH1 0xFF AND DUP1 SWAP3 SWAP2 SWAP1 PUSH2 0x299 SWAP1 PUSH2 0x68F JUMP JUMPDEST SWAP2 SWAP1 PUSH2 0x100 EXP DUP2 SLOAD DUP2 PUSH1 0xFF MUL NOT AND SWAP1 DUP4 PUSH1 0xFF AND MUL OR SWAP1 SSTORE POP POP JUMP JUMPDEST PUSH1 0x2 DUP1 SLOAD PUSH2 0x2C1 SWAP1 PUSH2 0x65D JUMP JUMPDEST DUP1 PUSH1 0x1F ADD PUSH1 0x20 DUP1 SWAP2 DIV MUL PUSH1 0x20 ADD PUSH1 0x40 MLOAD SWAP1 DUP2 ADD PUSH1 0x40 MSTORE DUP1 SWAP3 SWAP2 SWAP1 DUP2 DUP2 MSTORE PUSH1 0x20 ADD DUP3 DUP1 SLOAD PUSH2 0x2ED SWAP1 PUSH2 0x65D JUMP JUMPDEST DUP1 ISZERO PUSH2 0x33A JUMPI DUP1 PUSH1 0x1F LT PUSH2 0x30F JUMPI PUSH2 0x100 DUP1 DUP4 SLOAD DIV MUL DUP4 MSTORE SWAP2 PUSH1 0x20 ADD SWAP2 PUSH2 0x33A JUMP JUMPDEST DUP3 ADD SWAP2 SWAP1 PUSH1 0x0 MSTORE PUSH1 0x20 PUSH1 0x0 KECCAK256 SWAP1 JUMPDEST DUP2 SLOAD DUP2 MSTORE SWAP1 PUSH1 0x1 ADD SWAP1 PUSH1 0x20 ADD DUP1 DUP4 GT PUSH2 0x31D JUMPI DUP3 SWAP1 SUB PUSH1 0x1F AND DUP3 ADD SWAP2 JUMPDEST POP POP POP POP POP DUP2 JUMP JUMPDEST PUSH1 0x1 PUSH1 0x0 SWAP1 SLOAD SWAP1 PUSH2 0x100 EXP SWAP1 DIV PUSH1 0xFF AND DUP2 JUMP JUMPDEST PUSH1 0x1 DUP1 DUP2 DUP2 SWAP1 SLOAD SWAP1 PUSH2 0x100 EXP SWAP1 DIV PUSH1 0xFF AND DUP1 SWAP3 SWAP2 SWAP1 PUSH2 0x373 SWAP1 PUSH2 0x633 JUMP JUMPDEST SWAP2 SWAP1 PUSH2 0x100 EXP DUP2 SLOAD DUP2 PUSH1 0xFF MUL NOT AND SWAP1 DUP4 PUSH1 0xFF AND MUL OR SWAP1 SSTORE POP POP JUMP JUMPDEST PUSH1 0x1 DUP1 SLOAD SWAP1 PUSH2 0x100 EXP SWAP1 DIV PUSH1 0xFF AND DUP2 JUMP JUMPDEST DUP1 PUSH1 0x0 DUP2 SWAP1 SSTORE POP POP JUMP JUMPDEST DUP1 PUSH1 0x1 PUSH1 0x0 PUSH2 0x100 EXP DUP2 SLOAD DUP2 PUSH1 0xFF MUL NOT AND SWAP1 DUP4 ISZERO ISZERO MUL OR SWAP1 SSTORE POP POP JUMP JUMPDEST PUSH1 0x0 DUP2 CALLDATALOAD SWAP1 POP PUSH2 0x3D5 DUP2 PUSH2 0x72D JUMP JUMPDEST SWAP3 SWAP2 POP POP JUMP JUMPDEST PUSH1 0x0 DUP2 CALLDATALOAD SWAP1 POP PUSH2 0x3EA DUP2 PUSH2 0x744 JUMP JUMPDEST SWAP3 SWAP2 POP POP JUMP JUMPDEST PUSH1 0x0 DUP2 CALLDATALOAD SWAP1 POP PUSH2 0x3FF DUP2 PUSH2 0x75B JUMP JUMPDEST SWAP3 SWAP2 POP POP JUMP JUMPDEST PUSH1 0x0 PUSH1 0x20 DUP3 DUP5 SUB SLT ISZERO PUSH2 0x41B JUMPI PUSH2 0x41A PUSH2 0x717 JUMP JUMPDEST JUMPDEST PUSH1 0x0 PUSH2 0x429 DUP5 DUP3 DUP6 ADD PUSH2 0x3C6 JUMP JUMPDEST SWAP2 POP POP SWAP3 SWAP2 POP POP JUMP JUMPDEST PUSH1 0x0 PUSH1 0x20 DUP3 DUP5 SUB SLT ISZERO PUSH2 0x448 JUMPI PUSH2 0x447 PUSH2 0x717 JUMP JUMPDEST JUMPDEST PUSH1 0x0 PUSH2 0x456 DUP5 DUP3 DUP6 ADD PUSH2 0x3DB JUMP JUMPDEST SWAP2 POP POP SWAP3 SWAP2 POP POP JUMP JUMPDEST PUSH1 0x0 PUSH1 0x20 DUP3 DUP5 SUB SLT ISZERO PUSH2 0x475 JUMPI PUSH2 0x474 PUSH2 0x717 JUMP JUMPDEST JUMPDEST PUSH1 0x0 PUSH2 0x483 DUP5 DUP3 DUP6 ADD PUSH2 0x3F0 JUMP JUMPDEST SWAP2 POP POP SWAP3 SWAP2 POP POP JUMP JUMPDEST PUSH2 0x495 DUP2 PUSH2 0x5AB JUMP JUMPDEST DUP3 MSTORE POP POP JUMP JUMPDEST PUSH2 0x4A4 DUP2 PUSH2 0x5BD JUMP JUMPDEST DUP3 MSTORE POP POP JUMP JUMPDEST PUSH1 0x0 PUSH2 0x4B5 DUP3 PUSH2 0x58F JUMP JUMPDEST PUSH2 0x4BF DUP2 DUP6 PUSH2 0x59A JUMP JUMPDEST SWAP4 POP PUSH2 0x4CF DUP2 DUP6 PUSH1 0x20 DUP7 ADD PUSH2 0x600 JUMP JUMPDEST PUSH2 0x4D8 DUP2 PUSH2 0x71C JUMP JUMPDEST DUP5 ADD SWAP2 POP POP SWAP3 SWAP2 POP POP JUMP JUMPDEST PUSH2 0x4EC DUP2 PUSH2 0x5E9 JUMP JUMPDEST DUP3 MSTORE POP POP JUMP JUMPDEST PUSH2 0x4FB DUP2 PUSH2 0x5F3 JUMP JUMPDEST DUP3 MSTORE POP POP JUMP JUMPDEST PUSH1 0x0 PUSH1 0x20 DUP3 ADD SWAP1 POP PUSH2 0x516 PUSH1 0x0 DUP4 ADD DUP5 PUSH2 0x48C JUMP JUMPDEST SWAP3 SWAP2 POP POP JUMP JUMPDEST PUSH1 0x0 PUSH1 0x20 DUP3 ADD SWAP1 POP PUSH2 0x531 PUSH1 0x0 DUP4 ADD DUP5 PUSH2 0x49B JUMP JUMPDEST SWAP3 SWAP2 POP POP JUMP JUMPDEST PUSH1 0x0 PUSH1 0x20 DUP3 ADD SWAP1 POP DUP2 DUP2 SUB PUSH1 0x0 DUP4 ADD MSTORE PUSH2 0x551 DUP2 DUP5 PUSH2 0x4AA JUMP JUMPDEST SWAP1 POP SWAP3 SWAP2 POP POP JUMP JUMPDEST PUSH1 0x0 PUSH1 0x20 DUP3 ADD SWAP1 POP PUSH2 0x56E PUSH1 0x0 DUP4 ADD DUP5 PUSH2 0x4E3 JUMP JUMPDEST SWAP3 SWAP2 POP POP JUMP JUMPDEST PUSH1 0x0 PUSH1 0x20 DUP3 ADD SWAP1 POP PUSH2 0x589 PUSH1 0x0 DUP4 ADD DUP5 PUSH2 0x4F2 JUMP JUMPDEST SWAP3 SWAP2 POP POP JUMP JUMPDEST PUSH1 0x0 DUP2 MLOAD SWAP1 POP SWAP2 SWAP1 POP JUMP JUMPDEST PUSH1 0x0 DUP3 DUP3 MSTORE PUSH1 0x20 DUP3 ADD SWAP1 POP SWAP3 SWAP2 POP POP JUMP JUMPDEST PUSH1 0x0 PUSH2 0x5B6 DUP3 PUSH2 0x5C9 JUMP JUMPDEST SWAP1 POP SWAP2 SWAP1 POP JUMP JUMPDEST PUSH1 0x0 DUP2 ISZERO ISZERO SWAP1 POP SWAP2 SWAP1 POP JUMP JUMPDEST PUSH1 0x0 PUSH20 0xFFFFFFFFFFFFFFFFFFFFFFFFFFFFFFFFFFFFFFFF DUP3 AND SWAP1 POP SWAP2 SWAP1 POP JUMP JUMPDEST PUSH1 0x0 DUP2 SWAP1 POP SWAP2 SWAP1 POP JUMP JUMPDEST PUSH1 0x0 PUSH1 0xFF DUP3 AND SWAP1 POP SWAP2 SWAP1 POP JUMP JUMPDEST PUSH1 0x0 JUMPDEST DUP4 DUP2 LT ISZERO PUSH2 0x61E JUMPI DUP1 DUP3 ADD MLOAD DUP2 DUP5 ADD MSTORE PUSH1 0x20 DUP2 ADD SWAP1 POP PUSH2 0x603 JUMP JUMPDEST DUP4 DUP2 GT ISZERO PUSH2 0x62D JUMPI PUSH1 0x0 DUP5 DUP5 ADD MSTORE JUMPDEST POP POP POP POP JUMP JUMPDEST PUSH1 0x0 PUSH2 0x63E DUP3 PUSH2 0x5F3 JUMP JUMPDEST SWAP2 POP PUSH1 0x0 DUP3 EQ ISZERO PUSH2 0x652 JUMPI PUSH2 0x651 PUSH2 0x6B9 JUMP JUMPDEST JUMPDEST PUSH1 0x1 DUP3 SUB SWAP1 POP SWAP2 SWAP1 POP JUMP JUMPDEST PUSH1 0x0 PUSH1 0x2 DUP3 DIV SWAP1 POP PUSH1 0x1 DUP3 AND DUP1 PUSH2 0x675 JUMPI PUSH1 0x7F DUP3 AND SWAP2 POP JUMPDEST PUSH1 0x20 DUP3 LT DUP2 EQ ISZERO PUSH2 0x689 JUMPI PUSH2 0x688 PUSH2 0x6E8 JUMP JUMPDEST JUMPDEST POP SWAP2 SWAP1 POP JUMP JUMPDEST PUSH1 0x0 PUSH2 0x69A DUP3 PUSH2 0x5F3 JUMP JUMPDEST SWAP2 POP PUSH1 0xFF DUP3 EQ ISZERO PUSH2 0x6AE JUMPI PUSH2 0x6AD PUSH2 0x6B9 JUMP JUMPDEST JUMPDEST PUSH1 0x1 DUP3 ADD SWAP1 POP SWAP2 SWAP1 POP JUMP JUMPDEST PUSH32 0x4E487B7100000000000000000000000000000000000000000000000000000000 PUSH1 0x0 MSTORE PUSH1 0x11 PUSH1 0x4 MSTORE PUSH1 0x24 PUSH1 0x0 REVERT JUMPDEST PUSH32 0x4E487B7100000000000000000000000000000000000000000000000000000000 PUSH1 0x0 MSTORE PUSH1 0x22 PUSH1 0x4 MSTORE PUSH1 0x24 PUSH1 0x0 REVERT JUMPDEST PUSH1 0x0 DUP1 REVERT JUMPDEST PUSH1 0x0 PUSH1 0x1F NOT PUSH1 0x1F DUP4 ADD AND SWAP1 POP SWAP2 SWAP1 POP JUMP JUMPDEST PUSH2 0x736 DUP2 PUSH2 0x5AB JUMP JUMPDEST DUP2 EQ PUSH2 0x741 JUMPI PUSH1 0x0 DUP1 REVERT JUMPDEST POP JUMP JUMPDEST PUSH2 0x74D DUP2 PUSH2 0x5BD JUMP JUMPDEST DUP2 EQ PUSH2 0x758 JUMPI PUSH1 0x0 DUP1 REVERT JUMPDEST POP JUMP JUMPDEST PUSH2 0x764 DUP2 PUSH2 0x5E9 JUMP JUMPDEST DUP2 EQ PUSH2 0x76F JUMPI PUSH1 0x0 DUP1 REVERT JUMPDEST POP JUMP INVALID LOG2 PUSH5 0x6970667358 0x22 SLT KECCAK256 INVALID PUSH3 0x26DCB7 0xE9 DUP10 DUP15 LT SGT DIV MSIZE PUSH4 0xA757ADFB 0xFC SWAP6 0xB0 PUSH30 0x7AC54C306918F7ABF34D7D64736F6C634300080700330000000000000000 "
				},
				"gasEstimates": {
					"creation": {
						"codeDepositCost": "392000",
						"executionCost": "infinite",
						"totalCost": "infinite"
					},
					"external": {
						"decreamentUint8()": "26846",
						"getBalanceOfAddress()": "5174",
						"increamentUint8()": "26891",
						"myAddress()": "2631",
						"myBool()": "2493",
						"myString()": "infinite",
						"myUint()": "2430",
						"myUint8()": "2584",
						"setAdress(address)": "24795",
						"setMyBool(bool)": "24789",
						"setMyUint(uint256)": "22608"
					}
				},
				"methodIdentifiers": {
					"decreamentUint8()": "debbaf2b",
					"getBalanceOfAddress()": "15502612",
					"increamentUint8()": "33b87eeb",
					"myAddress()": "26b85ee1",
					"myBool()": "6deecdbe",
					"myString()": "492bfa18",
					"myUint()": "06540f7e",
					"myUint8()": "e2a4b2af",
					"setAdress(address)": "0e807d6e",
					"setMyBool(bool)": "eb1b30d9",
					"setMyUint(uint256)": "e492fd84"
				}
			},
			"storageLayout": {
				"storage": [
					{
						"astId": 3,
						"contract": "Variable.sol:WorkingWithVariables",
						"label": "myUint",
						"offset": 0,
						"slot": "0",
						"type": "t_uint256"
					},
					{
						"astId": 15,
						"contract": "Variable.sol:WorkingWithVariables",
						"label": "myBool",
						"offset": 0,
						"slot": "1",
						"type": "t_bool"
					},
					{
						"astId": 27,
						"contract": "Variable.sol:WorkingWithVariables",
						"label": "myUint8",
						"offset": 1,
						"slot": "1",
						"type": "t_uint8"
					},
					{
						"astId": 43,
						"contract": "Variable.sol:WorkingWithVariables",
						"label": "myAddress",
						"offset": 2,
						"slot": "1",
						"type": "t_address"
					},
					{
						"astId": 65,
						"contract": "Variable.sol:WorkingWithVariables",
						"label": "myString",
						"offset": 0,
						"slot": "2",
						"type": "t_string_storage"
					}
				],
				"types": {
					"t_address": {
						"encoding": "inplace",
						"label": "address",
						"numberOfBytes": "20"
					},
					"t_bool": {
						"encoding": "inplace",
						"label": "bool",
						"numberOfBytes": "1"
					},
					"t_string_storage": {
						"encoding": "bytes",
						"label": "string",
						"numberOfBytes": "32"
					},
					"t_uint256": {
						"encoding": "inplace",
						"label": "uint256",
						"numberOfBytes": "32"
					},
					"t_uint8": {
						"encoding": "inplace",
						"label": "uint8",
						"numberOfBytes": "1"
					}
				}
			},
			"userdoc": {
				"kind": "user",
				"methods": {},
				"version": 1
			}
		}
	}
}