{
	"Modifier.sol": {
		"Modifier": {
			"abi": [
				{
					"inputs": [],
					"stateMutability": "nonpayable",
					"type": "constructor"
				},
				{
					"inputs": [],
					"name": "burnToken",
					"outputs": [],
					"stateMutability": "nonpayable",
					"type": "function"
				},
				{
					"inputs": [],
					"name": "createNewToken",
					"outputs": [],
					"stateMutability": "nonpayable",
					"type": "function"
				},
				{
					"inputs": [],
					"name": "purchaseToken",
					"outputs": [],
					"stateMutability": "payable",
					"type": "function"
				},
				{
					"inputs": [
						{
							"internalType": "address",
							"name": "_to",
							"type": "address"
						},
						{
							"internalType": "uint256",
							"name": "_amount",
							"type": "uint256"
						}
					],
					"name": "sendToken",
					"outputs": [],
					"stateMutability": "nonpayable",
					"type": "function"
				},
				{
					"inputs": [
						{
							"internalType": "address",
							"name": "",
							"type": "address"
						}
					],
					"name": "tokenBalance",
					"outputs": [
						{
							"internalType": "uint256",
							"name": "",
							"type": "uint256"
						}
					],
					"stateMutability": "view",
					"type": "function"
				}
			],
			"devdoc": {
				"kind": "dev",
				"methods": {},
				"version": 1
			},
			"evm": {
				"assembly": "    /* \"Modifier.sol\":27:862  contract Modifier{\r... */\n  mstore(0x40, 0x80)\n    /* \"Modifier.sol\":138:145  1 ether */\n  0x0de0b6b3a7640000\n    /* \"Modifier.sol\":120:145  uint tokenPrice = 1 ether */\n  0x02\n  sstore\n    /* \"Modifier.sol\":154:247  constructor() public {\r... */\n  callvalue\n  dup1\n  iszero\n  tag_1\n  jumpi\n  0x00\n  dup1\n  revert\ntag_1:\n  pop\n    /* \"Modifier.sol\":194:204  msg.sender */\n  caller\n    /* \"Modifier.sol\":186:191  owner */\n  0x01\n  0x00\n    /* \"Modifier.sol\":186:204  owner = msg.sender */\n  0x0100\n  exp\n  dup2\n  sload\n  dup2\n  0xffffffffffffffffffffffffffffffffffffffff\n  mul\n  not\n  and\n  swap1\n  dup4\n  0xffffffffffffffffffffffffffffffffffffffff\n  and\n  mul\n  or\n  swap1\n  sstore\n  pop\n    /* \"Modifier.sol\":236:239  100 */\n  0x64\n    /* \"Modifier.sol\":215:227  tokenBalance */\n  0x00\n    /* \"Modifier.sol\":215:234  tokenBalance[owner] */\n  dup1\n    /* \"Modifier.sol\":228:233  owner */\n  0x01\n  0x00\n  swap1\n  sload\n  swap1\n  0x0100\n  exp\n  swap1\n  div\n  0xffffffffffffffffffffffffffffffffffffffff\n  and\n    /* \"Modifier.sol\":215:234  tokenBalance[owner] */\n  0xffffffffffffffffffffffffffffffffffffffff\n  and\n  0xffffffffffffffffffffffffffffffffffffffff\n  and\n  dup2\n  mstore\n  0x20\n  add\n  swap1\n  dup2\n  mstore\n  0x20\n  add\n  0x00\n  keccak256\n    /* \"Modifier.sol\":215:239  tokenBalance[owner]= 100 */\n  dup2\n  swap1\n  sstore\n  pop\n    /* \"Modifier.sol\":27:862  contract Modifier{\r... */\n  dataSize(sub_0)\n  dup1\n  dataOffset(sub_0)\n  0x00\n  codecopy\n  0x00\n  return\nstop\n\nsub_0: assembly {\n        /* \"Modifier.sol\":27:862  contract Modifier{\r... */\n      mstore(0x40, 0x80)\n      jumpi(tag_1, lt(calldatasize, 0x04))\n      shr(0xe0, calldataload(0x00))\n      dup1\n      0x412664ae\n      eq\n      tag_2\n      jumpi\n      dup1\n      0x754fc38c\n      eq\n      tag_3\n      jumpi\n      dup1\n      0xa95c4d62\n      eq\n      tag_4\n      jumpi\n      dup1\n      0xeedc966a\n      eq\n      tag_5\n      jumpi\n      dup1\n      0xfaa0a264\n      eq\n      tag_6\n      jumpi\n    tag_1:\n      0x00\n      dup1\n      revert\n        /* \"Modifier.sol\":789:859  function sendToken(address _to, uint _amount) public{\r... */\n    tag_2:\n      callvalue\n      dup1\n      iszero\n      tag_7\n      jumpi\n      0x00\n      dup1\n      revert\n    tag_7:\n      pop\n      tag_8\n      0x04\n      dup1\n      calldatasize\n      sub\n      dup2\n      add\n      swap1\n      tag_9\n      swap2\n      swap1\n      tag_10\n      jump\t// in\n    tag_9:\n      tag_11\n      jump\t// in\n    tag_8:\n      stop\n        /* \"Modifier.sol\":255:388  function createNewToken() public{\r... */\n    tag_3:\n      callvalue\n      dup1\n      iszero\n      tag_12\n      jumpi\n      0x00\n      dup1\n      revert\n    tag_12:\n      pop\n      tag_13\n      tag_14\n      jump\t// in\n    tag_13:\n      stop\n        /* \"Modifier.sol\":532:781  function purchaseToken() public payable{\r... */\n    tag_4:\n      tag_15\n      tag_16\n      jump\t// in\n    tag_15:\n      stop\n        /* \"Modifier.sol\":51:93  mapping(address=>uint) public tokenBalance */\n    tag_5:\n      callvalue\n      dup1\n      iszero\n      tag_17\n      jumpi\n      0x00\n      dup1\n      revert\n    tag_17:\n      pop\n      tag_18\n      0x04\n      dup1\n      calldatasize\n      sub\n      dup2\n      add\n      swap1\n      tag_19\n      swap2\n      swap1\n      tag_20\n      jump\t// in\n    tag_19:\n      tag_21\n      jump\t// in\n    tag_18:\n      mload(0x40)\n      tag_22\n      swap2\n      swap1\n      tag_23\n      jump\t// in\n    tag_22:\n      mload(0x40)\n      dup1\n      swap2\n      sub\n      swap1\n      return\n        /* \"Modifier.sol\":396:524  function burnToken() public{\r... */\n    tag_6:\n      callvalue\n      dup1\n      iszero\n      tag_24\n      jumpi\n      0x00\n      dup1\n      revert\n    tag_24:\n      pop\n      tag_25\n      tag_26\n      jump\t// in\n    tag_25:\n      stop\n        /* \"Modifier.sol\":789:859  function sendToken(address _to, uint _amount) public{\r... */\n    tag_11:\n      pop\n      pop\n      jump\t// out\n        /* \"Modifier.sol\":255:388  function createNewToken() public{\r... */\n    tag_14:\n        /* \"Modifier.sol\":320:325  owner */\n      0x01\n      0x00\n      swap1\n      sload\n      swap1\n      0x0100\n      exp\n      swap1\n      div\n      0xffffffffffffffffffffffffffffffffffffffff\n      and\n        /* \"Modifier.sol\":306:325  msg.sender == owner */\n      0xffffffffffffffffffffffffffffffffffffffff\n      and\n        /* \"Modifier.sol\":306:316  msg.sender */\n      caller\n        /* \"Modifier.sol\":306:325  msg.sender == owner */\n      0xffffffffffffffffffffffffffffffffffffffff\n      and\n      eq\n        /* \"Modifier.sol\":298:348  require(msg.sender == owner,\"You are not allowed\") */\n      tag_29\n      jumpi\n      mload(0x40)\n      0x08c379a000000000000000000000000000000000000000000000000000000000\n      dup2\n      mstore\n      0x04\n      add\n      tag_30\n      swap1\n      tag_31\n      jump\t// in\n    tag_30:\n      mload(0x40)\n      dup1\n      swap2\n      sub\n      swap1\n      revert\n    tag_29:\n        /* \"Modifier.sol\":359:371  tokenBalance */\n      0x00\n        /* \"Modifier.sol\":359:378  tokenBalance[owner] */\n      dup1\n        /* \"Modifier.sol\":372:377  owner */\n      0x01\n      0x00\n      swap1\n      sload\n      swap1\n      0x0100\n      exp\n      swap1\n      div\n      0xffffffffffffffffffffffffffffffffffffffff\n      and\n        /* \"Modifier.sol\":359:378  tokenBalance[owner] */\n      0xffffffffffffffffffffffffffffffffffffffff\n      and\n      0xffffffffffffffffffffffffffffffffffffffff\n      and\n      dup2\n      mstore\n      0x20\n      add\n      swap1\n      dup2\n      mstore\n      0x20\n      add\n      0x00\n      keccak256\n      0x00\n        /* \"Modifier.sol\":359:380  tokenBalance[owner]++ */\n      dup2\n      sload\n      dup1\n      swap3\n      swap2\n      swap1\n      tag_32\n      swap1\n      tag_33\n      jump\t// in\n    tag_32:\n      swap2\n      swap1\n      pop\n      sstore\n      pop\n        /* \"Modifier.sol\":255:388  function createNewToken() public{\r... */\n      jump\t// out\n        /* \"Modifier.sol\":532:781  function purchaseToken() public payable{\r... */\n    tag_16:\n        /* \"Modifier.sol\":637:638  0 */\n      0x00\n        /* \"Modifier.sol\":625:634  msg.value */\n      callvalue\n        /* \"Modifier.sol\":613:623  tokenPrice */\n      sload(0x02)\n        /* \"Modifier.sol\":591:603  tokenBalance */\n      0x00\n        /* \"Modifier.sol\":591:610  tokenBalance[owner] */\n      dup1\n        /* \"Modifier.sol\":604:609  owner */\n      0x01\n      0x00\n      swap1\n      sload\n      swap1\n      0x0100\n      exp\n      swap1\n      div\n      0xffffffffffffffffffffffffffffffffffffffff\n      and\n        /* \"Modifier.sol\":591:610  tokenBalance[owner] */\n      0xffffffffffffffffffffffffffffffffffffffff\n      and\n      0xffffffffffffffffffffffffffffffffffffffff\n      and\n      dup2\n      mstore\n      0x20\n      add\n      swap1\n      dup2\n      mstore\n      0x20\n      add\n      0x00\n      keccak256\n      sload\n        /* \"Modifier.sol\":591:623  tokenBalance[owner] * tokenPrice */\n      tag_35\n      swap2\n      swap1\n      tag_36\n      jump\t// in\n    tag_35:\n        /* \"Modifier.sol\":590:634  (tokenBalance[owner] * tokenPrice)/msg.value */\n      tag_37\n      swap2\n      swap1\n      tag_38\n      jump\t// in\n    tag_37:\n        /* \"Modifier.sol\":590:638  (tokenBalance[owner] * tokenPrice)/msg.value > 0 */\n      gt\n        /* \"Modifier.sol\":582:660  require((tokenBalance[owner] * tokenPrice)/msg.value > 0,\"not enought tokens\") */\n      tag_39\n      jumpi\n      mload(0x40)\n      0x08c379a000000000000000000000000000000000000000000000000000000000\n      dup2\n      mstore\n      0x04\n      add\n      tag_40\n      swap1\n      tag_41\n      jump\t// in\n    tag_40:\n      mload(0x40)\n      dup1\n      swap2\n      sub\n      swap1\n      revert\n    tag_39:\n        /* \"Modifier.sol\":704:714  tokenPrice */\n      sload(0x02)\n        /* \"Modifier.sol\":694:703  msg.value */\n      callvalue\n        /* \"Modifier.sol\":694:714  msg.value/tokenPrice */\n      tag_42\n      swap2\n      swap1\n      tag_38\n      jump\t// in\n    tag_42:\n        /* \"Modifier.sol\":671:683  tokenBalance */\n      0x00\n        /* \"Modifier.sol\":671:690  tokenBalance[owner] */\n      dup1\n        /* \"Modifier.sol\":684:689  owner */\n      0x01\n      0x00\n      swap1\n      sload\n      swap1\n      0x0100\n      exp\n      swap1\n      div\n      0xffffffffffffffffffffffffffffffffffffffff\n      and\n        /* \"Modifier.sol\":671:690  tokenBalance[owner] */\n      0xffffffffffffffffffffffffffffffffffffffff\n      and\n      0xffffffffffffffffffffffffffffffffffffffff\n      and\n      dup2\n      mstore\n      0x20\n      add\n      swap1\n      dup2\n      mstore\n      0x20\n      add\n      0x00\n      keccak256\n      0x00\n        /* \"Modifier.sol\":671:714  tokenBalance[owner] -= msg.value/tokenPrice */\n      dup3\n      dup3\n      sload\n      tag_43\n      swap2\n      swap1\n      tag_44\n      jump\t// in\n    tag_43:\n      swap3\n      pop\n      pop\n      dup2\n      swap1\n      sstore\n      pop\n        /* \"Modifier.sol\":763:773  tokenPrice */\n      sload(0x02)\n        /* \"Modifier.sol\":753:762  msg.value */\n      callvalue\n        /* \"Modifier.sol\":753:773  msg.value/tokenPrice */\n      tag_45\n      swap2\n      swap1\n      tag_38\n      jump\t// in\n    tag_45:\n        /* \"Modifier.sol\":725:737  tokenBalance */\n      0x00\n        /* \"Modifier.sol\":725:749  tokenBalance[msg.sender] */\n      dup1\n        /* \"Modifier.sol\":738:748  msg.sender */\n      caller\n        /* \"Modifier.sol\":725:749  tokenBalance[msg.sender] */\n      0xffffffffffffffffffffffffffffffffffffffff\n      and\n      0xffffffffffffffffffffffffffffffffffffffff\n      and\n      dup2\n      mstore\n      0x20\n      add\n      swap1\n      dup2\n      mstore\n      0x20\n      add\n      0x00\n      keccak256\n      0x00\n        /* \"Modifier.sol\":725:773  tokenBalance[msg.sender] += msg.value/tokenPrice */\n      dup3\n      dup3\n      sload\n      tag_46\n      swap2\n      swap1\n      tag_47\n      jump\t// in\n    tag_46:\n      swap3\n      pop\n      pop\n      dup2\n      swap1\n      sstore\n      pop\n        /* \"Modifier.sol\":532:781  function purchaseToken() public payable{\r... */\n      jump\t// out\n        /* \"Modifier.sol\":51:93  mapping(address=>uint) public tokenBalance */\n    tag_21:\n      mstore(0x20, 0x00)\n      dup1\n      0x00\n      mstore\n      keccak256(0x00, 0x40)\n      0x00\n      swap2\n      pop\n      swap1\n      pop\n      sload\n      dup2\n      jump\t// out\n        /* \"Modifier.sol\":396:524  function burnToken() public{\r... */\n    tag_26:\n        /* \"Modifier.sol\":456:461  owner */\n      0x01\n      0x00\n      swap1\n      sload\n      swap1\n      0x0100\n      exp\n      swap1\n      div\n      0xffffffffffffffffffffffffffffffffffffffff\n      and\n        /* \"Modifier.sol\":442:461  msg.sender == owner */\n      0xffffffffffffffffffffffffffffffffffffffff\n      and\n        /* \"Modifier.sol\":442:452  msg.sender */\n      caller\n        /* \"Modifier.sol\":442:461  msg.sender == owner */\n      0xffffffffffffffffffffffffffffffffffffffff\n      and\n      eq\n        /* \"Modifier.sol\":434:484  require(msg.sender == owner,\"You are not allowed\") */\n      tag_49\n      jumpi\n      mload(0x40)\n      0x08c379a000000000000000000000000000000000000000000000000000000000\n      dup2\n      mstore\n      0x04\n      add\n      tag_50\n      swap1\n      tag_31\n      jump\t// in\n    tag_50:\n      mload(0x40)\n      dup1\n      swap2\n      sub\n      swap1\n      revert\n    tag_49:\n        /* \"Modifier.sol\":495:507  tokenBalance */\n      0x00\n        /* \"Modifier.sol\":495:514  tokenBalance[owner] */\n      dup1\n        /* \"Modifier.sol\":508:513  owner */\n      0x01\n      0x00\n      swap1\n      sload\n      swap1\n      0x0100\n      exp\n      swap1\n      div\n      0xffffffffffffffffffffffffffffffffffffffff\n      and\n        /* \"Modifier.sol\":495:514  tokenBalance[owner] */\n      0xffffffffffffffffffffffffffffffffffffffff\n      and\n      0xffffffffffffffffffffffffffffffffffffffff\n      and\n      dup2\n      mstore\n      0x20\n      add\n      swap1\n      dup2\n      mstore\n      0x20\n      add\n      0x00\n      keccak256\n      0x00\n        /* \"Modifier.sol\":495:516  tokenBalance[owner]-- */\n      dup2\n      sload\n      dup1\n      swap3\n      swap2\n      swap1\n      tag_51\n      swap1\n      tag_52\n      jump\t// in\n    tag_51:\n      swap2\n      swap1\n      pop\n      sstore\n      pop\n        /* \"Modifier.sol\":396:524  function burnToken() public{\r... */\n      jump\t// out\n        /* \"#utility.yul\":7:146   */\n    tag_54:\n        /* \"#utility.yul\":53:58   */\n      0x00\n        /* \"#utility.yul\":91:97   */\n      dup2\n        /* \"#utility.yul\":78:98   */\n      calldataload\n        /* \"#utility.yul\":69:98   */\n      swap1\n      pop\n        /* \"#utility.yul\":107:140   */\n      tag_56\n        /* \"#utility.yul\":134:139   */\n      dup2\n        /* \"#utility.yul\":107:140   */\n      tag_57\n      jump\t// in\n    tag_56:\n        /* \"#utility.yul\":7:146   */\n      swap3\n      swap2\n      pop\n      pop\n      jump\t// out\n        /* \"#utility.yul\":152:291   */\n    tag_58:\n        /* \"#utility.yul\":198:203   */\n      0x00\n        /* \"#utility.yul\":236:242   */\n      dup2\n        /* \"#utility.yul\":223:243   */\n      calldataload\n        /* \"#utility.yul\":214:243   */\n      swap1\n      pop\n        /* \"#utility.yul\":252:285   */\n      tag_60\n        /* \"#utility.yul\":279:284   */\n      dup2\n        /* \"#utility.yul\":252:285   */\n      tag_61\n      jump\t// in\n    tag_60:\n        /* \"#utility.yul\":152:291   */\n      swap3\n      swap2\n      pop\n      pop\n      jump\t// out\n        /* \"#utility.yul\":297:626   */\n    tag_20:\n        /* \"#utility.yul\":356:362   */\n      0x00\n        /* \"#utility.yul\":405:407   */\n      0x20\n        /* \"#utility.yul\":393:402   */\n      dup3\n        /* \"#utility.yul\":384:391   */\n      dup5\n        /* \"#utility.yul\":380:403   */\n      sub\n        /* \"#utility.yul\":376:408   */\n      slt\n        /* \"#utility.yul\":373:492   */\n      iszero\n      tag_63\n      jumpi\n        /* \"#utility.yul\":411:490   */\n      tag_64\n      tag_65\n      jump\t// in\n    tag_64:\n        /* \"#utility.yul\":373:492   */\n    tag_63:\n        /* \"#utility.yul\":531:532   */\n      0x00\n        /* \"#utility.yul\":556:609   */\n      tag_66\n        /* \"#utility.yul\":601:608   */\n      dup5\n        /* \"#utility.yul\":592:598   */\n      dup3\n        /* \"#utility.yul\":581:590   */\n      dup6\n        /* \"#utility.yul\":577:599   */\n      add\n        /* \"#utility.yul\":556:609   */\n      tag_54\n      jump\t// in\n    tag_66:\n        /* \"#utility.yul\":546:609   */\n      swap2\n      pop\n        /* \"#utility.yul\":502:619   */\n      pop\n        /* \"#utility.yul\":297:626   */\n      swap3\n      swap2\n      pop\n      pop\n      jump\t// out\n        /* \"#utility.yul\":632:1106   */\n    tag_10:\n        /* \"#utility.yul\":700:706   */\n      0x00\n        /* \"#utility.yul\":708:714   */\n      dup1\n        /* \"#utility.yul\":757:759   */\n      0x40\n        /* \"#utility.yul\":745:754   */\n      dup4\n        /* \"#utility.yul\":736:743   */\n      dup6\n        /* \"#utility.yul\":732:755   */\n      sub\n        /* \"#utility.yul\":728:760   */\n      slt\n        /* \"#utility.yul\":725:844   */\n      iszero\n      tag_68\n      jumpi\n        /* \"#utility.yul\":763:842   */\n      tag_69\n      tag_65\n      jump\t// in\n    tag_69:\n        /* \"#utility.yul\":725:844   */\n    tag_68:\n        /* \"#utility.yul\":883:884   */\n      0x00\n        /* \"#utility.yul\":908:961   */\n      tag_70\n        /* \"#utility.yul\":953:960   */\n      dup6\n        /* \"#utility.yul\":944:950   */\n      dup3\n        /* \"#utility.yul\":933:942   */\n      dup7\n        /* \"#utility.yul\":929:951   */\n      add\n        /* \"#utility.yul\":908:961   */\n      tag_54\n      jump\t// in\n    tag_70:\n        /* \"#utility.yul\":898:961   */\n      swap3\n      pop\n        /* \"#utility.yul\":854:971   */\n      pop\n        /* \"#utility.yul\":1010:1012   */\n      0x20\n        /* \"#utility.yul\":1036:1089   */\n      tag_71\n        /* \"#utility.yul\":1081:1088   */\n      dup6\n        /* \"#utility.yul\":1072:1078   */\n      dup3\n        /* \"#utility.yul\":1061:1070   */\n      dup7\n        /* \"#utility.yul\":1057:1079   */\n      add\n        /* \"#utility.yul\":1036:1089   */\n      tag_58\n      jump\t// in\n    tag_71:\n        /* \"#utility.yul\":1026:1089   */\n      swap2\n      pop\n        /* \"#utility.yul\":981:1099   */\n      pop\n        /* \"#utility.yul\":632:1106   */\n      swap3\n      pop\n      swap3\n      swap1\n      pop\n      jump\t// out\n        /* \"#utility.yul\":1112:1478   */\n    tag_72:\n        /* \"#utility.yul\":1254:1257   */\n      0x00\n        /* \"#utility.yul\":1275:1342   */\n      tag_74\n        /* \"#utility.yul\":1339:1341   */\n      0x12\n        /* \"#utility.yul\":1334:1337   */\n      dup4\n        /* \"#utility.yul\":1275:1342   */\n      tag_75\n      jump\t// in\n    tag_74:\n        /* \"#utility.yul\":1268:1342   */\n      swap2\n      pop\n        /* \"#utility.yul\":1351:1444   */\n      tag_76\n        /* \"#utility.yul\":1440:1443   */\n      dup3\n        /* \"#utility.yul\":1351:1444   */\n      tag_77\n      jump\t// in\n    tag_76:\n        /* \"#utility.yul\":1469:1471   */\n      0x20\n        /* \"#utility.yul\":1464:1467   */\n      dup3\n        /* \"#utility.yul\":1460:1472   */\n      add\n        /* \"#utility.yul\":1453:1472   */\n      swap1\n      pop\n        /* \"#utility.yul\":1112:1478   */\n      swap2\n      swap1\n      pop\n      jump\t// out\n        /* \"#utility.yul\":1484:1850   */\n    tag_78:\n        /* \"#utility.yul\":1626:1629   */\n      0x00\n        /* \"#utility.yul\":1647:1714   */\n      tag_80\n        /* \"#utility.yul\":1711:1713   */\n      0x13\n        /* \"#utility.yul\":1706:1709   */\n      dup4\n        /* \"#utility.yul\":1647:1714   */\n      tag_75\n      jump\t// in\n    tag_80:\n        /* \"#utility.yul\":1640:1714   */\n      swap2\n      pop\n        /* \"#utility.yul\":1723:1816   */\n      tag_81\n        /* \"#utility.yul\":1812:1815   */\n      dup3\n        /* \"#utility.yul\":1723:1816   */\n      tag_82\n      jump\t// in\n    tag_81:\n        /* \"#utility.yul\":1841:1843   */\n      0x20\n        /* \"#utility.yul\":1836:1839   */\n      dup3\n        /* \"#utility.yul\":1832:1844   */\n      add\n        /* \"#utility.yul\":1825:1844   */\n      swap1\n      pop\n        /* \"#utility.yul\":1484:1850   */\n      swap2\n      swap1\n      pop\n      jump\t// out\n        /* \"#utility.yul\":1856:1974   */\n    tag_83:\n        /* \"#utility.yul\":1943:1967   */\n      tag_85\n        /* \"#utility.yul\":1961:1966   */\n      dup2\n        /* \"#utility.yul\":1943:1967   */\n      tag_86\n      jump\t// in\n    tag_85:\n        /* \"#utility.yul\":1938:1941   */\n      dup3\n        /* \"#utility.yul\":1931:1968   */\n      mstore\n        /* \"#utility.yul\":1856:1974   */\n      pop\n      pop\n      jump\t// out\n        /* \"#utility.yul\":1980:2399   */\n    tag_41:\n        /* \"#utility.yul\":2146:2150   */\n      0x00\n        /* \"#utility.yul\":2184:2186   */\n      0x20\n        /* \"#utility.yul\":2173:2182   */\n      dup3\n        /* \"#utility.yul\":2169:2187   */\n      add\n        /* \"#utility.yul\":2161:2187   */\n      swap1\n      pop\n        /* \"#utility.yul\":2233:2242   */\n      dup2\n        /* \"#utility.yul\":2227:2231   */\n      dup2\n        /* \"#utility.yul\":2223:2243   */\n      sub\n        /* \"#utility.yul\":2219:2220   */\n      0x00\n        /* \"#utility.yul\":2208:2217   */\n      dup4\n        /* \"#utility.yul\":2204:2221   */\n      add\n        /* \"#utility.yul\":2197:2244   */\n      mstore\n        /* \"#utility.yul\":2261:2392   */\n      tag_88\n        /* \"#utility.yul\":2387:2391   */\n      dup2\n        /* \"#utility.yul\":2261:2392   */\n      tag_72\n      jump\t// in\n    tag_88:\n        /* \"#utility.yul\":2253:2392   */\n      swap1\n      pop\n        /* \"#utility.yul\":1980:2399   */\n      swap2\n      swap1\n      pop\n      jump\t// out\n        /* \"#utility.yul\":2405:2824   */\n    tag_31:\n        /* \"#utility.yul\":2571:2575   */\n      0x00\n        /* \"#utility.yul\":2609:2611   */\n      0x20\n        /* \"#utility.yul\":2598:2607   */\n      dup3\n        /* \"#utility.yul\":2594:2612   */\n      add\n        /* \"#utility.yul\":2586:2612   */\n      swap1\n      pop\n        /* \"#utility.yul\":2658:2667   */\n      dup2\n        /* \"#utility.yul\":2652:2656   */\n      dup2\n        /* \"#utility.yul\":2648:2668   */\n      sub\n        /* \"#utility.yul\":2644:2645   */\n      0x00\n        /* \"#utility.yul\":2633:2642   */\n      dup4\n        /* \"#utility.yul\":2629:2646   */\n      add\n        /* \"#utility.yul\":2622:2669   */\n      mstore\n        /* \"#utility.yul\":2686:2817   */\n      tag_90\n        /* \"#utility.yul\":2812:2816   */\n      dup2\n        /* \"#utility.yul\":2686:2817   */\n      tag_78\n      jump\t// in\n    tag_90:\n        /* \"#utility.yul\":2678:2817   */\n      swap1\n      pop\n        /* \"#utility.yul\":2405:2824   */\n      swap2\n      swap1\n      pop\n      jump\t// out\n        /* \"#utility.yul\":2830:3052   */\n    tag_23:\n        /* \"#utility.yul\":2923:2927   */\n      0x00\n        /* \"#utility.yul\":2961:2963   */\n      0x20\n        /* \"#utility.yul\":2950:2959   */\n      dup3\n        /* \"#utility.yul\":2946:2964   */\n      add\n        /* \"#utility.yul\":2938:2964   */\n      swap1\n      pop\n        /* \"#utility.yul\":2974:3045   */\n      tag_92\n        /* \"#utility.yul\":3042:3043   */\n      0x00\n        /* \"#utility.yul\":3031:3040   */\n      dup4\n        /* \"#utility.yul\":3027:3044   */\n      add\n        /* \"#utility.yul\":3018:3024   */\n      dup5\n        /* \"#utility.yul\":2974:3045   */\n      tag_83\n      jump\t// in\n    tag_92:\n        /* \"#utility.yul\":2830:3052   */\n      swap3\n      swap2\n      pop\n      pop\n      jump\t// out\n        /* \"#utility.yul\":3139:3308   */\n    tag_75:\n        /* \"#utility.yul\":3223:3234   */\n      0x00\n        /* \"#utility.yul\":3257:3263   */\n      dup3\n        /* \"#utility.yul\":3252:3255   */\n      dup3\n        /* \"#utility.yul\":3245:3264   */\n      mstore\n        /* \"#utility.yul\":3297:3301   */\n      0x20\n        /* \"#utility.yul\":3292:3295   */\n      dup3\n        /* \"#utility.yul\":3288:3302   */\n      add\n        /* \"#utility.yul\":3273:3302   */\n      swap1\n      pop\n        /* \"#utility.yul\":3139:3308   */\n      swap3\n      swap2\n      pop\n      pop\n      jump\t// out\n        /* \"#utility.yul\":3314:3619   */\n    tag_47:\n        /* \"#utility.yul\":3354:3357   */\n      0x00\n        /* \"#utility.yul\":3373:3393   */\n      tag_97\n        /* \"#utility.yul\":3391:3392   */\n      dup3\n        /* \"#utility.yul\":3373:3393   */\n      tag_86\n      jump\t// in\n    tag_97:\n        /* \"#utility.yul\":3368:3393   */\n      swap2\n      pop\n        /* \"#utility.yul\":3407:3427   */\n      tag_98\n        /* \"#utility.yul\":3425:3426   */\n      dup4\n        /* \"#utility.yul\":3407:3427   */\n      tag_86\n      jump\t// in\n    tag_98:\n        /* \"#utility.yul\":3402:3427   */\n      swap3\n      pop\n        /* \"#utility.yul\":3561:3562   */\n      dup3\n        /* \"#utility.yul\":3493:3559   */\n      0xffffffffffffffffffffffffffffffffffffffffffffffffffffffffffffffff\n        /* \"#utility.yul\":3489:3563   */\n      sub\n        /* \"#utility.yul\":3486:3487   */\n      dup3\n        /* \"#utility.yul\":3483:3564   */\n      gt\n        /* \"#utility.yul\":3480:3587   */\n      iszero\n      tag_99\n      jumpi\n        /* \"#utility.yul\":3567:3585   */\n      tag_100\n      tag_101\n      jump\t// in\n    tag_100:\n        /* \"#utility.yul\":3480:3587   */\n    tag_99:\n        /* \"#utility.yul\":3611:3612   */\n      dup3\n        /* \"#utility.yul\":3608:3609   */\n      dup3\n        /* \"#utility.yul\":3604:3613   */\n      add\n        /* \"#utility.yul\":3597:3613   */\n      swap1\n      pop\n        /* \"#utility.yul\":3314:3619   */\n      swap3\n      swap2\n      pop\n      pop\n      jump\t// out\n        /* \"#utility.yul\":3625:3810   */\n    tag_38:\n        /* \"#utility.yul\":3665:3666   */\n      0x00\n        /* \"#utility.yul\":3682:3702   */\n      tag_103\n        /* \"#utility.yul\":3700:3701   */\n      dup3\n        /* \"#utility.yul\":3682:3702   */\n      tag_86\n      jump\t// in\n    tag_103:\n        /* \"#utility.yul\":3677:3702   */\n      swap2\n      pop\n        /* \"#utility.yul\":3716:3736   */\n      tag_104\n        /* \"#utility.yul\":3734:3735   */\n      dup4\n        /* \"#utility.yul\":3716:3736   */\n      tag_86\n      jump\t// in\n    tag_104:\n        /* \"#utility.yul\":3711:3736   */\n      swap3\n      pop\n        /* \"#utility.yul\":3755:3756   */\n      dup3\n        /* \"#utility.yul\":3745:3780   */\n      tag_105\n      jumpi\n        /* \"#utility.yul\":3760:3778   */\n      tag_106\n      tag_107\n      jump\t// in\n    tag_106:\n        /* \"#utility.yul\":3745:3780   */\n    tag_105:\n        /* \"#utility.yul\":3802:3803   */\n      dup3\n        /* \"#utility.yul\":3799:3800   */\n      dup3\n        /* \"#utility.yul\":3795:3804   */\n      div\n        /* \"#utility.yul\":3790:3804   */\n      swap1\n      pop\n        /* \"#utility.yul\":3625:3810   */\n      swap3\n      swap2\n      pop\n      pop\n      jump\t// out\n        /* \"#utility.yul\":3816:4164   */\n    tag_36:\n        /* \"#utility.yul\":3856:3863   */\n      0x00\n        /* \"#utility.yul\":3879:3899   */\n      tag_109\n        /* \"#utility.yul\":3897:3898   */\n      dup3\n        /* \"#utility.yul\":3879:3899   */\n      tag_86\n      jump\t// in\n    tag_109:\n        /* \"#utility.yul\":3874:3899   */\n      swap2\n      pop\n        /* \"#utility.yul\":3913:3933   */\n      tag_110\n        /* \"#utility.yul\":3931:3932   */\n      dup4\n        /* \"#utility.yul\":3913:3933   */\n      tag_86\n      jump\t// in\n    tag_110:\n        /* \"#utility.yul\":3908:3933   */\n      swap3\n      pop\n        /* \"#utility.yul\":4101:4102   */\n      dup2\n        /* \"#utility.yul\":4033:4099   */\n      0xffffffffffffffffffffffffffffffffffffffffffffffffffffffffffffffff\n        /* \"#utility.yul\":4029:4103   */\n      div\n        /* \"#utility.yul\":4026:4027   */\n      dup4\n        /* \"#utility.yul\":4023:4104   */\n      gt\n        /* \"#utility.yul\":4018:4019   */\n      dup3\n        /* \"#utility.yul\":4011:4020   */\n      iszero\n        /* \"#utility.yul\":4004:4021   */\n      iszero\n        /* \"#utility.yul\":4000:4105   */\n      and\n        /* \"#utility.yul\":3997:4128   */\n      iszero\n      tag_111\n      jumpi\n        /* \"#utility.yul\":4108:4126   */\n      tag_112\n      tag_101\n      jump\t// in\n    tag_112:\n        /* \"#utility.yul\":3997:4128   */\n    tag_111:\n        /* \"#utility.yul\":4156:4157   */\n      dup3\n        /* \"#utility.yul\":4153:4154   */\n      dup3\n        /* \"#utility.yul\":4149:4158   */\n      mul\n        /* \"#utility.yul\":4138:4158   */\n      swap1\n      pop\n        /* \"#utility.yul\":3816:4164   */\n      swap3\n      swap2\n      pop\n      pop\n      jump\t// out\n        /* \"#utility.yul\":4170:4361   */\n    tag_44:\n        /* \"#utility.yul\":4210:4214   */\n      0x00\n        /* \"#utility.yul\":4230:4250   */\n      tag_114\n        /* \"#utility.yul\":4248:4249   */\n      dup3\n        /* \"#utility.yul\":4230:4250   */\n      tag_86\n      jump\t// in\n    tag_114:\n        /* \"#utility.yul\":4225:4250   */\n      swap2\n      pop\n        /* \"#utility.yul\":4264:4284   */\n      tag_115\n        /* \"#utility.yul\":4282:4283   */\n      dup4\n        /* \"#utility.yul\":4264:4284   */\n      tag_86\n      jump\t// in\n    tag_115:\n        /* \"#utility.yul\":4259:4284   */\n      swap3\n      pop\n        /* \"#utility.yul\":4303:4304   */\n      dup3\n        /* \"#utility.yul\":4300:4301   */\n      dup3\n        /* \"#utility.yul\":4297:4305   */\n      lt\n        /* \"#utility.yul\":4294:4328   */\n      iszero\n      tag_116\n      jumpi\n        /* \"#utility.yul\":4308:4326   */\n      tag_117\n      tag_101\n      jump\t// in\n    tag_117:\n        /* \"#utility.yul\":4294:4328   */\n    tag_116:\n        /* \"#utility.yul\":4353:4354   */\n      dup3\n        /* \"#utility.yul\":4350:4351   */\n      dup3\n        /* \"#utility.yul\":4346:4355   */\n      sub\n        /* \"#utility.yul\":4338:4355   */\n      swap1\n      pop\n        /* \"#utility.yul\":4170:4361   */\n      swap3\n      swap2\n      pop\n      pop\n      jump\t// out\n        /* \"#utility.yul\":4367:4463   */\n    tag_118:\n        /* \"#utility.yul\":4404:4411   */\n      0x00\n        /* \"#utility.yul\":4433:4457   */\n      tag_120\n        /* \"#utility.yul\":4451:4456   */\n      dup3\n        /* \"#utility.yul\":4433:4457   */\n      tag_121\n      jump\t// in\n    tag_120:\n        /* \"#utility.yul\":4422:4457   */\n      swap1\n      pop\n        /* \"#utility.yul\":4367:4463   */\n      swap2\n      swap1\n      pop\n      jump\t// out\n        /* \"#utility.yul\":4469:4595   */\n    tag_121:\n        /* \"#utility.yul\":4506:4513   */\n      0x00\n        /* \"#utility.yul\":4546:4588   */\n      0xffffffffffffffffffffffffffffffffffffffff\n        /* \"#utility.yul\":4539:4544   */\n      dup3\n        /* \"#utility.yul\":4535:4589   */\n      and\n        /* \"#utility.yul\":4524:4589   */\n      swap1\n      pop\n        /* \"#utility.yul\":4469:4595   */\n      swap2\n      swap1\n      pop\n      jump\t// out\n        /* \"#utility.yul\":4601:4678   */\n    tag_86:\n        /* \"#utility.yul\":4638:4645   */\n      0x00\n        /* \"#utility.yul\":4667:4672   */\n      dup2\n        /* \"#utility.yul\":4656:4672   */\n      swap1\n      pop\n        /* \"#utility.yul\":4601:4678   */\n      swap2\n      swap1\n      pop\n      jump\t// out\n        /* \"#utility.yul\":4684:4855   */\n    tag_52:\n        /* \"#utility.yul\":4723:4726   */\n      0x00\n        /* \"#utility.yul\":4746:4770   */\n      tag_125\n        /* \"#utility.yul\":4764:4769   */\n      dup3\n        /* \"#utility.yul\":4746:4770   */\n      tag_86\n      jump\t// in\n    tag_125:\n        /* \"#utility.yul\":4737:4770   */\n      swap2\n      pop\n        /* \"#utility.yul\":4792:4796   */\n      0x00\n        /* \"#utility.yul\":4785:4790   */\n      dup3\n        /* \"#utility.yul\":4782:4797   */\n      eq\n        /* \"#utility.yul\":4779:4820   */\n      iszero\n      tag_126\n      jumpi\n        /* \"#utility.yul\":4800:4818   */\n      tag_127\n      tag_101\n      jump\t// in\n    tag_127:\n        /* \"#utility.yul\":4779:4820   */\n    tag_126:\n        /* \"#utility.yul\":4847:4848   */\n      0x01\n        /* \"#utility.yul\":4840:4845   */\n      dup3\n        /* \"#utility.yul\":4836:4849   */\n      sub\n        /* \"#utility.yul\":4829:4849   */\n      swap1\n      pop\n        /* \"#utility.yul\":4684:4855   */\n      swap2\n      swap1\n      pop\n      jump\t// out\n        /* \"#utility.yul\":4861:5094   */\n    tag_33:\n        /* \"#utility.yul\":4900:4903   */\n      0x00\n        /* \"#utility.yul\":4923:4947   */\n      tag_129\n        /* \"#utility.yul\":4941:4946   */\n      dup3\n        /* \"#utility.yul\":4923:4947   */\n      tag_86\n      jump\t// in\n    tag_129:\n        /* \"#utility.yul\":4914:4947   */\n      swap2\n      pop\n        /* \"#utility.yul\":4969:5035   */\n      0xffffffffffffffffffffffffffffffffffffffffffffffffffffffffffffffff\n        /* \"#utility.yul\":4962:4967   */\n      dup3\n        /* \"#utility.yul\":4959:5036   */\n      eq\n        /* \"#utility.yul\":4956:5059   */\n      iszero\n      tag_130\n      jumpi\n        /* \"#utility.yul\":5039:5057   */\n      tag_131\n      tag_101\n      jump\t// in\n    tag_131:\n        /* \"#utility.yul\":4956:5059   */\n    tag_130:\n        /* \"#utility.yul\":5086:5087   */\n      0x01\n        /* \"#utility.yul\":5079:5084   */\n      dup3\n        /* \"#utility.yul\":5075:5088   */\n      add\n        /* \"#utility.yul\":5068:5088   */\n      swap1\n      pop\n        /* \"#utility.yul\":4861:5094   */\n      swap2\n      swap1\n      pop\n      jump\t// out\n        /* \"#utility.yul\":5100:5280   */\n    tag_101:\n        /* \"#utility.yul\":5148:5225   */\n      0x4e487b7100000000000000000000000000000000000000000000000000000000\n        /* \"#utility.yul\":5145:5146   */\n      0x00\n        /* \"#utility.yul\":5138:5226   */\n      mstore\n        /* \"#utility.yul\":5245:5249   */\n      0x11\n        /* \"#utility.yul\":5242:5243   */\n      0x04\n        /* \"#utility.yul\":5235:5250   */\n      mstore\n        /* \"#utility.yul\":5269:5273   */\n      0x24\n        /* \"#utility.yul\":5266:5267   */\n      0x00\n        /* \"#utility.yul\":5259:5274   */\n      revert\n        /* \"#utility.yul\":5286:5466   */\n    tag_107:\n        /* \"#utility.yul\":5334:5411   */\n      0x4e487b7100000000000000000000000000000000000000000000000000000000\n        /* \"#utility.yul\":5331:5332   */\n      0x00\n        /* \"#utility.yul\":5324:5412   */\n      mstore\n        /* \"#utility.yul\":5431:5435   */\n      0x12\n        /* \"#utility.yul\":5428:5429   */\n      0x04\n        /* \"#utility.yul\":5421:5436   */\n      mstore\n        /* \"#utility.yul\":5455:5459   */\n      0x24\n        /* \"#utility.yul\":5452:5453   */\n      0x00\n        /* \"#utility.yul\":5445:5460   */\n      revert\n        /* \"#utility.yul\":5595:5712   */\n    tag_65:\n        /* \"#utility.yul\":5704:5705   */\n      0x00\n        /* \"#utility.yul\":5701:5702   */\n      dup1\n        /* \"#utility.yul\":5694:5706   */\n      revert\n        /* \"#utility.yul\":5718:5886   */\n    tag_77:\n        /* \"#utility.yul\":5858:5878   */\n      0x6e6f7420656e6f7567687420746f6b656e730000000000000000000000000000\n        /* \"#utility.yul\":5854:5855   */\n      0x00\n        /* \"#utility.yul\":5846:5852   */\n      dup3\n        /* \"#utility.yul\":5842:5856   */\n      add\n        /* \"#utility.yul\":5835:5879   */\n      mstore\n        /* \"#utility.yul\":5718:5886   */\n      pop\n      jump\t// out\n        /* \"#utility.yul\":5892:6061   */\n    tag_82:\n        /* \"#utility.yul\":6032:6053   */\n      0x596f7520617265206e6f7420616c6c6f77656400000000000000000000000000\n        /* \"#utility.yul\":6028:6029   */\n      0x00\n        /* \"#utility.yul\":6020:6026   */\n      dup3\n        /* \"#utility.yul\":6016:6030   */\n      add\n        /* \"#utility.yul\":6009:6054   */\n      mstore\n        /* \"#utility.yul\":5892:6061   */\n      pop\n      jump\t// out\n        /* \"#utility.yul\":6067:6189   */\n    tag_57:\n        /* \"#utility.yul\":6140:6164   */\n      tag_140\n        /* \"#utility.yul\":6158:6163   */\n      dup2\n        /* \"#utility.yul\":6140:6164   */\n      tag_118\n      jump\t// in\n    tag_140:\n        /* \"#utility.yul\":6133:6138   */\n      dup2\n        /* \"#utility.yul\":6130:6165   */\n      eq\n        /* \"#utility.yul\":6120:6183   */\n      tag_141\n      jumpi\n        /* \"#utility.yul\":6179:6180   */\n      0x00\n        /* \"#utility.yul\":6176:6177   */\n      dup1\n        /* \"#utility.yul\":6169:6181   */\n      revert\n        /* \"#utility.yul\":6120:6183   */\n    tag_141:\n        /* \"#utility.yul\":6067:6189   */\n      pop\n      jump\t// out\n        /* \"#utility.yul\":6195:6317   */\n    tag_61:\n        /* \"#utility.yul\":6268:6292   */\n      tag_143\n        /* \"#utility.yul\":6286:6291   */\n      dup2\n        /* \"#utility.yul\":6268:6292   */\n      tag_86\n      jump\t// in\n    tag_143:\n        /* \"#utility.yul\":6261:6266   */\n      dup2\n        /* \"#utility.yul\":6258:6293   */\n      eq\n        /* \"#utility.yul\":6248:6311   */\n      tag_144\n      jumpi\n        /* \"#utility.yul\":6307:6308   */\n      0x00\n        /* \"#utility.yul\":6304:6305   */\n      dup1\n        /* \"#utility.yul\":6297:6309   */\n      revert\n        /* \"#utility.yul\":6248:6311   */\n    tag_144:\n        /* \"#utility.yul\":6195:6317   */\n      pop\n      jump\t// out\n\n    auxdata: 0xa264697066735822122072c1580de5574231e252c5a6e6376ce1df4d39ede327b9780d4c6a1a67ada03164736f6c63430008070033\n}\n",
				"bytecode": {
					"linkReferences": {},
					"object": "6080604052670de0b6b3a764000060025534801561001c57600080fd5b5033600160006101000a81548173ffffffffffffffffffffffffffffffffffffffff021916908373ffffffffffffffffffffffffffffffffffffffff1602179055506064600080600160009054906101000a900473ffffffffffffffffffffffffffffffffffffffff1673ffffffffffffffffffffffffffffffffffffffff1673ffffffffffffffffffffffffffffffffffffffff168152602001908152602001600020819055506108f1806100d36000396000f3fe60806040526004361061004a5760003560e01c8063412664ae1461004f578063754fc38c14610078578063a95c4d621461008f578063eedc966a14610099578063faa0a264146100d6575b600080fd5b34801561005b57600080fd5b5061007660048036038101906100719190610513565b6100ed565b005b34801561008457600080fd5b5061008d6100f1565b005b6100976101f9565b005b3480156100a557600080fd5b506100c060048036038101906100bb91906104e6565b61039c565b6040516100cd91906105e8565b60405180910390f35b3480156100e257600080fd5b506100eb6103b4565b005b5050565b600160009054906101000a900473ffffffffffffffffffffffffffffffffffffffff1673ffffffffffffffffffffffffffffffffffffffff163373ffffffffffffffffffffffffffffffffffffffff1614610181576040517f08c379a0000000000000000000000000000000000000000000000000000000008152600401610178906105c8565b60405180910390fd5b600080600160009054906101000a900473ffffffffffffffffffffffffffffffffffffffff1673ffffffffffffffffffffffffffffffffffffffff1673ffffffffffffffffffffffffffffffffffffffff16815260200190815260200160002060008154809291906101f29061078f565b9190505550565b600034600254600080600160009054906101000a900473ffffffffffffffffffffffffffffffffffffffff1673ffffffffffffffffffffffffffffffffffffffff1673ffffffffffffffffffffffffffffffffffffffff1681526020019081526020016000205461026a919061069b565b610274919061066a565b116102b4576040517f08c379a00000000000000000000000000000000000000000000000000000000081526004016102ab906105a8565b60405180910390fd5b600254346102c2919061066a565b600080600160009054906101000a900473ffffffffffffffffffffffffffffffffffffffff1673ffffffffffffffffffffffffffffffffffffffff1673ffffffffffffffffffffffffffffffffffffffff168152602001908152602001600020600082825461033191906106f5565b9250508190555060025434610346919061066a565b6000803373ffffffffffffffffffffffffffffffffffffffff1673ffffffffffffffffffffffffffffffffffffffff16815260200190815260200160002060008282546103939190610614565b92505081905550565b60006020528060005260406000206000915090505481565b600160009054906101000a900473ffffffffffffffffffffffffffffffffffffffff1673ffffffffffffffffffffffffffffffffffffffff163373ffffffffffffffffffffffffffffffffffffffff1614610444576040517f08c379a000000000000000000000000000000000000000000000000000000000815260040161043b906105c8565b60405180910390fd5b600080600160009054906101000a900473ffffffffffffffffffffffffffffffffffffffff1673ffffffffffffffffffffffffffffffffffffffff1673ffffffffffffffffffffffffffffffffffffffff16815260200190815260200160002060008154809291906104b590610765565b9190505550565b6000813590506104cb8161088d565b92915050565b6000813590506104e0816108a4565b92915050565b6000602082840312156104fc576104fb610836565b5b600061050a848285016104bc565b91505092915050565b6000806040838503121561052a57610529610836565b5b6000610538858286016104bc565b9250506020610549858286016104d1565b9150509250929050565b6000610560601283610603565b915061056b8261083b565b602082019050919050565b6000610583601383610603565b915061058e82610864565b602082019050919050565b6105a28161075b565b82525050565b600060208201905081810360008301526105c181610553565b9050919050565b600060208201905081810360008301526105e181610576565b9050919050565b60006020820190506105fd6000830184610599565b92915050565b600082825260208201905092915050565b600061061f8261075b565b915061062a8361075b565b9250827fffffffffffffffffffffffffffffffffffffffffffffffffffffffffffffffff0382111561065f5761065e6107d8565b5b828201905092915050565b60006106758261075b565b91506106808361075b565b9250826106905761068f610807565b5b828204905092915050565b60006106a68261075b565b91506106b18361075b565b9250817fffffffffffffffffffffffffffffffffffffffffffffffffffffffffffffffff04831182151516156106ea576106e96107d8565b5b828202905092915050565b60006107008261075b565b915061070b8361075b565b92508282101561071e5761071d6107d8565b5b828203905092915050565b60006107348261073b565b9050919050565b600073ffffffffffffffffffffffffffffffffffffffff82169050919050565b6000819050919050565b60006107708261075b565b91506000821415610784576107836107d8565b5b600182039050919050565b600061079a8261075b565b91507fffffffffffffffffffffffffffffffffffffffffffffffffffffffffffffffff8214156107cd576107cc6107d8565b5b600182019050919050565b7f4e487b7100000000000000000000000000000000000000000000000000000000600052601160045260246000fd5b7f4e487b7100000000000000000000000000000000000000000000000000000000600052601260045260246000fd5b600080fd5b7f6e6f7420656e6f7567687420746f6b656e730000000000000000000000000000600082015250565b7f596f7520617265206e6f7420616c6c6f77656400000000000000000000000000600082015250565b61089681610729565b81146108a157600080fd5b50565b6108ad8161075b565b81146108b857600080fd5b5056fea264697066735822122072c1580de5574231e252c5a6e6376ce1df4d39ede327b9780d4c6a1a67ada03164736f6c63430008070033",
					"opcodes": "PUSH1 0x80 PUSH1 0x40 MSTORE PUSH8 0xDE0B6B3A7640000 PUSH1 0x2 SSTORE CALLVALUE DUP1 ISZERO PUSH2 0x1C JUMPI PUSH1 0x0 DUP1 REVERT JUMPDEST POP CALLER PUSH1 0x1 PUSH1 0x0 PUSH2 0x100 EXP DUP2 SLOAD DUP2 PUSH20 0xFFFFFFFFFFFFFFFFFFFFFFFFFFFFFFFFFFFFFFFF MUL NOT AND SWAP1 DUP4 PUSH20 0xFFFFFFFFFFFFFFFFFFFFFFFFFFFFFFFFFFFFFFFF AND MUL OR SWAP1 SSTORE POP PUSH1 0x64 PUSH1 0x0 DUP1 PUSH1 0x1 PUSH1 0x0 SWAP1 SLOAD SWAP1 PUSH2 0x100 EXP SWAP1 DIV PUSH20 0xFFFFFFFFFFFFFFFFFFFFFFFFFFFFFFFFFFFFFFFF AND PUSH20 0xFFFFFFFFFFFFFFFFFFFFFFFFFFFFFFFFFFFFFFFF AND PUSH20 0xFFFFFFFFFFFFFFFFFFFFFFFFFFFFFFFFFFFFFFFF AND DUP2 MSTORE PUSH1 0x20 ADD SWAP1 DUP2 MSTORE PUSH1 0x20 ADD PUSH1 0x0 KECCAK256 DUP2 SWAP1 SSTORE POP PUSH2 0x8F1 DUP1 PUSH2 0xD3 PUSH1 0x0 CODECOPY PUSH1 0x0 RETURN INVALID PUSH1 0x80 PUSH1 0x40 MSTORE PUSH1 0x4 CALLDATASIZE LT PUSH2 0x4A JUMPI PUSH1 0x0 CALLDATALOAD PUSH1 0xE0 SHR DUP1 PUSH4 0x412664AE EQ PUSH2 0x4F JUMPI DUP1 PUSH4 0x754FC38C EQ PUSH2 0x78 JUMPI DUP1 PUSH4 0xA95C4D62 EQ PUSH2 0x8F JUMPI DUP1 PUSH4 0xEEDC966A EQ PUSH2 0x99 JUMPI DUP1 PUSH4 0xFAA0A264 EQ PUSH2 0xD6 JUMPI JUMPDEST PUSH1 0x0 DUP1 REVERT JUMPDEST CALLVALUE DUP1 ISZERO PUSH2 0x5B JUMPI PUSH1 0x0 DUP1 REVERT JUMPDEST POP PUSH2 0x76 PUSH1 0x4 DUP1 CALLDATASIZE SUB DUP2 ADD SWAP1 PUSH2 0x71 SWAP2 SWAP1 PUSH2 0x513 JUMP JUMPDEST PUSH2 0xED JUMP JUMPDEST STOP JUMPDEST CALLVALUE DUP1 ISZERO PUSH2 0x84 JUMPI PUSH1 0x0 DUP1 REVERT JUMPDEST POP PUSH2 0x8D PUSH2 0xF1 JUMP JUMPDEST STOP JUMPDEST PUSH2 0x97 PUSH2 0x1F9 JUMP JUMPDEST STOP JUMPDEST CALLVALUE DUP1 ISZERO PUSH2 0xA5 JUMPI PUSH1 0x0 DUP1 REVERT JUMPDEST POP PUSH2 0xC0 PUSH1 0x4 DUP1 CALLDATASIZE SUB DUP2 ADD SWAP1 PUSH2 0xBB SWAP2 SWAP1 PUSH2 0x4E6 JUMP JUMPDEST PUSH2 0x39C JUMP JUMPDEST PUSH1 0x40 MLOAD PUSH2 0xCD SWAP2 SWAP1 PUSH2 0x5E8 JUMP JUMPDEST PUSH1 0x40 MLOAD DUP1 SWAP2 SUB SWAP1 RETURN JUMPDEST CALLVALUE DUP1 ISZERO PUSH2 0xE2 JUMPI PUSH1 0x0 DUP1 REVERT JUMPDEST POP PUSH2 0xEB PUSH2 0x3B4 JUMP JUMPDEST STOP JUMPDEST POP POP JUMP JUMPDEST PUSH1 0x1 PUSH1 0x0 SWAP1 SLOAD SWAP1 PUSH2 0x100 EXP SWAP1 DIV PUSH20 0xFFFFFFFFFFFFFFFFFFFFFFFFFFFFFFFFFFFFFFFF AND PUSH20 0xFFFFFFFFFFFFFFFFFFFFFFFFFFFFFFFFFFFFFFFF AND CALLER PUSH20 0xFFFFFFFFFFFFFFFFFFFFFFFFFFFFFFFFFFFFFFFF AND EQ PUSH2 0x181 JUMPI PUSH1 0x40 MLOAD PUSH32 0x8C379A000000000000000000000000000000000000000000000000000000000 DUP2 MSTORE PUSH1 0x4 ADD PUSH2 0x178 SWAP1 PUSH2 0x5C8 JUMP JUMPDEST PUSH1 0x40 MLOAD DUP1 SWAP2 SUB SWAP1 REVERT JUMPDEST PUSH1 0x0 DUP1 PUSH1 0x1 PUSH1 0x0 SWAP1 SLOAD SWAP1 PUSH2 0x100 EXP SWAP1 DIV PUSH20 0xFFFFFFFFFFFFFFFFFFFFFFFFFFFFFFFFFFFFFFFF AND PUSH20 0xFFFFFFFFFFFFFFFFFFFFFFFFFFFFFFFFFFFFFFFF AND PUSH20 0xFFFFFFFFFFFFFFFFFFFFFFFFFFFFFFFFFFFFFFFF AND DUP2 MSTORE PUSH1 0x20 ADD SWAP1 DUP2 MSTORE PUSH1 0x20 ADD PUSH1 0x0 KECCAK256 PUSH1 0x0 DUP2 SLOAD DUP1 SWAP3 SWAP2 SWAP1 PUSH2 0x1F2 SWAP1 PUSH2 0x78F JUMP JUMPDEST SWAP2 SWAP1 POP SSTORE POP JUMP JUMPDEST PUSH1 0x0 CALLVALUE PUSH1 0x2 SLOAD PUSH1 0x0 DUP1 PUSH1 0x1 PUSH1 0x0 SWAP1 SLOAD SWAP1 PUSH2 0x100 EXP SWAP1 DIV PUSH20 0xFFFFFFFFFFFFFFFFFFFFFFFFFFFFFFFFFFFFFFFF AND PUSH20 0xFFFFFFFFFFFFFFFFFFFFFFFFFFFFFFFFFFFFFFFF AND PUSH20 0xFFFFFFFFFFFFFFFFFFFFFFFFFFFFFFFFFFFFFFFF AND DUP2 MSTORE PUSH1 0x20 ADD SWAP1 DUP2 MSTORE PUSH1 0x20 ADD PUSH1 0x0 KECCAK256 SLOAD PUSH2 0x26A SWAP2 SWAP1 PUSH2 0x69B JUMP JUMPDEST PUSH2 0x274 SWAP2 SWAP1 PUSH2 0x66A JUMP JUMPDEST GT PUSH2 0x2B4 JUMPI PUSH1 0x40 MLOAD PUSH32 0x8C379A000000000000000000000000000000000000000000000000000000000 DUP2 MSTORE PUSH1 0x4 ADD PUSH2 0x2AB SWAP1 PUSH2 0x5A8 JUMP JUMPDEST PUSH1 0x40 MLOAD DUP1 SWAP2 SUB SWAP1 REVERT JUMPDEST PUSH1 0x2 SLOAD CALLVALUE PUSH2 0x2C2 SWAP2 SWAP1 PUSH2 0x66A JUMP JUMPDEST PUSH1 0x0 DUP1 PUSH1 0x1 PUSH1 0x0 SWAP1 SLOAD SWAP1 PUSH2 0x100 EXP SWAP1 DIV PUSH20 0xFFFFFFFFFFFFFFFFFFFFFFFFFFFFFFFFFFFFFFFF AND PUSH20 0xFFFFFFFFFFFFFFFFFFFFFFFFFFFFFFFFFFFFFFFF AND PUSH20 0xFFFFFFFFFFFFFFFFFFFFFFFFFFFFFFFFFFFFFFFF AND DUP2 MSTORE PUSH1 0x20 ADD SWAP1 DUP2 MSTORE PUSH1 0x20 ADD PUSH1 0x0 KECCAK256 PUSH1 0x0 DUP3 DUP3 SLOAD PUSH2 0x331 SWAP2 SWAP1 PUSH2 0x6F5 JUMP JUMPDEST SWAP3 POP POP DUP2 SWAP1 SSTORE POP PUSH1 0x2 SLOAD CALLVALUE PUSH2 0x346 SWAP2 SWAP1 PUSH2 0x66A JUMP JUMPDEST PUSH1 0x0 DUP1 CALLER PUSH20 0xFFFFFFFFFFFFFFFFFFFFFFFFFFFFFFFFFFFFFFFF AND PUSH20 0xFFFFFFFFFFFFFFFFFFFFFFFFFFFFFFFFFFFFFFFF AND DUP2 MSTORE PUSH1 0x20 ADD SWAP1 DUP2 MSTORE PUSH1 0x20 ADD PUSH1 0x0 KECCAK256 PUSH1 0x0 DUP3 DUP3 SLOAD PUSH2 0x393 SWAP2 SWAP1 PUSH2 0x614 JUMP JUMPDEST SWAP3 POP POP DUP2 SWAP1 SSTORE POP JUMP JUMPDEST PUSH1 0x0 PUSH1 0x20 MSTORE DUP1 PUSH1 0x0 MSTORE PUSH1 0x40 PUSH1 0x0 KECCAK256 PUSH1 0x0 SWAP2 POP SWAP1 POP SLOAD DUP2 JUMP JUMPDEST PUSH1 0x1 PUSH1 0x0 SWAP1 SLOAD SWAP1 PUSH2 0x100 EXP SWAP1 DIV PUSH20 0xFFFFFFFFFFFFFFFFFFFFFFFFFFFFFFFFFFFFFFFF AND PUSH20 0xFFFFFFFFFFFFFFFFFFFFFFFFFFFFFFFFFFFFFFFF AND CALLER PUSH20 0xFFFFFFFFFFFFFFFFFFFFFFFFFFFFFFFFFFFFFFFF AND EQ PUSH2 0x444 JUMPI PUSH1 0x40 MLOAD PUSH32 0x8C379A000000000000000000000000000000000000000000000000000000000 DUP2 MSTORE PUSH1 0x4 ADD PUSH2 0x43B SWAP1 PUSH2 0x5C8 JUMP JUMPDEST PUSH1 0x40 MLOAD DUP1 SWAP2 SUB SWAP1 REVERT JUMPDEST PUSH1 0x0 DUP1 PUSH1 0x1 PUSH1 0x0 SWAP1 SLOAD SWAP1 PUSH2 0x100 EXP SWAP1 DIV PUSH20 0xFFFFFFFFFFFFFFFFFFFFFFFFFFFFFFFFFFFFFFFF AND PUSH20 0xFFFFFFFFFFFFFFFFFFFFFFFFFFFFFFFFFFFFFFFF AND PUSH20 0xFFFFFFFFFFFFFFFFFFFFFFFFFFFFFFFFFFFFFFFF AND DUP2 MSTORE PUSH1 0x20 ADD SWAP1 DUP2 MSTORE PUSH1 0x20 ADD PUSH1 0x0 KECCAK256 PUSH1 0x0 DUP2 SLOAD DUP1 SWAP3 SWAP2 SWAP1 PUSH2 0x4B5 SWAP1 PUSH2 0x765 JUMP JUMPDEST SWAP2 SWAP1 POP SSTORE POP JUMP JUMPDEST PUSH1 0x0 DUP2 CALLDATALOAD SWAP1 POP PUSH2 0x4CB DUP2 PUSH2 0x88D JUMP JUMPDEST SWAP3 SWAP2 POP POP JUMP JUMPDEST PUSH1 0x0 DUP2 CALLDATALOAD SWAP1 POP PUSH2 0x4E0 DUP2 PUSH2 0x8A4 JUMP JUMPDEST SWAP3 SWAP2 POP POP JUMP JUMPDEST PUSH1 0x0 PUSH1 0x20 DUP3 DUP5 SUB SLT ISZERO PUSH2 0x4FC JUMPI PUSH2 0x4FB PUSH2 0x836 JUMP JUMPDEST JUMPDEST PUSH1 0x0 PUSH2 0x50A DUP5 DUP3 DUP6 ADD PUSH2 0x4BC JUMP JUMPDEST SWAP2 POP POP SWAP3 SWAP2 POP POP JUMP JUMPDEST PUSH1 0x0 DUP1 PUSH1 0x40 DUP4 DUP6 SUB SLT ISZERO PUSH2 0x52A JUMPI PUSH2 0x529 PUSH2 0x836 JUMP JUMPDEST JUMPDEST PUSH1 0x0 PUSH2 0x538 DUP6 DUP3 DUP7 ADD PUSH2 0x4BC JUMP JUMPDEST SWAP3 POP POP PUSH1 0x20 PUSH2 0x549 DUP6 DUP3 DUP7 ADD PUSH2 0x4D1 JUMP JUMPDEST SWAP2 POP POP SWAP3 POP SWAP3 SWAP1 POP JUMP JUMPDEST PUSH1 0x0 PUSH2 0x560 PUSH1 0x12 DUP4 PUSH2 0x603 JUMP JUMPDEST SWAP2 POP PUSH2 0x56B DUP3 PUSH2 0x83B JUMP JUMPDEST PUSH1 0x20 DUP3 ADD SWAP1 POP SWAP2 SWAP1 POP JUMP JUMPDEST PUSH1 0x0 PUSH2 0x583 PUSH1 0x13 DUP4 PUSH2 0x603 JUMP JUMPDEST SWAP2 POP PUSH2 0x58E DUP3 PUSH2 0x864 JUMP JUMPDEST PUSH1 0x20 DUP3 ADD SWAP1 POP SWAP2 SWAP1 POP JUMP JUMPDEST PUSH2 0x5A2 DUP2 PUSH2 0x75B JUMP JUMPDEST DUP3 MSTORE POP POP JUMP JUMPDEST PUSH1 0x0 PUSH1 0x20 DUP3 ADD SWAP1 POP DUP2 DUP2 SUB PUSH1 0x0 DUP4 ADD MSTORE PUSH2 0x5C1 DUP2 PUSH2 0x553 JUMP JUMPDEST SWAP1 POP SWAP2 SWAP1 POP JUMP JUMPDEST PUSH1 0x0 PUSH1 0x20 DUP3 ADD SWAP1 POP DUP2 DUP2 SUB PUSH1 0x0 DUP4 ADD MSTORE PUSH2 0x5E1 DUP2 PUSH2 0x576 JUMP JUMPDEST SWAP1 POP SWAP2 SWAP1 POP JUMP JUMPDEST PUSH1 0x0 PUSH1 0x20 DUP3 ADD SWAP1 POP PUSH2 0x5FD PUSH1 0x0 DUP4 ADD DUP5 PUSH2 0x599 JUMP JUMPDEST SWAP3 SWAP2 POP POP JUMP JUMPDEST PUSH1 0x0 DUP3 DUP3 MSTORE PUSH1 0x20 DUP3 ADD SWAP1 POP SWAP3 SWAP2 POP POP JUMP JUMPDEST PUSH1 0x0 PUSH2 0x61F DUP3 PUSH2 0x75B JUMP JUMPDEST SWAP2 POP PUSH2 0x62A DUP4 PUSH2 0x75B JUMP JUMPDEST SWAP3 POP DUP3 PUSH32 0xFFFFFFFFFFFFFFFFFFFFFFFFFFFFFFFFFFFFFFFFFFFFFFFFFFFFFFFFFFFFFFFF SUB DUP3 GT ISZERO PUSH2 0x65F JUMPI PUSH2 0x65E PUSH2 0x7D8 JUMP JUMPDEST JUMPDEST DUP3 DUP3 ADD SWAP1 POP SWAP3 SWAP2 POP POP JUMP JUMPDEST PUSH1 0x0 PUSH2 0x675 DUP3 PUSH2 0x75B JUMP JUMPDEST SWAP2 POP PUSH2 0x680 DUP4 PUSH2 0x75B JUMP JUMPDEST SWAP3 POP DUP3 PUSH2 0x690 JUMPI PUSH2 0x68F PUSH2 0x807 JUMP JUMPDEST JUMPDEST DUP3 DUP3 DIV SWAP1 POP SWAP3 SWAP2 POP POP JUMP JUMPDEST PUSH1 0x0 PUSH2 0x6A6 DUP3 PUSH2 0x75B JUMP JUMPDEST SWAP2 POP PUSH2 0x6B1 DUP4 PUSH2 0x75B JUMP JUMPDEST SWAP3 POP DUP2 PUSH32 0xFFFFFFFFFFFFFFFFFFFFFFFFFFFFFFFFFFFFFFFFFFFFFFFFFFFFFFFFFFFFFFFF DIV DUP4 GT DUP3 ISZERO ISZERO AND ISZERO PUSH2 0x6EA JUMPI PUSH2 0x6E9 PUSH2 0x7D8 JUMP JUMPDEST JUMPDEST DUP3 DUP3 MUL SWAP1 POP SWAP3 SWAP2 POP POP JUMP JUMPDEST PUSH1 0x0 PUSH2 0x700 DUP3 PUSH2 0x75B JUMP JUMPDEST SWAP2 POP PUSH2 0x70B DUP4 PUSH2 0x75B JUMP JUMPDEST SWAP3 POP DUP3 DUP3 LT ISZERO PUSH2 0x71E JUMPI PUSH2 0x71D PUSH2 0x7D8 JUMP JUMPDEST JUMPDEST DUP3 DUP3 SUB SWAP1 POP SWAP3 SWAP2 POP POP JUMP JUMPDEST PUSH1 0x0 PUSH2 0x734 DUP3 PUSH2 0x73B JUMP JUMPDEST SWAP1 POP SWAP2 SWAP1 POP JUMP JUMPDEST PUSH1 0x0 PUSH20 0xFFFFFFFFFFFFFFFFFFFFFFFFFFFFFFFFFFFFFFFF DUP3 AND SWAP1 POP SWAP2 SWAP1 POP JUMP JUMPDEST PUSH1 0x0 DUP2 SWAP1 POP SWAP2 SWAP1 POP JUMP JUMPDEST PUSH1 0x0 PUSH2 0x770 DUP3 PUSH2 0x75B JUMP JUMPDEST SWAP2 POP PUSH1 0x0 DUP3 EQ ISZERO PUSH2 0x784 JUMPI PUSH2 0x783 PUSH2 0x7D8 JUMP JUMPDEST JUMPDEST PUSH1 0x1 DUP3 SUB SWAP1 POP SWAP2 SWAP1 POP JUMP JUMPDEST PUSH1 0x0 PUSH2 0x79A DUP3 PUSH2 0x75B JUMP JUMPDEST SWAP2 POP PUSH32 0xFFFFFFFFFFFFFFFFFFFFFFFFFFFFFFFFFFFFFFFFFFFFFFFFFFFFFFFFFFFFFFFF DUP3 EQ ISZERO PUSH2 0x7CD JUMPI PUSH2 0x7CC PUSH2 0x7D8 JUMP JUMPDEST JUMPDEST PUSH1 0x1 DUP3 ADD SWAP1 POP SWAP2 SWAP1 POP JUMP JUMPDEST PUSH32 0x4E487B7100000000000000000000000000000000000000000000000000000000 PUSH1 0x0 MSTORE PUSH1 0x11 PUSH1 0x4 MSTORE PUSH1 0x24 PUSH1 0x0 REVERT JUMPDEST PUSH32 0x4E487B7100000000000000000000000000000000000000000000000000000000 PUSH1 0x0 MSTORE PUSH1 0x12 PUSH1 0x4 MSTORE PUSH1 0x24 PUSH1 0x0 REVERT JUMPDEST PUSH1 0x0 DUP1 REVERT JUMPDEST PUSH32 0x6E6F7420656E6F7567687420746F6B656E730000000000000000000000000000 PUSH1 0x0 DUP3 ADD MSTORE POP JUMP JUMPDEST PUSH32 0x596F7520617265206E6F7420616C6C6F77656400000000000000000000000000 PUSH1 0x0 DUP3 ADD MSTORE POP JUMP JUMPDEST PUSH2 0x896 DUP2 PUSH2 0x729 JUMP JUMPDEST DUP2 EQ PUSH2 0x8A1 JUMPI PUSH1 0x0 DUP1 REVERT JUMPDEST POP JUMP JUMPDEST PUSH2 0x8AD DUP2 PUSH2 0x75B JUMP JUMPDEST DUP2 EQ PUSH2 0x8B8 JUMPI PUSH1 0x0 DUP1 REVERT JUMPDEST POP JUMP INVALID LOG2 PUSH5 0x6970667358 0x22 SLT KECCAK256 PUSH19 0xC1580DE5574231E252C5A6E6376CE1DF4D39ED 0xE3 0x27 0xB9 PUSH25 0xD4C6A1A67ADA03164736F6C63430008070033000000000000 "
				},
				"gasEstimates": {
					"creation": {
						"codeDepositCost": "457800",
						"executionCost": "71205",
						"totalCost": "529005"
					},
					"external": {
						"burnToken()": "28966",
						"createNewToken()": "28900",
						"purchaseToken()": "infinite",
						"sendToken(address,uint256)": "606",
						"tokenBalance(address)": "2858"
					}
				},
				"methodIdentifiers": {
					"burnToken()": "faa0a264",
					"createNewToken()": "754fc38c",
					"purchaseToken()": "a95c4d62",
					"sendToken(address,uint256)": "412664ae",
					"tokenBalance(address)": "eedc966a"
				}
			},
			"storageLayout": {
				"storage": [
					{
						"astId": 5,
						"contract": "Modifier.sol:Modifier",
						"label": "tokenBalance",
						"offset": 0,
						"slot": "0",
						"type": "t_mapping(t_address,t_uint256)"
					},
					{
						"astId": 7,
						"contract": "Modifier.sol:Modifier",
						"label": "owner",
						"offset": 0,
						"slot": "1",
						"type": "t_address"
					},
					{
						"astId": 10,
						"contract": "Modifier.sol:Modifier",
						"label": "tokenPrice",
						"offset": 0,
						"slot": "2",
						"type": "t_uint256"
					}
				],
				"types": {
					"t_address": {
						"encoding": "inplace",
						"label": "address",
						"numberOfBytes": "20"
					},
					"t_mapping(t_address,t_uint256)": {
						"encoding": "mapping",
						"key": "t_address",
						"label": "mapping(address => uint256)",
						"numberOfBytes": "32",
						"value": "t_uint256"
					},
					"t_uint256": {
						"encoding": "inplace",
						"label": "uint256",
						"numberOfBytes": "32"
					}
				}
			},
			"userdoc": {
				"kind": "user",
				"methods": {},
				"version": 1
			}
		}
	}
}