{
	"Function.sol": {
		"Function": {
			"abi": [
				{
					"inputs": [],
					"stateMutability": "nonpayable",
					"type": "constructor"
				},
				{
					"stateMutability": "payable",
					"type": "fallback"
				},
				{
					"inputs": [
						{
							"internalType": "address",
							"name": "",
							"type": "address"
						}
					],
					"name": "balanceReceived",
					"outputs": [
						{
							"internalType": "uint256",
							"name": "",
							"type": "uint256"
						}
					],
					"stateMutability": "view",
					"type": "function"
				},
				{
					"inputs": [],
					"name": "destroySmartContract",
					"outputs": [],
					"stateMutability": "nonpayable",
					"type": "function"
				},
				{
					"inputs": [],
					"name": "getOwner",
					"outputs": [
						{
							"internalType": "address",
							"name": "",
							"type": "address"
						}
					],
					"stateMutability": "view",
					"type": "function"
				},
				{
					"inputs": [],
					"name": "reveiveMoney",
					"outputs": [],
					"stateMutability": "payable",
					"type": "function"
				},
				{
					"inputs": [
						{
							"internalType": "address payable",
							"name": "_to",
							"type": "address"
						},
						{
							"internalType": "uint256",
							"name": "_amount",
							"type": "uint256"
						}
					],
					"name": "withdrawMoney",
					"outputs": [],
					"stateMutability": "payable",
					"type": "function"
				},
				{
					"stateMutability": "payable",
					"type": "receive"
				}
			],
			"devdoc": {
				"kind": "dev",
				"methods": {},
				"version": 1
			},
			"evm": {
				"assembly": "    /* \"Function.sol\":25:1110  contract Function{\r... */\n  mstore(0x40, 0x80)\n    /* \"Function.sol\":135:201  constructor() public{\r... */\n  callvalue\n  dup1\n  iszero\n  tag_1\n  jumpi\n  0x00\n  dup1\n  revert\ntag_1:\n  pop\n    /* \"Function.sol\":182:192  msg.sender */\n  caller\n    /* \"Function.sol\":166:171  owner */\n  0x01\n  0x00\n    /* \"Function.sol\":166:193  owner = payable(msg.sender) */\n  0x0100\n  exp\n  dup2\n  sload\n  dup2\n  0xffffffffffffffffffffffffffffffffffffffff\n  mul\n  not\n  and\n  swap1\n  dup4\n  0xffffffffffffffffffffffffffffffffffffffff\n  and\n  mul\n  or\n  swap1\n  sstore\n  pop\n    /* \"Function.sol\":25:1110  contract Function{\r... */\n  dataSize(sub_0)\n  dup1\n  dataOffset(sub_0)\n  0x00\n  codecopy\n  0x00\n  return\nstop\n\nsub_0: assembly {\n        /* \"Function.sol\":25:1110  contract Function{\r... */\n      mstore(0x40, 0x80)\n      jumpi(tag_1, lt(calldatasize, 0x04))\n      shr(0xe0, calldataload(0x00))\n      dup1\n      0x85474728\n      eq\n      tag_3\n      jumpi\n      dup1\n      0x893d20e8\n      eq\n      tag_4\n      jumpi\n      dup1\n      0xd18a42e1\n      eq\n      tag_5\n      jumpi\n      dup1\n      0xd9230e81\n      eq\n      tag_6\n      jumpi\n      dup1\n      0xf274c897\n      eq\n      tag_7\n      jumpi\n      jump(tag_2)\n    tag_1:\n      jumpi(tag_2, calldatasize)\n        /* \"Function.sol\":1085:1099  reveiveMoney() */\n      tag_10\n        /* \"Function.sol\":1085:1097  reveiveMoney */\n      tag_11\n        /* \"Function.sol\":1085:1099  reveiveMoney() */\n      jump\t// in\n    tag_10:\n        /* \"Function.sol\":25:1110  contract Function{\r... */\n      stop\n    tag_2:\n        /* \"Function.sol\":1017:1031  reveiveMoney() */\n      tag_14\n        /* \"Function.sol\":1017:1029  reveiveMoney */\n      tag_11\n        /* \"Function.sol\":1017:1031  reveiveMoney() */\n      jump\t// in\n    tag_14:\n        /* \"Function.sol\":25:1110  contract Function{\r... */\n      stop\n        /* \"Function.sol\":283:422  function destroySmartContract() public{\r... */\n    tag_3:\n      callvalue\n      dup1\n      iszero\n      tag_15\n      jumpi\n      0x00\n      dup1\n      revert\n    tag_15:\n      pop\n      tag_16\n      tag_17\n      jump\t// in\n    tag_16:\n      stop\n        /* \"Function.sol\":209:275  function getOwner() public view returns(address){\r... */\n    tag_4:\n      callvalue\n      dup1\n      iszero\n      tag_18\n      jumpi\n      0x00\n      dup1\n      revert\n    tag_18:\n      pop\n      tag_19\n      tag_20\n      jump\t// in\n    tag_19:\n      mload(0x40)\n      tag_21\n      swap2\n      swap1\n      tag_22\n      jump\t// in\n    tag_21:\n      mload(0x40)\n      dup1\n      swap2\n      sub\n      swap1\n      return\n        /* \"Function.sol\":49:96  mapping(address => uint) public balanceReceived */\n    tag_5:\n      callvalue\n      dup1\n      iszero\n      tag_23\n      jumpi\n      0x00\n      dup1\n      revert\n    tag_23:\n      pop\n      tag_24\n      0x04\n      dup1\n      calldatasize\n      sub\n      dup2\n      add\n      swap1\n      tag_25\n      swap2\n      swap1\n      tag_26\n      jump\t// in\n    tag_25:\n      tag_27\n      jump\t// in\n    tag_24:\n      mload(0x40)\n      tag_28\n      swap2\n      swap1\n      tag_29\n      jump\t// in\n    tag_28:\n      mload(0x40)\n      dup1\n      swap2\n      sub\n      swap1\n      return\n        /* \"Function.sol\":430:616  function reveiveMoney() public payable{\r... */\n    tag_6:\n      tag_30\n      tag_11\n      jump\t// in\n    tag_30:\n      stop\n        /* \"Function.sol\":624:971  function withdrawMoney(address payable _to, uint _amount) public payable{\r... */\n    tag_7:\n      tag_31\n      0x04\n      dup1\n      calldatasize\n      sub\n      dup2\n      add\n      swap1\n      tag_32\n      swap2\n      swap1\n      tag_33\n      jump\t// in\n    tag_32:\n      tag_34\n      jump\t// in\n    tag_31:\n      stop\n        /* \"Function.sol\":430:616  function reveiveMoney() public payable{\r... */\n    tag_11:\n        /* \"Function.sol\":529:544  balanceReceived */\n      0x00\n        /* \"Function.sol\":529:556  balanceReceived[msg.sender] */\n      dup1\n        /* \"Function.sol\":545:555  msg.sender */\n      caller\n        /* \"Function.sol\":529:556  balanceReceived[msg.sender] */\n      0xffffffffffffffffffffffffffffffffffffffff\n      and\n      0xffffffffffffffffffffffffffffffffffffffff\n      and\n      dup2\n      mstore\n      0x20\n      add\n      swap1\n      dup2\n      mstore\n      0x20\n      add\n      0x00\n      keccak256\n      sload\n        /* \"Function.sol\":516:525  msg.value */\n      callvalue\n        /* \"Function.sol\":486:501  balanceReceived */\n      0x00\n        /* \"Function.sol\":486:513  balanceReceived[msg.sender] */\n      dup1\n        /* \"Function.sol\":502:512  msg.sender */\n      caller\n        /* \"Function.sol\":486:513  balanceReceived[msg.sender] */\n      0xffffffffffffffffffffffffffffffffffffffff\n      and\n      0xffffffffffffffffffffffffffffffffffffffff\n      and\n      dup2\n      mstore\n      0x20\n      add\n      swap1\n      dup2\n      mstore\n      0x20\n      add\n      0x00\n      keccak256\n      sload\n        /* \"Function.sol\":486:525  balanceReceived[msg.sender] + msg.value */\n      tag_36\n      swap2\n      swap1\n      tag_37\n      jump\t// in\n    tag_36:\n        /* \"Function.sol\":486:556  balanceReceived[msg.sender] + msg.value >= balanceReceived[msg.sender] */\n      lt\n      iszero\n        /* \"Function.sol\":479:557  assert(balanceReceived[msg.sender] + msg.value >= balanceReceived[msg.sender]) */\n      tag_38\n      jumpi\n      tag_39\n      tag_40\n      jump\t// in\n    tag_39:\n    tag_38:\n        /* \"Function.sol\":599:608  msg.value */\n      callvalue\n        /* \"Function.sol\":568:583  balanceReceived */\n      0x00\n        /* \"Function.sol\":568:595  balanceReceived[msg.sender] */\n      dup1\n        /* \"Function.sol\":584:594  msg.sender */\n      caller\n        /* \"Function.sol\":568:595  balanceReceived[msg.sender] */\n      0xffffffffffffffffffffffffffffffffffffffff\n      and\n      0xffffffffffffffffffffffffffffffffffffffff\n      and\n      dup2\n      mstore\n      0x20\n      add\n      swap1\n      dup2\n      mstore\n      0x20\n      add\n      0x00\n      keccak256\n      0x00\n        /* \"Function.sol\":568:608  balanceReceived[msg.sender] += msg.value */\n      dup3\n      dup3\n      sload\n      tag_41\n      swap2\n      swap1\n      tag_37\n      jump\t// in\n    tag_41:\n      swap3\n      pop\n      pop\n      dup2\n      swap1\n      sstore\n      pop\n        /* \"Function.sol\":430:616  function reveiveMoney() public payable{\r... */\n      jump\t// out\n        /* \"Function.sol\":283:422  function destroySmartContract() public{\r... */\n    tag_17:\n        /* \"Function.sol\":354:359  owner */\n      0x01\n      0x00\n      swap1\n      sload\n      swap1\n      0x0100\n      exp\n      swap1\n      div\n      0xffffffffffffffffffffffffffffffffffffffff\n      and\n        /* \"Function.sol\":340:359  msg.sender == owner */\n      0xffffffffffffffffffffffffffffffffffffffff\n      and\n        /* \"Function.sol\":340:350  msg.sender */\n      caller\n        /* \"Function.sol\":340:359  msg.sender == owner */\n      0xffffffffffffffffffffffffffffffffffffffff\n      and\n      eq\n        /* \"Function.sol\":332:384  require(msg.sender == owner,\"You are not the owner\") */\n      tag_43\n      jumpi\n      mload(0x40)\n      0x08c379a000000000000000000000000000000000000000000000000000000000\n      dup2\n      mstore\n      0x04\n      add\n      tag_44\n      swap1\n      tag_45\n      jump\t// in\n    tag_44:\n      mload(0x40)\n      dup1\n      swap2\n      sub\n      swap1\n      revert\n    tag_43:\n        /* \"Function.sol\":408:413  owner */\n      0x01\n      0x00\n      swap1\n      sload\n      swap1\n      0x0100\n      exp\n      swap1\n      div\n      0xffffffffffffffffffffffffffffffffffffffff\n      and\n        /* \"Function.sol\":395:414  selfdestruct(owner) */\n      0xffffffffffffffffffffffffffffffffffffffff\n      and\n      selfdestruct\n        /* \"Function.sol\":209:275  function getOwner() public view returns(address){\r... */\n    tag_20:\n        /* \"Function.sol\":249:256  address */\n      0x00\n        /* \"Function.sol\":209:275  function getOwner() public view returns(address){\r... */\n      swap1\n      jump\t// out\n        /* \"Function.sol\":49:96  mapping(address => uint) public balanceReceived */\n    tag_27:\n      mstore(0x20, 0x00)\n      dup1\n      0x00\n      mstore\n      keccak256(0x00, 0x40)\n      0x00\n      swap2\n      pop\n      swap1\n      pop\n      sload\n      dup2\n      jump\t// out\n        /* \"Function.sol\":624:971  function withdrawMoney(address payable _to, uint _amount) public payable{\r... */\n    tag_34:\n        /* \"Function.sol\":726:741  balanceReceived */\n      0x00\n        /* \"Function.sol\":726:753  balanceReceived[msg.sender] */\n      dup1\n        /* \"Function.sol\":742:752  msg.sender */\n      caller\n        /* \"Function.sol\":726:753  balanceReceived[msg.sender] */\n      0xffffffffffffffffffffffffffffffffffffffff\n      and\n      0xffffffffffffffffffffffffffffffffffffffff\n      and\n      dup2\n      mstore\n      0x20\n      add\n      swap1\n      dup2\n      mstore\n      0x20\n      add\n      0x00\n      keccak256\n      sload\n        /* \"Function.sol\":715:722  _amount */\n      dup2\n        /* \"Function.sol\":715:753  _amount <= balanceReceived[msg.sender] */\n      gt\n      iszero\n        /* \"Function.sol\":707:784  require(_amount <= balanceReceived[msg.sender],\"you don't have enough money\") */\n      tag_48\n      jumpi\n      mload(0x40)\n      0x08c379a000000000000000000000000000000000000000000000000000000000\n      dup2\n      mstore\n      0x04\n      add\n      tag_49\n      swap1\n      tag_50\n      jump\t// in\n    tag_49:\n      mload(0x40)\n      dup1\n      swap2\n      sub\n      swap1\n      revert\n    tag_48:\n        /* \"Function.sol\":875:882  _amount */\n      dup1\n        /* \"Function.sol\":845:860  balanceReceived */\n      0x00\n        /* \"Function.sol\":845:872  balanceReceived[msg.sender] */\n      dup1\n        /* \"Function.sol\":861:871  msg.sender */\n      caller\n        /* \"Function.sol\":845:872  balanceReceived[msg.sender] */\n      0xffffffffffffffffffffffffffffffffffffffff\n      and\n      0xffffffffffffffffffffffffffffffffffffffff\n      and\n      dup2\n      mstore\n      0x20\n      add\n      swap1\n      dup2\n      mstore\n      0x20\n      add\n      0x00\n      keccak256\n      sload\n        /* \"Function.sol\":845:882  balanceReceived[msg.sender] - _amount */\n      tag_51\n      swap2\n      swap1\n      tag_52\n      jump\t// in\n    tag_51:\n        /* \"Function.sol\":832:841  msg.value */\n      callvalue\n        /* \"Function.sol\":802:817  balanceReceived */\n      0x00\n        /* \"Function.sol\":802:829  balanceReceived[msg.sender] */\n      dup1\n        /* \"Function.sol\":818:828  msg.sender */\n      caller\n        /* \"Function.sol\":802:829  balanceReceived[msg.sender] */\n      0xffffffffffffffffffffffffffffffffffffffff\n      and\n      0xffffffffffffffffffffffffffffffffffffffff\n      and\n      dup2\n      mstore\n      0x20\n      add\n      swap1\n      dup2\n      mstore\n      0x20\n      add\n      0x00\n      keccak256\n      sload\n        /* \"Function.sol\":802:841  balanceReceived[msg.sender] + msg.value */\n      tag_53\n      swap2\n      swap1\n      tag_37\n      jump\t// in\n    tag_53:\n        /* \"Function.sol\":802:882  balanceReceived[msg.sender] + msg.value >= balanceReceived[msg.sender] - _amount */\n      lt\n      iszero\n        /* \"Function.sol\":795:883  assert(balanceReceived[msg.sender] + msg.value >= balanceReceived[msg.sender] - _amount) */\n      tag_54\n      jumpi\n      tag_55\n      tag_40\n      jump\t// in\n    tag_55:\n    tag_54:\n        /* \"Function.sol\":924:931  _amount */\n      dup1\n        /* \"Function.sol\":894:909  balanceReceived */\n      0x00\n        /* \"Function.sol\":894:921  balanceReceived[msg.sender] */\n      dup1\n        /* \"Function.sol\":910:920  msg.sender */\n      caller\n        /* \"Function.sol\":894:921  balanceReceived[msg.sender] */\n      0xffffffffffffffffffffffffffffffffffffffff\n      and\n      0xffffffffffffffffffffffffffffffffffffffff\n      and\n      dup2\n      mstore\n      0x20\n      add\n      swap1\n      dup2\n      mstore\n      0x20\n      add\n      0x00\n      keccak256\n      0x00\n        /* \"Function.sol\":894:931  balanceReceived[msg.sender]-= _amount */\n      dup3\n      dup3\n      sload\n      tag_56\n      swap2\n      swap1\n      tag_52\n      jump\t// in\n    tag_56:\n      swap3\n      pop\n      pop\n      dup2\n      swap1\n      sstore\n      pop\n        /* \"Function.sol\":942:945  _to */\n      dup2\n        /* \"Function.sol\":942:954  _to.transfer */\n      0xffffffffffffffffffffffffffffffffffffffff\n      and\n        /* \"Function.sol\":942:963  _to.transfer(_amount) */\n      0x08fc\n        /* \"Function.sol\":955:962  _amount */\n      dup3\n        /* \"Function.sol\":942:963  _to.transfer(_amount) */\n      swap1\n      dup2\n      iszero\n      mul\n      swap1\n      mload(0x40)\n      0x00\n      mload(0x40)\n      dup1\n      dup4\n      sub\n      dup2\n      dup6\n      dup9\n      dup9\n      call\n      swap4\n      pop\n      pop\n      pop\n      pop\n      iszero\n      dup1\n      iszero\n      tag_58\n      jumpi\n      returndatasize\n      0x00\n      dup1\n      returndatacopy\n      revert(0x00, returndatasize)\n    tag_58:\n      pop\n        /* \"Function.sol\":624:971  function withdrawMoney(address payable _to, uint _amount) public payable{\r... */\n      pop\n      pop\n      jump\t// out\n        /* \"#utility.yul\":7:146   */\n    tag_60:\n        /* \"#utility.yul\":53:58   */\n      0x00\n        /* \"#utility.yul\":91:97   */\n      dup2\n        /* \"#utility.yul\":78:98   */\n      calldataload\n        /* \"#utility.yul\":69:98   */\n      swap1\n      pop\n        /* \"#utility.yul\":107:140   */\n      tag_62\n        /* \"#utility.yul\":134:139   */\n      dup2\n        /* \"#utility.yul\":107:140   */\n      tag_63\n      jump\t// in\n    tag_62:\n        /* \"#utility.yul\":7:146   */\n      swap3\n      swap2\n      pop\n      pop\n      jump\t// out\n        /* \"#utility.yul\":152:307   */\n    tag_64:\n        /* \"#utility.yul\":206:211   */\n      0x00\n        /* \"#utility.yul\":244:250   */\n      dup2\n        /* \"#utility.yul\":231:251   */\n      calldataload\n        /* \"#utility.yul\":222:251   */\n      swap1\n      pop\n        /* \"#utility.yul\":260:301   */\n      tag_66\n        /* \"#utility.yul\":295:300   */\n      dup2\n        /* \"#utility.yul\":260:301   */\n      tag_67\n      jump\t// in\n    tag_66:\n        /* \"#utility.yul\":152:307   */\n      swap3\n      swap2\n      pop\n      pop\n      jump\t// out\n        /* \"#utility.yul\":313:452   */\n    tag_68:\n        /* \"#utility.yul\":359:364   */\n      0x00\n        /* \"#utility.yul\":397:403   */\n      dup2\n        /* \"#utility.yul\":384:404   */\n      calldataload\n        /* \"#utility.yul\":375:404   */\n      swap1\n      pop\n        /* \"#utility.yul\":413:446   */\n      tag_70\n        /* \"#utility.yul\":440:445   */\n      dup2\n        /* \"#utility.yul\":413:446   */\n      tag_71\n      jump\t// in\n    tag_70:\n        /* \"#utility.yul\":313:452   */\n      swap3\n      swap2\n      pop\n      pop\n      jump\t// out\n        /* \"#utility.yul\":458:787   */\n    tag_26:\n        /* \"#utility.yul\":517:523   */\n      0x00\n        /* \"#utility.yul\":566:568   */\n      0x20\n        /* \"#utility.yul\":554:563   */\n      dup3\n        /* \"#utility.yul\":545:552   */\n      dup5\n        /* \"#utility.yul\":541:564   */\n      sub\n        /* \"#utility.yul\":537:569   */\n      slt\n        /* \"#utility.yul\":534:653   */\n      iszero\n      tag_73\n      jumpi\n        /* \"#utility.yul\":572:651   */\n      tag_74\n      tag_75\n      jump\t// in\n    tag_74:\n        /* \"#utility.yul\":534:653   */\n    tag_73:\n        /* \"#utility.yul\":692:693   */\n      0x00\n        /* \"#utility.yul\":717:770   */\n      tag_76\n        /* \"#utility.yul\":762:769   */\n      dup5\n        /* \"#utility.yul\":753:759   */\n      dup3\n        /* \"#utility.yul\":742:751   */\n      dup6\n        /* \"#utility.yul\":738:760   */\n      add\n        /* \"#utility.yul\":717:770   */\n      tag_60\n      jump\t// in\n    tag_76:\n        /* \"#utility.yul\":707:770   */\n      swap2\n      pop\n        /* \"#utility.yul\":663:780   */\n      pop\n        /* \"#utility.yul\":458:787   */\n      swap3\n      swap2\n      pop\n      pop\n      jump\t// out\n        /* \"#utility.yul\":793:1283   */\n    tag_33:\n        /* \"#utility.yul\":869:875   */\n      0x00\n        /* \"#utility.yul\":877:883   */\n      dup1\n        /* \"#utility.yul\":926:928   */\n      0x40\n        /* \"#utility.yul\":914:923   */\n      dup4\n        /* \"#utility.yul\":905:912   */\n      dup6\n        /* \"#utility.yul\":901:924   */\n      sub\n        /* \"#utility.yul\":897:929   */\n      slt\n        /* \"#utility.yul\":894:1013   */\n      iszero\n      tag_78\n      jumpi\n        /* \"#utility.yul\":932:1011   */\n      tag_79\n      tag_75\n      jump\t// in\n    tag_79:\n        /* \"#utility.yul\":894:1013   */\n    tag_78:\n        /* \"#utility.yul\":1052:1053   */\n      0x00\n        /* \"#utility.yul\":1077:1138   */\n      tag_80\n        /* \"#utility.yul\":1130:1137   */\n      dup6\n        /* \"#utility.yul\":1121:1127   */\n      dup3\n        /* \"#utility.yul\":1110:1119   */\n      dup7\n        /* \"#utility.yul\":1106:1128   */\n      add\n        /* \"#utility.yul\":1077:1138   */\n      tag_64\n      jump\t// in\n    tag_80:\n        /* \"#utility.yul\":1067:1138   */\n      swap3\n      pop\n        /* \"#utility.yul\":1023:1148   */\n      pop\n        /* \"#utility.yul\":1187:1189   */\n      0x20\n        /* \"#utility.yul\":1213:1266   */\n      tag_81\n        /* \"#utility.yul\":1258:1265   */\n      dup6\n        /* \"#utility.yul\":1249:1255   */\n      dup3\n        /* \"#utility.yul\":1238:1247   */\n      dup7\n        /* \"#utility.yul\":1234:1256   */\n      add\n        /* \"#utility.yul\":1213:1266   */\n      tag_68\n      jump\t// in\n    tag_81:\n        /* \"#utility.yul\":1203:1266   */\n      swap2\n      pop\n        /* \"#utility.yul\":1158:1276   */\n      pop\n        /* \"#utility.yul\":793:1283   */\n      swap3\n      pop\n      swap3\n      swap1\n      pop\n      jump\t// out\n        /* \"#utility.yul\":1289:1407   */\n    tag_82:\n        /* \"#utility.yul\":1376:1400   */\n      tag_84\n        /* \"#utility.yul\":1394:1399   */\n      dup2\n        /* \"#utility.yul\":1376:1400   */\n      tag_85\n      jump\t// in\n    tag_84:\n        /* \"#utility.yul\":1371:1374   */\n      dup3\n        /* \"#utility.yul\":1364:1401   */\n      mstore\n        /* \"#utility.yul\":1289:1407   */\n      pop\n      pop\n      jump\t// out\n        /* \"#utility.yul\":1413:1779   */\n    tag_86:\n        /* \"#utility.yul\":1555:1558   */\n      0x00\n        /* \"#utility.yul\":1576:1643   */\n      tag_88\n        /* \"#utility.yul\":1640:1642   */\n      0x15\n        /* \"#utility.yul\":1635:1638   */\n      dup4\n        /* \"#utility.yul\":1576:1643   */\n      tag_89\n      jump\t// in\n    tag_88:\n        /* \"#utility.yul\":1569:1643   */\n      swap2\n      pop\n        /* \"#utility.yul\":1652:1745   */\n      tag_90\n        /* \"#utility.yul\":1741:1744   */\n      dup3\n        /* \"#utility.yul\":1652:1745   */\n      tag_91\n      jump\t// in\n    tag_90:\n        /* \"#utility.yul\":1770:1772   */\n      0x20\n        /* \"#utility.yul\":1765:1768   */\n      dup3\n        /* \"#utility.yul\":1761:1773   */\n      add\n        /* \"#utility.yul\":1754:1773   */\n      swap1\n      pop\n        /* \"#utility.yul\":1413:1779   */\n      swap2\n      swap1\n      pop\n      jump\t// out\n        /* \"#utility.yul\":1785:2151   */\n    tag_92:\n        /* \"#utility.yul\":1927:1930   */\n      0x00\n        /* \"#utility.yul\":1948:2015   */\n      tag_94\n        /* \"#utility.yul\":2012:2014   */\n      0x1b\n        /* \"#utility.yul\":2007:2010   */\n      dup4\n        /* \"#utility.yul\":1948:2015   */\n      tag_89\n      jump\t// in\n    tag_94:\n        /* \"#utility.yul\":1941:2015   */\n      swap2\n      pop\n        /* \"#utility.yul\":2024:2117   */\n      tag_95\n        /* \"#utility.yul\":2113:2116   */\n      dup3\n        /* \"#utility.yul\":2024:2117   */\n      tag_96\n      jump\t// in\n    tag_95:\n        /* \"#utility.yul\":2142:2144   */\n      0x20\n        /* \"#utility.yul\":2137:2140   */\n      dup3\n        /* \"#utility.yul\":2133:2145   */\n      add\n        /* \"#utility.yul\":2126:2145   */\n      swap1\n      pop\n        /* \"#utility.yul\":1785:2151   */\n      swap2\n      swap1\n      pop\n      jump\t// out\n        /* \"#utility.yul\":2157:2275   */\n    tag_97:\n        /* \"#utility.yul\":2244:2268   */\n      tag_99\n        /* \"#utility.yul\":2262:2267   */\n      dup2\n        /* \"#utility.yul\":2244:2268   */\n      tag_100\n      jump\t// in\n    tag_99:\n        /* \"#utility.yul\":2239:2242   */\n      dup3\n        /* \"#utility.yul\":2232:2269   */\n      mstore\n        /* \"#utility.yul\":2157:2275   */\n      pop\n      pop\n      jump\t// out\n        /* \"#utility.yul\":2281:2503   */\n    tag_22:\n        /* \"#utility.yul\":2374:2378   */\n      0x00\n        /* \"#utility.yul\":2412:2414   */\n      0x20\n        /* \"#utility.yul\":2401:2410   */\n      dup3\n        /* \"#utility.yul\":2397:2415   */\n      add\n        /* \"#utility.yul\":2389:2415   */\n      swap1\n      pop\n        /* \"#utility.yul\":2425:2496   */\n      tag_102\n        /* \"#utility.yul\":2493:2494   */\n      0x00\n        /* \"#utility.yul\":2482:2491   */\n      dup4\n        /* \"#utility.yul\":2478:2495   */\n      add\n        /* \"#utility.yul\":2469:2475   */\n      dup5\n        /* \"#utility.yul\":2425:2496   */\n      tag_82\n      jump\t// in\n    tag_102:\n        /* \"#utility.yul\":2281:2503   */\n      swap3\n      swap2\n      pop\n      pop\n      jump\t// out\n        /* \"#utility.yul\":2509:2928   */\n    tag_45:\n        /* \"#utility.yul\":2675:2679   */\n      0x00\n        /* \"#utility.yul\":2713:2715   */\n      0x20\n        /* \"#utility.yul\":2702:2711   */\n      dup3\n        /* \"#utility.yul\":2698:2716   */\n      add\n        /* \"#utility.yul\":2690:2716   */\n      swap1\n      pop\n        /* \"#utility.yul\":2762:2771   */\n      dup2\n        /* \"#utility.yul\":2756:2760   */\n      dup2\n        /* \"#utility.yul\":2752:2772   */\n      sub\n        /* \"#utility.yul\":2748:2749   */\n      0x00\n        /* \"#utility.yul\":2737:2746   */\n      dup4\n        /* \"#utility.yul\":2733:2750   */\n      add\n        /* \"#utility.yul\":2726:2773   */\n      mstore\n        /* \"#utility.yul\":2790:2921   */\n      tag_104\n        /* \"#utility.yul\":2916:2920   */\n      dup2\n        /* \"#utility.yul\":2790:2921   */\n      tag_86\n      jump\t// in\n    tag_104:\n        /* \"#utility.yul\":2782:2921   */\n      swap1\n      pop\n        /* \"#utility.yul\":2509:2928   */\n      swap2\n      swap1\n      pop\n      jump\t// out\n        /* \"#utility.yul\":2934:3353   */\n    tag_50:\n        /* \"#utility.yul\":3100:3104   */\n      0x00\n        /* \"#utility.yul\":3138:3140   */\n      0x20\n        /* \"#utility.yul\":3127:3136   */\n      dup3\n        /* \"#utility.yul\":3123:3141   */\n      add\n        /* \"#utility.yul\":3115:3141   */\n      swap1\n      pop\n        /* \"#utility.yul\":3187:3196   */\n      dup2\n        /* \"#utility.yul\":3181:3185   */\n      dup2\n        /* \"#utility.yul\":3177:3197   */\n      sub\n        /* \"#utility.yul\":3173:3174   */\n      0x00\n        /* \"#utility.yul\":3162:3171   */\n      dup4\n        /* \"#utility.yul\":3158:3175   */\n      add\n        /* \"#utility.yul\":3151:3198   */\n      mstore\n        /* \"#utility.yul\":3215:3346   */\n      tag_106\n        /* \"#utility.yul\":3341:3345   */\n      dup2\n        /* \"#utility.yul\":3215:3346   */\n      tag_92\n      jump\t// in\n    tag_106:\n        /* \"#utility.yul\":3207:3346   */\n      swap1\n      pop\n        /* \"#utility.yul\":2934:3353   */\n      swap2\n      swap1\n      pop\n      jump\t// out\n        /* \"#utility.yul\":3359:3581   */\n    tag_29:\n        /* \"#utility.yul\":3452:3456   */\n      0x00\n        /* \"#utility.yul\":3490:3492   */\n      0x20\n        /* \"#utility.yul\":3479:3488   */\n      dup3\n        /* \"#utility.yul\":3475:3493   */\n      add\n        /* \"#utility.yul\":3467:3493   */\n      swap1\n      pop\n        /* \"#utility.yul\":3503:3574   */\n      tag_108\n        /* \"#utility.yul\":3571:3572   */\n      0x00\n        /* \"#utility.yul\":3560:3569   */\n      dup4\n        /* \"#utility.yul\":3556:3573   */\n      add\n        /* \"#utility.yul\":3547:3553   */\n      dup5\n        /* \"#utility.yul\":3503:3574   */\n      tag_97\n      jump\t// in\n    tag_108:\n        /* \"#utility.yul\":3359:3581   */\n      swap3\n      swap2\n      pop\n      pop\n      jump\t// out\n        /* \"#utility.yul\":3668:3837   */\n    tag_89:\n        /* \"#utility.yul\":3752:3763   */\n      0x00\n        /* \"#utility.yul\":3786:3792   */\n      dup3\n        /* \"#utility.yul\":3781:3784   */\n      dup3\n        /* \"#utility.yul\":3774:3793   */\n      mstore\n        /* \"#utility.yul\":3826:3830   */\n      0x20\n        /* \"#utility.yul\":3821:3824   */\n      dup3\n        /* \"#utility.yul\":3817:3831   */\n      add\n        /* \"#utility.yul\":3802:3831   */\n      swap1\n      pop\n        /* \"#utility.yul\":3668:3837   */\n      swap3\n      swap2\n      pop\n      pop\n      jump\t// out\n        /* \"#utility.yul\":3843:4148   */\n    tag_37:\n        /* \"#utility.yul\":3883:3886   */\n      0x00\n        /* \"#utility.yul\":3902:3922   */\n      tag_113\n        /* \"#utility.yul\":3920:3921   */\n      dup3\n        /* \"#utility.yul\":3902:3922   */\n      tag_100\n      jump\t// in\n    tag_113:\n        /* \"#utility.yul\":3897:3922   */\n      swap2\n      pop\n        /* \"#utility.yul\":3936:3956   */\n      tag_114\n        /* \"#utility.yul\":3954:3955   */\n      dup4\n        /* \"#utility.yul\":3936:3956   */\n      tag_100\n      jump\t// in\n    tag_114:\n        /* \"#utility.yul\":3931:3956   */\n      swap3\n      pop\n        /* \"#utility.yul\":4090:4091   */\n      dup3\n        /* \"#utility.yul\":4022:4088   */\n      0xffffffffffffffffffffffffffffffffffffffffffffffffffffffffffffffff\n        /* \"#utility.yul\":4018:4092   */\n      sub\n        /* \"#utility.yul\":4015:4016   */\n      dup3\n        /* \"#utility.yul\":4012:4093   */\n      gt\n        /* \"#utility.yul\":4009:4116   */\n      iszero\n      tag_115\n      jumpi\n        /* \"#utility.yul\":4096:4114   */\n      tag_116\n      tag_117\n      jump\t// in\n    tag_116:\n        /* \"#utility.yul\":4009:4116   */\n    tag_115:\n        /* \"#utility.yul\":4140:4141   */\n      dup3\n        /* \"#utility.yul\":4137:4138   */\n      dup3\n        /* \"#utility.yul\":4133:4142   */\n      add\n        /* \"#utility.yul\":4126:4142   */\n      swap1\n      pop\n        /* \"#utility.yul\":3843:4148   */\n      swap3\n      swap2\n      pop\n      pop\n      jump\t// out\n        /* \"#utility.yul\":4154:4345   */\n    tag_52:\n        /* \"#utility.yul\":4194:4198   */\n      0x00\n        /* \"#utility.yul\":4214:4234   */\n      tag_119\n        /* \"#utility.yul\":4232:4233   */\n      dup3\n        /* \"#utility.yul\":4214:4234   */\n      tag_100\n      jump\t// in\n    tag_119:\n        /* \"#utility.yul\":4209:4234   */\n      swap2\n      pop\n        /* \"#utility.yul\":4248:4268   */\n      tag_120\n        /* \"#utility.yul\":4266:4267   */\n      dup4\n        /* \"#utility.yul\":4248:4268   */\n      tag_100\n      jump\t// in\n    tag_120:\n        /* \"#utility.yul\":4243:4268   */\n      swap3\n      pop\n        /* \"#utility.yul\":4287:4288   */\n      dup3\n        /* \"#utility.yul\":4284:4285   */\n      dup3\n        /* \"#utility.yul\":4281:4289   */\n      lt\n        /* \"#utility.yul\":4278:4312   */\n      iszero\n      tag_121\n      jumpi\n        /* \"#utility.yul\":4292:4310   */\n      tag_122\n      tag_117\n      jump\t// in\n    tag_122:\n        /* \"#utility.yul\":4278:4312   */\n    tag_121:\n        /* \"#utility.yul\":4337:4338   */\n      dup3\n        /* \"#utility.yul\":4334:4335   */\n      dup3\n        /* \"#utility.yul\":4330:4339   */\n      sub\n        /* \"#utility.yul\":4322:4339   */\n      swap1\n      pop\n        /* \"#utility.yul\":4154:4345   */\n      swap3\n      swap2\n      pop\n      pop\n      jump\t// out\n        /* \"#utility.yul\":4351:4447   */\n    tag_85:\n        /* \"#utility.yul\":4388:4395   */\n      0x00\n        /* \"#utility.yul\":4417:4441   */\n      tag_124\n        /* \"#utility.yul\":4435:4440   */\n      dup3\n        /* \"#utility.yul\":4417:4441   */\n      tag_125\n      jump\t// in\n    tag_124:\n        /* \"#utility.yul\":4406:4441   */\n      swap1\n      pop\n        /* \"#utility.yul\":4351:4447   */\n      swap2\n      swap1\n      pop\n      jump\t// out\n        /* \"#utility.yul\":4453:4557   */\n    tag_126:\n        /* \"#utility.yul\":4498:4505   */\n      0x00\n        /* \"#utility.yul\":4527:4551   */\n      tag_128\n        /* \"#utility.yul\":4545:4550   */\n      dup3\n        /* \"#utility.yul\":4527:4551   */\n      tag_125\n      jump\t// in\n    tag_128:\n        /* \"#utility.yul\":4516:4551   */\n      swap1\n      pop\n        /* \"#utility.yul\":4453:4557   */\n      swap2\n      swap1\n      pop\n      jump\t// out\n        /* \"#utility.yul\":4563:4689   */\n    tag_125:\n        /* \"#utility.yul\":4600:4607   */\n      0x00\n        /* \"#utility.yul\":4640:4682   */\n      0xffffffffffffffffffffffffffffffffffffffff\n        /* \"#utility.yul\":4633:4638   */\n      dup3\n        /* \"#utility.yul\":4629:4683   */\n      and\n        /* \"#utility.yul\":4618:4683   */\n      swap1\n      pop\n        /* \"#utility.yul\":4563:4689   */\n      swap2\n      swap1\n      pop\n      jump\t// out\n        /* \"#utility.yul\":4695:4772   */\n    tag_100:\n        /* \"#utility.yul\":4732:4739   */\n      0x00\n        /* \"#utility.yul\":4761:4766   */\n      dup2\n        /* \"#utility.yul\":4750:4766   */\n      swap1\n      pop\n        /* \"#utility.yul\":4695:4772   */\n      swap2\n      swap1\n      pop\n      jump\t// out\n        /* \"#utility.yul\":4778:4958   */\n    tag_40:\n        /* \"#utility.yul\":4826:4903   */\n      0x4e487b7100000000000000000000000000000000000000000000000000000000\n        /* \"#utility.yul\":4823:4824   */\n      0x00\n        /* \"#utility.yul\":4816:4904   */\n      mstore\n        /* \"#utility.yul\":4923:4927   */\n      0x01\n        /* \"#utility.yul\":4920:4921   */\n      0x04\n        /* \"#utility.yul\":4913:4928   */\n      mstore\n        /* \"#utility.yul\":4947:4951   */\n      0x24\n        /* \"#utility.yul\":4944:4945   */\n      0x00\n        /* \"#utility.yul\":4937:4952   */\n      revert\n        /* \"#utility.yul\":4964:5144   */\n    tag_117:\n        /* \"#utility.yul\":5012:5089   */\n      0x4e487b7100000000000000000000000000000000000000000000000000000000\n        /* \"#utility.yul\":5009:5010   */\n      0x00\n        /* \"#utility.yul\":5002:5090   */\n      mstore\n        /* \"#utility.yul\":5109:5113   */\n      0x11\n        /* \"#utility.yul\":5106:5107   */\n      0x04\n        /* \"#utility.yul\":5099:5114   */\n      mstore\n        /* \"#utility.yul\":5133:5137   */\n      0x24\n        /* \"#utility.yul\":5130:5131   */\n      0x00\n        /* \"#utility.yul\":5123:5138   */\n      revert\n        /* \"#utility.yul\":5273:5390   */\n    tag_75:\n        /* \"#utility.yul\":5382:5383   */\n      0x00\n        /* \"#utility.yul\":5379:5380   */\n      dup1\n        /* \"#utility.yul\":5372:5384   */\n      revert\n        /* \"#utility.yul\":5396:5567   */\n    tag_91:\n        /* \"#utility.yul\":5536:5559   */\n      0x596f7520617265206e6f7420746865206f776e65720000000000000000000000\n        /* \"#utility.yul\":5532:5533   */\n      0x00\n        /* \"#utility.yul\":5524:5530   */\n      dup3\n        /* \"#utility.yul\":5520:5534   */\n      add\n        /* \"#utility.yul\":5513:5560   */\n      mstore\n        /* \"#utility.yul\":5396:5567   */\n      pop\n      jump\t// out\n        /* \"#utility.yul\":5573:5750   */\n    tag_96:\n        /* \"#utility.yul\":5713:5742   */\n      0x796f7520646f6e2774206861766520656e6f756768206d6f6e65790000000000\n        /* \"#utility.yul\":5709:5710   */\n      0x00\n        /* \"#utility.yul\":5701:5707   */\n      dup3\n        /* \"#utility.yul\":5697:5711   */\n      add\n        /* \"#utility.yul\":5690:5743   */\n      mstore\n        /* \"#utility.yul\":5573:5750   */\n      pop\n      jump\t// out\n        /* \"#utility.yul\":5756:5878   */\n    tag_63:\n        /* \"#utility.yul\":5829:5853   */\n      tag_139\n        /* \"#utility.yul\":5847:5852   */\n      dup2\n        /* \"#utility.yul\":5829:5853   */\n      tag_85\n      jump\t// in\n    tag_139:\n        /* \"#utility.yul\":5822:5827   */\n      dup2\n        /* \"#utility.yul\":5819:5854   */\n      eq\n        /* \"#utility.yul\":5809:5872   */\n      tag_140\n      jumpi\n        /* \"#utility.yul\":5868:5869   */\n      0x00\n        /* \"#utility.yul\":5865:5866   */\n      dup1\n        /* \"#utility.yul\":5858:5870   */\n      revert\n        /* \"#utility.yul\":5809:5872   */\n    tag_140:\n        /* \"#utility.yul\":5756:5878   */\n      pop\n      jump\t// out\n        /* \"#utility.yul\":5884:6022   */\n    tag_67:\n        /* \"#utility.yul\":5965:5997   */\n      tag_142\n        /* \"#utility.yul\":5991:5996   */\n      dup2\n        /* \"#utility.yul\":5965:5997   */\n      tag_126\n      jump\t// in\n    tag_142:\n        /* \"#utility.yul\":5958:5963   */\n      dup2\n        /* \"#utility.yul\":5955:5998   */\n      eq\n        /* \"#utility.yul\":5945:6016   */\n      tag_143\n      jumpi\n        /* \"#utility.yul\":6012:6013   */\n      0x00\n        /* \"#utility.yul\":6009:6010   */\n      dup1\n        /* \"#utility.yul\":6002:6014   */\n      revert\n        /* \"#utility.yul\":5945:6016   */\n    tag_143:\n        /* \"#utility.yul\":5884:6022   */\n      pop\n      jump\t// out\n        /* \"#utility.yul\":6028:6150   */\n    tag_71:\n        /* \"#utility.yul\":6101:6125   */\n      tag_145\n        /* \"#utility.yul\":6119:6124   */\n      dup2\n        /* \"#utility.yul\":6101:6125   */\n      tag_100\n      jump\t// in\n    tag_145:\n        /* \"#utility.yul\":6094:6099   */\n      dup2\n        /* \"#utility.yul\":6091:6126   */\n      eq\n        /* \"#utility.yul\":6081:6144   */\n      tag_146\n      jumpi\n        /* \"#utility.yul\":6140:6141   */\n      0x00\n        /* \"#utility.yul\":6137:6138   */\n      dup1\n        /* \"#utility.yul\":6130:6142   */\n      revert\n        /* \"#utility.yul\":6081:6144   */\n    tag_146:\n        /* \"#utility.yul\":6028:6150   */\n      pop\n      jump\t// out\n\n    auxdata: 0xa2646970667358221220ef91703cd2861b7c11ce9c651b45fd017b1e6957c2e3858a17549dd3be13c27764736f6c63430008070033\n}\n",
				"bytecode": {
					"linkReferences": {},
					"object": "608060405234801561001057600080fd5b5033600160006101000a81548173ffffffffffffffffffffffffffffffffffffffff021916908373ffffffffffffffffffffffffffffffffffffffff160217905550610846806100616000396000f3fe60806040526004361061004e5760003560e01c80638547472814610067578063893d20e81461007e578063d18a42e1146100a9578063d9230e81146100e6578063f274c897146100f05761005d565b3661005d5761005b61010c565b005b61006561010c565b005b34801561007357600080fd5b5061007c6101fb565b005b34801561008a57600080fd5b506100936102c6565b6040516100a091906105b7565b60405180910390f35b3480156100b557600080fd5b506100d060048036038101906100cb91906104e6565b6102cb565b6040516100dd9190610612565b60405180910390f35b6100ee61010c565b005b61010a60048036038101906101059190610513565b6102e3565b005b6000803373ffffffffffffffffffffffffffffffffffffffff1673ffffffffffffffffffffffffffffffffffffffff16815260200190815260200160002054346000803373ffffffffffffffffffffffffffffffffffffffff1673ffffffffffffffffffffffffffffffffffffffff16815260200190815260200160002054610195919061063e565b10156101a4576101a3610716565b5b346000803373ffffffffffffffffffffffffffffffffffffffff1673ffffffffffffffffffffffffffffffffffffffff16815260200190815260200160002060008282546101f2919061063e565b92505081905550565b600160009054906101000a900473ffffffffffffffffffffffffffffffffffffffff1673ffffffffffffffffffffffffffffffffffffffff163373ffffffffffffffffffffffffffffffffffffffff161461028b576040517f08c379a0000000000000000000000000000000000000000000000000000000008152600401610282906105d2565b60405180910390fd5b600160009054906101000a900473ffffffffffffffffffffffffffffffffffffffff1673ffffffffffffffffffffffffffffffffffffffff16ff5b600090565b60006020528060005260406000206000915090505481565b6000803373ffffffffffffffffffffffffffffffffffffffff1673ffffffffffffffffffffffffffffffffffffffff16815260200190815260200160002054811115610364576040517f08c379a000000000000000000000000000000000000000000000000000000000815260040161035b906105f2565b60405180910390fd5b806000803373ffffffffffffffffffffffffffffffffffffffff1673ffffffffffffffffffffffffffffffffffffffff168152602001908152602001600020546103ae9190610694565b346000803373ffffffffffffffffffffffffffffffffffffffff1673ffffffffffffffffffffffffffffffffffffffff168152602001908152602001600020546103f8919061063e565b101561040757610406610716565b5b806000803373ffffffffffffffffffffffffffffffffffffffff1673ffffffffffffffffffffffffffffffffffffffff16815260200190815260200160002060008282546104559190610694565b925050819055508173ffffffffffffffffffffffffffffffffffffffff166108fc829081150290604051600060405180830381858888f193505050501580156104a2573d6000803e3d6000fd5b505050565b6000813590506104b6816107cb565b92915050565b6000813590506104cb816107e2565b92915050565b6000813590506104e0816107f9565b92915050565b6000602082840312156104fc576104fb610774565b5b600061050a848285016104a7565b91505092915050565b6000806040838503121561052a57610529610774565b5b6000610538858286016104bc565b9250506020610549858286016104d1565b9150509250929050565b61055c816106c8565b82525050565b600061056f60158361062d565b915061057a82610779565b602082019050919050565b6000610592601b8361062d565b915061059d826107a2565b602082019050919050565b6105b18161070c565b82525050565b60006020820190506105cc6000830184610553565b92915050565b600060208201905081810360008301526105eb81610562565b9050919050565b6000602082019050818103600083015261060b81610585565b9050919050565b600060208201905061062760008301846105a8565b92915050565b600082825260208201905092915050565b60006106498261070c565b91506106548361070c565b9250827fffffffffffffffffffffffffffffffffffffffffffffffffffffffffffffffff0382111561068957610688610745565b5b828201905092915050565b600061069f8261070c565b91506106aa8361070c565b9250828210156106bd576106bc610745565b5b828203905092915050565b60006106d3826106ec565b9050919050565b60006106e5826106ec565b9050919050565b600073ffffffffffffffffffffffffffffffffffffffff82169050919050565b6000819050919050565b7f4e487b7100000000000000000000000000000000000000000000000000000000600052600160045260246000fd5b7f4e487b7100000000000000000000000000000000000000000000000000000000600052601160045260246000fd5b600080fd5b7f596f7520617265206e6f7420746865206f776e65720000000000000000000000600082015250565b7f796f7520646f6e2774206861766520656e6f756768206d6f6e65790000000000600082015250565b6107d4816106c8565b81146107df57600080fd5b50565b6107eb816106da565b81146107f657600080fd5b50565b6108028161070c565b811461080d57600080fd5b5056fea2646970667358221220ef91703cd2861b7c11ce9c651b45fd017b1e6957c2e3858a17549dd3be13c27764736f6c63430008070033",
					"opcodes": "PUSH1 0x80 PUSH1 0x40 MSTORE CALLVALUE DUP1 ISZERO PUSH2 0x10 JUMPI PUSH1 0x0 DUP1 REVERT JUMPDEST POP CALLER PUSH1 0x1 PUSH1 0x0 PUSH2 0x100 EXP DUP2 SLOAD DUP2 PUSH20 0xFFFFFFFFFFFFFFFFFFFFFFFFFFFFFFFFFFFFFFFF MUL NOT AND SWAP1 DUP4 PUSH20 0xFFFFFFFFFFFFFFFFFFFFFFFFFFFFFFFFFFFFFFFF AND MUL OR SWAP1 SSTORE POP PUSH2 0x846 DUP1 PUSH2 0x61 PUSH1 0x0 CODECOPY PUSH1 0x0 RETURN INVALID PUSH1 0x80 PUSH1 0x40 MSTORE PUSH1 0x4 CALLDATASIZE LT PUSH2 0x4E JUMPI PUSH1 0x0 CALLDATALOAD PUSH1 0xE0 SHR DUP1 PUSH4 0x85474728 EQ PUSH2 0x67 JUMPI DUP1 PUSH4 0x893D20E8 EQ PUSH2 0x7E JUMPI DUP1 PUSH4 0xD18A42E1 EQ PUSH2 0xA9 JUMPI DUP1 PUSH4 0xD9230E81 EQ PUSH2 0xE6 JUMPI DUP1 PUSH4 0xF274C897 EQ PUSH2 0xF0 JUMPI PUSH2 0x5D JUMP JUMPDEST CALLDATASIZE PUSH2 0x5D JUMPI PUSH2 0x5B PUSH2 0x10C JUMP JUMPDEST STOP JUMPDEST PUSH2 0x65 PUSH2 0x10C JUMP JUMPDEST STOP JUMPDEST CALLVALUE DUP1 ISZERO PUSH2 0x73 JUMPI PUSH1 0x0 DUP1 REVERT JUMPDEST POP PUSH2 0x7C PUSH2 0x1FB JUMP JUMPDEST STOP JUMPDEST CALLVALUE DUP1 ISZERO PUSH2 0x8A JUMPI PUSH1 0x0 DUP1 REVERT JUMPDEST POP PUSH2 0x93 PUSH2 0x2C6 JUMP JUMPDEST PUSH1 0x40 MLOAD PUSH2 0xA0 SWAP2 SWAP1 PUSH2 0x5B7 JUMP JUMPDEST PUSH1 0x40 MLOAD DUP1 SWAP2 SUB SWAP1 RETURN JUMPDEST CALLVALUE DUP1 ISZERO PUSH2 0xB5 JUMPI PUSH1 0x0 DUP1 REVERT JUMPDEST POP PUSH2 0xD0 PUSH1 0x4 DUP1 CALLDATASIZE SUB DUP2 ADD SWAP1 PUSH2 0xCB SWAP2 SWAP1 PUSH2 0x4E6 JUMP JUMPDEST PUSH2 0x2CB JUMP JUMPDEST PUSH1 0x40 MLOAD PUSH2 0xDD SWAP2 SWAP1 PUSH2 0x612 JUMP JUMPDEST PUSH1 0x40 MLOAD DUP1 SWAP2 SUB SWAP1 RETURN JUMPDEST PUSH2 0xEE PUSH2 0x10C JUMP JUMPDEST STOP JUMPDEST PUSH2 0x10A PUSH1 0x4 DUP1 CALLDATASIZE SUB DUP2 ADD SWAP1 PUSH2 0x105 SWAP2 SWAP1 PUSH2 0x513 JUMP JUMPDEST PUSH2 0x2E3 JUMP JUMPDEST STOP JUMPDEST PUSH1 0x0 DUP1 CALLER PUSH20 0xFFFFFFFFFFFFFFFFFFFFFFFFFFFFFFFFFFFFFFFF AND PUSH20 0xFFFFFFFFFFFFFFFFFFFFFFFFFFFFFFFFFFFFFFFF AND DUP2 MSTORE PUSH1 0x20 ADD SWAP1 DUP2 MSTORE PUSH1 0x20 ADD PUSH1 0x0 KECCAK256 SLOAD CALLVALUE PUSH1 0x0 DUP1 CALLER PUSH20 0xFFFFFFFFFFFFFFFFFFFFFFFFFFFFFFFFFFFFFFFF AND PUSH20 0xFFFFFFFFFFFFFFFFFFFFFFFFFFFFFFFFFFFFFFFF AND DUP2 MSTORE PUSH1 0x20 ADD SWAP1 DUP2 MSTORE PUSH1 0x20 ADD PUSH1 0x0 KECCAK256 SLOAD PUSH2 0x195 SWAP2 SWAP1 PUSH2 0x63E JUMP JUMPDEST LT ISZERO PUSH2 0x1A4 JUMPI PUSH2 0x1A3 PUSH2 0x716 JUMP JUMPDEST JUMPDEST CALLVALUE PUSH1 0x0 DUP1 CALLER PUSH20 0xFFFFFFFFFFFFFFFFFFFFFFFFFFFFFFFFFFFFFFFF AND PUSH20 0xFFFFFFFFFFFFFFFFFFFFFFFFFFFFFFFFFFFFFFFF AND DUP2 MSTORE PUSH1 0x20 ADD SWAP1 DUP2 MSTORE PUSH1 0x20 ADD PUSH1 0x0 KECCAK256 PUSH1 0x0 DUP3 DUP3 SLOAD PUSH2 0x1F2 SWAP2 SWAP1 PUSH2 0x63E JUMP JUMPDEST SWAP3 POP POP DUP2 SWAP1 SSTORE POP JUMP JUMPDEST PUSH1 0x1 PUSH1 0x0 SWAP1 SLOAD SWAP1 PUSH2 0x100 EXP SWAP1 DIV PUSH20 0xFFFFFFFFFFFFFFFFFFFFFFFFFFFFFFFFFFFFFFFF AND PUSH20 0xFFFFFFFFFFFFFFFFFFFFFFFFFFFFFFFFFFFFFFFF AND CALLER PUSH20 0xFFFFFFFFFFFFFFFFFFFFFFFFFFFFFFFFFFFFFFFF AND EQ PUSH2 0x28B JUMPI PUSH1 0x40 MLOAD PUSH32 0x8C379A000000000000000000000000000000000000000000000000000000000 DUP2 MSTORE PUSH1 0x4 ADD PUSH2 0x282 SWAP1 PUSH2 0x5D2 JUMP JUMPDEST PUSH1 0x40 MLOAD DUP1 SWAP2 SUB SWAP1 REVERT JUMPDEST PUSH1 0x1 PUSH1 0x0 SWAP1 SLOAD SWAP1 PUSH2 0x100 EXP SWAP1 DIV PUSH20 0xFFFFFFFFFFFFFFFFFFFFFFFFFFFFFFFFFFFFFFFF AND PUSH20 0xFFFFFFFFFFFFFFFFFFFFFFFFFFFFFFFFFFFFFFFF AND SELFDESTRUCT JUMPDEST PUSH1 0x0 SWAP1 JUMP JUMPDEST PUSH1 0x0 PUSH1 0x20 MSTORE DUP1 PUSH1 0x0 MSTORE PUSH1 0x40 PUSH1 0x0 KECCAK256 PUSH1 0x0 SWAP2 POP SWAP1 POP SLOAD DUP2 JUMP JUMPDEST PUSH1 0x0 DUP1 CALLER PUSH20 0xFFFFFFFFFFFFFFFFFFFFFFFFFFFFFFFFFFFFFFFF AND PUSH20 0xFFFFFFFFFFFFFFFFFFFFFFFFFFFFFFFFFFFFFFFF AND DUP2 MSTORE PUSH1 0x20 ADD SWAP1 DUP2 MSTORE PUSH1 0x20 ADD PUSH1 0x0 KECCAK256 SLOAD DUP2 GT ISZERO PUSH2 0x364 JUMPI PUSH1 0x40 MLOAD PUSH32 0x8C379A000000000000000000000000000000000000000000000000000000000 DUP2 MSTORE PUSH1 0x4 ADD PUSH2 0x35B SWAP1 PUSH2 0x5F2 JUMP JUMPDEST PUSH1 0x40 MLOAD DUP1 SWAP2 SUB SWAP1 REVERT JUMPDEST DUP1 PUSH1 0x0 DUP1 CALLER PUSH20 0xFFFFFFFFFFFFFFFFFFFFFFFFFFFFFFFFFFFFFFFF AND PUSH20 0xFFFFFFFFFFFFFFFFFFFFFFFFFFFFFFFFFFFFFFFF AND DUP2 MSTORE PUSH1 0x20 ADD SWAP1 DUP2 MSTORE PUSH1 0x20 ADD PUSH1 0x0 KECCAK256 SLOAD PUSH2 0x3AE SWAP2 SWAP1 PUSH2 0x694 JUMP JUMPDEST CALLVALUE PUSH1 0x0 DUP1 CALLER PUSH20 0xFFFFFFFFFFFFFFFFFFFFFFFFFFFFFFFFFFFFFFFF AND PUSH20 0xFFFFFFFFFFFFFFFFFFFFFFFFFFFFFFFFFFFFFFFF AND DUP2 MSTORE PUSH1 0x20 ADD SWAP1 DUP2 MSTORE PUSH1 0x20 ADD PUSH1 0x0 KECCAK256 SLOAD PUSH2 0x3F8 SWAP2 SWAP1 PUSH2 0x63E JUMP JUMPDEST LT ISZERO PUSH2 0x407 JUMPI PUSH2 0x406 PUSH2 0x716 JUMP JUMPDEST JUMPDEST DUP1 PUSH1 0x0 DUP1 CALLER PUSH20 0xFFFFFFFFFFFFFFFFFFFFFFFFFFFFFFFFFFFFFFFF AND PUSH20 0xFFFFFFFFFFFFFFFFFFFFFFFFFFFFFFFFFFFFFFFF AND DUP2 MSTORE PUSH1 0x20 ADD SWAP1 DUP2 MSTORE PUSH1 0x20 ADD PUSH1 0x0 KECCAK256 PUSH1 0x0 DUP3 DUP3 SLOAD PUSH2 0x455 SWAP2 SWAP1 PUSH2 0x694 JUMP JUMPDEST SWAP3 POP POP DUP2 SWAP1 SSTORE POP DUP2 PUSH20 0xFFFFFFFFFFFFFFFFFFFFFFFFFFFFFFFFFFFFFFFF AND PUSH2 0x8FC DUP3 SWAP1 DUP2 ISZERO MUL SWAP1 PUSH1 0x40 MLOAD PUSH1 0x0 PUSH1 0x40 MLOAD DUP1 DUP4 SUB DUP2 DUP6 DUP9 DUP9 CALL SWAP4 POP POP POP POP ISZERO DUP1 ISZERO PUSH2 0x4A2 JUMPI RETURNDATASIZE PUSH1 0x0 DUP1 RETURNDATACOPY RETURNDATASIZE PUSH1 0x0 REVERT JUMPDEST POP POP POP JUMP JUMPDEST PUSH1 0x0 DUP2 CALLDATALOAD SWAP1 POP PUSH2 0x4B6 DUP2 PUSH2 0x7CB JUMP JUMPDEST SWAP3 SWAP2 POP POP JUMP JUMPDEST PUSH1 0x0 DUP2 CALLDATALOAD SWAP1 POP PUSH2 0x4CB DUP2 PUSH2 0x7E2 JUMP JUMPDEST SWAP3 SWAP2 POP POP JUMP JUMPDEST PUSH1 0x0 DUP2 CALLDATALOAD SWAP1 POP PUSH2 0x4E0 DUP2 PUSH2 0x7F9 JUMP JUMPDEST SWAP3 SWAP2 POP POP JUMP JUMPDEST PUSH1 0x0 PUSH1 0x20 DUP3 DUP5 SUB SLT ISZERO PUSH2 0x4FC JUMPI PUSH2 0x4FB PUSH2 0x774 JUMP JUMPDEST JUMPDEST PUSH1 0x0 PUSH2 0x50A DUP5 DUP3 DUP6 ADD PUSH2 0x4A7 JUMP JUMPDEST SWAP2 POP POP SWAP3 SWAP2 POP POP JUMP JUMPDEST PUSH1 0x0 DUP1 PUSH1 0x40 DUP4 DUP6 SUB SLT ISZERO PUSH2 0x52A JUMPI PUSH2 0x529 PUSH2 0x774 JUMP JUMPDEST JUMPDEST PUSH1 0x0 PUSH2 0x538 DUP6 DUP3 DUP7 ADD PUSH2 0x4BC JUMP JUMPDEST SWAP3 POP POP PUSH1 0x20 PUSH2 0x549 DUP6 DUP3 DUP7 ADD PUSH2 0x4D1 JUMP JUMPDEST SWAP2 POP POP SWAP3 POP SWAP3 SWAP1 POP JUMP JUMPDEST PUSH2 0x55C DUP2 PUSH2 0x6C8 JUMP JUMPDEST DUP3 MSTORE POP POP JUMP JUMPDEST PUSH1 0x0 PUSH2 0x56F PUSH1 0x15 DUP4 PUSH2 0x62D JUMP JUMPDEST SWAP2 POP PUSH2 0x57A DUP3 PUSH2 0x779 JUMP JUMPDEST PUSH1 0x20 DUP3 ADD SWAP1 POP SWAP2 SWAP1 POP JUMP JUMPDEST PUSH1 0x0 PUSH2 0x592 PUSH1 0x1B DUP4 PUSH2 0x62D JUMP JUMPDEST SWAP2 POP PUSH2 0x59D DUP3 PUSH2 0x7A2 JUMP JUMPDEST PUSH1 0x20 DUP3 ADD SWAP1 POP SWAP2 SWAP1 POP JUMP JUMPDEST PUSH2 0x5B1 DUP2 PUSH2 0x70C JUMP JUMPDEST DUP3 MSTORE POP POP JUMP JUMPDEST PUSH1 0x0 PUSH1 0x20 DUP3 ADD SWAP1 POP PUSH2 0x5CC PUSH1 0x0 DUP4 ADD DUP5 PUSH2 0x553 JUMP JUMPDEST SWAP3 SWAP2 POP POP JUMP JUMPDEST PUSH1 0x0 PUSH1 0x20 DUP3 ADD SWAP1 POP DUP2 DUP2 SUB PUSH1 0x0 DUP4 ADD MSTORE PUSH2 0x5EB DUP2 PUSH2 0x562 JUMP JUMPDEST SWAP1 POP SWAP2 SWAP1 POP JUMP JUMPDEST PUSH1 0x0 PUSH1 0x20 DUP3 ADD SWAP1 POP DUP2 DUP2 SUB PUSH1 0x0 DUP4 ADD MSTORE PUSH2 0x60B DUP2 PUSH2 0x585 JUMP JUMPDEST SWAP1 POP SWAP2 SWAP1 POP JUMP JUMPDEST PUSH1 0x0 PUSH1 0x20 DUP3 ADD SWAP1 POP PUSH2 0x627 PUSH1 0x0 DUP4 ADD DUP5 PUSH2 0x5A8 JUMP JUMPDEST SWAP3 SWAP2 POP POP JUMP JUMPDEST PUSH1 0x0 DUP3 DUP3 MSTORE PUSH1 0x20 DUP3 ADD SWAP1 POP SWAP3 SWAP2 POP POP JUMP JUMPDEST PUSH1 0x0 PUSH2 0x649 DUP3 PUSH2 0x70C JUMP JUMPDEST SWAP2 POP PUSH2 0x654 DUP4 PUSH2 0x70C JUMP JUMPDEST SWAP3 POP DUP3 PUSH32 0xFFFFFFFFFFFFFFFFFFFFFFFFFFFFFFFFFFFFFFFFFFFFFFFFFFFFFFFFFFFFFFFF SUB DUP3 GT ISZERO PUSH2 0x689 JUMPI PUSH2 0x688 PUSH2 0x745 JUMP JUMPDEST JUMPDEST DUP3 DUP3 ADD SWAP1 POP SWAP3 SWAP2 POP POP JUMP JUMPDEST PUSH1 0x0 PUSH2 0x69F DUP3 PUSH2 0x70C JUMP JUMPDEST SWAP2 POP PUSH2 0x6AA DUP4 PUSH2 0x70C JUMP JUMPDEST SWAP3 POP DUP3 DUP3 LT ISZERO PUSH2 0x6BD JUMPI PUSH2 0x6BC PUSH2 0x745 JUMP JUMPDEST JUMPDEST DUP3 DUP3 SUB SWAP1 POP SWAP3 SWAP2 POP POP JUMP JUMPDEST PUSH1 0x0 PUSH2 0x6D3 DUP3 PUSH2 0x6EC JUMP JUMPDEST SWAP1 POP SWAP2 SWAP1 POP JUMP JUMPDEST PUSH1 0x0 PUSH2 0x6E5 DUP3 PUSH2 0x6EC JUMP JUMPDEST SWAP1 POP SWAP2 SWAP1 POP JUMP JUMPDEST PUSH1 0x0 PUSH20 0xFFFFFFFFFFFFFFFFFFFFFFFFFFFFFFFFFFFFFFFF DUP3 AND SWAP1 POP SWAP2 SWAP1 POP JUMP JUMPDEST PUSH1 0x0 DUP2 SWAP1 POP SWAP2 SWAP1 POP JUMP JUMPDEST PUSH32 0x4E487B7100000000000000000000000000000000000000000000000000000000 PUSH1 0x0 MSTORE PUSH1 0x1 PUSH1 0x4 MSTORE PUSH1 0x24 PUSH1 0x0 REVERT JUMPDEST PUSH32 0x4E487B7100000000000000000000000000000000000000000000000000000000 PUSH1 0x0 MSTORE PUSH1 0x11 PUSH1 0x4 MSTORE PUSH1 0x24 PUSH1 0x0 REVERT JUMPDEST PUSH1 0x0 DUP1 REVERT JUMPDEST PUSH32 0x596F7520617265206E6F7420746865206F776E65720000000000000000000000 PUSH1 0x0 DUP3 ADD MSTORE POP JUMP JUMPDEST PUSH32 0x796F7520646F6E2774206861766520656E6F756768206D6F6E65790000000000 PUSH1 0x0 DUP3 ADD MSTORE POP JUMP JUMPDEST PUSH2 0x7D4 DUP2 PUSH2 0x6C8 JUMP JUMPDEST DUP2 EQ PUSH2 0x7DF JUMPI PUSH1 0x0 DUP1 REVERT JUMPDEST POP JUMP JUMPDEST PUSH2 0x7EB DUP2 PUSH2 0x6DA JUMP JUMPDEST DUP2 EQ PUSH2 0x7F6 JUMPI PUSH1 0x0 DUP1 REVERT JUMPDEST POP JUMP JUMPDEST PUSH2 0x802 DUP2 PUSH2 0x70C JUMP JUMPDEST DUP2 EQ PUSH2 0x80D JUMPI PUSH1 0x0 DUP1 REVERT JUMPDEST POP JUMP INVALID LOG2 PUSH5 0x6970667358 0x22 SLT KECCAK256 0xEF SWAP2 PUSH17 0x3CD2861B7C11CE9C651B45FD017B1E6957 0xC2 0xE3 DUP6 DUP11 OR SLOAD SWAP14 0xD3 0xBE SGT 0xC2 PUSH24 0x64736F6C6343000807003300000000000000000000000000 "
				},
				"gasEstimates": {
					"creation": {
						"codeDepositCost": "423600",
						"executionCost": "24727",
						"totalCost": "448327"
					},
					"external": {
						"": "infinite",
						"balanceReceived(address)": "2836",
						"destroySmartContract()": "32028",
						"getOwner()": "378",
						"reveiveMoney()": "infinite",
						"withdrawMoney(address,uint256)": "infinite"
					}
				},
				"methodIdentifiers": {
					"balanceReceived(address)": "d18a42e1",
					"destroySmartContract()": "85474728",
					"getOwner()": "893d20e8",
					"reveiveMoney()": "d9230e81",
					"withdrawMoney(address,uint256)": "f274c897"
				}
			},
			"storageLayout": {
				"storage": [
					{
						"astId": 5,
						"contract": "Function.sol:Function",
						"label": "balanceReceived",
						"offset": 0,
						"slot": "0",
						"type": "t_mapping(t_address,t_uint256)"
					},
					{
						"astId": 7,
						"contract": "Function.sol:Function",
						"label": "owner",
						"offset": 0,
						"slot": "1",
						"type": "t_address_payable"
					}
				],
				"types": {
					"t_address": {
						"encoding": "inplace",
						"label": "address",
						"numberOfBytes": "20"
					},
					"t_address_payable": {
						"encoding": "inplace",
						"label": "address payable",
						"numberOfBytes": "20"
					},
					"t_mapping(t_address,t_uint256)": {
						"encoding": "mapping",
						"key": "t_address",
						"label": "mapping(address => uint256)",
						"numberOfBytes": "32",
						"value": "t_uint256"
					},
					"t_uint256": {
						"encoding": "inplace",
						"label": "uint256",
						"numberOfBytes": "32"
					}
				}
			},
			"userdoc": {
				"kind": "user",
				"methods": {},
				"version": 1
			}
		}
	}
}