{
	"Variable.sol": {
		"WorkingWithVariables": {
			"abi": [
				{
					"inputs": [],
					"name": "decreamentUint8",
					"outputs": [],
					"stateMutability": "nonpayable",
					"type": "function"
				},
				{
					"inputs": [],
					"name": "increamentUint8",
					"outputs": [],
					"stateMutability": "nonpayable",
					"type": "function"
				},
				{
					"inputs": [],
					"name": "myBool",
					"outputs": [
						{
							"internalType": "bool",
							"name": "",
							"type": "bool"
						}
					],
					"stateMutability": "view",
					"type": "function"
				},
				{
					"inputs": [],
					"name": "myUint",
					"outputs": [
						{
							"internalType": "uint256",
							"name": "",
							"type": "uint256"
						}
					],
					"stateMutability": "view",
					"type": "function"
				},
				{
					"inputs": [],
					"name": "myUint8",
					"outputs": [
						{
							"internalType": "uint8",
							"name": "",
							"type": "uint8"
						}
					],
					"stateMutability": "view",
					"type": "function"
				},
				{
					"inputs": [
						{
							"internalType": "bool",
							"name": "_myBool",
							"type": "bool"
						}
					],
					"name": "setMyBool",
					"outputs": [],
					"stateMutability": "nonpayable",
					"type": "function"
				},
				{
					"inputs": [
						{
							"internalType": "uint256",
							"name": "_myUint",
							"type": "uint256"
						}
					],
					"name": "setMyUint",
					"outputs": [],
					"stateMutability": "nonpayable",
					"type": "function"
				}
			],
			"devdoc": {
				"kind": "dev",
				"methods": {},
				"version": 1
			},
			"evm": {
				"assembly": "    /* \"Variable.sol\":27:449  contract WorkingWithVariables{\r... */\n  mstore(0x40, 0x80)\n  callvalue\n  dup1\n  iszero\n  tag_1\n  jumpi\n  0x00\n  dup1\n  revert\ntag_1:\n  pop\n  dataSize(sub_0)\n  dup1\n  dataOffset(sub_0)\n  0x00\n  codecopy\n  0x00\n  return\nstop\n\nsub_0: assembly {\n        /* \"Variable.sol\":27:449  contract WorkingWithVariables{\r... */\n      mstore(0x40, 0x80)\n      callvalue\n      dup1\n      iszero\n      tag_1\n      jumpi\n      0x00\n      dup1\n      revert\n    tag_1:\n      pop\n      jumpi(tag_2, lt(calldatasize, 0x04))\n      shr(0xe0, calldataload(0x00))\n      dup1\n      0xdebbaf2b\n      gt\n      tag_10\n      jumpi\n      dup1\n      0xdebbaf2b\n      eq\n      tag_6\n      jumpi\n      dup1\n      0xe2a4b2af\n      eq\n      tag_7\n      jumpi\n      dup1\n      0xe492fd84\n      eq\n      tag_8\n      jumpi\n      dup1\n      0xeb1b30d9\n      eq\n      tag_9\n      jumpi\n      jump(tag_2)\n    tag_10:\n      dup1\n      0x06540f7e\n      eq\n      tag_3\n      jumpi\n      dup1\n      0x33b87eeb\n      eq\n      tag_4\n      jumpi\n      dup1\n      0x6deecdbe\n      eq\n      tag_5\n      jumpi\n    tag_2:\n      0x00\n      dup1\n      revert\n        /* \"Variable.sol\":63:84  uint256 public myUint */\n    tag_3:\n      tag_11\n      tag_12\n      jump\t// in\n    tag_11:\n      mload(0x40)\n      tag_13\n      swap2\n      swap1\n      tag_14\n      jump\t// in\n    tag_13:\n      mload(0x40)\n      dup1\n      swap2\n      sub\n      swap1\n      return\n        /* \"Variable.sol\":318:379  function increamentUint8() public{\r... */\n    tag_4:\n      tag_15\n      tag_16\n      jump\t// in\n    tag_15:\n      stop\n        /* \"Variable.sol\":175:193  bool public myBool */\n    tag_5:\n      tag_17\n      tag_18\n      jump\t// in\n    tag_17:\n      mload(0x40)\n      tag_19\n      swap2\n      swap1\n      tag_20\n      jump\t// in\n    tag_19:\n      mload(0x40)\n      dup1\n      swap2\n      sub\n      swap1\n      return\n        /* \"Variable.sol\":385:446  function decreamentUint8() public{\r... */\n    tag_6:\n      tag_21\n      tag_22\n      jump\t// in\n    tag_21:\n      stop\n        /* \"Variable.sol\":285:305  uint8 public myUint8 */\n    tag_7:\n      tag_23\n      tag_24\n      jump\t// in\n    tag_23:\n      mload(0x40)\n      tag_25\n      swap2\n      swap1\n      tag_26\n      jump\t// in\n    tag_25:\n      mload(0x40)\n      dup1\n      swap2\n      sub\n      swap1\n      return\n        /* \"Variable.sol\":93:167  function setMyUint(uint _myUint) public{\r... */\n    tag_8:\n      tag_27\n      0x04\n      dup1\n      calldatasize\n      sub\n      dup2\n      add\n      swap1\n      tag_28\n      swap2\n      swap1\n      tag_29\n      jump\t// in\n    tag_28:\n      tag_30\n      jump\t// in\n    tag_27:\n      stop\n        /* \"Variable.sol\":202:277  function setMyBool (bool _myBool) public{\r... */\n    tag_9:\n      tag_31\n      0x04\n      dup1\n      calldatasize\n      sub\n      dup2\n      add\n      swap1\n      tag_32\n      swap2\n      swap1\n      tag_33\n      jump\t// in\n    tag_32:\n      tag_34\n      jump\t// in\n    tag_31:\n      stop\n        /* \"Variable.sol\":63:84  uint256 public myUint */\n    tag_12:\n      sload(0x00)\n      dup2\n      jump\t// out\n        /* \"Variable.sol\":318:379  function increamentUint8() public{\r... */\n    tag_16:\n        /* \"Variable.sol\":362:369  myUint8 */\n      0x01\n      dup1\n        /* \"Variable.sol\":362:371  myUint8++ */\n      dup2\n      dup2\n      swap1\n      sload\n      swap1\n      0x0100\n      exp\n      swap1\n      div\n      0xff\n      and\n      dup1\n      swap3\n      swap2\n      swap1\n      tag_36\n      swap1\n      tag_37\n      jump\t// in\n    tag_36:\n      swap2\n      swap1\n      0x0100\n      exp\n      dup2\n      sload\n      dup2\n      0xff\n      mul\n      not\n      and\n      swap1\n      dup4\n      0xff\n      and\n      mul\n      or\n      swap1\n      sstore\n      pop\n      pop\n        /* \"Variable.sol\":318:379  function increamentUint8() public{\r... */\n      jump\t// out\n        /* \"Variable.sol\":175:193  bool public myBool */\n    tag_18:\n      0x01\n      0x00\n      swap1\n      sload\n      swap1\n      0x0100\n      exp\n      swap1\n      div\n      0xff\n      and\n      dup2\n      jump\t// out\n        /* \"Variable.sol\":385:446  function decreamentUint8() public{\r... */\n    tag_22:\n        /* \"Variable.sol\":429:436  myUint8 */\n      0x01\n      dup1\n        /* \"Variable.sol\":429:438  myUint8++ */\n      dup2\n      dup2\n      swap1\n      sload\n      swap1\n      0x0100\n      exp\n      swap1\n      div\n      0xff\n      and\n      dup1\n      swap3\n      swap2\n      swap1\n      tag_39\n      swap1\n      tag_37\n      jump\t// in\n    tag_39:\n      swap2\n      swap1\n      0x0100\n      exp\n      dup2\n      sload\n      dup2\n      0xff\n      mul\n      not\n      and\n      swap1\n      dup4\n      0xff\n      and\n      mul\n      or\n      swap1\n      sstore\n      pop\n      pop\n        /* \"Variable.sol\":385:446  function decreamentUint8() public{\r... */\n      jump\t// out\n        /* \"Variable.sol\":285:305  uint8 public myUint8 */\n    tag_24:\n      0x01\n      dup1\n      sload\n      swap1\n      0x0100\n      exp\n      swap1\n      div\n      0xff\n      and\n      dup2\n      jump\t// out\n        /* \"Variable.sol\":93:167  function setMyUint(uint _myUint) public{\r... */\n    tag_30:\n        /* \"Variable.sol\":152:159  _myUint */\n      dup1\n        /* \"Variable.sol\":143:149  myUint */\n      0x00\n        /* \"Variable.sol\":143:159  myUint = _myUint */\n      dup2\n      swap1\n      sstore\n      pop\n        /* \"Variable.sol\":93:167  function setMyUint(uint _myUint) public{\r... */\n      pop\n      jump\t// out\n        /* \"Variable.sol\":202:277  function setMyBool (bool _myBool) public{\r... */\n    tag_34:\n        /* \"Variable.sol\":262:269  _myBool */\n      dup1\n        /* \"Variable.sol\":253:259  myBool */\n      0x01\n      0x00\n        /* \"Variable.sol\":253:269  myBool = _myBool */\n      0x0100\n      exp\n      dup2\n      sload\n      dup2\n      0xff\n      mul\n      not\n      and\n      swap1\n      dup4\n      iszero\n      iszero\n      mul\n      or\n      swap1\n      sstore\n      pop\n        /* \"Variable.sol\":202:277  function setMyBool (bool _myBool) public{\r... */\n      pop\n      jump\t// out\n        /* \"#utility.yul\":7:140   */\n    tag_43:\n        /* \"#utility.yul\":50:55   */\n      0x00\n        /* \"#utility.yul\":88:94   */\n      dup2\n        /* \"#utility.yul\":75:95   */\n      calldataload\n        /* \"#utility.yul\":66:95   */\n      swap1\n      pop\n        /* \"#utility.yul\":104:134   */\n      tag_45\n        /* \"#utility.yul\":128:133   */\n      dup2\n        /* \"#utility.yul\":104:134   */\n      tag_46\n      jump\t// in\n    tag_45:\n        /* \"#utility.yul\":7:140   */\n      swap3\n      swap2\n      pop\n      pop\n      jump\t// out\n        /* \"#utility.yul\":146:285   */\n    tag_47:\n        /* \"#utility.yul\":192:197   */\n      0x00\n        /* \"#utility.yul\":230:236   */\n      dup2\n        /* \"#utility.yul\":217:237   */\n      calldataload\n        /* \"#utility.yul\":208:237   */\n      swap1\n      pop\n        /* \"#utility.yul\":246:279   */\n      tag_49\n        /* \"#utility.yul\":273:278   */\n      dup2\n        /* \"#utility.yul\":246:279   */\n      tag_50\n      jump\t// in\n    tag_49:\n        /* \"#utility.yul\":146:285   */\n      swap3\n      swap2\n      pop\n      pop\n      jump\t// out\n        /* \"#utility.yul\":291:614   */\n    tag_33:\n        /* \"#utility.yul\":347:353   */\n      0x00\n        /* \"#utility.yul\":396:398   */\n      0x20\n        /* \"#utility.yul\":384:393   */\n      dup3\n        /* \"#utility.yul\":375:382   */\n      dup5\n        /* \"#utility.yul\":371:394   */\n      sub\n        /* \"#utility.yul\":367:399   */\n      slt\n        /* \"#utility.yul\":364:483   */\n      iszero\n      tag_52\n      jumpi\n        /* \"#utility.yul\":402:481   */\n      tag_53\n      tag_54\n      jump\t// in\n    tag_53:\n        /* \"#utility.yul\":364:483   */\n    tag_52:\n        /* \"#utility.yul\":522:523   */\n      0x00\n        /* \"#utility.yul\":547:597   */\n      tag_55\n        /* \"#utility.yul\":589:596   */\n      dup5\n        /* \"#utility.yul\":580:586   */\n      dup3\n        /* \"#utility.yul\":569:578   */\n      dup6\n        /* \"#utility.yul\":565:587   */\n      add\n        /* \"#utility.yul\":547:597   */\n      tag_43\n      jump\t// in\n    tag_55:\n        /* \"#utility.yul\":537:597   */\n      swap2\n      pop\n        /* \"#utility.yul\":493:607   */\n      pop\n        /* \"#utility.yul\":291:614   */\n      swap3\n      swap2\n      pop\n      pop\n      jump\t// out\n        /* \"#utility.yul\":620:949   */\n    tag_29:\n        /* \"#utility.yul\":679:685   */\n      0x00\n        /* \"#utility.yul\":728:730   */\n      0x20\n        /* \"#utility.yul\":716:725   */\n      dup3\n        /* \"#utility.yul\":707:714   */\n      dup5\n        /* \"#utility.yul\":703:726   */\n      sub\n        /* \"#utility.yul\":699:731   */\n      slt\n        /* \"#utility.yul\":696:815   */\n      iszero\n      tag_57\n      jumpi\n        /* \"#utility.yul\":734:813   */\n      tag_58\n      tag_54\n      jump\t// in\n    tag_58:\n        /* \"#utility.yul\":696:815   */\n    tag_57:\n        /* \"#utility.yul\":854:855   */\n      0x00\n        /* \"#utility.yul\":879:932   */\n      tag_59\n        /* \"#utility.yul\":924:931   */\n      dup5\n        /* \"#utility.yul\":915:921   */\n      dup3\n        /* \"#utility.yul\":904:913   */\n      dup6\n        /* \"#utility.yul\":900:922   */\n      add\n        /* \"#utility.yul\":879:932   */\n      tag_47\n      jump\t// in\n    tag_59:\n        /* \"#utility.yul\":869:932   */\n      swap2\n      pop\n        /* \"#utility.yul\":825:942   */\n      pop\n        /* \"#utility.yul\":620:949   */\n      swap3\n      swap2\n      pop\n      pop\n      jump\t// out\n        /* \"#utility.yul\":955:1064   */\n    tag_60:\n        /* \"#utility.yul\":1036:1057   */\n      tag_62\n        /* \"#utility.yul\":1051:1056   */\n      dup2\n        /* \"#utility.yul\":1036:1057   */\n      tag_63\n      jump\t// in\n    tag_62:\n        /* \"#utility.yul\":1031:1034   */\n      dup3\n        /* \"#utility.yul\":1024:1058   */\n      mstore\n        /* \"#utility.yul\":955:1064   */\n      pop\n      pop\n      jump\t// out\n        /* \"#utility.yul\":1070:1188   */\n    tag_64:\n        /* \"#utility.yul\":1157:1181   */\n      tag_66\n        /* \"#utility.yul\":1175:1180   */\n      dup2\n        /* \"#utility.yul\":1157:1181   */\n      tag_67\n      jump\t// in\n    tag_66:\n        /* \"#utility.yul\":1152:1155   */\n      dup3\n        /* \"#utility.yul\":1145:1182   */\n      mstore\n        /* \"#utility.yul\":1070:1188   */\n      pop\n      pop\n      jump\t// out\n        /* \"#utility.yul\":1194:1306   */\n    tag_68:\n        /* \"#utility.yul\":1277:1299   */\n      tag_70\n        /* \"#utility.yul\":1293:1298   */\n      dup2\n        /* \"#utility.yul\":1277:1299   */\n      tag_71\n      jump\t// in\n    tag_70:\n        /* \"#utility.yul\":1272:1275   */\n      dup3\n        /* \"#utility.yul\":1265:1300   */\n      mstore\n        /* \"#utility.yul\":1194:1306   */\n      pop\n      pop\n      jump\t// out\n        /* \"#utility.yul\":1312:1522   */\n    tag_20:\n        /* \"#utility.yul\":1399:1403   */\n      0x00\n        /* \"#utility.yul\":1437:1439   */\n      0x20\n        /* \"#utility.yul\":1426:1435   */\n      dup3\n        /* \"#utility.yul\":1422:1440   */\n      add\n        /* \"#utility.yul\":1414:1440   */\n      swap1\n      pop\n        /* \"#utility.yul\":1450:1515   */\n      tag_73\n        /* \"#utility.yul\":1512:1513   */\n      0x00\n        /* \"#utility.yul\":1501:1510   */\n      dup4\n        /* \"#utility.yul\":1497:1514   */\n      add\n        /* \"#utility.yul\":1488:1494   */\n      dup5\n        /* \"#utility.yul\":1450:1515   */\n      tag_60\n      jump\t// in\n    tag_73:\n        /* \"#utility.yul\":1312:1522   */\n      swap3\n      swap2\n      pop\n      pop\n      jump\t// out\n        /* \"#utility.yul\":1528:1750   */\n    tag_14:\n        /* \"#utility.yul\":1621:1625   */\n      0x00\n        /* \"#utility.yul\":1659:1661   */\n      0x20\n        /* \"#utility.yul\":1648:1657   */\n      dup3\n        /* \"#utility.yul\":1644:1662   */\n      add\n        /* \"#utility.yul\":1636:1662   */\n      swap1\n      pop\n        /* \"#utility.yul\":1672:1743   */\n      tag_75\n        /* \"#utility.yul\":1740:1741   */\n      0x00\n        /* \"#utility.yul\":1729:1738   */\n      dup4\n        /* \"#utility.yul\":1725:1742   */\n      add\n        /* \"#utility.yul\":1716:1722   */\n      dup5\n        /* \"#utility.yul\":1672:1743   */\n      tag_64\n      jump\t// in\n    tag_75:\n        /* \"#utility.yul\":1528:1750   */\n      swap3\n      swap2\n      pop\n      pop\n      jump\t// out\n        /* \"#utility.yul\":1756:1970   */\n    tag_26:\n        /* \"#utility.yul\":1845:1849   */\n      0x00\n        /* \"#utility.yul\":1883:1885   */\n      0x20\n        /* \"#utility.yul\":1872:1881   */\n      dup3\n        /* \"#utility.yul\":1868:1886   */\n      add\n        /* \"#utility.yul\":1860:1886   */\n      swap1\n      pop\n        /* \"#utility.yul\":1896:1963   */\n      tag_77\n        /* \"#utility.yul\":1960:1961   */\n      0x00\n        /* \"#utility.yul\":1949:1958   */\n      dup4\n        /* \"#utility.yul\":1945:1962   */\n      add\n        /* \"#utility.yul\":1936:1942   */\n      dup5\n        /* \"#utility.yul\":1896:1963   */\n      tag_68\n      jump\t// in\n    tag_77:\n        /* \"#utility.yul\":1756:1970   */\n      swap3\n      swap2\n      pop\n      pop\n      jump\t// out\n        /* \"#utility.yul\":2057:2147   */\n    tag_63:\n        /* \"#utility.yul\":2091:2098   */\n      0x00\n        /* \"#utility.yul\":2134:2139   */\n      dup2\n        /* \"#utility.yul\":2127:2140   */\n      iszero\n        /* \"#utility.yul\":2120:2141   */\n      iszero\n        /* \"#utility.yul\":2109:2141   */\n      swap1\n      pop\n        /* \"#utility.yul\":2057:2147   */\n      swap2\n      swap1\n      pop\n      jump\t// out\n        /* \"#utility.yul\":2153:2230   */\n    tag_67:\n        /* \"#utility.yul\":2190:2197   */\n      0x00\n        /* \"#utility.yul\":2219:2224   */\n      dup2\n        /* \"#utility.yul\":2208:2224   */\n      swap1\n      pop\n        /* \"#utility.yul\":2153:2230   */\n      swap2\n      swap1\n      pop\n      jump\t// out\n        /* \"#utility.yul\":2236:2322   */\n    tag_71:\n        /* \"#utility.yul\":2271:2278   */\n      0x00\n        /* \"#utility.yul\":2311:2315   */\n      0xff\n        /* \"#utility.yul\":2304:2309   */\n      dup3\n        /* \"#utility.yul\":2300:2316   */\n      and\n        /* \"#utility.yul\":2289:2316   */\n      swap1\n      pop\n        /* \"#utility.yul\":2236:2322   */\n      swap2\n      swap1\n      pop\n      jump\t// out\n        /* \"#utility.yul\":2328:2495   */\n    tag_37:\n        /* \"#utility.yul\":2365:2368   */\n      0x00\n        /* \"#utility.yul\":2388:2410   */\n      tag_84\n        /* \"#utility.yul\":2404:2409   */\n      dup3\n        /* \"#utility.yul\":2388:2410   */\n      tag_71\n      jump\t// in\n    tag_84:\n        /* \"#utility.yul\":2379:2410   */\n      swap2\n      pop\n        /* \"#utility.yul\":2432:2436   */\n      0xff\n        /* \"#utility.yul\":2425:2430   */\n      dup3\n        /* \"#utility.yul\":2422:2437   */\n      eq\n        /* \"#utility.yul\":2419:2460   */\n      iszero\n      tag_85\n      jumpi\n        /* \"#utility.yul\":2440:2458   */\n      tag_86\n      tag_87\n      jump\t// in\n    tag_86:\n        /* \"#utility.yul\":2419:2460   */\n    tag_85:\n        /* \"#utility.yul\":2487:2488   */\n      0x01\n        /* \"#utility.yul\":2480:2485   */\n      dup3\n        /* \"#utility.yul\":2476:2489   */\n      add\n        /* \"#utility.yul\":2469:2489   */\n      swap1\n      pop\n        /* \"#utility.yul\":2328:2495   */\n      swap2\n      swap1\n      pop\n      jump\t// out\n        /* \"#utility.yul\":2501:2681   */\n    tag_87:\n        /* \"#utility.yul\":2549:2626   */\n      0x4e487b7100000000000000000000000000000000000000000000000000000000\n        /* \"#utility.yul\":2546:2547   */\n      0x00\n        /* \"#utility.yul\":2539:2627   */\n      mstore\n        /* \"#utility.yul\":2646:2650   */\n      0x11\n        /* \"#utility.yul\":2643:2644   */\n      0x04\n        /* \"#utility.yul\":2636:2651   */\n      mstore\n        /* \"#utility.yul\":2670:2674   */\n      0x24\n        /* \"#utility.yul\":2667:2668   */\n      0x00\n        /* \"#utility.yul\":2660:2675   */\n      revert\n        /* \"#utility.yul\":2810:2927   */\n    tag_54:\n        /* \"#utility.yul\":2919:2920   */\n      0x00\n        /* \"#utility.yul\":2916:2917   */\n      dup1\n        /* \"#utility.yul\":2909:2921   */\n      revert\n        /* \"#utility.yul\":2933:3049   */\n    tag_46:\n        /* \"#utility.yul\":3003:3024   */\n      tag_93\n        /* \"#utility.yul\":3018:3023   */\n      dup2\n        /* \"#utility.yul\":3003:3024   */\n      tag_63\n      jump\t// in\n    tag_93:\n        /* \"#utility.yul\":2996:3001   */\n      dup2\n        /* \"#utility.yul\":2993:3025   */\n      eq\n        /* \"#utility.yul\":2983:3043   */\n      tag_94\n      jumpi\n        /* \"#utility.yul\":3039:3040   */\n      0x00\n        /* \"#utility.yul\":3036:3037   */\n      dup1\n        /* \"#utility.yul\":3029:3041   */\n      revert\n        /* \"#utility.yul\":2983:3043   */\n    tag_94:\n        /* \"#utility.yul\":2933:3049   */\n      pop\n      jump\t// out\n        /* \"#utility.yul\":3055:3177   */\n    tag_50:\n        /* \"#utility.yul\":3128:3152   */\n      tag_96\n        /* \"#utility.yul\":3146:3151   */\n      dup2\n        /* \"#utility.yul\":3128:3152   */\n      tag_67\n      jump\t// in\n    tag_96:\n        /* \"#utility.yul\":3121:3126   */\n      dup2\n        /* \"#utility.yul\":3118:3153   */\n      eq\n        /* \"#utility.yul\":3108:3171   */\n      tag_97\n      jumpi\n        /* \"#utility.yul\":3167:3168   */\n      0x00\n        /* \"#utility.yul\":3164:3165   */\n      dup1\n        /* \"#utility.yul\":3157:3169   */\n      revert\n        /* \"#utility.yul\":3108:3171   */\n    tag_97:\n        /* \"#utility.yul\":3055:3177   */\n      pop\n      jump\t// out\n\n    auxdata: 0xa2646970667358221220009fed5002da169f58ff08ab5a758e8a6156270adb8ae5a0808739da4d5f194764736f6c63430008070033\n}\n",
				"bytecode": {
					"linkReferences": {},
					"object": "608060405234801561001057600080fd5b506103d2806100206000396000f3fe608060405234801561001057600080fd5b506004361061007d5760003560e01c8063debbaf2b1161005b578063debbaf2b146100c8578063e2a4b2af146100d2578063e492fd84146100f0578063eb1b30d91461010c5761007d565b806306540f7e1461008257806333b87eeb146100a05780636deecdbe146100aa575b600080fd5b61008a610128565b60405161009791906102b7565b60405180910390f35b6100a861012e565b005b6100b2610167565b6040516100bf919061029c565b60405180910390f35b6100d061017a565b005b6100da6101b3565b6040516100e791906102d2565b60405180910390f35b61010a60048036038101906101059190610242565b6101c4565b005b61012660048036038101906101219190610215565b6101ce565b005b60005481565b60018081819054906101000a900460ff168092919061014c90610310565b91906101000a81548160ff021916908360ff16021790555050565b600160009054906101000a900460ff1681565b60018081819054906101000a900460ff168092919061019890610310565b91906101000a81548160ff021916908360ff16021790555050565b60018054906101000a900460ff1681565b8060008190555050565b80600160006101000a81548160ff02191690831515021790555050565b6000813590506101fa8161036e565b92915050565b60008135905061020f81610385565b92915050565b60006020828403121561022b5761022a610369565b5b6000610239848285016101eb565b91505092915050565b60006020828403121561025857610257610369565b5b600061026684828501610200565b91505092915050565b610278816102ed565b82525050565b610287816102f9565b82525050565b61029681610303565b82525050565b60006020820190506102b1600083018461026f565b92915050565b60006020820190506102cc600083018461027e565b92915050565b60006020820190506102e7600083018461028d565b92915050565b60008115159050919050565b6000819050919050565b600060ff82169050919050565b600061031b82610303565b915060ff82141561032f5761032e61033a565b5b600182019050919050565b7f4e487b7100000000000000000000000000000000000000000000000000000000600052601160045260246000fd5b600080fd5b610377816102ed565b811461038257600080fd5b50565b61038e816102f9565b811461039957600080fd5b5056fea2646970667358221220009fed5002da169f58ff08ab5a758e8a6156270adb8ae5a0808739da4d5f194764736f6c63430008070033",
					"opcodes": "PUSH1 0x80 PUSH1 0x40 MSTORE CALLVALUE DUP1 ISZERO PUSH2 0x10 JUMPI PUSH1 0x0 DUP1 REVERT JUMPDEST POP PUSH2 0x3D2 DUP1 PUSH2 0x20 PUSH1 0x0 CODECOPY PUSH1 0x0 RETURN INVALID PUSH1 0x80 PUSH1 0x40 MSTORE CALLVALUE DUP1 ISZERO PUSH2 0x10 JUMPI PUSH1 0x0 DUP1 REVERT JUMPDEST POP PUSH1 0x4 CALLDATASIZE LT PUSH2 0x7D JUMPI PUSH1 0x0 CALLDATALOAD PUSH1 0xE0 SHR DUP1 PUSH4 0xDEBBAF2B GT PUSH2 0x5B JUMPI DUP1 PUSH4 0xDEBBAF2B EQ PUSH2 0xC8 JUMPI DUP1 PUSH4 0xE2A4B2AF EQ PUSH2 0xD2 JUMPI DUP1 PUSH4 0xE492FD84 EQ PUSH2 0xF0 JUMPI DUP1 PUSH4 0xEB1B30D9 EQ PUSH2 0x10C JUMPI PUSH2 0x7D JUMP JUMPDEST DUP1 PUSH4 0x6540F7E EQ PUSH2 0x82 JUMPI DUP1 PUSH4 0x33B87EEB EQ PUSH2 0xA0 JUMPI DUP1 PUSH4 0x6DEECDBE EQ PUSH2 0xAA JUMPI JUMPDEST PUSH1 0x0 DUP1 REVERT JUMPDEST PUSH2 0x8A PUSH2 0x128 JUMP JUMPDEST PUSH1 0x40 MLOAD PUSH2 0x97 SWAP2 SWAP1 PUSH2 0x2B7 JUMP JUMPDEST PUSH1 0x40 MLOAD DUP1 SWAP2 SUB SWAP1 RETURN JUMPDEST PUSH2 0xA8 PUSH2 0x12E JUMP JUMPDEST STOP JUMPDEST PUSH2 0xB2 PUSH2 0x167 JUMP JUMPDEST PUSH1 0x40 MLOAD PUSH2 0xBF SWAP2 SWAP1 PUSH2 0x29C JUMP JUMPDEST PUSH1 0x40 MLOAD DUP1 SWAP2 SUB SWAP1 RETURN JUMPDEST PUSH2 0xD0 PUSH2 0x17A JUMP JUMPDEST STOP JUMPDEST PUSH2 0xDA PUSH2 0x1B3 JUMP JUMPDEST PUSH1 0x40 MLOAD PUSH2 0xE7 SWAP2 SWAP1 PUSH2 0x2D2 JUMP JUMPDEST PUSH1 0x40 MLOAD DUP1 SWAP2 SUB SWAP1 RETURN JUMPDEST PUSH2 0x10A PUSH1 0x4 DUP1 CALLDATASIZE SUB DUP2 ADD SWAP1 PUSH2 0x105 SWAP2 SWAP1 PUSH2 0x242 JUMP JUMPDEST PUSH2 0x1C4 JUMP JUMPDEST STOP JUMPDEST PUSH2 0x126 PUSH1 0x4 DUP1 CALLDATASIZE SUB DUP2 ADD SWAP1 PUSH2 0x121 SWAP2 SWAP1 PUSH2 0x215 JUMP JUMPDEST PUSH2 0x1CE JUMP JUMPDEST STOP JUMPDEST PUSH1 0x0 SLOAD DUP2 JUMP JUMPDEST PUSH1 0x1 DUP1 DUP2 DUP2 SWAP1 SLOAD SWAP1 PUSH2 0x100 EXP SWAP1 DIV PUSH1 0xFF AND DUP1 SWAP3 SWAP2 SWAP1 PUSH2 0x14C SWAP1 PUSH2 0x310 JUMP JUMPDEST SWAP2 SWAP1 PUSH2 0x100 EXP DUP2 SLOAD DUP2 PUSH1 0xFF MUL NOT AND SWAP1 DUP4 PUSH1 0xFF AND MUL OR SWAP1 SSTORE POP POP JUMP JUMPDEST PUSH1 0x1 PUSH1 0x0 SWAP1 SLOAD SWAP1 PUSH2 0x100 EXP SWAP1 DIV PUSH1 0xFF AND DUP2 JUMP JUMPDEST PUSH1 0x1 DUP1 DUP2 DUP2 SWAP1 SLOAD SWAP1 PUSH2 0x100 EXP SWAP1 DIV PUSH1 0xFF AND DUP1 SWAP3 SWAP2 SWAP1 PUSH2 0x198 SWAP1 PUSH2 0x310 JUMP JUMPDEST SWAP2 SWAP1 PUSH2 0x100 EXP DUP2 SLOAD DUP2 PUSH1 0xFF MUL NOT AND SWAP1 DUP4 PUSH1 0xFF AND MUL OR SWAP1 SSTORE POP POP JUMP JUMPDEST PUSH1 0x1 DUP1 SLOAD SWAP1 PUSH2 0x100 EXP SWAP1 DIV PUSH1 0xFF AND DUP2 JUMP JUMPDEST DUP1 PUSH1 0x0 DUP2 SWAP1 SSTORE POP POP JUMP JUMPDEST DUP1 PUSH1 0x1 PUSH1 0x0 PUSH2 0x100 EXP DUP2 SLOAD DUP2 PUSH1 0xFF MUL NOT AND SWAP1 DUP4 ISZERO ISZERO MUL OR SWAP1 SSTORE POP POP JUMP JUMPDEST PUSH1 0x0 DUP2 CALLDATALOAD SWAP1 POP PUSH2 0x1FA DUP2 PUSH2 0x36E JUMP JUMPDEST SWAP3 SWAP2 POP POP JUMP JUMPDEST PUSH1 0x0 DUP2 CALLDATALOAD SWAP1 POP PUSH2 0x20F DUP2 PUSH2 0x385 JUMP JUMPDEST SWAP3 SWAP2 POP POP JUMP JUMPDEST PUSH1 0x0 PUSH1 0x20 DUP3 DUP5 SUB SLT ISZERO PUSH2 0x22B JUMPI PUSH2 0x22A PUSH2 0x369 JUMP JUMPDEST JUMPDEST PUSH1 0x0 PUSH2 0x239 DUP5 DUP3 DUP6 ADD PUSH2 0x1EB JUMP JUMPDEST SWAP2 POP POP SWAP3 SWAP2 POP POP JUMP JUMPDEST PUSH1 0x0 PUSH1 0x20 DUP3 DUP5 SUB SLT ISZERO PUSH2 0x258 JUMPI PUSH2 0x257 PUSH2 0x369 JUMP JUMPDEST JUMPDEST PUSH1 0x0 PUSH2 0x266 DUP5 DUP3 DUP6 ADD PUSH2 0x200 JUMP JUMPDEST SWAP2 POP POP SWAP3 SWAP2 POP POP JUMP JUMPDEST PUSH2 0x278 DUP2 PUSH2 0x2ED JUMP JUMPDEST DUP3 MSTORE POP POP JUMP JUMPDEST PUSH2 0x287 DUP2 PUSH2 0x2F9 JUMP JUMPDEST DUP3 MSTORE POP POP JUMP JUMPDEST PUSH2 0x296 DUP2 PUSH2 0x303 JUMP JUMPDEST DUP3 MSTORE POP POP JUMP JUMPDEST PUSH1 0x0 PUSH1 0x20 DUP3 ADD SWAP1 POP PUSH2 0x2B1 PUSH1 0x0 DUP4 ADD DUP5 PUSH2 0x26F JUMP JUMPDEST SWAP3 SWAP2 POP POP JUMP JUMPDEST PUSH1 0x0 PUSH1 0x20 DUP3 ADD SWAP1 POP PUSH2 0x2CC PUSH1 0x0 DUP4 ADD DUP5 PUSH2 0x27E JUMP JUMPDEST SWAP3 SWAP2 POP POP JUMP JUMPDEST PUSH1 0x0 PUSH1 0x20 DUP3 ADD SWAP1 POP PUSH2 0x2E7 PUSH1 0x0 DUP4 ADD DUP5 PUSH2 0x28D JUMP JUMPDEST SWAP3 SWAP2 POP POP JUMP JUMPDEST PUSH1 0x0 DUP2 ISZERO ISZERO SWAP1 POP SWAP2 SWAP1 POP JUMP JUMPDEST PUSH1 0x0 DUP2 SWAP1 POP SWAP2 SWAP1 POP JUMP JUMPDEST PUSH1 0x0 PUSH1 0xFF DUP3 AND SWAP1 POP SWAP2 SWAP1 POP JUMP JUMPDEST PUSH1 0x0 PUSH2 0x31B DUP3 PUSH2 0x303 JUMP JUMPDEST SWAP2 POP PUSH1 0xFF DUP3 EQ ISZERO PUSH2 0x32F JUMPI PUSH2 0x32E PUSH2 0x33A JUMP JUMPDEST JUMPDEST PUSH1 0x1 DUP3 ADD SWAP1 POP SWAP2 SWAP1 POP JUMP JUMPDEST PUSH32 0x4E487B7100000000000000000000000000000000000000000000000000000000 PUSH1 0x0 MSTORE PUSH1 0x11 PUSH1 0x4 MSTORE PUSH1 0x24 PUSH1 0x0 REVERT JUMPDEST PUSH1 0x0 DUP1 REVERT JUMPDEST PUSH2 0x377 DUP2 PUSH2 0x2ED JUMP JUMPDEST DUP2 EQ PUSH2 0x382 JUMPI PUSH1 0x0 DUP1 REVERT JUMPDEST POP JUMP JUMPDEST PUSH2 0x38E DUP2 PUSH2 0x2F9 JUMP JUMPDEST DUP2 EQ PUSH2 0x399 JUMPI PUSH1 0x0 DUP1 REVERT JUMPDEST POP JUMP INVALID LOG2 PUSH5 0x6970667358 0x22 SLT KECCAK256 STOP SWAP16 0xED POP MUL 0xDA AND SWAP16 PC SELFDESTRUCT ADDMOD 0xAB GAS PUSH22 0x8E8A6156270ADB8AE5A0808739DA4D5F194764736F6C PUSH4 0x43000807 STOP CALLER "
				},
				"gasEstimates": {
					"creation": {
						"codeDepositCost": "195600",
						"executionCost": "238",
						"totalCost": "195838"
					},
					"external": {
						"decreamentUint8()": "26802",
						"increamentUint8()": "26825",
						"myBool()": "2516",
						"myUint()": "2430",
						"myUint8()": "2540",
						"setMyBool(bool)": "24745",
						"setMyUint(uint256)": "22564"
					}
				},
				"methodIdentifiers": {
					"decreamentUint8()": "debbaf2b",
					"increamentUint8()": "33b87eeb",
					"myBool()": "6deecdbe",
					"myUint()": "06540f7e",
					"myUint8()": "e2a4b2af",
					"setMyBool(bool)": "eb1b30d9",
					"setMyUint(uint256)": "e492fd84"
				}
			},
			"storageLayout": {
				"storage": [
					{
						"astId": 3,
						"contract": "Variable.sol:WorkingWithVariables",
						"label": "myUint",
						"offset": 0,
						"slot": "0",
						"type": "t_uint256"
					},
					{
						"astId": 15,
						"contract": "Variable.sol:WorkingWithVariables",
						"label": "myBool",
						"offset": 0,
						"slot": "1",
						"type": "t_bool"
					},
					{
						"astId": 27,
						"contract": "Variable.sol:WorkingWithVariables",
						"label": "myUint8",
						"offset": 1,
						"slot": "1",
						"type": "t_uint8"
					}
				],
				"types": {
					"t_bool": {
						"encoding": "inplace",
						"label": "bool",
						"numberOfBytes": "1"
					},
					"t_uint256": {
						"encoding": "inplace",
						"label": "uint256",
						"numberOfBytes": "32"
					},
					"t_uint8": {
						"encoding": "inplace",
						"label": "uint8",
						"numberOfBytes": "1"
					}
				}
			},
			"userdoc": {
				"kind": "user",
				"methods": {},
				"version": 1
			}
		}
	}
}