{
	"Event.sol": {
		"Event": {
			"abi": [
				{
					"inputs": [],
					"stateMutability": "nonpayable",
					"type": "constructor"
				},
				{
					"inputs": [
						{
							"internalType": "address",
							"name": "_to",
							"type": "address"
						},
						{
							"internalType": "uint256",
							"name": "_amount",
							"type": "uint256"
						}
					],
					"name": "sendToken",
					"outputs": [
						{
							"internalType": "bool",
							"name": "",
							"type": "bool"
						}
					],
					"stateMutability": "nonpayable",
					"type": "function"
				},
				{
					"inputs": [
						{
							"internalType": "address",
							"name": "",
							"type": "address"
						}
					],
					"name": "tokenBalance",
					"outputs": [
						{
							"internalType": "uint256",
							"name": "",
							"type": "uint256"
						}
					],
					"stateMutability": "view",
					"type": "function"
				}
			],
			"devdoc": {
				"kind": "dev",
				"methods": {},
				"version": 1
			},
			"evm": {
				"assembly": "    /* \"Event.sol\":25:448  contract Event {\r... */\n  mstore(0x40, 0x80)\n    /* \"Event.sol\":91:151  constructor() public{\r... */\n  callvalue\n  dup1\n  iszero\n  tag_1\n  jumpi\n  0x00\n  dup1\n  revert\ntag_1:\n  pop\n    /* \"Event.sol\":143:146  100 */\n  0x64\n    /* \"Event.sol\":118:130  tokenBalance */\n  0x00\n    /* \"Event.sol\":118:142  tokenBalance[msg.sender] */\n  dup1\n    /* \"Event.sol\":131:141  msg.sender */\n  caller\n    /* \"Event.sol\":118:142  tokenBalance[msg.sender] */\n  0xffffffffffffffffffffffffffffffffffffffff\n  and\n  0xffffffffffffffffffffffffffffffffffffffff\n  and\n  dup2\n  mstore\n  0x20\n  add\n  swap1\n  dup2\n  mstore\n  0x20\n  add\n  0x00\n  keccak256\n    /* \"Event.sol\":118:146  tokenBalance[msg.sender]=100 */\n  dup2\n  swap1\n  sstore\n  pop\n    /* \"Event.sol\":25:448  contract Event {\r... */\n  dataSize(sub_0)\n  dup1\n  dataOffset(sub_0)\n  0x00\n  codecopy\n  0x00\n  return\nstop\n\nsub_0: assembly {\n        /* \"Event.sol\":25:448  contract Event {\r... */\n      mstore(0x40, 0x80)\n      callvalue\n      dup1\n      iszero\n      tag_1\n      jumpi\n      0x00\n      dup1\n      revert\n    tag_1:\n      pop\n      jumpi(tag_2, lt(calldatasize, 0x04))\n      shr(0xe0, calldataload(0x00))\n      dup1\n      0x412664ae\n      eq\n      tag_3\n      jumpi\n      dup1\n      0xeedc966a\n      eq\n      tag_4\n      jumpi\n    tag_2:\n      0x00\n      dup1\n      revert\n        /* \"Event.sol\":159:445  function sendToken(address _to, uint _amount) public returns(bool){\r... */\n    tag_3:\n      tag_5\n      0x04\n      dup1\n      calldatasize\n      sub\n      dup2\n      add\n      swap1\n      tag_6\n      swap2\n      swap1\n      tag_7\n      jump\t// in\n    tag_6:\n      tag_8\n      jump\t// in\n    tag_5:\n      mload(0x40)\n      tag_9\n      swap2\n      swap1\n      tag_10\n      jump\t// in\n    tag_9:\n      mload(0x40)\n      dup1\n      swap2\n      sub\n      swap1\n      return\n        /* \"Event.sol\":44:87  mapping(address =>uint) public tokenBalance */\n    tag_4:\n      tag_11\n      0x04\n      dup1\n      calldatasize\n      sub\n      dup2\n      add\n      swap1\n      tag_12\n      swap2\n      swap1\n      tag_13\n      jump\t// in\n    tag_12:\n      tag_14\n      jump\t// in\n    tag_11:\n      mload(0x40)\n      tag_15\n      swap2\n      swap1\n      tag_16\n      jump\t// in\n    tag_15:\n      mload(0x40)\n      dup1\n      swap2\n      sub\n      swap1\n      return\n        /* \"Event.sol\":159:445  function sendToken(address _to, uint _amount) public returns(bool){\r... */\n    tag_8:\n        /* \"Event.sol\":220:224  bool */\n      0x00\n        /* \"Event.sol\":268:275  _amount */\n      dup2\n        /* \"Event.sol\":240:252  tokenBalance */\n      0x00\n        /* \"Event.sol\":240:264  tokenBalance[msg.sender] */\n      dup1\n        /* \"Event.sol\":253:263  msg.sender */\n      caller\n        /* \"Event.sol\":240:264  tokenBalance[msg.sender] */\n      0xffffffffffffffffffffffffffffffffffffffff\n      and\n      0xffffffffffffffffffffffffffffffffffffffff\n      and\n      dup2\n      mstore\n      0x20\n      add\n      swap1\n      dup2\n      mstore\n      0x20\n      add\n      0x00\n      keccak256\n      sload\n        /* \"Event.sol\":240:275  tokenBalance[msg.sender] >= _amount */\n      lt\n      iszero\n        /* \"Event.sol\":232:295  require(tokenBalance[msg.sender] >= _amount,\"Not enough money\") */\n      tag_18\n      jumpi\n      mload(0x40)\n      0x08c379a000000000000000000000000000000000000000000000000000000000\n      dup2\n      mstore\n      0x04\n      add\n      tag_19\n      swap1\n      tag_20\n      jump\t// in\n    tag_19:\n      mload(0x40)\n      dup1\n      swap2\n      sub\n      swap1\n      revert\n    tag_18:\n        /* \"Event.sol\":339:351  tokenBalance */\n      0x00\n        /* \"Event.sol\":339:356  tokenBalance[_to] */\n      dup1\n        /* \"Event.sol\":352:355  _to */\n      dup5\n        /* \"Event.sol\":339:356  tokenBalance[_to] */\n      0xffffffffffffffffffffffffffffffffffffffff\n      and\n      0xffffffffffffffffffffffffffffffffffffffff\n      and\n      dup2\n      mstore\n      0x20\n      add\n      swap1\n      dup2\n      mstore\n      0x20\n      add\n      0x00\n      keccak256\n      sload\n        /* \"Event.sol\":329:336  _amount */\n      dup3\n        /* \"Event.sol\":309:321  tokenBalance */\n      0x00\n        /* \"Event.sol\":309:326  tokenBalance[_to] */\n      dup1\n        /* \"Event.sol\":322:325  _to */\n      dup7\n        /* \"Event.sol\":309:326  tokenBalance[_to] */\n      0xffffffffffffffffffffffffffffffffffffffff\n      and\n      0xffffffffffffffffffffffffffffffffffffffff\n      and\n      dup2\n      mstore\n      0x20\n      add\n      swap1\n      dup2\n      mstore\n      0x20\n      add\n      0x00\n      keccak256\n      sload\n        /* \"Event.sol\":309:336  tokenBalance[_to] + _amount */\n      tag_21\n      swap2\n      swap1\n      tag_22\n      jump\t// in\n    tag_21:\n        /* \"Event.sol\":309:356  tokenBalance[_to] + _amount >=tokenBalance[_to] */\n      lt\n      iszero\n        /* \"Event.sol\":302:357  assert(tokenBalance[_to] + _amount >=tokenBalance[_to]) */\n      tag_23\n      jumpi\n      tag_24\n      tag_25\n      jump\t// in\n    tag_24:\n    tag_23:\n        /* \"Event.sol\":407:419  tokenBalance */\n      0x00\n        /* \"Event.sol\":407:431  tokenBalance[msg.sender] */\n      dup1\n        /* \"Event.sol\":420:430  msg.sender */\n      caller\n        /* \"Event.sol\":407:431  tokenBalance[msg.sender] */\n      0xffffffffffffffffffffffffffffffffffffffff\n      and\n      0xffffffffffffffffffffffffffffffffffffffff\n      and\n      dup2\n      mstore\n      0x20\n      add\n      swap1\n      dup2\n      mstore\n      0x20\n      add\n      0x00\n      keccak256\n      sload\n        /* \"Event.sol\":396:403  _amount */\n      dup3\n        /* \"Event.sol\":371:383  tokenBalance */\n      0x00\n        /* \"Event.sol\":371:395  tokenBalance[msg.sender] */\n      dup1\n        /* \"Event.sol\":384:394  msg.sender */\n      caller\n        /* \"Event.sol\":371:395  tokenBalance[msg.sender] */\n      0xffffffffffffffffffffffffffffffffffffffff\n      and\n      0xffffffffffffffffffffffffffffffffffffffff\n      and\n      dup2\n      mstore\n      0x20\n      add\n      swap1\n      dup2\n      mstore\n      0x20\n      add\n      0x00\n      keccak256\n      sload\n        /* \"Event.sol\":371:403  tokenBalance[msg.sender]-_amount */\n      tag_26\n      swap2\n      swap1\n      tag_27\n      jump\t// in\n    tag_26:\n        /* \"Event.sol\":371:431  tokenBalance[msg.sender]-_amount <= tokenBalance[msg.sender] */\n      gt\n      iszero\n        /* \"Event.sol\":364:432  assert(tokenBalance[msg.sender]-_amount <= tokenBalance[msg.sender]) */\n      tag_28\n      jumpi\n      tag_29\n      tag_25\n      jump\t// in\n    tag_29:\n    tag_28:\n        /* \"Event.sol\":159:445  function sendToken(address _to, uint _amount) public returns(bool){\r... */\n      swap3\n      swap2\n      pop\n      pop\n      jump\t// out\n        /* \"Event.sol\":44:87  mapping(address =>uint) public tokenBalance */\n    tag_14:\n      mstore(0x20, 0x00)\n      dup1\n      0x00\n      mstore\n      keccak256(0x00, 0x40)\n      0x00\n      swap2\n      pop\n      swap1\n      pop\n      sload\n      dup2\n      jump\t// out\n        /* \"#utility.yul\":7:146   */\n    tag_31:\n        /* \"#utility.yul\":53:58   */\n      0x00\n        /* \"#utility.yul\":91:97   */\n      dup2\n        /* \"#utility.yul\":78:98   */\n      calldataload\n        /* \"#utility.yul\":69:98   */\n      swap1\n      pop\n        /* \"#utility.yul\":107:140   */\n      tag_33\n        /* \"#utility.yul\":134:139   */\n      dup2\n        /* \"#utility.yul\":107:140   */\n      tag_34\n      jump\t// in\n    tag_33:\n        /* \"#utility.yul\":7:146   */\n      swap3\n      swap2\n      pop\n      pop\n      jump\t// out\n        /* \"#utility.yul\":152:291   */\n    tag_35:\n        /* \"#utility.yul\":198:203   */\n      0x00\n        /* \"#utility.yul\":236:242   */\n      dup2\n        /* \"#utility.yul\":223:243   */\n      calldataload\n        /* \"#utility.yul\":214:243   */\n      swap1\n      pop\n        /* \"#utility.yul\":252:285   */\n      tag_37\n        /* \"#utility.yul\":279:284   */\n      dup2\n        /* \"#utility.yul\":252:285   */\n      tag_38\n      jump\t// in\n    tag_37:\n        /* \"#utility.yul\":152:291   */\n      swap3\n      swap2\n      pop\n      pop\n      jump\t// out\n        /* \"#utility.yul\":297:626   */\n    tag_13:\n        /* \"#utility.yul\":356:362   */\n      0x00\n        /* \"#utility.yul\":405:407   */\n      0x20\n        /* \"#utility.yul\":393:402   */\n      dup3\n        /* \"#utility.yul\":384:391   */\n      dup5\n        /* \"#utility.yul\":380:403   */\n      sub\n        /* \"#utility.yul\":376:408   */\n      slt\n        /* \"#utility.yul\":373:492   */\n      iszero\n      tag_40\n      jumpi\n        /* \"#utility.yul\":411:490   */\n      tag_41\n      tag_42\n      jump\t// in\n    tag_41:\n        /* \"#utility.yul\":373:492   */\n    tag_40:\n        /* \"#utility.yul\":531:532   */\n      0x00\n        /* \"#utility.yul\":556:609   */\n      tag_43\n        /* \"#utility.yul\":601:608   */\n      dup5\n        /* \"#utility.yul\":592:598   */\n      dup3\n        /* \"#utility.yul\":581:590   */\n      dup6\n        /* \"#utility.yul\":577:599   */\n      add\n        /* \"#utility.yul\":556:609   */\n      tag_31\n      jump\t// in\n    tag_43:\n        /* \"#utility.yul\":546:609   */\n      swap2\n      pop\n        /* \"#utility.yul\":502:619   */\n      pop\n        /* \"#utility.yul\":297:626   */\n      swap3\n      swap2\n      pop\n      pop\n      jump\t// out\n        /* \"#utility.yul\":632:1106   */\n    tag_7:\n        /* \"#utility.yul\":700:706   */\n      0x00\n        /* \"#utility.yul\":708:714   */\n      dup1\n        /* \"#utility.yul\":757:759   */\n      0x40\n        /* \"#utility.yul\":745:754   */\n      dup4\n        /* \"#utility.yul\":736:743   */\n      dup6\n        /* \"#utility.yul\":732:755   */\n      sub\n        /* \"#utility.yul\":728:760   */\n      slt\n        /* \"#utility.yul\":725:844   */\n      iszero\n      tag_45\n      jumpi\n        /* \"#utility.yul\":763:842   */\n      tag_46\n      tag_42\n      jump\t// in\n    tag_46:\n        /* \"#utility.yul\":725:844   */\n    tag_45:\n        /* \"#utility.yul\":883:884   */\n      0x00\n        /* \"#utility.yul\":908:961   */\n      tag_47\n        /* \"#utility.yul\":953:960   */\n      dup6\n        /* \"#utility.yul\":944:950   */\n      dup3\n        /* \"#utility.yul\":933:942   */\n      dup7\n        /* \"#utility.yul\":929:951   */\n      add\n        /* \"#utility.yul\":908:961   */\n      tag_31\n      jump\t// in\n    tag_47:\n        /* \"#utility.yul\":898:961   */\n      swap3\n      pop\n        /* \"#utility.yul\":854:971   */\n      pop\n        /* \"#utility.yul\":1010:1012   */\n      0x20\n        /* \"#utility.yul\":1036:1089   */\n      tag_48\n        /* \"#utility.yul\":1081:1088   */\n      dup6\n        /* \"#utility.yul\":1072:1078   */\n      dup3\n        /* \"#utility.yul\":1061:1070   */\n      dup7\n        /* \"#utility.yul\":1057:1079   */\n      add\n        /* \"#utility.yul\":1036:1089   */\n      tag_35\n      jump\t// in\n    tag_48:\n        /* \"#utility.yul\":1026:1089   */\n      swap2\n      pop\n        /* \"#utility.yul\":981:1099   */\n      pop\n        /* \"#utility.yul\":632:1106   */\n      swap3\n      pop\n      swap3\n      swap1\n      pop\n      jump\t// out\n        /* \"#utility.yul\":1112:1221   */\n    tag_49:\n        /* \"#utility.yul\":1193:1214   */\n      tag_51\n        /* \"#utility.yul\":1208:1213   */\n      dup2\n        /* \"#utility.yul\":1193:1214   */\n      tag_52\n      jump\t// in\n    tag_51:\n        /* \"#utility.yul\":1188:1191   */\n      dup3\n        /* \"#utility.yul\":1181:1215   */\n      mstore\n        /* \"#utility.yul\":1112:1221   */\n      pop\n      pop\n      jump\t// out\n        /* \"#utility.yul\":1227:1593   */\n    tag_53:\n        /* \"#utility.yul\":1369:1372   */\n      0x00\n        /* \"#utility.yul\":1390:1457   */\n      tag_55\n        /* \"#utility.yul\":1454:1456   */\n      0x10\n        /* \"#utility.yul\":1449:1452   */\n      dup4\n        /* \"#utility.yul\":1390:1457   */\n      tag_56\n      jump\t// in\n    tag_55:\n        /* \"#utility.yul\":1383:1457   */\n      swap2\n      pop\n        /* \"#utility.yul\":1466:1559   */\n      tag_57\n        /* \"#utility.yul\":1555:1558   */\n      dup3\n        /* \"#utility.yul\":1466:1559   */\n      tag_58\n      jump\t// in\n    tag_57:\n        /* \"#utility.yul\":1584:1586   */\n      0x20\n        /* \"#utility.yul\":1579:1582   */\n      dup3\n        /* \"#utility.yul\":1575:1587   */\n      add\n        /* \"#utility.yul\":1568:1587   */\n      swap1\n      pop\n        /* \"#utility.yul\":1227:1593   */\n      swap2\n      swap1\n      pop\n      jump\t// out\n        /* \"#utility.yul\":1599:1717   */\n    tag_59:\n        /* \"#utility.yul\":1686:1710   */\n      tag_61\n        /* \"#utility.yul\":1704:1709   */\n      dup2\n        /* \"#utility.yul\":1686:1710   */\n      tag_62\n      jump\t// in\n    tag_61:\n        /* \"#utility.yul\":1681:1684   */\n      dup3\n        /* \"#utility.yul\":1674:1711   */\n      mstore\n        /* \"#utility.yul\":1599:1717   */\n      pop\n      pop\n      jump\t// out\n        /* \"#utility.yul\":1723:1933   */\n    tag_10:\n        /* \"#utility.yul\":1810:1814   */\n      0x00\n        /* \"#utility.yul\":1848:1850   */\n      0x20\n        /* \"#utility.yul\":1837:1846   */\n      dup3\n        /* \"#utility.yul\":1833:1851   */\n      add\n        /* \"#utility.yul\":1825:1851   */\n      swap1\n      pop\n        /* \"#utility.yul\":1861:1926   */\n      tag_64\n        /* \"#utility.yul\":1923:1924   */\n      0x00\n        /* \"#utility.yul\":1912:1921   */\n      dup4\n        /* \"#utility.yul\":1908:1925   */\n      add\n        /* \"#utility.yul\":1899:1905   */\n      dup5\n        /* \"#utility.yul\":1861:1926   */\n      tag_49\n      jump\t// in\n    tag_64:\n        /* \"#utility.yul\":1723:1933   */\n      swap3\n      swap2\n      pop\n      pop\n      jump\t// out\n        /* \"#utility.yul\":1939:2358   */\n    tag_20:\n        /* \"#utility.yul\":2105:2109   */\n      0x00\n        /* \"#utility.yul\":2143:2145   */\n      0x20\n        /* \"#utility.yul\":2132:2141   */\n      dup3\n        /* \"#utility.yul\":2128:2146   */\n      add\n        /* \"#utility.yul\":2120:2146   */\n      swap1\n      pop\n        /* \"#utility.yul\":2192:2201   */\n      dup2\n        /* \"#utility.yul\":2186:2190   */\n      dup2\n        /* \"#utility.yul\":2182:2202   */\n      sub\n        /* \"#utility.yul\":2178:2179   */\n      0x00\n        /* \"#utility.yul\":2167:2176   */\n      dup4\n        /* \"#utility.yul\":2163:2180   */\n      add\n        /* \"#utility.yul\":2156:2203   */\n      mstore\n        /* \"#utility.yul\":2220:2351   */\n      tag_66\n        /* \"#utility.yul\":2346:2350   */\n      dup2\n        /* \"#utility.yul\":2220:2351   */\n      tag_53\n      jump\t// in\n    tag_66:\n        /* \"#utility.yul\":2212:2351   */\n      swap1\n      pop\n        /* \"#utility.yul\":1939:2358   */\n      swap2\n      swap1\n      pop\n      jump\t// out\n        /* \"#utility.yul\":2364:2586   */\n    tag_16:\n        /* \"#utility.yul\":2457:2461   */\n      0x00\n        /* \"#utility.yul\":2495:2497   */\n      0x20\n        /* \"#utility.yul\":2484:2493   */\n      dup3\n        /* \"#utility.yul\":2480:2498   */\n      add\n        /* \"#utility.yul\":2472:2498   */\n      swap1\n      pop\n        /* \"#utility.yul\":2508:2579   */\n      tag_68\n        /* \"#utility.yul\":2576:2577   */\n      0x00\n        /* \"#utility.yul\":2565:2574   */\n      dup4\n        /* \"#utility.yul\":2561:2578   */\n      add\n        /* \"#utility.yul\":2552:2558   */\n      dup5\n        /* \"#utility.yul\":2508:2579   */\n      tag_59\n      jump\t// in\n    tag_68:\n        /* \"#utility.yul\":2364:2586   */\n      swap3\n      swap2\n      pop\n      pop\n      jump\t// out\n        /* \"#utility.yul\":2673:2842   */\n    tag_56:\n        /* \"#utility.yul\":2757:2768   */\n      0x00\n        /* \"#utility.yul\":2791:2797   */\n      dup3\n        /* \"#utility.yul\":2786:2789   */\n      dup3\n        /* \"#utility.yul\":2779:2798   */\n      mstore\n        /* \"#utility.yul\":2831:2835   */\n      0x20\n        /* \"#utility.yul\":2826:2829   */\n      dup3\n        /* \"#utility.yul\":2822:2836   */\n      add\n        /* \"#utility.yul\":2807:2836   */\n      swap1\n      pop\n        /* \"#utility.yul\":2673:2842   */\n      swap3\n      swap2\n      pop\n      pop\n      jump\t// out\n        /* \"#utility.yul\":2848:3153   */\n    tag_22:\n        /* \"#utility.yul\":2888:2891   */\n      0x00\n        /* \"#utility.yul\":2907:2927   */\n      tag_73\n        /* \"#utility.yul\":2925:2926   */\n      dup3\n        /* \"#utility.yul\":2907:2927   */\n      tag_62\n      jump\t// in\n    tag_73:\n        /* \"#utility.yul\":2902:2927   */\n      swap2\n      pop\n        /* \"#utility.yul\":2941:2961   */\n      tag_74\n        /* \"#utility.yul\":2959:2960   */\n      dup4\n        /* \"#utility.yul\":2941:2961   */\n      tag_62\n      jump\t// in\n    tag_74:\n        /* \"#utility.yul\":2936:2961   */\n      swap3\n      pop\n        /* \"#utility.yul\":3095:3096   */\n      dup3\n        /* \"#utility.yul\":3027:3093   */\n      0xffffffffffffffffffffffffffffffffffffffffffffffffffffffffffffffff\n        /* \"#utility.yul\":3023:3097   */\n      sub\n        /* \"#utility.yul\":3020:3021   */\n      dup3\n        /* \"#utility.yul\":3017:3098   */\n      gt\n        /* \"#utility.yul\":3014:3121   */\n      iszero\n      tag_75\n      jumpi\n        /* \"#utility.yul\":3101:3119   */\n      tag_76\n      tag_77\n      jump\t// in\n    tag_76:\n        /* \"#utility.yul\":3014:3121   */\n    tag_75:\n        /* \"#utility.yul\":3145:3146   */\n      dup3\n        /* \"#utility.yul\":3142:3143   */\n      dup3\n        /* \"#utility.yul\":3138:3147   */\n      add\n        /* \"#utility.yul\":3131:3147   */\n      swap1\n      pop\n        /* \"#utility.yul\":2848:3153   */\n      swap3\n      swap2\n      pop\n      pop\n      jump\t// out\n        /* \"#utility.yul\":3159:3350   */\n    tag_27:\n        /* \"#utility.yul\":3199:3203   */\n      0x00\n        /* \"#utility.yul\":3219:3239   */\n      tag_79\n        /* \"#utility.yul\":3237:3238   */\n      dup3\n        /* \"#utility.yul\":3219:3239   */\n      tag_62\n      jump\t// in\n    tag_79:\n        /* \"#utility.yul\":3214:3239   */\n      swap2\n      pop\n        /* \"#utility.yul\":3253:3273   */\n      tag_80\n        /* \"#utility.yul\":3271:3272   */\n      dup4\n        /* \"#utility.yul\":3253:3273   */\n      tag_62\n      jump\t// in\n    tag_80:\n        /* \"#utility.yul\":3248:3273   */\n      swap3\n      pop\n        /* \"#utility.yul\":3292:3293   */\n      dup3\n        /* \"#utility.yul\":3289:3290   */\n      dup3\n        /* \"#utility.yul\":3286:3294   */\n      lt\n        /* \"#utility.yul\":3283:3317   */\n      iszero\n      tag_81\n      jumpi\n        /* \"#utility.yul\":3297:3315   */\n      tag_82\n      tag_77\n      jump\t// in\n    tag_82:\n        /* \"#utility.yul\":3283:3317   */\n    tag_81:\n        /* \"#utility.yul\":3342:3343   */\n      dup3\n        /* \"#utility.yul\":3339:3340   */\n      dup3\n        /* \"#utility.yul\":3335:3344   */\n      sub\n        /* \"#utility.yul\":3327:3344   */\n      swap1\n      pop\n        /* \"#utility.yul\":3159:3350   */\n      swap3\n      swap2\n      pop\n      pop\n      jump\t// out\n        /* \"#utility.yul\":3356:3452   */\n    tag_83:\n        /* \"#utility.yul\":3393:3400   */\n      0x00\n        /* \"#utility.yul\":3422:3446   */\n      tag_85\n        /* \"#utility.yul\":3440:3445   */\n      dup3\n        /* \"#utility.yul\":3422:3446   */\n      tag_86\n      jump\t// in\n    tag_85:\n        /* \"#utility.yul\":3411:3446   */\n      swap1\n      pop\n        /* \"#utility.yul\":3356:3452   */\n      swap2\n      swap1\n      pop\n      jump\t// out\n        /* \"#utility.yul\":3458:3548   */\n    tag_52:\n        /* \"#utility.yul\":3492:3499   */\n      0x00\n        /* \"#utility.yul\":3535:3540   */\n      dup2\n        /* \"#utility.yul\":3528:3541   */\n      iszero\n        /* \"#utility.yul\":3521:3542   */\n      iszero\n        /* \"#utility.yul\":3510:3542   */\n      swap1\n      pop\n        /* \"#utility.yul\":3458:3548   */\n      swap2\n      swap1\n      pop\n      jump\t// out\n        /* \"#utility.yul\":3554:3680   */\n    tag_86:\n        /* \"#utility.yul\":3591:3598   */\n      0x00\n        /* \"#utility.yul\":3631:3673   */\n      0xffffffffffffffffffffffffffffffffffffffff\n        /* \"#utility.yul\":3624:3629   */\n      dup3\n        /* \"#utility.yul\":3620:3674   */\n      and\n        /* \"#utility.yul\":3609:3674   */\n      swap1\n      pop\n        /* \"#utility.yul\":3554:3680   */\n      swap2\n      swap1\n      pop\n      jump\t// out\n        /* \"#utility.yul\":3686:3763   */\n    tag_62:\n        /* \"#utility.yul\":3723:3730   */\n      0x00\n        /* \"#utility.yul\":3752:3757   */\n      dup2\n        /* \"#utility.yul\":3741:3757   */\n      swap1\n      pop\n        /* \"#utility.yul\":3686:3763   */\n      swap2\n      swap1\n      pop\n      jump\t// out\n        /* \"#utility.yul\":3769:3949   */\n    tag_25:\n        /* \"#utility.yul\":3817:3894   */\n      0x4e487b7100000000000000000000000000000000000000000000000000000000\n        /* \"#utility.yul\":3814:3815   */\n      0x00\n        /* \"#utility.yul\":3807:3895   */\n      mstore\n        /* \"#utility.yul\":3914:3918   */\n      0x01\n        /* \"#utility.yul\":3911:3912   */\n      0x04\n        /* \"#utility.yul\":3904:3919   */\n      mstore\n        /* \"#utility.yul\":3938:3942   */\n      0x24\n        /* \"#utility.yul\":3935:3936   */\n      0x00\n        /* \"#utility.yul\":3928:3943   */\n      revert\n        /* \"#utility.yul\":3955:4135   */\n    tag_77:\n        /* \"#utility.yul\":4003:4080   */\n      0x4e487b7100000000000000000000000000000000000000000000000000000000\n        /* \"#utility.yul\":4000:4001   */\n      0x00\n        /* \"#utility.yul\":3993:4081   */\n      mstore\n        /* \"#utility.yul\":4100:4104   */\n      0x11\n        /* \"#utility.yul\":4097:4098   */\n      0x04\n        /* \"#utility.yul\":4090:4105   */\n      mstore\n        /* \"#utility.yul\":4124:4128   */\n      0x24\n        /* \"#utility.yul\":4121:4122   */\n      0x00\n        /* \"#utility.yul\":4114:4129   */\n      revert\n        /* \"#utility.yul\":4264:4381   */\n    tag_42:\n        /* \"#utility.yul\":4373:4374   */\n      0x00\n        /* \"#utility.yul\":4370:4371   */\n      dup1\n        /* \"#utility.yul\":4363:4375   */\n      revert\n        /* \"#utility.yul\":4387:4553   */\n    tag_58:\n        /* \"#utility.yul\":4527:4545   */\n      0x4e6f7420656e6f756768206d6f6e657900000000000000000000000000000000\n        /* \"#utility.yul\":4523:4524   */\n      0x00\n        /* \"#utility.yul\":4515:4521   */\n      dup3\n        /* \"#utility.yul\":4511:4525   */\n      add\n        /* \"#utility.yul\":4504:4546   */\n      mstore\n        /* \"#utility.yul\":4387:4553   */\n      pop\n      jump\t// out\n        /* \"#utility.yul\":4559:4681   */\n    tag_34:\n        /* \"#utility.yul\":4632:4656   */\n      tag_97\n        /* \"#utility.yul\":4650:4655   */\n      dup2\n        /* \"#utility.yul\":4632:4656   */\n      tag_83\n      jump\t// in\n    tag_97:\n        /* \"#utility.yul\":4625:4630   */\n      dup2\n        /* \"#utility.yul\":4622:4657   */\n      eq\n        /* \"#utility.yul\":4612:4675   */\n      tag_98\n      jumpi\n        /* \"#utility.yul\":4671:4672   */\n      0x00\n        /* \"#utility.yul\":4668:4669   */\n      dup1\n        /* \"#utility.yul\":4661:4673   */\n      revert\n        /* \"#utility.yul\":4612:4675   */\n    tag_98:\n        /* \"#utility.yul\":4559:4681   */\n      pop\n      jump\t// out\n        /* \"#utility.yul\":4687:4809   */\n    tag_38:\n        /* \"#utility.yul\":4760:4784   */\n      tag_100\n        /* \"#utility.yul\":4778:4783   */\n      dup2\n        /* \"#utility.yul\":4760:4784   */\n      tag_62\n      jump\t// in\n    tag_100:\n        /* \"#utility.yul\":4753:4758   */\n      dup2\n        /* \"#utility.yul\":4750:4785   */\n      eq\n        /* \"#utility.yul\":4740:4803   */\n      tag_101\n      jumpi\n        /* \"#utility.yul\":4799:4800   */\n      0x00\n        /* \"#utility.yul\":4796:4797   */\n      dup1\n        /* \"#utility.yul\":4789:4801   */\n      revert\n        /* \"#utility.yul\":4740:4803   */\n    tag_101:\n        /* \"#utility.yul\":4687:4809   */\n      pop\n      jump\t// out\n\n    auxdata: 0xa2646970667358221220dfd178303ecec063b57de81e29c83b9a10572e32cfe40589b1f6f4371540e73f64736f6c63430008070033\n}\n",
				"bytecode": {
					"linkReferences": {},
					"object": "608060405234801561001057600080fd5b5060646000803373ffffffffffffffffffffffffffffffffffffffff1673ffffffffffffffffffffffffffffffffffffffff1681526020019081526020016000208190555061056d806100646000396000f3fe608060405234801561001057600080fd5b50600436106100365760003560e01c8063412664ae1461003b578063eedc966a1461006b575b600080fd5b610055600480360381019061005091906102c3565b61009b565b6040516100629190610344565b60405180910390f35b61008560048036038101906100809190610296565b610254565b604051610092919061037f565b60405180910390f35b6000816000803373ffffffffffffffffffffffffffffffffffffffff1673ffffffffffffffffffffffffffffffffffffffff16815260200190815260200160002054101561011e576040517f08c379a00000000000000000000000000000000000000000000000000000000081526004016101159061035f565b60405180910390fd5b6000808473ffffffffffffffffffffffffffffffffffffffff1673ffffffffffffffffffffffffffffffffffffffff16815260200190815260200160002054826000808673ffffffffffffffffffffffffffffffffffffffff1673ffffffffffffffffffffffffffffffffffffffff168152602001908152602001600020546101a791906103ab565b10156101b6576101b561047d565b5b6000803373ffffffffffffffffffffffffffffffffffffffff1673ffffffffffffffffffffffffffffffffffffffff16815260200190815260200160002054826000803373ffffffffffffffffffffffffffffffffffffffff1673ffffffffffffffffffffffffffffffffffffffff1681526020019081526020016000205461023f9190610401565b111561024e5761024d61047d565b5b92915050565b60006020528060005260406000206000915090505481565b60008135905061027b81610509565b92915050565b60008135905061029081610520565b92915050565b6000602082840312156102ac576102ab6104db565b5b60006102ba8482850161026c565b91505092915050565b600080604083850312156102da576102d96104db565b5b60006102e88582860161026c565b92505060206102f985828601610281565b9150509250929050565b61030c81610447565b82525050565b600061031f60108361039a565b915061032a826104e0565b602082019050919050565b61033e81610473565b82525050565b60006020820190506103596000830184610303565b92915050565b6000602082019050818103600083015261037881610312565b9050919050565b60006020820190506103946000830184610335565b92915050565b600082825260208201905092915050565b60006103b682610473565b91506103c183610473565b9250827fffffffffffffffffffffffffffffffffffffffffffffffffffffffffffffffff038211156103f6576103f56104ac565b5b828201905092915050565b600061040c82610473565b915061041783610473565b92508282101561042a576104296104ac565b5b828203905092915050565b600061044082610453565b9050919050565b60008115159050919050565b600073ffffffffffffffffffffffffffffffffffffffff82169050919050565b6000819050919050565b7f4e487b7100000000000000000000000000000000000000000000000000000000600052600160045260246000fd5b7f4e487b7100000000000000000000000000000000000000000000000000000000600052601160045260246000fd5b600080fd5b7f4e6f7420656e6f756768206d6f6e657900000000000000000000000000000000600082015250565b61051281610435565b811461051d57600080fd5b50565b61052981610473565b811461053457600080fd5b5056fea2646970667358221220dfd178303ecec063b57de81e29c83b9a10572e32cfe40589b1f6f4371540e73f64736f6c63430008070033",
					"opcodes": "PUSH1 0x80 PUSH1 0x40 MSTORE CALLVALUE DUP1 ISZERO PUSH2 0x10 JUMPI PUSH1 0x0 DUP1 REVERT JUMPDEST POP PUSH1 0x64 PUSH1 0x0 DUP1 CALLER PUSH20 0xFFFFFFFFFFFFFFFFFFFFFFFFFFFFFFFFFFFFFFFF AND PUSH20 0xFFFFFFFFFFFFFFFFFFFFFFFFFFFFFFFFFFFFFFFF AND DUP2 MSTORE PUSH1 0x20 ADD SWAP1 DUP2 MSTORE PUSH1 0x20 ADD PUSH1 0x0 KECCAK256 DUP2 SWAP1 SSTORE POP PUSH2 0x56D DUP1 PUSH2 0x64 PUSH1 0x0 CODECOPY PUSH1 0x0 RETURN INVALID PUSH1 0x80 PUSH1 0x40 MSTORE CALLVALUE DUP1 ISZERO PUSH2 0x10 JUMPI PUSH1 0x0 DUP1 REVERT JUMPDEST POP PUSH1 0x4 CALLDATASIZE LT PUSH2 0x36 JUMPI PUSH1 0x0 CALLDATALOAD PUSH1 0xE0 SHR DUP1 PUSH4 0x412664AE EQ PUSH2 0x3B JUMPI DUP1 PUSH4 0xEEDC966A EQ PUSH2 0x6B JUMPI JUMPDEST PUSH1 0x0 DUP1 REVERT JUMPDEST PUSH2 0x55 PUSH1 0x4 DUP1 CALLDATASIZE SUB DUP2 ADD SWAP1 PUSH2 0x50 SWAP2 SWAP1 PUSH2 0x2C3 JUMP JUMPDEST PUSH2 0x9B JUMP JUMPDEST PUSH1 0x40 MLOAD PUSH2 0x62 SWAP2 SWAP1 PUSH2 0x344 JUMP JUMPDEST PUSH1 0x40 MLOAD DUP1 SWAP2 SUB SWAP1 RETURN JUMPDEST PUSH2 0x85 PUSH1 0x4 DUP1 CALLDATASIZE SUB DUP2 ADD SWAP1 PUSH2 0x80 SWAP2 SWAP1 PUSH2 0x296 JUMP JUMPDEST PUSH2 0x254 JUMP JUMPDEST PUSH1 0x40 MLOAD PUSH2 0x92 SWAP2 SWAP1 PUSH2 0x37F JUMP JUMPDEST PUSH1 0x40 MLOAD DUP1 SWAP2 SUB SWAP1 RETURN JUMPDEST PUSH1 0x0 DUP2 PUSH1 0x0 DUP1 CALLER PUSH20 0xFFFFFFFFFFFFFFFFFFFFFFFFFFFFFFFFFFFFFFFF AND PUSH20 0xFFFFFFFFFFFFFFFFFFFFFFFFFFFFFFFFFFFFFFFF AND DUP2 MSTORE PUSH1 0x20 ADD SWAP1 DUP2 MSTORE PUSH1 0x20 ADD PUSH1 0x0 KECCAK256 SLOAD LT ISZERO PUSH2 0x11E JUMPI PUSH1 0x40 MLOAD PUSH32 0x8C379A000000000000000000000000000000000000000000000000000000000 DUP2 MSTORE PUSH1 0x4 ADD PUSH2 0x115 SWAP1 PUSH2 0x35F JUMP JUMPDEST PUSH1 0x40 MLOAD DUP1 SWAP2 SUB SWAP1 REVERT JUMPDEST PUSH1 0x0 DUP1 DUP5 PUSH20 0xFFFFFFFFFFFFFFFFFFFFFFFFFFFFFFFFFFFFFFFF AND PUSH20 0xFFFFFFFFFFFFFFFFFFFFFFFFFFFFFFFFFFFFFFFF AND DUP2 MSTORE PUSH1 0x20 ADD SWAP1 DUP2 MSTORE PUSH1 0x20 ADD PUSH1 0x0 KECCAK256 SLOAD DUP3 PUSH1 0x0 DUP1 DUP7 PUSH20 0xFFFFFFFFFFFFFFFFFFFFFFFFFFFFFFFFFFFFFFFF AND PUSH20 0xFFFFFFFFFFFFFFFFFFFFFFFFFFFFFFFFFFFFFFFF AND DUP2 MSTORE PUSH1 0x20 ADD SWAP1 DUP2 MSTORE PUSH1 0x20 ADD PUSH1 0x0 KECCAK256 SLOAD PUSH2 0x1A7 SWAP2 SWAP1 PUSH2 0x3AB JUMP JUMPDEST LT ISZERO PUSH2 0x1B6 JUMPI PUSH2 0x1B5 PUSH2 0x47D JUMP JUMPDEST JUMPDEST PUSH1 0x0 DUP1 CALLER PUSH20 0xFFFFFFFFFFFFFFFFFFFFFFFFFFFFFFFFFFFFFFFF AND PUSH20 0xFFFFFFFFFFFFFFFFFFFFFFFFFFFFFFFFFFFFFFFF AND DUP2 MSTORE PUSH1 0x20 ADD SWAP1 DUP2 MSTORE PUSH1 0x20 ADD PUSH1 0x0 KECCAK256 SLOAD DUP3 PUSH1 0x0 DUP1 CALLER PUSH20 0xFFFFFFFFFFFFFFFFFFFFFFFFFFFFFFFFFFFFFFFF AND PUSH20 0xFFFFFFFFFFFFFFFFFFFFFFFFFFFFFFFFFFFFFFFF AND DUP2 MSTORE PUSH1 0x20 ADD SWAP1 DUP2 MSTORE PUSH1 0x20 ADD PUSH1 0x0 KECCAK256 SLOAD PUSH2 0x23F SWAP2 SWAP1 PUSH2 0x401 JUMP JUMPDEST GT ISZERO PUSH2 0x24E JUMPI PUSH2 0x24D PUSH2 0x47D JUMP JUMPDEST JUMPDEST SWAP3 SWAP2 POP POP JUMP JUMPDEST PUSH1 0x0 PUSH1 0x20 MSTORE DUP1 PUSH1 0x0 MSTORE PUSH1 0x40 PUSH1 0x0 KECCAK256 PUSH1 0x0 SWAP2 POP SWAP1 POP SLOAD DUP2 JUMP JUMPDEST PUSH1 0x0 DUP2 CALLDATALOAD SWAP1 POP PUSH2 0x27B DUP2 PUSH2 0x509 JUMP JUMPDEST SWAP3 SWAP2 POP POP JUMP JUMPDEST PUSH1 0x0 DUP2 CALLDATALOAD SWAP1 POP PUSH2 0x290 DUP2 PUSH2 0x520 JUMP JUMPDEST SWAP3 SWAP2 POP POP JUMP JUMPDEST PUSH1 0x0 PUSH1 0x20 DUP3 DUP5 SUB SLT ISZERO PUSH2 0x2AC JUMPI PUSH2 0x2AB PUSH2 0x4DB JUMP JUMPDEST JUMPDEST PUSH1 0x0 PUSH2 0x2BA DUP5 DUP3 DUP6 ADD PUSH2 0x26C JUMP JUMPDEST SWAP2 POP POP SWAP3 SWAP2 POP POP JUMP JUMPDEST PUSH1 0x0 DUP1 PUSH1 0x40 DUP4 DUP6 SUB SLT ISZERO PUSH2 0x2DA JUMPI PUSH2 0x2D9 PUSH2 0x4DB JUMP JUMPDEST JUMPDEST PUSH1 0x0 PUSH2 0x2E8 DUP6 DUP3 DUP7 ADD PUSH2 0x26C JUMP JUMPDEST SWAP3 POP POP PUSH1 0x20 PUSH2 0x2F9 DUP6 DUP3 DUP7 ADD PUSH2 0x281 JUMP JUMPDEST SWAP2 POP POP SWAP3 POP SWAP3 SWAP1 POP JUMP JUMPDEST PUSH2 0x30C DUP2 PUSH2 0x447 JUMP JUMPDEST DUP3 MSTORE POP POP JUMP JUMPDEST PUSH1 0x0 PUSH2 0x31F PUSH1 0x10 DUP4 PUSH2 0x39A JUMP JUMPDEST SWAP2 POP PUSH2 0x32A DUP3 PUSH2 0x4E0 JUMP JUMPDEST PUSH1 0x20 DUP3 ADD SWAP1 POP SWAP2 SWAP1 POP JUMP JUMPDEST PUSH2 0x33E DUP2 PUSH2 0x473 JUMP JUMPDEST DUP3 MSTORE POP POP JUMP JUMPDEST PUSH1 0x0 PUSH1 0x20 DUP3 ADD SWAP1 POP PUSH2 0x359 PUSH1 0x0 DUP4 ADD DUP5 PUSH2 0x303 JUMP JUMPDEST SWAP3 SWAP2 POP POP JUMP JUMPDEST PUSH1 0x0 PUSH1 0x20 DUP3 ADD SWAP1 POP DUP2 DUP2 SUB PUSH1 0x0 DUP4 ADD MSTORE PUSH2 0x378 DUP2 PUSH2 0x312 JUMP JUMPDEST SWAP1 POP SWAP2 SWAP1 POP JUMP JUMPDEST PUSH1 0x0 PUSH1 0x20 DUP3 ADD SWAP1 POP PUSH2 0x394 PUSH1 0x0 DUP4 ADD DUP5 PUSH2 0x335 JUMP JUMPDEST SWAP3 SWAP2 POP POP JUMP JUMPDEST PUSH1 0x0 DUP3 DUP3 MSTORE PUSH1 0x20 DUP3 ADD SWAP1 POP SWAP3 SWAP2 POP POP JUMP JUMPDEST PUSH1 0x0 PUSH2 0x3B6 DUP3 PUSH2 0x473 JUMP JUMPDEST SWAP2 POP PUSH2 0x3C1 DUP4 PUSH2 0x473 JUMP JUMPDEST SWAP3 POP DUP3 PUSH32 0xFFFFFFFFFFFFFFFFFFFFFFFFFFFFFFFFFFFFFFFFFFFFFFFFFFFFFFFFFFFFFFFF SUB DUP3 GT ISZERO PUSH2 0x3F6 JUMPI PUSH2 0x3F5 PUSH2 0x4AC JUMP JUMPDEST JUMPDEST DUP3 DUP3 ADD SWAP1 POP SWAP3 SWAP2 POP POP JUMP JUMPDEST PUSH1 0x0 PUSH2 0x40C DUP3 PUSH2 0x473 JUMP JUMPDEST SWAP2 POP PUSH2 0x417 DUP4 PUSH2 0x473 JUMP JUMPDEST SWAP3 POP DUP3 DUP3 LT ISZERO PUSH2 0x42A JUMPI PUSH2 0x429 PUSH2 0x4AC JUMP JUMPDEST JUMPDEST DUP3 DUP3 SUB SWAP1 POP SWAP3 SWAP2 POP POP JUMP JUMPDEST PUSH1 0x0 PUSH2 0x440 DUP3 PUSH2 0x453 JUMP JUMPDEST SWAP1 POP SWAP2 SWAP1 POP JUMP JUMPDEST PUSH1 0x0 DUP2 ISZERO ISZERO SWAP1 POP SWAP2 SWAP1 POP JUMP JUMPDEST PUSH1 0x0 PUSH20 0xFFFFFFFFFFFFFFFFFFFFFFFFFFFFFFFFFFFFFFFF DUP3 AND SWAP1 POP SWAP2 SWAP1 POP JUMP JUMPDEST PUSH1 0x0 DUP2 SWAP1 POP SWAP2 SWAP1 POP JUMP JUMPDEST PUSH32 0x4E487B7100000000000000000000000000000000000000000000000000000000 PUSH1 0x0 MSTORE PUSH1 0x1 PUSH1 0x4 MSTORE PUSH1 0x24 PUSH1 0x0 REVERT JUMPDEST PUSH32 0x4E487B7100000000000000000000000000000000000000000000000000000000 PUSH1 0x0 MSTORE PUSH1 0x11 PUSH1 0x4 MSTORE PUSH1 0x24 PUSH1 0x0 REVERT JUMPDEST PUSH1 0x0 DUP1 REVERT JUMPDEST PUSH32 0x4E6F7420656E6F756768206D6F6E657900000000000000000000000000000000 PUSH1 0x0 DUP3 ADD MSTORE POP JUMP JUMPDEST PUSH2 0x512 DUP2 PUSH2 0x435 JUMP JUMPDEST DUP2 EQ PUSH2 0x51D JUMPI PUSH1 0x0 DUP1 REVERT JUMPDEST POP JUMP JUMPDEST PUSH2 0x529 DUP2 PUSH2 0x473 JUMP JUMPDEST DUP2 EQ PUSH2 0x534 JUMPI PUSH1 0x0 DUP1 REVERT JUMPDEST POP JUMP INVALID LOG2 PUSH5 0x6970667358 0x22 SLT KECCAK256 0xDF 0xD1 PUSH25 0x303ECEC063B57DE81E29C83B9A10572E32CFE40589B1F6F437 ISZERO BLOCKHASH 0xE7 EXTCODEHASH PUSH5 0x736F6C6343 STOP ADDMOD SMOD STOP CALLER "
				},
				"gasEstimates": {
					"creation": {
						"codeDepositCost": "277800",
						"executionCost": "22521",
						"totalCost": "300321"
					},
					"external": {
						"sendToken(address,uint256)": "infinite",
						"tokenBalance(address)": "2814"
					}
				},
				"methodIdentifiers": {
					"sendToken(address,uint256)": "412664ae",
					"tokenBalance(address)": "eedc966a"
				}
			},
			"storageLayout": {
				"storage": [
					{
						"astId": 5,
						"contract": "Event.sol:Event",
						"label": "tokenBalance",
						"offset": 0,
						"slot": "0",
						"type": "t_mapping(t_address,t_uint256)"
					}
				],
				"types": {
					"t_address": {
						"encoding": "inplace",
						"label": "address",
						"numberOfBytes": "20"
					},
					"t_mapping(t_address,t_uint256)": {
						"encoding": "mapping",
						"key": "t_address",
						"label": "mapping(address => uint256)",
						"numberOfBytes": "32",
						"value": "t_uint256"
					},
					"t_uint256": {
						"encoding": "inplace",
						"label": "uint256",
						"numberOfBytes": "32"
					}
				}
			},
			"userdoc": {
				"kind": "user",
				"methods": {},
				"version": 1
			}
		}
	}
}